:020000040800F2
:10000000A8060020D1200008650400086704000845
:100010006B0400086F04000873040008000000006F
:10002000000000000000000000000000770400084D
:1000300079040008000000007B0400087D0400082B
:10004000EB200008EB200008EB200008EB20000864
:10005000EB200008EB200008EB200008EB20000854
:10006000EB200008EB200008EB200008EB20000844
:10007000EB200008EB200008EB200008EB20000834
:10008000EB200008EB200008EB200008EB20000824
:10009000EB200008EB200008EB200008EB20000814
:1000A000EB200008EB200008EB200008EB20000804
:1000B000EB200008EF2E0008EB200008EB200008E2
:1000C000EB200008EB200008EB200008EB200008E4
:1000D000EB200008EB200008EB200008EB200008D4
:1000E000EB200008EB200008EB200008EB200008C4
:1000F000EB200008EB200008EB200008EB200008B4
:10010000EB200008EB200008EB200008EB200008A3
:10011000EB200008EB200008EB200008EB20000893
:10012000EB200008EB200008EB200008EB20000883
:1001300000F002F800F03AF80AA090E8000C8244BF
:100140008344AAF10107DA4501D100F02FF8AFF29C
:10015000090EBAE80F0013F0010F18BFFB1A43F0A5
:1001600001031847DC620000FC620000103A24BF63
:1001700078C878C1FAD8520724BF30C830C144BF0C
:1001800004680C607047000000230024002500264E
:10019000103A28BF78C1FBD8520728BF30C148BFEA
:1001A0000B6070471FB51FBD10B510BD03F08DF873
:1001B0001146FFF7F7FF00F017F803F0ABF803B4B0
:1001C000FFF7F2FF03BC03F0B3F8000010B50246DE
:1001D0000023002402E01344601CC4B28C42FADB0A
:1001E000B3FBF1F080B210BD9CB0002701F090FF8E
:1001F00000F045F94FF4A06000F056F9642142F296
:10020000273002F08CFE4FF448718A4801F02CFE32
:10021000642141F6613002F0C3FE4FF44871864814
:1002200001F020FE642141F2797002F00BFD4FF4E1
:100230004871480601F016FE642141F2797002F01F
:100240004EFD4FF448717D4801F00CFE642141F2EF
:10025000797002F090FD4FF44871794801F004FE86
:10026000642141F2797002F0CDFD4FF44871754878
:1002700001F0F8FD02F096FF01F0EAFF4FF4FA708A
:1002800002F0C2FC02F0AEF86FA20421202002F0BE
:10029000D8F84CF2503002F0B7FC4CF2503002F07B
:1002A000B3FC02F09FF8C3E06421022002F0E7FFF4
:1002B00016906421032002F0E2FF179064210420CD
:1002C00002F0DDFF18906421052002F0D8FF19909C
:1002D0006421062002F0D3FF1A906421072002F067
:1002E000CEFF1B906421082002F0C9FF109064210A
:1002F000092002F0C4FF119064210A2002F0BFFF20
:10030000129064210B2002F0BAFF139064210C209C
:1003100002F0B5FF149064210D2002F0B0FF15909B
:10032000002446E016A931F8241088B26421FFF7B2
:100330004DFF4A4921F8140010A931F8241088B261
:100340006421FFF743FF464921F81400434830F881
:1003500014000AA951F8241088420AD0012002A9E9
:100360000855022C08D101221146324801F0FDFA4D
:1003700002E0002002A90855394830F8140004A909
:1003800051F82410884203D001200DF8040002E047
:1003900000200DF80400314830F814000AA941F893
:1003A00024002F4830F8140004A941F82400601CF0
:1003B000C4B2062CB6DB00BF00252EE002A8405DCB
:1003C000012803D01DF80500012825D1E9B26A1CD7
:1003D000D0B202F0E8FA214B33F815206B06190E63
:1003E0006B1CD8B202F008FB1D4830F815006421E0
:1003F00090FBF1F000F0FF086A06110E6A1CD0B203
:10040000424602F08DFB154B33F81520144B33F8A0
:100410001510E8B202F00AFE6D1C062DCEDB002698
:1004200000E0761C0A2EFCDB7F1C082F00DB002777
:100430003AE7000000040040002C014000080040A2
:10044000000C004000340140B1AABAEACAB5D2B5E6
:10045000D3D0CFDEB9ABCBBE000000003800002007
:100460002C000020704700BFFEE700BFFEE700BF82
:10047000FEE700BFFEE7704770477047704708B55A
:100480004FF4A06000F010F81D208DF8000001204E
:100490008DF8010000208DF8020001208DF8030086
:1004A000684600F006F808BD31490143314A116041
:1004B000704770B5002100230F22C47804B32D4C7F
:1004C000246804F4E064C4F5E064210AC1F1040383
:1004D000CA40447804FA03F18478144021430901A6
:1004E000254C0678A155047804F01F050124AC4082
:1004F00005786D11AD0005F1E025C5F8004109E072
:10050000047804F01F050124AC401C4D06787611D8
:1005100045F8264070BD1A4A0A400243154B1B1F7E
:100520001A60704739B1134A121D12680243114B09
:100530001B1D1A6006E00F4A121D126882430D4B04
:100540001B1D1A607047042808D14FF0E02109698B
:1005500041F004014FF0E022116107E04FF0E0218B
:10056000096921F004014FF0E02211617047000099
:100570000000FA050CED00E000E400E080E100E09E
:1005800080FFFF1F10B50446FA48844208D10121BC
:10059000401500F055FD0021601500F051FD17E0F9
:1005A000F548844208D10121001500F049FD0021E1
:1005B000201500F045FD0BE0F048844208D10121F0
:1005C000C80300F03DFD00214FF4004000F038FD6D
:1005D00010BD30B50246002000235068E84C204092
:1005E0000D790C6844EA0524204350609068E54C7E
:1005F0002040D1E902542C434D7944EA450420437C
:100600009060D06A20F470000C7C641EE4B2234336
:1006100040EA0350D06230BD002101600171417198
:100620008160C16001210174704721B1826842F08C
:100630000102826003E0826822F00102826070475A
:1006400021B1826842F48072826003E0826822F401
:1006500080728260704710B50023CBB21AB1446833
:100660001C43446002E044689C43446010BD8168C0
:1006700041F0080181607047014600208A6802F05D
:1006800008020AB1012000E000207047816841F0B3
:10069000040181607047014600208A6802F004026C
:1006A0000AB1012000E00020704721B1826842F4C5
:1006B000A002826003E0826822F4A0028260704798
:1006C000014600208A6802F480020AB1012000E09D
:1006D0000020704710B50A4600210023416821F42C
:1006E0006041531E41EA4331416010BD21B142686F
:1006F00042F40062426003E0426822F40062426019
:100700007047F0B504460D4600200021092D11DD8B
:10071000E068A5F10A0606EB4607072606FA07F188
:100720008843A5F10A0606EB460603FA06F10843DC
:10073000E0600CE0206905EB4507072606FA07F1A3
:10074000884305EB450603FA06F108432061072AB2
:100750000FDA606B561E06EB86071F2606FA07F1B6
:100760008843561E06EB860605FA06F108436063C9
:1007700022E00D2A0FDA206BD61F06EB86071F2614
:1007800006FA07F18843D61F06EB860605FA06F13E
:100790000843206310E0E06AA2F10D0606EB86072D
:1007A0001F2606FA07F18843A2F10D0606EB86061E
:1007B00005FA06F10843E062F0BD21B1826842F417
:1007C0008012826003E0826822F4801282607047A7
:1007D0000146C86C80B2704766484C30006870476C
:1007E00021B1426842F48062426003E0426822F430
:1007F00080624260704721B1426842F48052426098
:1008000003E0426822F48052426070470A460021A9
:10081000816821F4E04111438160704721B1826811
:1008200042F40042826003E0826822F40042826067
:10083000704721B1826842F40212826003E082684C
:1008400022F4021282607047014600208A6802F496
:1008500000120AB1012000E000207047F0B5044604
:100860001546002000220026092911DDE068A1F1CB
:100870000A0707EB470C072707FA0CF29043A1F190
:100880000A0707EB470703FA07F21043E0600CE0A2
:10089000206901EB410C072707FA0CF2904301EBAA
:1008A000410703FA07F210432061A06BC0F3015621
:1008B000EF1C06F1010CA7EB0C0707EB870C1F27B9
:1008C00007FA0CF29043EF1C06F1010CA7EB0C07A2
:1008D00007EB870701FA07F21043A063F0BD10B5DC
:1008E0000A4600210023816B21F44011531E41EA86
:1008F0000351816310BD08B5002300930090009B55
:100900000B440093009B1A6008BD08B50246002006
:100910000090009201F12800009B1844009000987C
:10092000006880B208BD0A4600214168164B194094
:100930001143416070474162826270470A4600215C
:10094000416821F01F0111434160704740B10949DE
:100950000831096841F40001064A0832116007E0D5
:1009600004490831096821F40001024A0832116083
:10097000704700000024014000280140003C014075
:10098000FFFEF0FFFDF7F1FFFFFD3FFF02460020F5
:1009900013680B400BB1012000E000207047CA43F0
:1009A0000260704770B502460020002300240B123D
:1009B0005568CEB205EA060415681D4015B10CB1A4
:1009C000012000E0002070BD00220A12D343036022
:1009D0007047000010B50446CC48844208D101217C
:1009E000042000F02DFB0021042000F029FB46E04C
:1009F000C748844208D10121082000F021FB0021D2
:100A0000082000F01DFB3AE0C248844208D10121D1
:100A1000102000F015FB0021102000F011FB2EE04B
:100A2000BD48844208D10121202000F009FB0021AB
:100A3000202000F005FB22E0B848844208D10121C3
:100A4000402000F0FDFA0021402000F0F9FA16E005
:100A5000B348844208D10121802000F0F1FA00213E
:100A6000802000F0EDFA0AE0AE48844207D101216F
:100A7000801500F0E5FA0021A01500F0E1FA10BDA4
:100A800010B50121084600F0DBFA0021012000F03A
:100A9000D7FA10BD2DE9F0410246002500260020BE
:100AA00000230024002791F803C00CF00F0591F8F3
:100AB00003C00CF0100CBCF1000F03D091F802C081
:100AC0004CEA050591F800C0BCF1000F31D0146864
:100AD00000202BE04FF0010C0CFA00F3B1F800C03D
:100AE0000CEA03069E4220D183004FF00F0C0CFA53
:100AF00003F7BC4305FA03FC4CEA040491F803C075
:100B0000BCF1280F06D14FF0010C0CFA00FCC2F822
:100B100014C00AE091F803C0BCF1480F05D14FF0B2
:100B2000010C0CFA00FCC2F810C0401C0828D1D3FC
:100B30001460B1F800C0BCF1FF0F34DD5468002030
:100B40002EE000F1080C4FF0010808FA0CF3B1F8A0
:100B500000C00CEA03069E4221D183004FF00F0C27
:100B60000CFA03F7BC4305FA03FC4CEA040491F8C1
:100B700003C0BCF1280F05D100F1080C08FA0CF8ED
:100B8000C2F8148091F803C0BCF1480F07D100F1FE
:100B9000080C4FF0010808FA0CF8C2F81080401C4D
:100BA0000828CED35460BDE8F0814FF6FF71018074
:100BB000022181700421C1707047024600209368B1
:100BC0000B400BB1012000E000207047014688680F
:100BD00080B2704702460020D3680B400BB1012061
:100BE00000E0002070470146C86880B2704701618C
:100BF0007047416170470AB1016100E0416170478F
:100C0000C16070474FF480320A4382618161826122
:100C100082698269704702460020434B18684FF68C
:100C20008073184040EA021008433F4B1860704739
:100C30003E49C8617047F0B50A46002300240021F0
:100C4000002500F00046B6F1004F02D1364EF169A2
:100C500001E0354E7168C0F3034583B200F44016DD
:100C6000B6F5401F08D121F070612F4E766826F04E
:100C700070662D4F7E6012E000F48016B6F5801F7E
:100C800006D1032606FA05F4A14341F0706106E09F
:100C9000460D360103FA06F6B14341F0706122B108
:100CA000460D360103FA06F6314300F00046B6F170
:100CB000004F02D11C4EF16101E01B4E7160F0BD8E
:100CC00030B500228B071C0F0F2303FA04F2164BDA
:100CD00008338C1053F824309343134C08348D1090
:100CE00044F8253023468C1053F824308C07240F09
:100CF00000FA04F423430C4C08348D1044F82530DA
:100D000030BD0A49DC31086070470000000801402E
:100D1000000C014000100140001401400018014087
:100D2000001C014000200140000001400000204262
:100D3000DF48006840F00100DD490860084640686F
:100D4000DC490840DA49486008460068DA4908404A
:100D5000D74908600846006820F4802008600846EB
:100D6000406820F4FE0048604FF41F008860704720
:100D7000CF49096821F48031CD4A116011460968D4
:100D800021F480211160B0F5803F03D0B0F5802FB1
:100D90000ED106E0C649096841F48031C44A1160A9
:100DA00007E0C349096841F4A021C14A116000E08D
:100DB00000BF00BF704710B501460022002300208D
:100DC0004A11012A02D1BA4C236806E0022A02D154
:100DD000B74C236A01E0B64C636A01F01F0201249C
:100DE00094401C400CB1012000E0002010BD38B53B
:100DF000002000900024002500BF3120FFF7DBFF1A
:100E000005460098401C00900098B0F5A06F01D0F6
:100E1000002DF2D03120FFF7CEFF08B1012400E011
:100E20000024204638BD01460020A14A106820F069
:100E3000F80040EAC10010607047A04908607047A0
:100E4000024600209A4B586820F47C1042EA0103C5
:100E50001843974B58607047984908667047014699
:100E60000020934A506820F0030008435060704708
:100E70008F48406800F00C007047014600208C4A03
:100E8000506820F0F0000843506070470146002091
:100E9000874A506820F4E06008435060704701467C
:100EA0000020834A506820F4605040EAC10050603E
:100EB000704729B17E4A527A02437D4B5A7204E050
:100EC0007B4A527A82437A4B5A7270477B49D831B7
:100ED0000860704701460020754A506820F4404081
:100EE0000843506070470021714A20321170704AE7
:100EF00082F82010012802D004280AD104E0012140
:100F00006B4A2032117005E00521694A20321170C8
:100F100000E000BF00BF704769490860704764493E
:100F2000096A0143624A11627047654944390860A1
:100F3000704730B500210022002400235C4D6D680D
:100F400005F00C0121B1042905D0082923D105E0C1
:100F50005C4D056022E05B4D05601FE0544D6D68FF
:100F600005F47012524D6D6805F48034022505EBCE
:100F700092421CB9544D554305600BE04C4D6D68D1
:100F800005F400351DB1504D5543056002E04D4D4F
:100F90005543056002E04B4D056000BF00BF444D66
:100FA0006D6805F0F0010909484D6B5C0568DD408E
:100FB00045603F4D6D6805F4E061090A434D6B5C87
:100FC0004568DD4085603A4D6D6805F46051C90A99
:100FD0003E4D6B5C4568DD40C560354D6D6805F480
:100FE0004041890B3A4D6B5CC568B5FBF3F5056173
:100FF00030BD29B12E4A526902432D4B5A6104E09B
:101000002B4A526982432A4B5A61704729B1284AB8
:1010100092690243264B9A6104E0254A9269824311
:10102000234B9A61704729B1214AD2690243204B70
:10103000DA6104E01E4AD26982431D4BDA617047CF
:1010400029B11B4AD2680243194BDA6004E0184AFE
:10105000D2688243164BDA60704729B1144A12698C
:101060000243134B1A6104E0114A12698243104B88
:101070001A61704712494039086070470F49C864C7
:1010800070470B49C87170470948406A40F080704A
:1010900007494862704701460020054A92680A40A5
:1010A0000AB1012000E000207047014988727047B2
:1010B000001002400000FFF8FFFFF6FE0000424271
:1010C0008004424200127A0000093D000000002026
:1010D0001000002010B50446FE48844208D10121CA
:1010E000C014FFF7ADFF0021E014FFF7A9FFC4E033
:1010F000B4F1804F08D101210846FFF7AEFF00216F
:101100000120FFF7AAFFB8E0F348844208D101218B
:101110000220FFF7A2FF00210220FFF79EFFACE0B4
:10112000EE48844208D101210420FFF796FF0021F8
:101130000420FFF792FFA0E0E948844208D1012192
:101140000820FFF78AFF00210820FFF786FF94E0C0
:10115000E448844208D101211020FFF77EFF0021DE
:101160001020FFF77AFF88E0DF48844208D1012190
:101170002020FFF772FF00212020FFF76EFF7CE0A8
:10118000DA48844208D101214014FFF759FF0021B9
:101190006014FFF755FF70E0D548844209D1012162
:1011A000C804FFF74DFF00214FF40020FFF748FF70
:1011B00063E0D048844209D101210805FFF740FFD0
:1011C00000214FF48010FFF73BFF56E0CA488442ED
:1011D00009D101214805FFF733FF00214FF400102A
:1011E000FFF72EFF49E0C548844208D10121402085
:1011F000FFF733FF00214020FFF72FFF3DE0C048FD
:10120000844208D101218020FFF727FF00218020A0
:10121000FFF723FF31E0BB48844208D1012180154C
:10122000FFF71BFF0021A015FFF717FF25E0B648C9
:10123000844209D101210804FFF702FF00214FF485
:101240008030FFF7FDFE18E0B048844209D101214B
:101250004804FFF7F5FE00214FF40030FFF7F0FEE1
:101260000BE0AB48844208D101218804FFF7E8FE77
:1012700000214FF48020FFF7E3FE10BD002202881A
:10128000944B98420ED0994B98420BD0B0F1804FBE
:1012900008D0914B984205D0904B984202D0904B89
:1012A000984204D14FF68F731A404B881A438D4BE6
:1012B000984207D08C4B984204D04FF6FF431A4017
:1012C000CB881A4302808B8883850B880385814BEA
:1012D00098420BD0854B984208D08B4B984205D052
:1012E0008A4B984202D08A4B984201D10B7A0386EE
:1012F00001238382704770B5002400220023058CEF
:101300004FF6FE7635400584028C8388048B4FF6B9
:101310008F752C40B51E2C400D882C43751E2A401D
:101320000D892A434D882A436A4DA8420BD06F4D40
:10133000A84208D0744DA84205D0744DA84202D0EE
:10134000734DA84213D14FF6F7752A404D892A43B1
:101350004FF6FB752A408D882A434FF6FF652B40D8
:101360004FF6FF552B408D892B43CD892B4383802E
:101370000483CD888586028470BD70B50024002268
:101380000023058C4FF6EF7635400584028C838868
:10139000048B48F6FF752C404FF6FF452C400D8816
:1013A0004FF6FF7606EA05252C434FF6DF752A40F7
:1013B0000D8906EA05152A434D8806EA05152A43D4
:1013C000444DA84202D0494DA8421DD14FF67F7529
:1013D0002A404D894FF6FF7606EA05152A434FF657
:1013E000BF752A408D8806EA05152A434FF6FF355A
:1013F0002B404FF2FF752B408D8906EA85052B4364
:10140000CD8906EA85052B4383800483CD88058733
:10141000028470BD70B5002400220023058C4FF6B5
:10142000FF6635400584028C8388848B4FF68F7568
:101430002C404FF6FC752C400D882C434FF6FF5581
:101440002A400D894FF6FF7606EA05252A434D8886
:1014500006EA05252A431F4DA84202D0234DA84283
:101460001DD14FF2FF752A404D894FF6FF7606EAEF
:1014700005252A434FF6FF352A408D8806EA0525C3
:101480002A434EF6FF752B404DF6FF752B408D8994
:1014900006EA05152B43CD8906EA05152B43838003
:1014A0008483CD888587028470BD70B500220023B7
:1014B0000024058C4EF6FF7635400584038C848825
:1014C000828B48F6FF752A404FF6FF452A400D886B
:1014D00020E00000002C0140000400400008004013
:1014E000000C004000100040001400400034014097
:1014F000004C0140005001400054014000180040E1
:10150000001C004000200040004001400044014019
:10151000004801404FF6FF7606EA05252A434DF6BE
:10152000FF752B400D8906EA05352B434D8806EAE9
:1015300005352B43FA4DA84202D0FA4DA84208D1F6
:101540004BF6FF752C408D894FF6FF7606EA851520
:101550002C4384808283CD88A0F84050038470BDE2
:10156000828B4FF2FF331A408283828B4FF6FF73D8
:1015700003EA01231A4382837047F0B50C461546EF
:10158000002200210026078C4EF6FF7C07EA0C079C
:101590000784828B018C4FF6FF7707EA043640F60A
:1015A000FF473A404FF6FF7707EA05273A434FF6E1
:1015B000FF7707EA03373A43D94FB8420ED0D94FE5
:1015C000B8420BD0B0F1804F08D0D74FB84205D009
:1015D000D64FB84202D0D64FB84206D14DF6FF776B
:1015E000394046F48057394305E047F6FF57394004
:1015F00044F48057394382830184F0BD828B4FF6D7
:10160000F3731A408283828B0A4382837047F0B55A
:101610000C461546002200210026078C4FF6FF6C71
:1016200007EA0C070784828B018C4FF6FF7707EAE5
:1016300004264FF60C773A404FF6FF7707EA031778
:101640002F433A43B64FB8420ED0B64FB8420BD0F4
:10165000B0F1804F08D0B44FB84205D0B34FB84274
:1016600002D0B34FB84206D14FF6FF57394046F487
:101670008077394305E04FF2FF57394044F48077D3
:10168000394382830184F0BD028B4FF2FF331A404D
:101690000283028B4FF6FF7303EA01231A4302838E
:1016A0007047F0B50C461546002200210026078C35
:1016B0004FF6EF7C07EA0C070784028B018C4FF68C
:1016C000FF7707EA041640F6FF473A404FF6FF77E8
:1016D00007EA03373A434FF6FF7707EA05273A430D
:1016E0008F4FB8420ED08F4FB8420BD0B0F1804F21
:1016F00008D08D4FB84205D08C4FB84202D08C4FE5
:10170000B84206D14FF6DF77394046F0100739432B
:1017100005E04FF65F77394044F010073943028304
:101720000184F0BD028B4FF6F3731A400283028BE3
:101730000A4302837047F0B50C461546002200218B
:10174000068C4FF6FE773E400684028B018C4FF6E6
:101750000C7632407E1C06EA03162E433243704E4E
:10176000B0420ED06F4EB0420BD0B0F1804F08D0D7
:101770006D4EB04205D06D4EB04202D06C4EB042BC
:1017800006D14FF6FD76314044F00106314305E0C5
:101790004FF6F576314044F001063143028301846F
:1017A000F0BD70B505460C465D4885420ED05D48DB
:1017B00085420BD0B5F1804F08D05B48854205D0FB
:1017C0005A48854202D05A48854200D100E000BF05
:1017D000208850B92389A28861882846FFF7ABFF8B
:1017E000E1882846FFF79EFF25E0208804280AD1DB
:1017F0002389A28861882846FFF753FFE18828469D
:10180000FFF742FF17E0208808280AD12389A28821
:1018100061882846FFF7FBFEE1882846FFF7EEFEC9
:1018200009E02389A28861882846FFF7A6FEE1889F
:101830002846FFF795FE70BD2DE9F04105460C46A0
:1018400000260127608808B9022600E00026A0884B
:10185000012801D1022700E001272088A0B92389AF
:10186000A28861882846FFF766FFE1882846FFF7CF
:1018700059FF23893A4631462846FFF712FFE1888F
:101880002846FFF701FF13E02389A28861882846D4
:10189000FFF707FFE1882846FFF7F6FE23893A465F
:1018A00031462846FFF747FFE1882846FFF73AFF11
:1018B000BDE8F0810A884B881A438B881A43CB888D
:1018C0001A430B891A434B891A438B891A43A0F890
:1018D000442070474FF6FF71818000210180C18054
:1018E0004180017270470021018041808180C18068
:1018F000018141818181C181704700210180418046
:10190000012181800021C180018170470021018077
:1019100041808180C18001814181818170470000C7
:10192000002C014000340140000400400008004049
:10193000000C004021B1028842F00102028004E064
:1019400002884FF6FE731A400280704731B1B0F83A
:10195000442042F40042A0F8442005E0B0F84420BE
:10196000C2F30E02A0F8442070471AB183890B43DA
:10197000838102E083898B43838170478182704732
:1019800041EA0203A0F8483070471AB183890B433B
:10199000838102E083898B438381704701894FF6FD
:1019A000F8721140018170470A46002101894FF603
:1019B0008F73194011430181704730B504460D46BD
:1019C00029462046FFF7F0FF208940F007002081DC
:1019D00030BD2DE9F04104460D4616461F46602DE8
:1019E00006D13B46012231462046FFF75AFE05E06C
:1019F0003B46012231462046FFF79DFE2946204600
:101A0000FFF7D2FF208940F007002081BDE8F08178
:101A100030B50C4600210189C9B24FF6FF7505EAC1
:101A20000325154325432943018130BD2DE9F041AC
:101A300005460E4617469846002443463A46314628
:101A40002846FFF7E5FF2C894FF6F870044044F074
:101A500007044FF68F70044044F070042C81BDE8F9
:101A6000F081F0B504460D4616461F463B46324609
:101A700029462046FFF7CCFF208940F48040208192
:101A8000F0BD0185828270470A46002101884FF629
:101A90008F731940114301807047F0B50C4615460D
:101AA0001E460021002200230189028B038C4FF681
:101AB000F877394021434FF6FC473A4040F201178E
:101AC0003A434FF6DD773B404FF6FF7707EA0617BC
:101AD0002F433B43018102830384F0BD0A4600216A
:101AE000018B4FF68F7319401143018370470A46EB
:101AF0000021018B48F6FF7319404FF6FF7303EA8C
:101B000002231943018370470A460021818B4FF657
:101B10008F7319401143818370470A460021818BDE
:101B200048F6FF7319404FF6FF7303EA0223194387
:101B30008183704721B1028842F08002028004E074
:101B400002884FF67F731A400280704721B1828865
:101B500042F00402828004E082884FF6FB731A4050
:101B60008280704721B1828842F00802828004E0BE
:101B700082884FF6F7731A408280704721B18288BD
:101B800042F00102828004E082884FF6FE731A4020
:101B9000828070470A460021018B4FF6F773194087
:101BA0001143018370470A460021018B4FF2FF73F6
:101BB00019404FF6FF7303EA02231943018370476C
:101BC0000A460021818B4FF6F77319401143818338
:101BD00070470A460021818B4FF2FF7319404FF680
:101BE000FF7303EA02231943818370470A460021E9
:101BF000018B4FF6FB7319401143018370470A466E
:101C00000021018B4FF6FF3319404FF6FF7303EAB3
:101C100002231943018370470A460021818B4FF646
:101C2000FB7319401143818370470A460021818B61
:101C30004FF6FF3319404FF6FF7303EA02231943AF
:101C4000818370470A460021018B4FF67F7319404C
:101C50001143018370470A460021018BC1F30E0135
:101C60004FF6FF7303EA02231943018370470A46C4
:101C70000021818B4FF67F73194011438183704798
:101C80000A460021818BC1F30E014FF6FF7303EA70
:101C900002231943818370470A460021018C4FF6C5
:101CA000FD7319401143018470470A460021018CDD
:101CB0004FF6F77319401143018470470A4600211B
:101CC000018C4FF6DF7319404FF6FF7303EA0213DE
:101CD0001943018470470A460021018C4FF67F7337
:101CE00019404FF6FF7303EA02131943018470474A
:101CF0000A460021018C4FF6FF5319404FF6FF733F
:101D000003EA02231943018470470A460021018C2B
:101D10004FF2FF7319404FF6FF7303EA0223194392
:101D2000018470470A460021018C4DF6FF7319406B
:101D30004FF6FF7303EA023319430184704730B54D
:101D4000002301248C40A3B2048C9C430484048CA3
:101D500002FA01F5ADB22C43048430BD30B5002346
:101D600004248C40A3B2048C9C430484048C02FAA7
:101D700001F5ADB22C43048430BD70B5034600209C
:101D800000241846183001258D40ACB21D8CA543A7
:101D90001D8409B1082909D100EB6100056825F00F
:101DA000700505600568154305600EE00D1FC5F35D
:101DB0004E052844056825F4E045056005684FF6A2
:101DC000FF7606EA02263543056070BD21B1028820
:101DD00042F00202028004E002884FF6FD731A40CE
:101DE0000280704721B1028842F00402028004E0C0
:101DF00002884FF6FB731A400280704721B1828837
:101E000042F08002828004E082884FF67F731A409D
:101E10008280704702884FF6F7731A40028002886A
:101E20000A430280704782884FF68F731A4082807F
:101E300082880A438280704702894FF6F8731A40FD
:101E4000028102890A430281704702894FF67F733B
:101E50001A40028102890A430281704781847047D7
:101E600081857047818670470187704781877047F9
:101E7000A0F84010704702884FF6FF431A400280D6
:101E800002880A43028070470146888E70470146E7
:101E9000088F70470146888F70470146B1F84000AF
:101EA00070470146888C70470146088D704702468E
:101EB0000020138A0B400BB1012000E00020704786
:101EC000CA430282704730B5024600200023002436
:101ED000158A05EA0103958905EA010413B10CB1DD
:101EE000012000E0002030BDCA430282704700009C
:101EF0000CB50020019000906C48006840F48030E0
:101F00006A49086000BF6948006800F4003000902A
:101F10000198401C0190009818B90198B0F5A06F85
:101F2000F1D16248006800F4003010B10120009047
:101F300001E0002000900098012843D15C4800682F
:101F400040F010005A4908600846006820F003007D
:101F500008600846006840F0020008605348406886
:101F6000524948600846406848600846406840F466
:101F7000806048600846406820F47C10486008464D
:101F8000406840F4E81048600846006840F08070FF
:101F9000086000BF4548006800F000700028F9D0D4
:101FA0004248406820F003004049486008464068C5
:101FB00040F00200486000BF3C48406800F00C0060
:101FC0000828F9D10CBD10B5FFF792FF10BD10B570
:101FD0003648006840F0010034490860084640680F
:101FE0003449084031494860084600683249084091
:101FF0002E4908600846006820F4802008600846E2
:10200000406820F4FE0048604FF41F008860FFF72E
:10201000DAFF4FF000602949086010BD10B50021BB
:1020200000200022214B5B6803F00C0121B1042940
:1020300006D0082928D107E0214B224C236027E055
:102040001F4B204C236023E0184B5B6803F4701097
:10205000164B5B6803F48032022303EB904022B9F5
:10206000194B4343174C23600DE0104B5B6803F49E
:10207000003323B1144B4343124C236003E0104B55
:102080004343104C236003E00D4B0E4C236000BF14
:1020900000BF064B5B68C3F303130C4CE15C094BB8
:1020A0001B68CB40074C236010BD000000100240AD
:1020B000002002400000FFF8FFFFF6FE08ED00E000
:1020C00000127A001400002000093D0018000020D2
:1020D0000948804709480047FEE7FEE7FEE7FEE7BC
:1020E000FEE7FEE7FEE7FEE7FEE7FEE704480549F8
:1020F000054A064B70470000CF1F00083101000859
:10210000A8000020A8060020A8020020A8020020A5
:1021100008B501214820FEF779FF2020ADF8000026
:1021200010208DF8030003208DF802002020ADF868
:10213000000069460C48FEF7ADFC20210A48FEF776
:1021400056FD01212020FEF761FF40F2FF10ADF89F
:10215000000003208DF8020010208DF8030069466E
:102160000248FEF797FC08BD00180140001401402A
:1021700010B54FF4FA6000F047FD10BD70B504468D
:102180001021FC48FEF735FD0121FA48FEF731FD2C
:1021900000251EE0012000F037FD4021F548FEF744
:1021A00028FD04F0800028B14FF48071F148FEF75B
:1021B0001EFD04E04FF48071EE48FEF71AFD012089
:1021C00000F022FD4021EB48FEF711FD6400681C81
:1021D000C5B2082DDEDB1021E648FEF708FD012020
:1021E00000F012FD70BD70B504461021E148FEF705
:1021F00000FD0121DF48FEF7FAFC00251EE001206A
:1022000000F002FD4021DB48FEF7F3FC04F0800003
:1022100028B14FF48071D748FEF7E9FC04E04FF491
:102220008071D448FEF7E5FC012000F0EDFC402170
:10223000D048FEF7DCFC6400681CC5B2082DDEDB6C
:102240001021CC48FEF7D3FC012000F0DDFC70BD6E
:1022500010B50421C748FEF7CCFC642000F0D4FC84
:102260000421C448FEF7C3FC642000F0CDFC3020FC
:10227000FFF784FF9420FFF781FF3120FFF77EFFF7
:10228000D720FFF77BFF9F20FFF7ADFF3220FFF73E
:1022900075FF0020FFF7A7FF0120FFF7A4FF032031
:1022A000FFF7A1FF2020FFF769FF0120FFF79BFF49
:1022B0000320FFF798FF0520FFF795FF0720FFF7A2
:1022C00092FF0920FFF78FFF0B20FFF78CFF0D20F7
:1022D000FFF789FF1020FFF786FF1120FFF783FF2C
:1022E0001320FFF780FF1520FFF77DFF1720FFF772
:1022F0007AFF1920FFF777FF1B20FFF774FF1D20DF
:10230000FFF771FF1F20FFF76EFF3020FFF736FF4A
:102310007520FFF733FF0020FFF765FF1420FFF75C
:1023200062FF1520FFF72AFF0020FFF75CFFFF2068
:10233000FFF759FFBC20FFF721FF0020FFF753FFF5
:10234000A620FFF750FF0C20FFF718FFCA20FFF769
:1023500015FF0020FFF747FF9F20FFF744FF2020D5
:10236000FFF741FFF020FFF709FF1020FFF73BFFC9
:102370008120FFF703FF3820FFF735FF0320FFF729
:1023800032FF2020FFF7FAFE0B20FFF72CFF64201E
:1023900000F045FCAF20FFF7F1FE10BD2DE9F04144
:1023A00005460C4616461F466D1EE41D1520FFF718
:1023B000E5FE2846FFF717FFA919481EFFF713FF90
:1023C0007520FFF7DBFE2046FFF70DFFE119481EE1
:1023D000FFF709FF3020FFF7D1FE5C20FFF7CEFEAC
:1023E000BDE8F08170B511234FF4807200210846DA
:1023F000FFF7D4FF002408E0002503E00020FFF7EA
:10240000F2FE6D1CFF2DF9DD641C112CF4DB70BD98
:102410002DE9F04106460F4610231A013946304691
:10242000FFF7BCFF002408E0002503E0FF20FFF7D2
:10243000DAFE6D1CFF2DF9DD641C102CF4DBBDE809
:10244000F0812DE9F04780468A46164600255CE07B
:1024500000244FF0010910E04748005D715D88429B
:1024600009D14549601C095C681C305C814202D17D
:102470004FEA041905E0A01CC4B23F48005D7E2865
:10248000EADC00BFB8F1FF0F05DD4FF000080AF1EC
:10249000020000F0FF0AB9F1010F1BD00223102245
:1024A00051464046FFF77AFF00270EE0002408E07F
:1024B000324911F80900FFF796FE09F10109601C85
:1024C000C4B2102CF4DB781CC7B2022FEEDBA81CC0
:1024D000C5B216E00223102251464046FFF75EFFC8
:1024E00000270AE0002404E00020FFF77CFE601CC7
:1024F000C4B2102CF8DB781CC7B2022FF2DB681CC8
:10250000C5B208F1100000F0FF08705D00289FD1EF
:10251000BDE8F0872DE9F04780468A46164600253B
:102520005FE000244FF001091548005D715D8842AD
:1025300009D11349601C095C681C305C814202D1DE
:102540004FEAC40950E0A01CC4B2B8F1FF0F05DD8A
:102550004FF000080AF1020000F0FF0AB9F1010F84
:1025600024D00223082251464046FFF717FF0027D8
:1025700017E00000001401403E3300080435000855
:102580004F330008002408E0FE4911F80900FFF766
:102590002AFE09F10109601CC4B2082CF4DB781C86
:1025A000C7B2022FEEDBA81CC5B216E00223082238
:1025B00051464046FFF7F2FE00270AE0002404E0FF
:1025C0000020FFF710FE601CC4B2102CF8DB781C52
:1025D000C7B2022FF2DB681CC5B208F1100000F090
:1025E000FF08705D00289CD100BFBDE8F0872DE991
:1025F000F0410746884614460423202241463846C7
:10260000FFF7CCFE002509E0002604E02078FFF764
:10261000EAFD641C761C202EF8DB6D1C042DF3DB18
:10262000BDE8F0812DE9F0410746884614460223B3
:10263000282241463846FFF7B1FE002509E0002672
:1026400004E02078FFF7CFFD641C761C082EF8DB31
:102650006D1C052DF3DBBDE8F0812DE9F047054643
:1026600088461446E80000F1010902230822414689
:102670004846FFF793FE002609E0002704E0207893
:10268000FFF7B1FD641C7F1C082FF8DB761C022EBF
:10269000F3DBBDE8F08770B506460C4615462A46C2
:1026A00021463046FFF7D9FF05F11002A11C304644
:1026B000FFF7D3FF05F12002211D3046FFF7CDFFC4
:1026C00070BD2DE9F04105460F461446E80000F1C3
:1026D00001080123082239464046FFF75FFE002625
:1026E00004E02078FFF77FFD641C761C082EF8DBE1
:1026F000BDE8F0812DE9F0410746884614460623DF
:10270000302241463846FFF749FE002509E0002601
:1027100004E02078FFF767FD641C761C302EF8DBA0
:102720006D1C062DF3DBBDE8F0812DE9F041074675
:10273000884614460623372241463846FFF72EFEC8
:10274000002509E0002604E02078FFF74CFD641C1A
:10275000761C372EF8DB6D1C062DF3DBBDE8F0810F
:102760002DE9F0410746884614460C23C022414615
:102770003846FFF713FE002509E0002604E0207824
:10278000FFF731FD641C761CC02EF8DB6D1C0C2D90
:10279000F3DBBDE8F08170B5044600250BE004F0E2
:1027A000800000B100E000BF6006040E012000F0D0
:1027B00036FA681CC5B2082DF1DB70BD002000217F
:1027C00005E04206100E421CD0B24A1CD1B20829C4
:1027D000F7DB70472DE9F04704460D461646032007
:1027E000FFF7D9FFC4F30740FFF7D5FFC4F3072075
:1027F000FFF7D1FFE0B2FFF7CEFF022310223146F0
:102800002846FFF7CBFD4FF000080FE0002707E058
:10281000FFF7D4FF81464846FFF7E5FC781CC7B2B6
:10282000102FF5DB08F1010000F0FF08B8F1020FEE
:10283000ECDBBDE8F0872DE9F04704460D4616466F
:102840000320FFF7A8FFC4F30740FFF7A4FFC4F37A
:102850000720FFF7A0FFE0B2FFF79DFF0223082249
:1028600031462846FFF79AFD4FF000080FE0002799
:1028700007E0FFF7A3FF81464846FFF7B4FC781C4A
:10288000C7B2082FF5DB08F1010000F0FF08B8F12E
:10289000020FECDBBDE8F0872DE9F04706460F4656
:1028A00015460024B046B94678E0285DB02824DB00
:1028B000285DF72821DC601C285CA1281DDB285D31
:1028C000B0385E21484330490860601C285C00F243
:1028D000AD20096808442C4908600846006840019A
:1028E00008603A46314628480068FFF773FFA01C8D
:1028F000C4B206F11000C6B250E0285DA12823DB67
:10290000285DA32820DC601C285CA1281CDB285D36
:10291000A1385E2148431C490860601C285CA1382E
:1029200009680844184908600846006840010860C2
:102930003A46314614480068FFF74CFFA01CC4B269
:1029400006F11000C6B229E0285D202824DB285DAE
:102950007E2821DC285D20380B4908600846006885
:1029600000010860084600680849084406490860F4
:102970003A46314604480068FFF75DFF601CC4B268
:1029800006E00000543300082800002080CF030038
:1029900006F10800C6B201E0601CC4B2285D002840
:1029A00083DCBDE8F08770B505460C4603260120A0
:1029B00000EB44018B4AFFF750FE012000EB44017D
:1029C000894A0220FFF749FE012000EB4401874AB3
:1029D0000320FFF742FE864800EB0512012000EBC2
:1029E00044010420FFF739FE012000EB4401814A35
:1029F0000520FFF732FE70BD2DE9F05F83460C46DF
:102A0000164601254FF47A7096FBF0F000F0FF0AAD
:102A10004FF47A7096FBF0F100FB1160642190FB9B
:102A2000F1F000F0FF09642096FBF0F100FB11606B
:102A30000A2190FBF1F0C7B20A2096FBF0F100FBEF
:102A4000116000F0FF08BAF1000F41D161196A4A24
:102A50000720FFF702FEB9F1000F23D16119664A82
:102A60000820FFF7FAFD6FB96119634A0920FFF7E3
:102A7000F4FDB8F1000F47D161195F4A0A20FFF752
:102A8000ECFD41E05A4800EB071261190920FFF7FD
:102A9000E4FD574800EB081205EB44010A20FFF75C
:102AA000DCFD31E0524800EB091261190820FFF704
:102AB000D4FD4F4800EB071261190920FFF7CDFD47
:102AC0004B4800EB081261190A20FFF7C6FD1BE016
:102AD000474800EB0A1261190720FFF7BEFD444882
:102AE00000EB091261190820FFF7B7FD404800EB21
:102AF000071261190920FFF7B0FD3D4800EB0812ED
:102B000061190A20FFF7A9FD61193C4A0B20FFF764
:102B1000A4FD61193A4A0C20FFF79FFDBDE8F09F24
:102B20002DE9F04782460C46164601254FF47A708F
:102B300096FBF0F100FB1160642190FBF1F000F0D6
:102B4000FF09642096FBF0F100FB11600A2190FB65
:102B5000F1F0C7B20A2096FBF0F100FB116000F023
:102B6000FF08B9F1000F21D16119234A0E20FFF7A8
:102B700074FD67B96119204A0F20FFF76EFD1C48EC
:102B800000EB081261191020FFF767FD23E01848D9
:102B900000EB071261190F20FFF75FFD144800EBEF
:102BA000081261191020FFF758FD14E0104800EBDF
:102BB000091261190E20FFF750FD0D4800EB0712B6
:102BC00061190F20FFF749FD094800EB0812611950
:102BD0001020FFF742FD61190A4A1120FFF73DFD61
:102BE000BDE8F087143400082434000834340008A9
:102BF0006434000844340008543400085C3300088E
:102C00006C3300087C330008002105E0002200E05E
:102C1000521C6E2AFCDB491C8142F7DB7047002105
:102C200005E0002200E0521C012AFCDB491C00F1F7
:102C30000A039942F5DB704710B504462046FFF7BA
:102C4000E3FF10BD30B589B005460C4601210846AA
:102C5000FEF7E9F901210520FEF7D8F90120ADF8CA
:102C6000040018208DF8070003208DF8060001A944
:102C7000F848FDF70FFFADF81C50ADF818400020E4
:102C8000ADF81E00ADF81A0006A94FF08040FEF71F
:102C9000F5FA02A8FEF727FE6020ADF80800012033
:102CA000ADF80A006420ADF80E000020ADF8100069
:102CB00002A94FF08040FEF71EFB0821C806FEF770
:102CC00069FF01218807FEF735FF01218807FEF71C
:102CD0003DFE01218807FEF72DFE09B030BD30B55D
:102CE00089B005460C4601210420FEF79CF901211C
:102CF0002020FEF78BF901210803FDF79CFF4FF41C
:102D00008050ADF8040018208DF8070003208DF8DE
:102D1000060001A9D048FDF7BDFEADF81C50ADF886
:102D200018400020ADF81E00ADF81A0006A9CB48E7
:102D3000FEF7A4FA02A8FEF7D6FD6020ADF8080061
:102D40000120ADF80A006420ADF80E000020ADF8B7
:102D5000100002A9C148FEF7CEFA0821BF48FEF7CD
:102D600019FF0121BD48FEF7E5FE0121BB48FEF732
:102D7000E1FD09B030BD30B589B005460C460121F2
:102D80000820FEF750F901210420FEF73FF9022048
:102D9000ADF8040018208DF8070003208DF8060018
:102DA00001A9AC48FDF776FEADF81C50ADF818400F
:102DB0000020ADF81E00ADF81A0006A9A848FEF7DD
:102DC0005DFA02A8FEF78FFD6020ADF80800012033
:102DD000ADF80A006420ADF80E000020ADF8100038
:102DE00002A99F48FEF7C9FA08219D48FEF7DBFEBD
:102DF00001219B48FEF79EFE01219948FEF79AFDAE
:102E000009B030BD30B589B005460C46012142F20B
:102E10001000FEF7FBF84020ADF8040018208DF8F4
:102E2000070003208DF8060001A98E48FDF732FE49
:102E3000ADF81C50ADF818400020ADF81E00ADF8FC
:102E40001A0006A98848FEF719FA02A8FEF74BFDFA
:102E50006020ADF808000120ADF80A006420ADF84C
:102E60000E000020ADF8100002A97F48FEF743FADB
:102E700008217D48FEF78EFE01217B48FEF75AFEB1
:102E800001217948FEF762FD01217748FEF752FDE6
:102E900009B030BD7FB505460C4601210220FEF782
:102EA000C2F8ADF80850ADF804400020ADF80A00B3
:102EB000ADF8060001A96D48FEF7E0F901221146C0
:102EC0006A48FEF752FD1D208DF8000000208DF8A5
:102ED000010003208DF8020001208DF803006846F0
:102EE000FDF7E7FA01216148FEF724FD7FBD10B52B
:102EF00001215E48FEF7E7FF80B101215B48FEF744
:102F0000F3FF5B48006808B9012000E00020584941
:102F10000860002201215548FEF727FD10BD30B59D
:102F200089B005460C4601210220FEF77CF80121FC
:102F30000920FEF76BF801214E48FDF77CFE2020AA
:102F4000ADF8200018208DF8230003208DF8220012
:102F500008A94948FDF79EFDADF81850ADF814409A
:102F60000020ADF81A00ADF8160005A93F48FEF79D
:102F700085F97020ADF804000120ADF806000220AC
:102F8000ADF80C0001A93948FEF7F7F908213748D8
:102F9000FEF709FE01213548FEF7CCFC09B030BD33
:102FA00030B589B005460C46012140F60400FEF715
:102FB0002DF84FF48070ADF8040018208DF807004C
:102FC00003208DF8060001A92248FDF763FDADF846
:102FD0001C50ADF818400020ADF81E00ADF81A00E6
:102FE00006A92648FEF74AF902A8FEF77CFC6020F5
:102FF000ADF808000120ADF80A000020ADF810007F
:1030000002A91E48FEF777F908211C48FEF7C2FD09
:1030100001211A48FEF78EFD01211848FEF796FCA3
:1030200001211648FEF786FC09B030BD2DE9F041BC
:1030300003460D4616460021DFF844C09CFBF6F41B
:10304000002724E0B4F5803F1CD301F1010C1FFAE6
:103050008CF118E000080140001401400008004015
:10306000000C00400010014000340140000400400A
:103070009401234200081A00000C0140002C01407A
:1030800000A24A0405E007F1010C1FFA8CF7642F37
:10309000D8DB00BF01F1010CB4FBFCF4A0B24FF08F
:1030A000640C95FBFCFC0CFB00FC4FF064089CFBE3
:1030B000F8FC1FFA8CF2062B65D2DFE803F003144C
:1030C00020314253A0F1010CDFF8C480A8F800C001
:1030D000A8F1040CACF80010DFF8B4C00CF10C0C33
:1030E000ACF8002050E0A0F1010C4FF08048A8F8A7
:1030F0002CC0C446ACF82810ACF8382044E0A0F14D
:10310000010CDFF89080A8F800C0A8F1040CACF81E
:103110000010DFF880C00CF10C0CACF8002033E09C
:10312000A0F1010CDFF87080A8F800C0A8F1040C31
:10313000ACF80010DFF860C00CF10C0CACF800200B
:1031400022E0A0F1010CDFF85480A8F800C0A8F13B
:10315000040CACF80010DFF844C00CF10C0CACF817
:10316000002011E0A0F1010CDFF83480A8F800C0C5
:10317000A8F1040CACF80010DFF824C00CF10C0C22
:10318000ACF8002000E000BF00BFBDE8F081000007
:103190002C2C01402C0400402C0800402C0C00403A
:1031A0002C34014000B587B001214FF40770FDF7C2
:1031B0002DFF4FF40040FDF78DFEFC20ADF804001C
:1031C00000208DF8070001A93A48FDF763FC0320B1
:1031D000ADF8040000208DF8070001A93648FDF77E
:1031E00059FC0720ADF8040000208DF8070001A964
:1031F0003248FDF74FFC3248FDF7C4F90020029039
:103200008DF80C008DF80D004FF460200490002024
:10321000059001208DF8180002A92948FDF7D9F979
:1032200001212748FDF701FA2548FDF720FA00BFE4
:103230002348FDF721FA0028FAD12148FDF726FAA4
:1032400000BF1F48FDF727FA0028FAD107B000BDDC
:1032500010B504460723012221461948FDF751FA0B
:1032600001211748FDF721FA00BF02211448FDF79C
:103270008DFB0028F9D01248FDF7AAFA10BD2DE900
:10328000F04107460C460025002608E03846FFF7C7
:10329000DFFF05440520FFF7B7FC701CC6B2A6424D
:1032A000F4DBB5FBF4F080B2BDE8F08110B5FFF7B8
:1032B00079FF10BD00080140000C014000100140E2
:1032C00000240140704770477047754600F02CF8A5
:1032D000AE4605006946534620F00700854618B003
:1032E00020B5FEF703FFBDE820404FF000064FF089
:1032F00000074FF000084FF0000B21F00701AC462B
:10330000ACE8C009ACE8C009ACE8C009ACE8C00949
:103310008D46704710B50446AFF300802046BDE8E7
:103320001040FCF74CBF00000048704744000020EC
:1033300001491820ABBEFEE7260002007047B1AA83
:10334000BAEACAB5D2B5D3D0CFDEB9ABCBBE004155
:1033500042434400447C541010547C4408F8080054
:103360000008F808203F210101213F20100808082B
:10337000C83808002038262120201800F008F00066
:10338000E018000000211C031E211E004060782C64
:1033900028704040447C4C4C4C543000386C4444C1
:1033A00044442400447C4444444438004060782C25
:1033B00028704040447C4C4C4C543000386C4444A1
:1033C00044442400447C444444443800447C541421
:1033D000141408001C74080C30641C00447C1C701D
:1033E0000C7C440008F808080808F000203F210180
:1033F00001010000F80800F80008F800033C07008D
:10340000073C030008F8F800F8F80800203F003FE8
:10341000003F200008F808080808F000203F2101BC
:1034200001010000F80800F80008F800033C07005C
:10343000073C030008F8F800F8F80800203F003FB8
:10344000003F2000000000C0C0000000000000306D
:10345000300000000000000000000000000000003C
:103460000000000000E010080810E000000F10202D
:1034700020100F00001010F8000000000020203F76
:103480002020000000700808088870000030282400
:1034900022213000003008888848300000182020A1
:1034A00020110E000000C02010F8000000070424C6
:1034B000243F240000F8088888080800001921200B
:1034C00020110E0000E0108888180000000F112065
:1034D00020110E0000380808C83808000000003F1E
:1034E000000000000070880808887000001C22217D
:1034F00021221C0000E010080810E000000031222A
:1035000022110F00445422AA518924900C0B080860
:1035100008F8000012124984423F00000106408072
:10352000403F0000104C444444C475464444444465
:1035300044540C004020100846E1504C4340506079
:10354000C0000000100C048414640506F404040494
:1035500004140C00048484444724140C070C142421
:10356000448404000010608000FF000000FF0000A1
:10357000C030000040404043407F4040407F4241D7
:103580004040400004040484E43C2724242424E430
:103590000404040004020100FF0909090949897FA4
:1035A0000000000000FE225A8600FE929292929243
:1035B000FE00000000FF04080700FF4020030C1479
:1035C000224140000080402018068000071820405B
:1035D000800000000100207028262120202438606F
:1035E0000001010000101292929292929212120225
:1035F000FE0000000000003F101010103F0040804F
:103600007F0000000000000000000000001F1F08F5
:10361000080808080808080808081F1F0800000014
:1036200000000000000000000000000000FEFE8816
:1036300088888888888888888888FEFC0000000040
:103640000000000000000000FF7F42424242424270
:103650007FFF40000000FF7F42424242424242FF61
:103660004000000000000000FEFC080808080808F0
:10367000FCFC00000000FEFC08080808080808FC24
:103680000000000000000404070704040404070706
:10369000040C0400201C0F07000000010E3C100069
:1036A0000000000000000000FFFF10101010FFFFDE
:1036B000000020202020A0203F3F60A0202060604C
:1036C0002100000000000000FFFF40404141FFFFDB
:1036D0004242424040404043FFF0784741404080F2
:1036E00080800000000040E0C0C080800000FEFC40
:1036F0000002040C1830E0C000000000C070381C4C
:103700000C080000000000000010180E0700000068
:103710000404040405050404040404040F0F040055
:103720000000000000000404040404070F0400016A
:1037300001010101FFFF810101030100FFFF000002
:103740000000000000000000000000FFFF0000017A
:1037500002000000FFFF000000000080F8FF0300EF
:103760000003000000000000000000F0F860C080CE
:1037700000000000FCFC0000000000000080E07879
:1037800018FC000000000000000000000000000025
:1037900000003F1F100000000000000000000000BB
:1037A000000000000000000000FFFF4141414141D6
:1037B0004141FFFF4141414141414141FFFF000083
:1037C000000000000000000000FFFF0404040404E7
:1037D0000404FFFF0404040404040404FEFE0000C7
:1037E00000000000000000000000000000000000D9
:1037F0000000F8FC04040404040404040404048C1D
:103800007C08000000000000000001071F1F3F7C33
:1038100078F3FBFFFFFBF3787C3F3F1F0F030000B3
:103820000000000000000000011FFFFFFFFFFFF786
:10383000272323E3E3232323E7F7FFFFFFFF3F03D0
:103840000000000000001F7EFEFEFF80CCFEFFFE99
:10385000F2F0F0F0F0F0F0E0E0E0C0C080FFFEFE3B
:10386000FF3F000000000000000080C2663E1E0E08
:103870000E0604040404060E0E1E1E3EDE8E060016
:1038800000000000FFFFFFFFFFFFFFFFFFFFFFFF44
:10389000FFFFFFE0EFE8E8E8E8E8E8E8E8E8E8E864
:1038A000E8E8E8E8E8E8E8E8E8E8E8EFE0FFFFFF54
:1038B000FFFFFFFFFFFFFFFFFFFFFFFFFFFFFFFF18
:1038C000FFFFFFFFFFFFFFFFFFFF00FF00C0E0FF64
:1038D000FFFFFFE7CF1F7FFFFFFFFF07CFFFFFFCCB
:1038E000F0C0FF00FFFFFFFFFFFFFFFFFFFFFFFF35
:1038F000FFFFFFFFFFFFFFFFFFFFFFFFFFFFFFFCDB
:10390000FC00FD050505FCFCFFFEFEF8E0FEFEFEEA
:10391000FEFEFCF0C000000000FF00FFFFFFFFFF05
:10392000FFFFFFFFFFFFFFFFFFFFFFFFFFFFFFFFA7
:10393000FFFFFFFFFFFF01013975E1C1E10101F761
:103940001717171717171717171717171717171707
:10395000F707FFFFFFFFFFFFFFFFFFFFFFFFFFFF77
:10396000FFFFC7F8C3F8C7FFFFFCFBFBFCFFFBF83A
:10397000FDFBFBFFFFFCFBDBC0FFFFFFFFFFE7DE04
:10398000DDDBE7FFE0DFDFDFE0FFE0DFDFDFE0FFE1
:10399000EFDFDBDBE4FFFFF8F8F838F838F8F8F889
:1039A00078B8B878F8B838B8F8F8F8F878B8B83817
:1039B000B8F8F8F8F838B8B8B8B8F878B8B8B87847
:1039C000F878B8B8B878F878B8B8B878F8F8FFFFE9
:1039D000FFFFFFFFFFFFFFFFFFFFFFFFFFFFE0EF26
:1039E000E8E8E8E8E8E8E8E8E8E8E8E8E8E8E8E857
:1039F000E8E8E8E8E8E8EFE0FFFFFFFFFFFFFFFF90
:103A0000FFFFFFFFFFFFFFFFFFFFFFFFFFFFFFFFC6
:103A1000FFFFFFFFFF00FF00E0F0F8FCFEFFFF7F6D
:103A20003F3F3FFFFFFFFFF8F0F0E00000FF00FF27
:103A3000FFFFFFFFFFFFFFFFFFFFFFFFFFFFFFFF96
:103A4000FFFFFFFFFFFFFFFFFFFFFFFF00FF000E75
:103A50001E1E3EFEFEFEFEFEF8F8FCFEFEFEFE7E94
:103A60003E1E0E00FF00FFFFFFFFFFFFFFFFFFFFF7
:103A7000FFFFFFFFFFFFFFFFFFFFFFFFFFFFFFFF56
:103A8000FFFFFF0FEF2F2F2F2F2F2F2F2F2F2F2F36
:103A90002F2F2F2F2F2F2F2F2F2F2FEF0FFFFFFF26
:103AA000FFFFFFFFFFFFFFFFFFFFBF80B7A39EFFEA
:103AB000F7F2FDF2F7FFFFF8F7F7F3FFFFF8F5F580
:103AC000F9FFBFBF80FFFFFFFFCEBDBBB7CFFFC079
:103AD000BFBFBFC0FFC0BFBFBFC0FFDEBFB7B7C85B
:103AE000FF7878787878F87878F87878F8F8F8784F
:103AF0007878F8F8F8787878F87878787878F8F846
:103B00007878787878F8F8787878F8F8F8787878B5
:103B1000F8F8F8787878F8F8FFFFFFFFFFFFFFFF6D
:103B2000FFFFFFFFFFFFFEFCF8F1E2E0C0C0808076
:103B30008083878F8F8F8F8FCFC7C7E3F3F1F8FE16
:103B4000FFFFFFFFFFFFFFFFFFFFFFFFFFFFFFFF85
:103B5000FFFFFFFFFFFFFFFFFFFFFFE0800F3FFFC3
:103B60009F03010000000000C0E0E0F0F0F8F8FC66
:103B7000FCFEFFFFFF7F1F00C0F8FFFFFFFFFFFFFE
:103B8000FFFFFFFFFFFFFFFFFFFFFFFFFFFFFFFF45
:103B9000FFFF0F03E0F8FEFFFFFFFF7F7F3F3F1FA8
:103BA0001F0F0700000000000080E3FFFCF001078A
:103BB0003FFFFFFFFFFFFFFFFFFFFFFFFFFFFFFFD5
:103BC000FFFFFFFFFFFFFFFFFFFFFFFF7F3F1F8F95
:103BD000CFC7C7E3E3E3E3C3C383030303030707D9
:103BE000CF9F1F3F7FFFFFFFFFFFFFFFFFFFFFFF95
:103BF000FFFFFFFFFFDDDB00D782AAFA00AA837672
:103C000024CB30EF10B6B6B0BF80FFEF70BF531CAF
:103C1000C3DF807F00FF0FF80BFBE81ABB98AFBF34
:103C2000FA0A6A680AF30A6A600AFAF8D8D818F831
:103C3000D858B8B858D8F8D8D838F878F8D858D864
:103C400038F87818D838F838F8589818F8D858B894
:103C500078F818D858D818F818D8D818F818D8D824
:103C600018F8000000000000000000000000000044
:103C70001F1F183838303030707060606060E0C0EE
:103C8000C0FFFF2426321313121A0A0A0C0C070075
:103C90000000000000000000000000000000000024
:103CA00000000000000000E0FF7F000000000000B6
:103CB0000000000000000000C1FFFF000000FF0046
:103CC0000000000000FF00000000000000000000F5
:103CD000000000000000000000000000000003C41D
:103CE000FC7C1C18383830307F7F7F7F68C8C4C6A2
:103CF0008382030101FF010303020604FC000000AC
:103D000000000000000000000000000000000000B3
:103D10000000000000E01018080C0404060202C2B3
:103D2000C2C6C4040C1870E00000008080000000CF
:103D30000000000000000000000000000000000083
:103D400000005151527F9214FE11925410003F22F4
:103D500062A23F0834E320203F00003F292929FFC9
:103D60002929297F2000007F527F202FA5622D2046
:103D70002F0000000000000000002020E0404080F4
:103D8000804020E000E0404040E00000202020C0D3
:103D9000000080000000C020202020600060802003
:103DA000E000E02020A020E0000000000000000073
:103DB0000000000000000000000003071F3F3F7FDD
:103DC0007F7E7CF8F9FCFFFFFCF9787C7E7F7F3FEB
:103DD0001F070300000000000000000000000000BA
:103DE0000000000000000000000000000000071CB0
:103DF000FCFEFFFFFFFDFDF93918189030F0F030A0
:103E000090181839F9FDFDFFFFFEFE1C07000000A9
:103E100000000000000000000000000000000000A2
:103E20000000070F3FFFFF3F18180F8CCCCCC4E4F5
:103E3000E7E6666262626262E2E6C4C4CC8C88181D
:103E4000183F7FFF3F1F0700000000000000000038
:103E50000000000000000000E0F0E0E0C1F3FB3FE4
:103E60000FE73131303030E000000000000000008A
:103E70000000000101070F3FFBF3C1E0E0F0E000AC
:103E80000000000000000000000000000000000F23
:103E90000A0F0289C6EAE1FAF2F0F1F9F5F0F868E2
:103EA0004B48484F4060F3F4F4F4F3F0F0F0E0E0F6
:103EB000C0800304040403000000000000000000B0
:103EC00000000000000CF044FC80E8A8ACE4BC80DA
:103ED000000000FC089080FC8080F80C00F028288E
:103EE0001CF400000000000000F028281CF4000072
:103EF00000000000000000000000000000000000C2
:103F00000000000000003F604342424242425A5AD1
:103F10005A5A5A5A4242424243603F00000000004F
:103F20000000000000000000000000000000000091
:103F300000000000000000000000000000FF00FF83
:103F4000000000000000000000000000000000FF72
:103F500000FF000000000000000000000000000062
:103F60000000000000000000000000000000000051
:103F700000000000FF00FE02020202020202020232
:103F8000020202020202FE00FF0000000000000028
:103F90000000000000000000000000000000000021
:103FA0000000000000000000000000FF0000000012
:103FB000DBDB00DBDB00DBDB00DBDB00000000FF2A
:103FC00000000000000000000000000000000000F1
:103FD0000000000000000A0A0A0F12021F02120A63
:103FE000020087C44C544741465C44444740484A19
:103FF0004A4A4A4F4AD29212000004040F04040FA6
:1040000008081F08000000000000000000202444F1
:10401000FC4888D03048841C00FC484848FC00809C
:10402000640404F8004040404444FC4040404040A8
:104030000030C0FC8448F00000FC041C00000000BC
:10404000001010F800000000000000000000000058
:10405000000000007E2A2A2A2A2A2A7E0000000068
:1040600002FE929292FE1211121CF018171210000A
:1040700020212EE4004242FE42424202FE000000A5
:104080000000F848484848FF48484848F800000001
:1040900000000202020202E2120A06020080000090
:1040A000106106E01884E41C8465BE24A464040046
:1040B000000000007E2A2A2A2A2A2A7E0000000008
:1040C00010D0FF509004F4545F54545FF404000087
:1040D0001010FF1010000808FF080808F800000082
:1040E0000004E4444C7454454664544C4464440015
:1040F000000000007E2222222222227E00000000F8
:104100000020203F20200000003030000000000090
:10411000007F252525257F00007F252525257F007B
:10412000081F080804FF058141310F1121C141001A
:104130000000007F2010007F000000003F4038009A
:1041400000000F040404043F444444444F40700002
:10415000010101010141817F010101010101010012
:104160000404FF000100FF4121120C1B61C040004C
:10417000007F252525257F00007F252525257F001B
:104180000300FF0000848545350F152565C44400F4
:1041900008180F048541310D030509113161210013
:1041A00040300F0000000000000000000000000090
:1041B000007F212121217F007F212121217F0000FB
:1041C000007008080888700000000000000000006F
:1041D0001012927E1212FE121210FC0000FF00005C
:1041E0004040405FD15151515151515F40404000DA
:1041F00000000000000000000000000000000000BF
:1042000000000808F808080008F80800000000008E
:104210000818688080681808001010F80000000076
:1042200000E010080810E00000700808088870001E
:1042300000E010080810E00000E010888818000076
:10424000C03008080838000000000000000000002E
:10425000003008888848300000708808088870009E
:1042600000E010080810E00000000000000000005E
:10427000000000000000000000000000000000003E
:1042800000302824222130000030300000000000DF
:10429000404249484848497E4848484A4C4B4000BB
:1042A00000000002070202224282423E000000009B
:1042B0000000363600000000000000000000000092
:1042C000C08080807F000000203F20202020300020
:1042D00020302C03032C30200020203F2020000021
:1042E0000000312222110F0000302824222130004A
:1042F0000000312222110F00000F112020110E00AA
:1043000007182020221E0200000101010101010105
:104310000018202020110E00001C222121221C0048
:10432000000F102020100F0000000000000000000F
:10433000000000000000000000000000000000007D
:1043400000300888884830000000000000000000AD
:10435000000000E02020203F242424F4240000005A
:10436000FE02122AC688C8B88FE8888888880000AC
:10437000000000000000000000000000000000003D
:10438000001010F80000000000E010080810E00025
:10439000007008080888700000808000808080001D
:1043A00000E010080810E00000E010888818000005
:1043B000000000E02020203F242424F424000000FA
:1043C000FE02122AC688C8B88FE88888888800004C
:1043D00000000000000000000000000000000000DD
:1043E00000000000000000000000000000000000CD
:1043F00000000000000000000000000000000000BD
:104400000018202020110E000030300000000000B5
:10441000004030071262020A1262020F10600000B0
:10442000FF0002040304040404FF04040404040061
:104430000000363600000000000000000000000010
:104440000020203F202000000000312222110F0018
:1044500000302824222130000020312E0E3120008F
:104460000000312222110F00000F112020110E0038
:10447000004030071262020A1262020F1060000050
:10448000FF0002040304040404FF04040404040001
:10449000000000000000000000000000000000001C
:1044A000000000000000000000000000000000000C
:1044B00000000000000000000000000000000000FC
:1044C0000000C02010F80000000000000000000004
:1044D0000808894EAA1800FE0202FA0202FE000035
:1044E00000FE02021222224282621E0A0202000022
:1044F00000000000000000000000000000000000BC
:1045000000E010888818000000E01088881800007B
:10451000000000000000000000E010080810E000AB
:10452000008080008080800000300888884830004B
:10453000007088080888700000000000000000007B
:1045400000E010080810E0008080808080808000FB
:1045500080808080808080000000000000000000DB
:10456000000000000000000000000000000000004B
:10457000000000000000000000000000000000003B
:1045800000070424243F2400003030000000000015
:10459000020100FF008742211806013E40437000DF
:1045A000003F2030282422212021263C2820000002
:1045B000000036360000000000000000000000008F
:1045C000000F112020110E00000F112020110E00ED
:1045D0000030300000000000000F102020100F00FD
:1045E0000020312E0E3120000018202020110E0056
:1045F000001C222121221C0000303000000000009D
:10460000000F102020100F00203F20003F20003F0F
:10461000203F20003F20003F00000000000000007D
:10462000000000000000000000000000000000008A
:10463000000000000000000000000000000000007A
:1046400000F808888808080000000000000000004A
:1046500002FA8282FE8000FE12224282621A020068
:10466000202424E4242424201010FF1010F0000043
:10467000000000000000000000000000000000003A
:104680000070880808083800180808F8080818009A
:1046900000380808C838080000F8088888080800AA
:1046A000007008080888700000F80888880808006A
:1046B00000E01088881800000000000000000000E2
:1046C00000000000000000000000000000000000EA
:1046D00000000000000000000000000000000000DA
:1046E00000000000000000000000000000000000CA
:1046F00000000000000000000000000000000000BA
:104700000019212020110E000030300000000000B0
:1047100008082444201F007F50484641435C400065
:10472000081C0B080C054E24100C0320403F000011
:10473000000036360000000000000000000000000D
:104740000038202121221C000000203F2000000012
:104750000000003F000000000019212020110E0081
:1047600000302824222130000019212020110E00C1
:10477000000F112020110E000000000000000000BA
:104780000000000000000000000000000000000029
:104790000000000000000000000000000000000019
:1047A0000000000000000000000000000000000009
:1047B00000000000000000000000000000000000F9
:1047C00000E01088881800000000000000000000D1
:1047D00000180484447CA52624A46424140C04003A
:1047E000000000F8888888898A8E888888F8000008
:1047F00000024262524A26E222222A72220200006B
:1048000000000000000000FE40404040400000006A
:104810000000000000000000000000000000000098
:104820000000FE020ACA4A6A5E4949C9090100003D
:10483000404040DF555555D5555555DF4040400067
:10484000100804D3565A525AF453565A72020200B0
:1048500000808080808080808080808080C0800018
:104860000000000000000000000000000000000048
:104870000000000000000000000000000000000038
:10488000000F112020110E00003030000000000049
:1048900008080504FC464645454646FE040C04004F
:1048A0008040300F00000000000000000000000009
:1048B000202022222222223F2222222222202000E5
:1048C000004040404040407F404040404060400009
:1048D0000000583800000000000000000000000048
:1048E00080601F00804F20100F1020EF400000005C
:1048F000404040575555557F5555555750404000FD
:104900000020202312120A06FF020212221E0000BB
:104910000000000000000000000000000000000097
:104920000000000000000000000000000000000087
:104930000000000000000000000000000000000077
:10494000000000000000100C844424140506041428
:10495000244484140C000020108CA7A4A4A4A4A4B4
:10496000A4A4240404000002DC08A0909C9392F20A
:104970009A96F2808000804020F807020000FFC075
:1049800060301C080000088868FF2848104844432D
:104990004448501010000831866000FE02F202FE0A
:1049A00000F80000FF004020F00C030038C0010EAA
:1049B00004E01C000000000000000000902000F057
:1049C0001090F000C000F0000000F0505050505027
:1049D000F000000000102000000000F000000000C7
:1049E000E02020E040404040F04040000000000057
:1049F00000000080C00000008040404080000000B7
:104A0000000000000000004040414141417F414121
:104A10004141404000000000000000000000000094
:104A2000000F3040F00004FC030000040444847FC5
:104A30000404070000000000007F000402013F4062
:104A40004040407800000201007F0020222C212EEF
:104A500030282722200004FC03008047300F106715
:104A6000000740807F000000FF00404020100B0442
:104A70000B1020602000000000000000087F404F65
:104A8000201F2F401F407F0041515F55557F5555D6
:104A90005F514100017F20100101017F01010100F0
:104AA0003F12123F000146407F000000000021003D
:104AB000000000203F2000003128242221000000B7
:104AC00000000000000000E010080810E0000000F6
:104AD0000000000000000030088888483000808016
:104AE0000000008080008080808080808000000046
:104AF00000000000000000000000000000000000B6
:104B00000000000000000000000000000000007035
:104B100008080888700000F808888808080000E085
:104B200010888818000000E010080810E0000070ED
:104B300088080888700000380808C8380800000095
:104B40000000000000000000000000000000000065
:104B50000000000000000000000000000000000055
:104B60000000000000000000000000000000000045
:104B70000000000000000000000000000000000035
:104B8000000000000000000F102020100F00003077
:104B90003000000000000018202020110E00001F2F
:104BA000202020103F20203F20003F20003F000019
:104BB00000000000000000000000000000000000F5
:104BC00000000000000000000000000000000030B5
:104BD0002824222130000019212020110E00000F6E
:104BE000112020110E000000312222110F00001CA4
:104BF000222121221C000000003F000000000000D4
:104C000000000000000000000000000000000000A4
:104C10000000000000000000000000000000000094
:104C20000000000000000000000000000000000084
:104C30000000000000000000000000000000000074
:104C40000000000000000038040404C43800000024
:104C500000000000000000FC84444484040040C0C4
:104C600000000040C00040C04040C0404080000004
:104C70000000000000000000000000000000000034
:104C800000000000000000000000000000000080A4
:104C9000601008FC000000FC84444484040000F020
:104CA0008844448C000000F008040408F000000070
:104CB000000000E01008A090ECA8A8E8A8A8E88CE4
:104CC0008800888888F8848480FC808080000008C0
:104CD00010E00000000000000000000000000000E4
:104CE00000000000000000000000000000000000C4
:104CF00000000000000000000000000000000000B4
:104D00000000000000000018141211101800001814
:104D1000180000000000000C101010080700000F21
:104D2000101010081F10101F10001F10001F00008F
:104D30000000000000000000000000000000000073
:104D40000000000000000000000000000000000360
:104D50000212121F1200000C1010100807000007AA
:104D600008101008070000070810100807000000CE
:104D700000000007081000040704040714140F04BF
:104D80000400101008070000001F000000000010C1
:104D90000807000000000000000000000000000004
:104DA0000000000000000000000000000000000003
:104DB00000000000000000000000000000000000F3
:104DC0000000000000002018088848280A0C082865
:104DD000488808281800004020184E48484848488D
:104DE00048484808080020104E444C7444F04E4493
:104DF0004C7444040000406058C640300404FC0475
:104E000084E49C808000000000808000000000009E
:104E10000000000000000000000000000000000092
:104E20000000000000000000000000000000000082
:104E30000000000000000000000000000000000072
:104E40000000000000000000000000000000000062
:104E50000000000000000000000000000000000052
:104E60000000000000000000000000000000000042
:104E70000000000000000000000000000000000032
:104E800000000000000000808182828282FE828217
:104E90008282818000000000000101010101010106
:104EA000011F6080E00001090909091969098909E0
:104EB000FF09090901002026239252221887804702
:104EC0002830CC83800000000061610000000000F9
:104ED00000000000000000000000000000000000D2
:104EE00000000000000000000000000000000000C2
:104EF00000000000000000000000000000000000B2
:104F000000000000000000000000000000000000A1
:104F10000000000000000000000000000000000091
:104F20000000000000000000000000000000000081
:104F30000000000000000000000000000000000071
:104F4000000000000000008010600000E020202031
:104F5000E000800000F0000020C0800000000000A1
:104F600000F00020C10000000000C030A08090A12F
:104F7000E08080808000000000F09091F19090909F
:104F8000F09090F100000000000000000000000020
:104F90000000000000000000000000000000000011
:104FA0000000000000000000000000000000000001
:104FB0000000000000000000C0404040C0000000B1
:104FC0000000F000000000008010600000202020A1
:104FD00020202020E0000000000000000000000071
:104FE0000000800000000000008080808000000041
:104FF00000000000000000000000000000000000B1
:105000000000000000000040C33806007F00FF00E1
:105010007F007F0000FF000404FD00000909F9097A
:10502000091F6181018100100C03FE00020C700059
:1050300000E01E04000000000202FAAAAAAEABAA19
:10504000AAAAFA020200000000000C0C00000000F6
:105050000E018141310E0000000000000000000040
:105060000000000000000000000000000000000040
:1050700000000000000000007F4444447F0109312B
:105080000101FF0101010000FF0000007F494949C3
:10509000497F0000FF00000000000C0C0000000031
:1050A0000101FF00000000000780402018070000F9
:1050B0003048484848980000000000000000000008
:1050C00000000000000000000F00000804030001C1
:1050D00006000004080700000007020102020101A7
:1050E00001000001020700000000070202020202A4
:1050F000030202020202000808080F0A0A0A0A0A4A
:105100000A0A0F080808000000000303000000005E
:105110000605040404060000000000000000000072
:10512000000000000000000000000000000000007F
:10513000000000000000000000000000000000006F
:1051400004080700000000000F000000000000003D
:105150000000040807000000000003030000000036
:105160000202030202000000030202020203000026
:105170000302020202010000000000000000000023
:10518000000000000000006251494600003E41411D
:105190003E0000427F4000000027454539000404DE
:1051A00004040400003E41413E003E4949493000AC
:1051B000040404040400003E41413E000022494929
:1051C000360000000000000000427F4000000006A2
:1051D00049493E0000004400000000427F400000BA
:1051E0003E49494930000000440000000062514936
:1051F0004600003E41413E0000000000000000006B
:10520000000000000000000000000000000000009E
:10521000000000000000000000000000000000008E
:10522000000000000000000000000000000000007E
:10523000000000000000000000000000000000006E
:1052400000000001010101010101010101010F0F35
:1052500008080808080808080808080808080808CE
:105260000808080F0F0101010101010101010101FD
:105270000000000000000000000001010101010128
:10528000010101010101010101010101010101010E
:10529000010101070F0F0F0F0000000000000000C8
:1052A000000000000103060C0C0C08080C0C0C0696
:1052B00006030301010000000000000000000000E0
:1052C000010100000000000000000000607C7F671A
:1052D0003030303018181819190F0F0F0F0F000049
:1052E000000000000000000F0F0F0F0B1919181815
:1052F0001830303061677F786000000000000000E7
:1053000000000080E0F83E0F030000000000FF00F6
:10531000000000000000000000000000000000008D
:1053200000000000FF000000000001071E78E08080
:1053300000000000000000000000FFE0F0FFC000DF
:10534000000000000000000000000000000000005D
:10535000000000000000FFFF00000000000000004F
:1053600000000000FFFF000000000000000000003F
:1053700000000080C0C0E06060303030303060E05D
:10538000FFFF00000000000000000000000000E03F
:10539000F83F0700000000FF8080C0C0C0C0C0C050
:1053A000C0C0C0C0C0C0C0C0C0C0C08080FF0000BE
:1053B00000000F3FF8C000000000000000000000E7
:1053C000000000000000038FFEF800000000FF0056
:1053D00000000000000000000000000000000000CD
:1053E00000000000FF0000000070FC8F03000000C0
:1053F00000000000000000000000FF0000FF0000AF
:10540000000000000000000000000000000000009C
:10541000000000000000FFFF00000000000000008E
:1054200000000000FFFF0101030303030303010168
:10543000000000000000000000000000000000006C
:10544000FFFF0000000000000000000001070F3C0B
:10545000F0C08000000000FF00000000000000001D
:1054600000000000000000000000000000FF00003D
:10547000000080E0F83C0F03000000000000000086
:105480000000000C3CFCEC8C0C0C0C0C0C0CFC7CA0
:105490007C7C7C7C7C6060606060606060607C7C48
:1054A0007C7C7C7CFC0C0C0C0C0C0C0CCCFC3C0CAC
:1054B00000000000000000000000FC1C0CFC7860F4
:1054C00060606060606060606060606060606060DC
:1054D000606060606060E0C00000000000000000EC
:1054E00000000000E0E0C0800000000000008080BC
:1054F000C0C060603038181C0C0C0C040C0C1C185C
:10550000F0E000000000000000000000C0C0C0602B
:1055100060603030303010FF1F01010101010100D7
:105520000000000000000101010101011FFF3030F7
:10553000303030606060C0C0C0000000000000007B
:105540000F0F0F0F0F0F0F0F0F0F0F0F0F0F0F0F6B
:105550000F0F0F0F0F0F0F0F0F0F0F0F0F0F0F0F5B
:105560000F0F0F0F0F0F0F0F0F0F0F0F0F0F0F0F4B
:105570000F0F0F0F0F0F0F0F0F0F0F0F0F0F0F0F3B
:105580000F0F0F0F0F0F0F0F0F0F0F0F0F0F0F0F2B
:105590000F0F0F0F0F0F0F0F0F0F0F0F0F0F0F0F1B
:1055A0000F0F0F0F0F0F0F0F0F0F0F0F0F0F0F0F0B
:1055B0000F0F0F0F0F0F0F0F0F0F0F0F0F0F0F0FFB
:1055C0000F0F0F0F0F0F0F0F0F0F0F0F0F0F0F0FEB
:1055D0000F0F0F0F0F0F0F8F8F8F8F8F8F8F8F8F5B
:1055E0008F8F8F8F8F8F8F8F8F8F8F8F8F8F0F0FCB
:1055F0000F0F0F0F0F0F0F0F0F0F0F0F0F0F0F0FBB
:10560000FFFFFFFFFFFFFFFFFFFFFFFFFFFFFFFFAA
:10561000FFFFFFFFFFFFFFFFFFFFFFFFFFFFFFFF9A
:10562000FFFFFFFFFFFFFFFFFFFFFFFFFFFFFFFF8A
:10563000FFFFFFFFFFFFFFFFFFFFFFFFFFFFFFFF7A
:10564000FFFFFFFFFFFFFFFFFFFFFFFFFFFFFFFF6A
:10565000FFFFFFFFFFFFFFFFFFFFFFFFFFFFFFFF5A
:10566000FFFFFFFFFFFFFFFFFFFFFFFFFFFFFFFF4A
:10567000FFFFFFFFFFFFFFFFFFFFFFFFFFFFFFFF3A
:10568000FFFFFFFFFFFFFFFFFFFFFFFFFFFFFFFF2A
:10569000FFFFFFFFFFFFFFFFFFFFFFFFFFFFFFFF1A
:1056A000FFFFFFFFFFFFFFFFFFFFFFFFFFFFFFFF0A
:1056B000FFFFFFFFFFFFFFFFFFFFFFFFFFFFFFFFFA
:1056C000C0C0C0C0C0C0C0C0C0C0C0C0C0C0C0C0DA
:1056D000C0C0C0C0C0C0C0C0C1C3C3C0C0C0C0C0C3
:1056E000C0C0C0C0C0C0C0C0C0C0C0C0C0C0C0C0BA
:1056F000C0C0C0C0C0C0C0C0C0C0C0C0C0C0C0C0AA
:10570000C0C0C0C0C0C0C1C1C3C3C3C3C3C0C0C088
:10571000C0C0C0C0C0C0C0C0C0C0C0C0C0C0C0C089
:10572000C0C0C0C0C0C0C0C1C1C1C3C3C3C3C3C364
:10573000C3C3C3C3C3C1C1C1C1C0C0C0C0C0C0C056
:10574000C0C0C0C0C0C0C0C0C0C0C0C0C0C0C0C059
:10575000C0C0C0C0C0C0C0C0C0C0C0C0C0C0C0C049
:10576000C0C0C0C0C0C0C0C0C0C0C0C0C0C0C0C039
:10577000C0C0C0C0C0C0C0C0C0C0C0C0C0C0C0C029
:10578000000000000000000000001E0F0F060606CB
:105790000303010100000E7FF7C7F77F1E02000020
:1057A0000103030706060D0F1E080000000000009D
:1057B00000000000000000000000000000000003E6
:1057C0000F1E3870E0C0879F3CF0C08000000000D2
:1057D0000000000000000000000000000003070EB1
:1057E0001C38306060C0C080808000000000000075
:1057F0000000000000808080C0C0C0607030181CB5
:105800000E0703000000000000000000000000017F
:1058100003070C183030306060606060606060606A
:10582000303030181C0C1C18303030606060606004
:1058300060606060303038180C0703010000000021
:10584000000000000000000101010103C3F33377F1
:10585000FEF8B060E0C0C08080808080C0C0C060C2
:10586000F0F8FC7F33F0E383030101010000000046
:10587000000000000000000000000000001FFFE02A
:10588000000000001FFFE00000000000000000001A
:10589000000000000000000000001F7FF0C00000BA
:1058A0000000000000003C3C7E7E7C3C00000000CC
:1058B000000000003C7C7E7E3C38000000000000C0
:1058C0000080C0F83F0F000000000000000000F062
:1058D000FC1E0703010000000000000000000000A3
:1058E00000000000000000000000000000000000B8
:1058F0000000000000000103061CF8E000000000AA
:1059000000000040E0E0E0B0B0B0B018F8F9F9FDF8
:105910000F03010000000000000000000000000074
:10592000010307FFF901F81818B0B0B0E0E0E0405B
:1059300000000000000000000000000000FFFF0069
:1059400000000000FFFF0000000000000000000059
:10595000000000000000000000E0FF1F0100000048
:105960000000000000000000000000000000000037
:105970000000000000000000000000000000000027
:1059800000000003FFFE0000000000000000000017
:1059900000000080C0C06030180C06030100000049
:1059A00000000000000000000000000000000103F3
:1059B000060C183060C080000000000000000000ED
:1059C00000000000000000000000071E7EEE8CCCEE
:1059D000F8F8F0D0E0606E3F3938393F2F6860C08A
:1059E000F0F8F8DC8CECF63E0F020000000000003E
:1059F0000000000000000000000000000000E0F8CF
:105A00001E0F030100E0FC1F070100000000000062
:105A10000000000000000000000000C0E0781C0E44
:105A200007030140606030301818180C0C0C0C0C87
:105A30000C0C0C0C0C1818183030606001010307B6
:105A40000E3C78E080000000000000000000000034
:105A500000000000000000000000000080C0603076
:105A6000180C060301000103060C183060C080000A
:105A70000000000000000000000000000000000026
:105A80000000000000000000000000000000000016
:105A900000000000000000C0F078F8C00000000026
:105AA00000000000000000000000000000000000F6
:105AB00000000000000000000000000000000000E6
:105AC000000080C0E060303098F87838180000009E
:105AD00000000000000000000000000000000000C6
