:020000040800F2
:10000000000B002095270008CD040008CF0400084D
:10001000D3040008D7040008DB0400080000000037
:10002000000000000000000000000000DF040008E5
:10003000E104000800000000E3040008E5040008F3
:10004000AF270008AF270008AF270008AF27000838
:10005000AF270008AF270008AF270008AF27000828
:10006000AF270008AF270008AF270008AF27000818
:10007000AF270008AF270008AF270008AF27000808
:10008000AF270008AF270008AF270008AF270008F8
:10009000AF270008AF270008AF270008AF270008E8
:1000A000AF270008AF270008AF270008AF270008D8
:1000B000AF2700088F2A0008AF270008AF270008E5
:1000C000AF270008AF270008AF270008AF270008B8
:1000D000AF2700082F380008AF270008AF27000817
:1000E000AF270008AF270008AF270008AF27000898
:1000F000AF270008AF270008AF270008AF27000888
:10010000AF270008AF270008AF270008AF27000877
:10011000AF270008AF270008AF270008AF27000867
:10012000AF270008AF270008AF270008AF27000857
:1001300000F002F800F05AF80AA090E8000C82449F
:100140008344AAF10107DA4501D100F04FF8AFF27C
:10015000090EBAE80F0013F0010F18BFFB1A43F0A5
:10016000010318477C3D00009C3D00000A444FF00D
:10017000000C10F8013B13F0070408BF10F8014B06
:100180001D1108BF10F8015B641E05D010F8016B4B
:10019000641E01F8016BF9D113F0080F1EBF10F8AF
:1001A000014BAD1C0C1B09D16D1E58BF01F801CBD2
:1001B000FAD505E014F8016B01F8016B6D1EF9D555
:1001C0009142D6D37047000000230024002500266A
:1001D000103A28BF78C1FBD8520728BF30C148BFAA
:1001E0000B6070471FB51FBD10B510BD03F04DFB70
:1001F0001146FFF7F7FF00F02BF803F06BFB03B499
:10020000FFF7F2FF03BC03F05BFA000010B50246F3
:100210000023002402E01344601CC4B28C42FADBC9
:10022000B3FBF1F080B210BD08B50121080201F066
:100230004BF84FF48040ADF8000010208DF803001B
:1002400003208DF802006946964800F081FD08BD44
:10025000A4B00027FFF7E8FF02F0BCFA00F043F972
:100260004FF4A06000F054F94FF4E13003F037FA96
:10027000642142F2273002F022FC4FF448718A4890
:1002800001F050FF642141F6613002F059FC4FF457
:100290004871864801F044FF642141F2797002F010
:1002A000E7FA4FF44871480601F03AFF642141F241
:1002B000797002F02AFB4FF448717D4801F030FF5D
:1002C000642141F2797002F06DFB4FF44871794876
:1002D00001F026FF02F036FD02F03CFE4FF6FF7003
:1002E00002F015FF0020744908604FF6FF70734953
:1002F000086003F07FF9D4E04FF4FA7002F09AFA44
:10030000B8F1000F07D14FF48041664800F0CFFDEF
:100310004FF001080AE04FF48041624800F0C5FD4B
:100320004FF000080421664803F065FA64210220BA
:1003300002F075FD1C906421032002F070FD1D90F9
:100340006421042002F06BFD1E906421052002F060
:1003500066FD1F906421062002F061FD209064215B
:10036000072002F05CFD21906421082002F057FD77
:1003700014906421092002F052FD159064210A2096
:1003800002F04DFD169064210B2002F048FD1790FD
:1003900064210C2002F043FD189064210D2002F02E
:1003A0003EFD199064210E2002F039FD1A9064215F
:1003B0000F2002F034FD1B90002446E01CA931F808
:1003C000241088B26421FFF721FF3E4921F8140070
:1003D00014A931F8241088B26421FFF717FF3A49B5
:1003E00021F81400374830F814000CA951F82410F3
:1003F00088420AD0012002A90855022C08D1012206
:100400001146294801F00FFC02E0002002A908551E
:100410002D4830F8140004A951F82410884203D064
:1004200001200DF8040002E000200DF8040025482A
:1004300030F814000CA941F82400234830F81400C7
:1004400004A941F82400601CC4B2082CB6DB00BF2C
:1004500000251BE002A8405D012803D01DF805001F
:10046000012812D1174B33F81520174B33F815100C
:10047000E8B202F0ABFB144B13F81520114B33F824
:1004800015106B1CD8B203F07CF86D1C082DE1DB55
:10049000002600E0761C0A2EFCDB7F1C082F00DB08
:1004A000002729E70020014000040040002C014003
:1004B0000008004000340140AC030020B0030020DD
:1004C00000000020C8030020BC030020704700BFCC
:1004D000FEE700BFFEE700BFFEE700BFFEE7704794
:1004E00070477047704708B54FF4A06000F010F8EF
:1004F0001D208DF8000001208DF8010000208DF8EE
:10050000020001208DF80300684600F006F808BDDF
:1005100031490143314A1160704770B50021002311
:100520000F22C47804B32D4C246804F4E064C4F5AD
:10053000E064210AC1F10403CA40447804FA03F1DB
:100540008478144021430901254C0678A15504788C
:1005500004F01F050124AC4005786D11AD0005F1D4
:10056000E025C5F8004109E0047804F01F050124E6
:10057000AC401C4D0678761145F8264070BD1A4AED
:100580000A400243154B1B1F1A60704739B1134ACA
:10059000121D12680243114B1B1D1A6006E00F4A20
:1005A000121D126882430D4B1B1D1A6070470428F0
:1005B00008D14FF0E021096941F004014FF0E02239
:1005C000116107E04FF0E021096921F004014FF0CB
:1005D000E0221161704700000000FA050CED00E018
:1005E00000E400E080E100E080FFFF1F10B504465A
:1005F000FA48844208D10121401500F07FFE002115
:10060000601500F07BFE17E0F548844208D1012117
:10061000001500F073FE0021201500F06FFE0BE0C6
:10062000F048844208D10121C80300F067FE002190
:100630004FF4004000F062FE10BD30B502460020CD
:1006400000235068E84C20400D790C6844EA0524EA
:10065000204350609068E54C2040D1E902542C437F
:100660004D7944EA450420439060D06A20F470003C
:100670000C7C641EE4B2234340EA0350D06230BDD8
:1006800000210160017141718160C160012101742B
:10069000704721B1826842F00102826003E0826803
:1006A00022F001028260704721B1826842F48072B8
:1006B000826003E0826822F480728260704710B525
:1006C0000023CBB21AB144681C43446002E0446882
:1006D0009C43446010BD816841F00801816070470F
:1006E000014600208A6802F008020AB1012000E0F9
:1006F00000207047816841F0040181607047014625
:1007000000208A6802F004020AB1012000E0002003
:10071000704721B1826842F4A002826003E08268DF
:1007200022F4A00282607047014600208A6802F429
:1007300080020AB1012000E00020704710B50A468F
:1007400000210023416821F46041531E41EA4331F6
:10075000416010BD21B1426842F40062426003E092
:10076000426822F4006242607047F0B504460D46CC
:1007700000200021092D11DDE068A5F10A0606EB35
:100780004607072606FA07F18843A5F10A0606EB95
:10079000460603FA06F10843E0600CE0206905EB29
:1007A0004507072606FA07F1884305EB450603FAD5
:1007B00006F108432061072A0FDA606B561E06EB2C
:1007C00086071F2606FA07F18843561E06EB8606A3
:1007D00005FA06F10843606322E00D2A0FDA206B68
:1007E000D61F06EB86071F2606FA07F18843D61F99
:1007F00006EB860605FA06F10843206310E0E06A7E
:10080000A2F10D0606EB86071F2606FA07F18843BC
:10081000A2F10D0606EB860605FA06F10843E06232
:10082000F0BD21B1826842F48012826003E08268E8
:1008300022F48012826070470146C86C80B2704713
:1008400066484C300068704721B1426842F48062CB
:10085000426003E0426822F480624260704721B146
:10086000426842F48052426003E0426822F48052BF
:10087000426070470A460021816821F4E04111433B
:100880008160704721B1826842F40042826003E0D7
:10089000826822F400428260704721B1826842F48B
:1008A0000212826003E0826822F4021282607047C2
:1008B000014600208A6802F400120AB1012000E01B
:1008C00000207047F0B5044615460020002200269F
:1008D000092911DDE068A1F10A0707EB470C07279A
:1008E00007FA0CF29043A1F10A0707EB470703FA56
:1008F00007F21043E0600CE0206901EB410C072790
:1009000007FA0CF2904301EB410703FA07F2104398
:100910002061A06BC0F30156EF1C06F1010CA7EBA0
:100920000C0707EB870C1F2707FA0CF29043EF1C0C
:1009300006F1010CA7EB0C0707EB870701FA07F29A
:100940001043A063F0BD10B50A4600210023816B5F
:1009500021F44011531E41EA0351816310BD08B5D3
:10096000002300930090009B0B440093009B1A60AF
:1009700008BD08B5024600200090009201F1280051
:10098000009B184400900098006880B208BD0A4699
:1009900000214168164B1940114341607047416284
:1009A000826270470A460021416821F01F0111430D
:1009B0004160704740B109490831096841F40001BC
:1009C000064A0832116007E004490831096821F439
:1009D0000001024A08321160704700000024014003
:1009E00000280140003C0140FFFEF0FFFDF7F1FF51
:1009F000FFFD3FFF0246002013680B400BB10120B2
:100A000000E000207047CA430260704770B502469C
:100A10000020002300240B125568CEB205EA06041C
:100A200015681D4015B10CB1012000E0002070BD1B
:100A300000220A12D34303607047000001684FF69A
:100A4000FE72114001600021016041608160C1605F
:100A50008D49884208D18C490839496841F00F0115
:100A6000894A083A51608AE087491431884208D19E
:100A700085490839496841F0F001834A083A5160D4
:100A80007DE081492831884208D17F490839496889
:100A900041F470617C4A083A516070E07A493C3117
:100AA000884208D178490839496841F47041764A4A
:100AB000083A516063E074495031884208D1724964
:100AC0000839496841F470216F4A083A516056E08C
:100AD0006D496431884208D16B490839496841F44D
:100AE0007001694A083A516049E0674978318842A3
:100AF00008D165490839496841F07061624A083A8D
:100B000051603CE06149884206D1011F096841F00B
:100B10000F01021F116032E05C491431884208D194
:100B20005A49091F096841F0F001584A121F116023
:100B300025E056492831884208D15449091F0968DF
:100B400041F47061514A121F116018E04F493C3165
:100B5000884208D14D49091F096841F470414B4A48
:100B6000121F11600BE049495031884207D14749B3
:100B7000091F096841F47021444A121F116070472F
:100B800010B50022026847F6F0739A430C6A8B682E
:100B900023430C6923434C6923438C692343CC6969
:100BA00023434C6A23438C6A23431A430260CB6875
:100BB00043600B6883604B68C36010BD0021016017
:100BC00041608160C160016141618161C161016217
:100BD00041628162704721B1026842F00102026005
:100BE00004E002684FF6FE731A40026070471AB1C3
:100BF00003680B43036002E003688B4303607047A4
:100C0000416070470146486880B270470146002045
:100C1000002201F080531BB11C4B083B1A6802E014
:100C2000194B083B1A6802EA01030BB1012000E0EE
:100C30000020704700F0805119B11449091F086065
:100C400002E011490839486070470146002000223F
:100C500001F080531BB10D4B083B1A6802E00A4BB0
:100C6000083B1A6802EA01030BB1012000E00020F2
:100C7000704700F0805119B10449091F086002E073
:100C800001490839486070470800024008040240E2
:100C900010B50446CC48844208D10121042000F05C
:100CA0002DFB0021042000F029FB46E0C7488442C8
:100CB00008D10121082000F021FB0021082000F0CC
:100CC0001DFB3AE0C248844208D10121102000F007
:100CD00015FB0021102000F011FB2EE0BD488442DE
:100CE00008D10121202000F009FB0021202000F084
:100CF00005FB22E0B848844208D10121402000F0E1
:100D0000FDFA0021402000F0F9FA16E0B3488442D1
:100D100008D10121802000F0F1FA0021802000F0AC
:100D2000EDFA0AE0AE48844207D10121801500F0B7
:100D3000E5FA0021A01500F0E1FA10BD10B501217F
:100D4000084600F0DBFA0021012000F0D7FA10BDC0
:100D50002DE9F04102460025002600200023002452
:100D6000002791F803C00CF00F0591F803C00CF0B8
:100D7000100CBCF1000F03D091F802C04CEA05053D
:100D800091F800C0BCF1000F31D0146800202BE0B6
:100D90004FF0010C0CFA00F3B1F800C00CEA0306A6
:100DA0009E4220D183004FF00F0C0CFA03F7BC4396
:100DB00005FA03FC4CEA040491F803C0BCF1280FC7
:100DC00006D14FF0010C0CFA00FCC2F814C00AE086
:100DD00091F803C0BCF1480F05D14FF0010C0CFA9B
:100DE00000FCC2F810C0401C0828D1D31460B1F830
:100DF00000C0BCF1FF0F34DD546800202EE000F18C
:100E0000080C4FF0010808FA0CF3B1F800C00CEA26
:100E100003069E4221D183004FF00F0C0CFA03F71A
:100E2000BC4305FA03FC4CEA040491F803C0BCF18E
:100E3000280F05D100F1080C08FA0CF8C2F814804C
:100E400091F803C0BCF1480F07D100F1080C4FF036
:100E5000010808FA0CF8C2F81080401C0828CED30C
:100E60005460BDE8F0814FF6FF710180022181706E
:100E70000421C17070470246002093680B400BB1FB
:100E8000012000E0002070470146886880B270476A
:100E900002460020D3680B400BB1012000E0002087
:100EA00070470146C86880B2704701617047416170
:100EB00070470AB1016100E041617047C16070474D
:100EC0004FF480320A438261816182618269826962
:100ED000704702460020434B18684FF68073184055
:100EE00040EA021008433F4B186070473E49C86112
:100EF0007047F0B50A46002300240021002500F0C9
:100F00000046B6F1004F02D1364EF16901E0354E90
:100F10007168C0F3034583B200F44016B6F5401F74
:100F200008D121F070612F4E766826F070662D4F43
:100F30007E6012E000F48016B6F5801F06D103260D
:100F400006FA05F4A14341F0706106E0460D360152
:100F500003FA06F6B14341F0706122B1460D360145
:100F600003FA06F6314300F00046B6F1004F02D115
:100F70001C4EF16101E01B4E7160F0BD30B50022E6
:100F80008B071C0F0F2303FA04F2164B08338C1047
:100F900053F824309343134C08348D1044F8253013
:100FA00023468C1053F824308C07240F00FA04F4E5
:100FB00023430C4C08348D1044F8253030BD0A49C9
:100FC000DC3108607047000000080140000C01405F
:100FD000001001400014014000180140001C0140B5
:100FE000002001400000014000002042DF4800686E
:100FF00040F00100DD49086008464068DC490840CF
:10100000DA49486008460068DA490840D74908606C
:101010000846006820F4802008600846406820F4F4
:10102000FE0048604FF41F0088607047CF49096890
:1010300021F48031CD4A11601146096821F48021E4
:101040001160B0F5803F03D0B0F5802F0ED106E0DF
:10105000C649096841F48031C44A116007E0C349B8
:10106000096841F4A021C14A116000E000BF00BF3F
:10107000704710B501460022002300204A11012AC2
:1010800002D1BA4C236806E0022A02D1B74C236A87
:1010900001E0B64C636A01F01F02012494401C4039
:1010A0000CB1012000E0002010BD38B500200090F8
:1010B0000024002500BF3120FFF7DBFF0546009824
:1010C000401C00900098B0F5A06F01D0002DF2D028
:1010D0003120FFF7CEFF08B1012400E000242046B4
:1010E00038BD01460020A14A106820F0F80040EA0F
:1010F000C10010607047A049086070470246002098
:101100009A4B586820F47C1042EA01031843974B2D
:101110005860704798490866704701460020934A16
:10112000506820F003000843506070478F484068C3
:1011300000F00C007047014600208C4A506820F0F7
:10114000F00008435060704701460020874A50680D
:1011500020F4E06008435060704701460020834A55
:10116000506820F4605040EAC1005060704729B1D7
:101170007E4A527A02437D4B5A7204E07B4A527A8D
:1011800082437A4B5A7270477B49D8310860704766
:1011900001460020754A506820F4404008435060E2
:1011A00070470021714A20321170704A82F8201075
:1011B000012802D004280AD104E001216B4A203220
:1011C000117005E00521694A2032117000E000BF6E
:1011D00000BF70476949086070476449096A014364
:1011E000624A11627047654944390860704730B5FA
:1011F00000210022002400235C4D6D6805F00C01E5
:1012000021B1042905D0082923D105E05C4D0560F2
:1012100022E05B4D05601FE0544D6D6805F47012CF
:10122000524D6D6805F48034022505EB92421CB9DD
:10123000544D554305600BE04C4D6D6805F4003589
:101240001DB1504D5543056002E04D4D55430560BD
:1012500002E04B4D056000BF00BF444D6D6805F0D6
:10126000F0010909484D6B5C0568DD4045603F4D64
:101270006D6805F4E061090A434D6B5C4568DD402B
:1012800085603A4D6D6805F46051C90A3E4D6B5C4E
:101290004568DD40C560354D6D6805F44041890BFA
:1012A0003A4D6B5CC568B5FBF3F5056130BD29B1FE
:1012B0002E4A526902432D4B5A6104E02B4A52696F
:1012C00082432A4B5A61704729B1284A92690243E6
:1012D000264B9A6104E0254A92698243234B9A6126
:1012E000704729B1214AD2690243204BDA6104E0F8
:1012F0001E4AD26982431D4BDA61704729B11B4AED
:10130000D2680243194BDA6004E0184AD26882437B
:10131000164BDA60704729B1144A12690243134B25
:101320001A6104E0114A12698243104B1A61704736
:1013300012494039086070470F49C86470470B492B
:10134000C87170470948406A40F080700749486298
:10135000704701460020054A92680A400AB1012000
:1013600000E0002070470149887270470010024079
:101370000000FFF8FFFFF6FE0000424280044242F8
:1013800000127A0000093D00040000201400002033
:1013900010B50446FE48844208D10121C014FFF76D
:1013A000ADFF0021E014FFF7A9FFC4E0B4F1804FC6
:1013B00008D101210846FFF7AEFF00210120FFF709
:1013C000AAFFB8E0F348844208D101210220FFF7C8
:1013D000A2FF00210220FFF79EFFACE0EE4884420E
:1013E00008D101210420FFF796FF00210420FFF718
:1013F00092FFA0E0E948844208D101210820FFF7CC
:101400008AFF00210820FFF786FF94E0E448844229
:1014100008D101211020FFF77EFF00211020FFF7E7
:101420007AFF88E0DF48844208D101212020FFF7BD
:1014300072FF00212020FFF76EFF7CE0DA48844233
:1014400008D101214014FFF759FF00216014FFF774
:1014500055FF70E0D548844209D10121C804FFF747
:101460004DFF00214FF40020FFF748FF63E0D04814
:10147000844209D101210805FFF740FF00214FF404
:101480008010FFF73BFF56E0CA48844209D1012192
:101490004805FFF733FF00214FF40010FFF72EFF40
:1014A00049E0C548844208D101214020FFF733FFBD
:1014B00000214020FFF72FFF3DE0C048844208D1C3
:1014C00001218020FFF727FF00218020FFF723FF65
:1014D00031E0BB48844208D101218015FFF71BFF92
:1014E0000021A015FFF717FF25E0B648844209D177
:1014F00001210804FFF702FF00214FF48030FFF7BD
:10150000FDFE18E0B048844209D101214804FFF7EC
:10151000F5FE00214FF40030FFF7F0FE0BE0AB4882
:10152000844208D101218804FFF7E8FE00214FF42E
:101530008020FFF7E3FE10BD00220288944B984202
:101540000ED0994B98420BD0B0F1804F08D0914B00
:10155000984205D0904B984202D0904B984204D1CB
:101560004FF68F731A404B881A438D4B984207D021
:101570008C4B984204D04FF6FF431A40CB881A4355
:1015800002808B8883850B880385814B98420BD022
:10159000854B984208D08B4B984205D08A4B984295
:1015A00002D08A4B984201D10B7A038601238382B1
:1015B000704770B5002400220023058C4FF6FE769C
:1015C00035400584028C8388048B4FF68F752C4040
:1015D000B51E2C400D882C43751E2A400D892A43C8
:1015E0004D882A436A4DA8420BD06F4DA84208D0BF
:1015F000744DA84205D0744DA84202D0734DA84244
:1016000013D14FF6F7752A404D892A434FF6FB75E3
:101610002A408D882A434FF6FF652B404FF6FF5531
:101620002B408D892B43CD892B4383800483CD8828
:101630008586028470BD70B5002400220023058CCD
:101640004FF6EF7635400584028C8388048B48F68C
:10165000FF752C404FF6FF452C400D884FF6FF7666
:1016600006EA05252C434FF6DF752A400D8906EA68
:1016700005152A434D8806EA05152A43444DA8421C
:1016800002D0494DA8421DD14FF67F752A404D89A1
:101690004FF6FF7606EA05152A434FF6BF752A4036
:1016A0008D8806EA05152A434FF6FF352B404FF289
:1016B000FF752B408D8906EA85052B43CD8906EA07
:1016C00085052B4383800483CD880587028470BD04
:1016D00070B5002400220023058C4FF6FF663540CC
:1016E0000584028C8388848B4FF68F752C404FF6CF
:1016F000FC752C400D882C434FF6FF552A400D8970
:101700004FF6FF7606EA05252A434D8806EA0525A9
:101710002A431F4DA84202D0234DA8421DD14FF2AB
:10172000FF752A404D894FF6FF7606EA05252A43C4
:101730004FF6FF352A408D8806EA05252A434EF6E6
:10174000FF752B404DF6FF752B408D8906EA051578
:101750002B43CD8906EA05152B4383808483CD88EE
:101760008587028470BD70B5002200230024058C9B
:101770004EF6FF7635400584038C8488828B48F6CC
:10178000FF752A404FF6FF452A400D8820E00000F3
:10179000002C01400004004000080040000C004004
:1017A000001000400014004000340140004C014093
:1017B000005001400054014000180040001C00404F
:1017C000002000400040014000440140004801402A
:1017D0004FF6FF7606EA05252A434DF6FF752B40A6
:1017E0000D8906EA05352B434D8806EA05352B435E
:1017F000FA4DA84202D0FA4DA84208D14BF6FF7527
:101800002C408D894FF6FF7606EA85152C4384809F
:101810008283CD88A0F84050038470BD828B4FF244
:10182000FF331A408283828B4FF6FF7303EA012352
:101830001A4382837047F0B50C46154600220021FA
:101840000026078C4EF6FF7C07EA0C070784828B84
:10185000018C4FF6FF7707EA043640F6FF473A401F
:101860004FF6FF7707EA05273A434FF6FF7707EA77
:1018700003373A43D94FB8420ED0D94FB8420BD0B4
:10188000B0F1804F08D0D74FB84205D0D64FB842FC
:1018900002D0D64FB84206D14DF6FF77394046F414
:1018A0008057394305E047F6FF57394044F48057E5
:1018B000394382830184F0BD828B4FF6F3731A4063
:1018C0008283828B0A4382837047F0B50C461546AB
:1018D000002200210026078C4FF6FF6C07EA0C0758
:1018E0000784828B018C4FF6FF7707EA04264FF6B8
:1018F0000C773A404FF6FF7707EA03172F433A4336
:10190000B64FB8420ED0B64FB8420BD0B0F1804FB0
:1019100008D0B44FB84205D0B34FB84202D0B34F4D
:10192000B84206D14FF6FF57394046F48077394325
:1019300005E04FF2FF57394044F480773943828302
:101940000184F0BD028B4FF2FF331A400283028BF9
:101950004FF6FF7303EA01231A4302837047F0B581
:101960000C461546002200210026078C4FF6EF7C1E
:1019700007EA0C070784028B018C4FF6FF7707EA12
:10198000041640F6FF473A404FF6FF7707EA033761
:101990003A434FF6FF7707EA05273A438F4FB8429D
:1019A0000ED08F4FB8420BD0B0F1804F08D08D4F82
:1019B000B84205D08C4FB84202D08C4FB84206D105
:1019C0004FF6DF77394046F01007394305E04FF610
:1019D0005F77394044F01007394302830184F0BD3A
:1019E000028B4FF6F3731A400283028B0A43028381
:1019F0007047F0B50C46154600220021068C4FF6C4
:101A0000FE773E400684028B018C4FF60C76324006
:101A10007E1C06EA03162E433243704EB0420ED0AF
:101A20006F4EB0420BD0B0F1804F08D06D4EB04237
:101A300005D06D4EB04202D06C4EB04206D14FF68A
:101A4000FD76314044F00106314305E04FF6F5766E
:101A5000314044F00106314302830184F0BD70B58A
:101A600005460C465D4885420ED05D4885420BD048
:101A7000B5F1804F08D05B48854205D05A48854271
:101A800002D05A48854200D100E000BF208850B9FA
:101A90002389A28861882846FFF7ABFFE1882846A2
:101AA000FFF79EFF25E0208804280AD12389A28819
:101AB00061882846FFF753FFE1882846FFF742FF79
:101AC00017E0208808280AD12389A288618828463F
:101AD000FFF7FBFEE1882846FFF7EEFE09E02389C9
:101AE000A28861882846FFF7A6FEE1882846FFF70E
:101AF00095FE70BD2DE9F04105460C4600260127F4
:101B0000608808B9022600E00026A088012801D1DB
:101B1000022700E001272088A0B92389A2886188D4
:101B20002846FFF766FFE1882846FFF759FF23891B
:101B30003A4631462846FFF712FFE1882846FFF76C
:101B400001FF13E02389A28861882846FFF707FF79
:101B5000E1882846FFF7F6FE23893A4631462846B3
:101B6000FFF747FFE1882846FFF73AFFBDE8F0811D
:101B70000A884B881A438B881A43CB881A430B89EF
:101B80001A434B891A438B891A43A0F844207047A3
:101B90004FF6FF71818000210180C1804180017278
:101BA00070470021018041808180C1800181418195
:101BB0008181C181704700210180418001218180A4
:101BC0000021C18001817047002101804180818016
:101BD000C18001814181818170470000002C01405A
:101BE000003401400004004000080040000C0040A8
:101BF00021B1028842F00102028004E002884FF61F
:101C0000FE731A400280704731B1B0F8442042F4AC
:101C10000042A0F8442005E0B0F84420C2F30E02D0
:101C2000A0F8442070471AB183890B43838102E0F6
:101C300083898B43838170478182704741EA020325
:101C4000A0F8483070471AB183890B43838102E0C2
:101C500083898B438381704701894FF6F872114065
:101C6000018170470A46002101894FF68F731940A0
:101C700011430181704730B504460D462946204680
:101C8000FFF7F0FF208940F00700208130BD2DE9EB
:101C9000F04104460D4616461F46602D06D13B46D0
:101CA000012231462046FFF75AFE05E03B4601225D
:101CB00031462046FFF79DFE29462046FFF7D2FF1A
:101CC000208940F007002081BDE8F08130B50C4646
:101CD00000210189C9B24FF6FF7505EA03251543B6
:101CE00025432943018130BD2DE9F04105460E46CB
:101CF00017469846002443463A4631462846FFF7A1
:101D0000E5FF2C894FF6F870044044F007044FF6C5
:101D10008F70044044F070042C81BDE8F081F0B570
:101D200004460D4616461F463B4632462946204687
:101D3000FFF7CCFF208940F480402081F0BD018571
:101D4000828270470A46002101884FF68F7319403E
:101D5000114301807047F0B50C4615461E46002120
:101D6000002200230189028B038C4FF6F87739405B
:101D700021434FF6FC473A4040F201173A434FF6F1
:101D8000DD773B404FF6FF7707EA06172F433B43CB
:101D9000018102830384F0BD0A460021018B4FF6C6
:101DA0008F7319401143018370470A460021018B4C
:101DB00048F6FF7319404FF6FF7303EA02231943F5
:101DC000018370470A460021818B4FF68F731940BB
:101DD0001143818370470A460021818B48F6FF73C7
:101DE00019404FF6FF7303EA0223194381837047BA
:101DF00021B1028842F08002028004E002884FF69E
:101E00007F731A400280704721B1828842F0040239
:101E1000828004E082884FF6FB731A40828070470C
:101E200021B1828842F00802828004E082884FF665
:101E3000F7731A408280704721B1828842F0010214
:101E4000828004E082884FF6FE731A4082807047D9
:101E50000A460021018B4FF6F773194011430183A5
:101E600070470A460021018B4FF2FF7319404FF66D
:101E7000FF7303EA02231943018370470A460021D6
:101E8000818B4FF6F77319401143818370470A46DF
:101E90000021818B4FF2FF7319404FF6FF7303EA65
:101EA00002231943818370470A460021018B4FF6B4
:101EB000FB7319401143018370470A460021018BCF
:101EC0004FF6FF3319404FF6FF7303EA022319431D
:101ED000018370470A460021818B4FF6FB7319403E
:101EE0001143818370470A460021818B4FF6FF33EF
:101EF00019404FF6FF7303EA0223194381837047A9
:101F00000A460021018B4FF67F731940114301836C
:101F100070470A460021018BC1F30E014FF6FF7393
:101F200003EA02231943018370470A460021818B8B
:101F30004FF67F7319401143818370470A46002191
:101F4000818BC1F30E014FF6FF7303EA022319439D
:101F5000818370470A460021018C4FF6FD731940BA
:101F60001143018470470A460021018C4FF6F77334
:101F700019401143018470470A460021018C4FF635
:101F8000DF7319404FF6FF7303EA0213194301840C
:101F900070470A460021018C4FF67F7319404FF6B7
:101FA000FF7303EA02131943018470470A460021B4
:101FB000018C4FF6FF5319404FF6FF7303EA0223DB
:101FC0001943018470470A460021018C4FF2FF73C8
:101FD00019404FF6FF7303EA022319430184704747
:101FE0000A460021018C4DF6FF7319404FF6FF732E
:101FF00003EA023319430184704730B500230124FA
:102000008C40A3B2048C9C430484048C02FA01F536
:10201000ADB22C43048430BD30B5002304248C4081
:10202000A3B2048C9C430484048C02FA01F5ADB283
:102030002C43048430BD70B50346002000241846AC
:10204000183001258D40ACB21D8CA5431D8409B10B
:10205000082909D100EB6100056825F070050560CD
:102060000568154305600EE00D1FC5F34E052844B5
:10207000056825F4E045056005684FF6FF7606EA39
:1020800002263543056070BD21B1028842F002028C
:10209000028004E002884FF6FD731A400280704708
:1020A00021B1028842F00402028004E002884FF667
:1020B000FB731A400280704721B1828842F080028F
:1020C000828004E082884FF67F731A4082807047D6
:1020D00002884FF6F7731A40028002880A43028092
:1020E000704782884FF68F731A40828082880A4335
:1020F0008280704702894FF6F8731A400281028984
:102100000A430281704702894FF67F731A400281A9
:1021100002890A4302817047818470478185704734
:10212000818670470187704781877047A0F840100B
:10213000704702884FF6FF431A40028002880A4324
:10214000028070470146888E70470146088F7047AD
:102150000146888F70470146B1F84000704701463C
:10216000888C70470146088D704702460020138A0C
:102170000B400BB1012000E000207047CA430282EF
:10218000704730B50246002000230024158A05EA76
:102190000103958905EA010413B10CB1012000E0A7
:1021A000002030BDCA4302827047000010B50446CB
:1021B000FB48844209D101218803FFF79FF80021E1
:1021C0004FF48040FFF79AF832E0F648844209D194
:1021D00001214804FFF79FF800214FF40030FFF77A
:1021E0009AF825E0F048844209D101218804FFF7DC
:1021F00092F800214FF48020FFF78DF818E0EB48AB
:10220000844209D10121C804FFF785F800214FF469
:102210000020FFF780F80BE0E548844208D1012157
:102220000805FFF778F800214FF48010FFF773F8E6
:1022300010BD2DE9F04786B005460E460024A246A3
:1022400000BFA1460027B08900B100BF2F462C8AED
:102250004CF6FF700440F08804432C82AC894EF6A3
:10226000F3100440B088318908437189084304435E
:10227000AC81AC8A4FF6FF400440B0890443AC8285
:1022800001A8FEF7B4FFC648874202D1DDF810A0CE
:1022900001E0DDF80CA0A88900F4004040B10AEB91
:1022A000CA0000EB0A1031684900B0FBF1F807E002
:1022B0000AEBCA0000EB0A1031688900B0FBF1F8A4
:1022C0006420B8FBF0F004012009642101FB1089AF
:1022D000A88900F4004040B1322000EBC900B0FBF7
:1022E000F1F000F00700044308E0322000EB091091
:1022F0006421B0FBF1F000F00F0004432C8106B024
:10230000BDE8F0874FF41651016000218180C18043
:1023100001810C21418100218181704710B5024665
:102320000020108A4FF2FF0318400B884C8823438B
:102330008C882343CC8823431843108210BD00218E
:10234000018041808180C180704721B1828942F43F
:102350000052828104E082894DF6FF731A40828127
:102360007047F0B50346002400260025002040F603
:102370006A17B94200D100BF1846C1F3421401F0F8
:102380001F06012707FA06F5012C01D10C3004E0E5
:10239000022C01D1103000E014301AB107682F432D
:1023A000076002E00768AF430760F0BD1AB1838A97
:1023B0000B43838202E0838A8B4383827047028AC5
:1023C0004FF6F0731A400282028A0A430282704773
:1023D00082894FF2FF731A40828182890A43828187
:1023E000704721B1828942F00202828104E0828931
:1023F0004FF6FD731A4082817047028A4FF6DF73F1
:102400001A400282028A0A430282704721B1028A7C
:1024100042F48042028204E0028A4BF6FF731A40C3
:1024200002827047C1F308028280704701468888A3
:10243000C0F308007047818941F001018181704734
:10244000028BD2B20283028B42EA012202837047DE
:10245000028B02F47F420283028B0A43028370479D
:1024600021B1828A42F02002828204E0828A4FF601
:10247000DF731A408282704721B1828A42F01002D3
:10248000828204E0828A4FF6EF731A40828270479C
:1024900021B1828A42F00802828204E0828A4FF6E9
:1024A000F7731A408282704721B1828942F4004258
:1024B000828103E08289C2F30E028281704721B1DA
:1024C000828A42F40062828204E0828A4FF2FF73C1
:1024D0001A4082827047828A4FF6FB731A408282CA
:1024E000828A0A438282704721B1828A42F00202C4
:1024F000828204E0828A4FF6FD731A40828270471E
:1025000002460020B1F5007F00D100BF13880B40C8
:102510000BB1012000E00020704701F40072B2F519
:10252000007F00D100BFCA430280704770B50246E9
:10253000002400230025002040F66A16B14200D195
:1025400000BFC1F3421501F01F03012606FA03F391
:10255000012D02D19689334006E0022D02D1168A60
:10256000334001E0968A33400C12012606FA04F447
:102570001688344013B10CB1012000E0002070BD7A
:1025800010B50022002340F66A14A14200D100BF1A
:102590000A1201249440A3B2DC43048010BD000061
:1025A000003801400044004000480040004C00401A
:1025B000005000400CB50020019000906C4800686D
:1025C00040F480306A49086000BF6948006800F440
:1025D000003000900198401C0190009818B90198B3
:1025E000B0F5A06FF1D16248006800F4003010B17E
:1025F0000120009001E0002000900098012843D1C4
:102600005C48006840F010005A49086008460068BD
:1026100020F0030008600846006840F002000860EF
:102620005348406852494860084640684860084638
:10263000406840F4806048600846406820F47C10A0
:1026400048600846406840F4E81048600846006862
:1026500040F08070086000BF4548006800F00070DE
:102660000028F9D04248406820F003004049486003
:102670000846406840F00200486000BF3C4840689F
:1026800000F00C000828F9D10CBD10B5FFF792FF3F
:1026900010BD10B53648006840F0010034490860AC
:1026A0000846406834490840314948600846006897
:1026B000324908402E4908600846006820F480200E
:1026C00008600846406820F4FE0048604FF41F0090
:1026D0008860FFF7DAFF4FF000602949086010BDFD
:1026E00010B5002100200022214B5B6803F00C0193
:1026F00021B1042906D0082928D107E0214B224C1A
:10270000236027E01F4B204C236023E0184B5B68BD
:1027100003F47010164B5B6803F48032022303EB62
:10272000904022B9194B4343174C23600DE0104BE6
:102730005B6803F4003323B1144B4343124C236012
:1027400003E0104B4343104C236003E00D4B0E4C51
:10275000236000BF00BF064B5B68C3F303130C4C40
:10276000E15C094B1B68CB40074C236010BD0000A7
:1027700000100240002002400000FFF8FFFFF6FEBC
:1027800008ED00E000127A001800002000093D006A
:102790001C0000200948804709480047FEE7FEE783
:1027A000FEE7FEE7FEE7FEE7FEE7FEE7FEE7FEE701
:1027B00004480549054A064B704700009326000867
:1027C0003101000800050020000B00200007002058
:1027D0000007002008B501214820FEF775FD2020E4
:1027E000ADF8000010208DF8030003208DF80200E2
:1027F0002020ADF8000069460C48FEF7A9FA202118
:102800000A48FEF752FB01212020FEF75DFD40F251
:10281000FF10ADF8000003208DF8020010208DF8A5
:10282000030069460248FEF793FA08BD001801400C
:1028300000140140002105E0002200E0521C6E2A35
:10284000FCDB491C8142F7DB7047002105E00022D8
:1028500000E0521C012AFCDB491C00F10A039942EA
:10286000F5DB704710B504462046FFF7E3FF10BDC7
:1028700030B589B005460C4601210846FEF731FD0A
:1028800001210520FEF720FD0120ADF804001820ED
:102890008DF8070003208DF8060001A9FE48FEF719
:1028A00057FAADF81C50ADF818400020ADF81E00E6
:1028B000ADF81A0006A94FF08040FEF73DFE02A8D1
:1028C000FFF76FF96020ADF808000120ADF80A00AD
:1028D0006420ADF80E000020ADF8100002A94FF002
:1028E0008040FEF766FE0821C806FFF7B1FA012115
:1028F0008807FFF77DFA01218807FFF785F9012195
:102900008807FFF775F909B030BD30B589B00546C5
:102910000C4601210420FEF7E4FC01212020FEF7F3
:10292000D3FC01210803FEF7E4FA4FF48050ADF820
:10293000040018208DF8070003208DF8060001A977
:10294000D648FEF705FAADF81C50ADF81840002047
:10295000ADF81E00ADF81A0006A9D148FEF7ECFD4F
:1029600002A8FFF71EF96020ADF808000120ADF8BD
:102970000A006420ADF80E000020ADF8100002A996
:10298000C748FEF716FE0821C548FFF761FA012186
:10299000C348FFF72DFA0121C148FFF729F909B013
:1029A00030BD704730B589B005460C46012142F272
:1029B0001000FEF789FC4020ADF8040018208DF8C7
:1029C000070003208DF8060001A9B648FEF7C0F9FC
:1029D000ADF81C50ADF818400020ADF81E00ADF861
:1029E0001A0006A9B048FEF7A7FD02A8FFF7D9F81C
:1029F0006020ADF808000120ADF80A006420ADF8B1
:102A00000E000020ADF8100002A9A748FEF7D1FD86
:102A10000821A548FFF71CFA0121A348FFF7E8F9B0
:102A20000121A148FFF7F0F801219F48FFF7E0F8E6
:102A300009B030BD7FB505460C4601210220FEF7E6
:102A400050FCADF80850ADF804400020ADF80A0085
:102A5000ADF8060001A99548FEF76EFD012211466A
:102A60009248FFF7E0F81D208DF8000000208DF857
:102A7000010003208DF8020001208DF80300684654
:102A8000FDF74BFD01218948FFF7B2F87FBD10B576
:102A900001218648FFF775FB80B101218348FFF7CC
:102AA00081FB8348006808B9012000E000208049CC
:102AB0000860002201217D48FFF7B5F810BD30B550
:102AC00089B005460C4601210220FEF70AFC0121CF
:102AD0000920FEF7F9FB01217648FEF70AFA2020CB
:102AE000ADF8200018208DF8230003208DF8220077
:102AF00008A97148FEF72CF9ADF81850ADF814404C
:102B00000020ADF81A00ADF8160005A96748FEF7D9
:102B100013FD7020ADF804000120ADF8060002207E
:102B2000ADF80C0001A96148FEF785FD08215F485A
:102B3000FFF797F901215D48FFF75AF809B030BD5A
:102B400030B589B005460C46012140F60400FEF779
:102B5000BBFB4FF48070ADF8040018208DF807001F
:102B600003208DF8060001A94B48FEF7F1F8ADF8F7
:102B70001C50ADF818400020ADF81E00ADF81A004A
:102B800006A94E48FEF7D8FC02A8FFF70AF8602015
:102B9000ADF808000120ADF80A000020ADF81000E3
:102BA00002A94648FEF705FD08214448FFF750F901
:102BB00001214248FFF71CF901214048FFF724F8A2
:102BC00001213E48FFF714F809B030BD2DE9F0416E
:102BD00003460D4616460021DFF8E4C09CFBF6F4E0
:102BE00000270CE0B4F5803F04D301F1010C1FFA7B
:102BF0008CF100E005E007F1010C1FFA8CF7642F5F
:102C0000F0DB00BF01F1010CB4FBFCF4A0B24FF00B
:102C1000640C95FBFCFC0CFB00FC4FF064089CFB77
:102C2000F8FC1FFA8CF2062B7DD2DFE803F00316C6
:102C3000224B5C6DA0F1010CDFF8808008F12C08BC
:102C4000A8F800C0A8F1040CACF80010DFF86CC0C4
:102C50000CF1380CACF800206AE0A0F1010C4FF048
:102C60008048A8F82CC0C446ACF82810ACF838202E
:102C70005EE0A0F1010CDFF8348008F12C08A8F820
:102C800000C0A8F1040CACF80010DFF820C00CF173
:102C9000380CACF800204BE0000801400014014063
:102CA00000080040001001400034014000040040D2
:102CB0009401234200081A00000C0140002C01403E
:102CC00000A24A04A0F1010CDFF86C80A8F800C053
:102CD000A8F1040CACF80010DFF85CC00CF10C0C8F
:102CE000ACF8002024E0A0F1010CDFF85080A8F837
:102CF00000C0A8F1040CACF80010DFF840C00CF1E3
:102D00000C0CACF8002013E0A0F1010CDFF83080CF
:102D1000A8F800C0A8F1040CACF80010DFF820C03F
:102D20000CF10C0C00E002E0ACF8002000E000BF69
:102D300000BFBDE8F08100002C0800402C0C0040D2
:102D40002C34014000B587B001214FF40770FEF725
:102D5000BBFA4FF40040FEF71BFAFC20ADF804006C
:102D600000208DF8070001A93A48FDF7F1FF032084
:102D7000ADF8040000208DF8070001A93648FDF7E2
:102D8000E7FF3F20ADF8040000208DF8070001A9FF
:102D90003248FDF7DDFF3248FDF728FC00200290A5
:102DA0008DF80C008DF80D004FF460200490002089
:102DB000059001208DF8180002A92948FDF73DFC77
:102DC00001212748FDF765FC2548FDF784FC00BF7D
:102DD0002348FDF785FC0028FAD12148FDF78AFC3D
:102DE00000BF1F48FDF78BFC0028FAD107B000BDDB
:102DF00010B504460723012221461948FDF7B5FC0A
:102E000001211748FDF785FC00BF02211448FDF79A
:102E1000F1FD0028F9D01248FDF70EFD10BD2DE997
:102E2000F04107460C460025002608E03846FFF72B
:102E3000DFFF05440520FFF7FDFC701CC6B2A6426B
:102E4000F4DBB5FBF4F080B2BDE8F08110B5FFF71C
:102E500079FF10BD00080140000C01400010014046
:102E60000024014070B50446002517E00421F9480C
:102E7000FEF71DF804F0800020B10821F548FEF7A8
:102E800014F803E00821F348FEF711F80421F14893
:102E9000FEF70BF86006040E681CC5B2082DE5DBD2
:102EA00070BD10B504462021EA48FDF7FEFF20461C
:102EB000FFF7D8FF10BD10B504462021E548FDF707
:102EC000F4FFC4F30720FFF7CDFFE0B2FFF7CAFF1E
:102ED00010BD10B504462021DE48FDF7E8FF20466E
:102EE000FFF7C0FF10BD70B504460D46E0B2FFF716
:102EF000F0FF2846FFF7DFFF70BD2DE9F0410446E3
:102F00000D4616461F462A20FFF7E3FFC4F30720AD
:102F1000FFF7C7FFE0B2FFF7C4FFC6F30720FFF7D4
:102F2000C0FFF0B2FFF7BDFF2B20FFF7D2FFC5F3C4
:102F30000720FFF7B6FFE8B2FFF7B3FFC7F307209C
:102F4000FFF7AFFFF8B2FFF7ACFF2C20FFF7C1FF90
:102F5000BDE8F08108B501212020FEF7B5F97C20FD
:102F6000ADF8000010208DF8030003208DF802005A
:102F70006946B948FDF7ECFE7C21B648FDF795FFA0
:102F80001021B448FDF793FF1420FFF76BFC1021CC
:102F9000B048FDF78AFF1420FFF764FC4021AD48DC
:102FA000FDF783FF3620FFF794FF7020FFF779FFCE
:102FB0003A20FFF78EFF0520FFF773FFB220FFF7DF
:102FC00088FF0C20FFF76DFF0C20FFF76AFF002041
:102FD000FFF767FF3320FFF764FF3320FFF761FF40
:102FE000B720FFF776FF3520FFF75BFFBB20FFF729
:102FF00070FF1920FFF755FFC020FFF76AFF2C2054
:10300000FFF74FFFC220FFF764FF0120FFF749FFE2
:10301000C320FFF75EFF1220FFF743FFC420FFF736
:1030200058FF2020FFF73DFFC620FFF752FF0F207B
:10303000FFF737FFD020FFF74CFFA420FFF731FF49
:10304000A120FFF72EFFE020FFF743FFD020FFF77E
:1030500028FF0420FFF725FF0D20FFF722FF112096
:10306000FFF71FFF1320FFF71CFF2B20FFF719FFAF
:103070003F20FFF716FF5420FFF713FF4C20FFF708
:1030800010FF1820FFF70DFF0D20FFF70AFF0B20A0
:10309000FFF707FF1F20FFF704FF2320FFF701FFC3
:1030A000E120FFF716FFD020FFF7FBFE0420FFF71B
:1030B000F8FE0C20FFF7F5FE1120FFF7F2FE1320BB
:1030C000FFF7EFFE2C20FFF7ECFE3F20FFF7E9FEB5
:1030D0004420FFF7E6FE5120FFF7E3FE2F20FFF725
:1030E000E0FE1F20FFF7DDFE1F20FFF7DAFE2020A5
:1030F000FFF7D7FE2320FFF7D4FE2120FFF7E9FEDC
:103100001120FFF7E6FE2920FFF7E3FE08BD70B5AA
:103110000646EF231A4600210846FFF7EEFE00247C
:1031200008E0002503E03046FFF7C5FE6D1CF02DDA
:10313000F9D3641CF02CF4D370BD2DE9F047074699
:1031400088461446454E08F11F0307F11F02414609
:103150003846FFF7D2FE06EBC4164FF0000918E020
:1031600000250FE030780121A940084020B13C48FB
:103170000068FFF7A0FE03E03A480068FFF79BFEF7
:10318000681CC5B2082DEDDB761C09F1010000F0CA
:10319000FF09B9F1800FE3DBBDE8F08770B50446A5
:1031A0000D462B46224629462046FFF7A6FE2C4810
:1031B0000068FFF780FE70BD2DE9F04704460D461C
:1031C00016461F46DDF820A03B46324629462046DB
:1031D000FFF793FEA8460AE0A14604E05046FFF739
:1031E0006AFE09F10109B145F8D908F10108B845AD
:1031F000F2D9BDE8F08738B504460D461848006896
:10320000691E0090601E6B1C621CFFF7D5FF38BD65
:103210002DE9FF4F85B081468A4600200490039037
:103220000798A0EB09050898A0EB0A06CDF80890CE
:10323000CDF804A0002D01DD012705E00DB9002720
:1032400002E04FF0FF376D42002E0DDD4FF0010818
:1032500011E0000000140140000C01402C0000208F
:10326000B0030020AC03002016B94FF0000802E0C4
:103270004FF0FF387642B54201DD2C4600E034467F
:103280004FF0000B1DE0DDE90110FFF787FF049808
:10329000284404900398304403900498A04205DD2C
:1032A0000498001B04900298384402900398A042AE
:1032B00005DD0398001B03900198404401900BF139
:1032C000010B601C8345DED909B0BDE8F08F2DE904
:1032D000F04104460D4616461F462B463246294607
:1032E0002046FFF795FF3B46224629462046FFF73A
:1032F0008FFF3B46324639462046FFF789FF3B4663
:10330000324629463046FFF783FFBDE8F0812DE9BC
:10331000F04706460F469046002445460320A0EBA2
:10332000480934E0391B701BFFF738FF391B70194F
:10333000FFF734FF7919301BFFF730FF391B701B83
:10334000FFF72CFF791B301BFFF728FF3919701985
:10335000FFF724FF791B3019FFF720FF7919301987
:10336000FFF71CFF3919701BFFF718FF641CB9F138
:10337000000F03DAA000801D814404E0601B800080
:103380000A3081446D1E79193019FFF707FFAC42EE
:10339000C8DDBDE8F0872DE9F84F05460F46164613
:1033A0009A46AB46BC4800680090E02D01D8E02F5B
:1033B00001D9BDE8F88FA6F12000C6B207F10F03CE
:1033C000EA1D39462846FFF798FDBAF1000F29D1CA
:1033D000002424E004EB0610B04911F800904FF0EF
:1033E000000815E009F0010018B1AB490098086029
:1033F00003E0AB480068A8490860A7480068FFF7E9
:103400005AFD4FEA69096D1C08F1010000F0FF0840
:10341000B8F1080FE6DB5D467F1C601CC4B2102CBF
:10342000D8DB1EE000241AE004EB06109B4911F8DB
:1034300000904FF000080DE009F0010020B13919AB
:1034400005EB0800FFF7AAFE4FEA690908F1010041
:1034500000F0FF08B8F1080FEEDB601CC4B2102CBE
:10346000E2DB8D490098086000BFA2E710B5024674
:10347000012000E050430B1EA1F10104E1B2F9D19B
:1034800010BD2DE9F0470646894617461D464FF008
:10349000000A00BF00242DE0281B401EC1B20A20F4
:1034A000FFF7E4FFB7FBF0F00A21B0FBF1F201FBFC
:1034B0001208BAF1000F10D1681EA0420DDDB8F15C
:1034C000000F08D1082101FB046000232022494697
:1034D000FFF761FF0CE04FF0010A08F13001CAB2BA
:1034E000082101FB046000234946FFF754FF00BF99
:1034F000601CC4B2AC42CFDBBDE8F0872DE9F047D9
:103500000646894617461D46002418E0281B401E23
:10351000C1B20A20FFF7AAFFB7FBF0F00A21B0FB07
:10352000F1F201FB120808F13001CAB2082101FBD7
:10353000046000234946FFF72EFF601CC4B2AC4272
:10354000E4DBBDE8F08770B505460E46144614E08E
:10355000E02D01D900251036E02E06D900200546C1
:1035600006464FF47840FFF7D2FD2278002331461B
:103570002846FFF710FF0835641C20780028E7D1A3
:1035800070BD2DE9F04104460D461646601E00EB65
:103590008000232101EB8000C7B242A239460A20F5
:1035A000FFF7D1FF0123224639461A20FFF769FFB2
:1035B0003DA239462220FFF7C6FF3CA23946322001
:1035C000FFF7C1FF04232A4639465E20FFF759FF63
:1035D00038A239468C20FFF7B6FF0323324639461E
:1035E000B820FFF74EFF35A23946D020FFF7ABFFDA
:1035F000BDE8F0812DE9F0414FF6FF7028490860E1
:103600004FF4784024490860002433E004EB840040
:10361000232101EB8000C5B222A229460A20FFF730
:1036200092FF0123621C29461A20FFF72AFF1EA2DF
:1036300029462220FFF787FF1CA229463220FFF7E8
:1036400082FF042340F2D24229465E20FFF719FF91
:1036500018A229468C20FFF776FF0323642229460F
:10366000B820FFF70EFF15A22946D020FFF76BFF09
:10367000601CC4B2082CC9DB632240F2FF31022077
:10368000FFF77FFF092240F243110320FFF779FF84
:103690000A264B27BDE8F081B0030020F03800086F
:1036A000AC030020434800003A00000046726571F8
:1036B0003A000000447574793A00000025000000CB
:1036C000014600BF704700BF684A128802F04002FE
:1036D000002AF9D0C2B2654B1B1D1A80704710B585
:1036E00092B00446012144F20400FDF7EDFD0121F2
:1036F0000846FDF7DCFD01214804FDF7F2FD5B48BB
:10370000FEF754FD4FF40070ADF8440003208DF82F
:10371000460018208DF8470011A95548FDF718FB01
:103720004FF48060ADF8440004208DF8470011A9E3
:103730004F48FDF70DFB25208DF8300003208DF854
:1037400031008DF8320001208DF833000CA8FCF711
:10375000E4FE0D940020ADF83800ADF83A00ADF865
:103760003C00ADF840000C20ADF83E000DA93F48EC
:10377000FEF75FFD012240F224413C48FEF7F1FDD7
:10378000012240213948FEF711FE01213748FEF79A
:10379000DCFD3848FDF752F93448001D01903648E9
:1037A000029000200390C820049000200590802003
:1037B000069000200790089009904FF480500A90DE
:1037C00000200B9001A92B48FDF7DAF901212948C7
:1037D000FDF701FA12B010BD10B5044600212046D5
:1037E000FDF7F9F9C8212046FDF70AFA0121204624
:1037F000FDF7F1F910BD70B505460E4600240CE04A
:1038000000BF40211948FEF77BFE0028F9D0295D52
:103810001648FEF707FE601CC4B2B442F0DB00BFDE
:1038200040211248FEF76CFE0028F9D070BD10B59B
:1038300040F224410D48FEF779FEB0B10B48FEF787
:10384000F5FD0C48FDF7DEF9C0F1C8000B49088012
:10385000084601780848FFF7CEFF40F224410348AC
:10386000FEF78EFE0348FFF7B7FF10BD003801409A
:103870000008014058000240D4030020B403002097
:1038800070477047704770477047754600F02CF8D6
:10389000AE4605006946534620F00700854618B03D
:1038A00020B5FEF785FFBDE820404FF000064FF041
:1038B00000074FF000084FF0000B21F00701AC4665
:1038C000ACE8C009ACE8C009ACE8C009ACE8C00984
:1038D0008D46704710B50446AFF300802046BDE822
:1038E0001040FCF78CBC0000004870479C0400208E
:1038F00000000000000000000000000000000000C8
:10390000000000080808080808080000181800004F
:1039100000486C24120000000000000000000000BD
:103920000000002424247F1212127F1212120000C1
:103930000000081C2A2A0A0C1828282A2A1C080811
:1039400000000022251515152A5854545422000051
:103950000000000C1212120A76252911916E000047
:103960000006060403000000000000000000000044
:103970000040201010080808080808101020400017
:1039800000020408081010101010100808040200AB
:103990000000000008086B1C1C6B080800000000F9
:1039A00000000000080808087F0808080800000058
:1039B00000000000000000000000000006060403F4
:1039C0000000000000000000FE00000000000000F9
:1039D00000000000000000000000000006060000DB
:1039E000000080404020201010080804040202005B
:1039F0000000001824424242424242422418000081
:103A0000000000080E08080808080808083E000022
:103A10000000003C4242422020100804427E000088
:103A20000000003C4242201820404042221C00007E
:103A3000000000203028242422227E20207800004C
:103A40000000007E0202021A26404042221C0000B2
:103A5000000000382402021A2642424224180000C4
:103A60000000007E22221010080808080808000044
:103A70000000003C4242422418244242423C0000E2
:103A8000000000182442424264584040241C0000B8
:103A900000000000000018180000000018180000C6
:103AA00000000000000000080000000000080804FA
:103AB000000000402010080402040810204000000C
:103AC0000000000000007F0000007F0000000000F8
:103AD000000000020408102040201008040200002A
:103AE0000000003C42424640201010001818000020
:103AF0000000001C225A555555552D42221C00002D
:103B00000000000808181414243C224242E7000078
:103B10000000001F2222221E22424242221F0000D9
:103B20000000007C4242010101010142221C000010
:103B30000000001F2242424242424242221F000035
:103B40000000003F4212121E12120242423F0000C9
:103B50000000003F4212121E121202020207000071
:103B60000000003C2222010101712122221C0000E0
:103B7000000000E7424242427E42424242E70000E9
:103B80000000003E0808080808080808083E000071
:103B90000000007C10101010101010101010110FE9
:103BA0000000007722120A0E0A1212222277000069
:103BB000000000070202020202020202427F00002D
:103BC00000000077363636362A2A2A2A2A6B000069
:103BD000000000E346464A4A5252526262470000E1
:103BE0000000001C2241414141414141221C000092
:103BF0000000003F424242423E0202020207000031
:103C00000000001C2241414141414D53321C6000E3
:103C10000000003F4242423E1212222242C70000F0
:103C20000000007C4242020418204042423E000054
:103C30000000007F4908080808080808081C000060
:103C4000000000E74242424242424242423C0000FF
:103C5000000000E74242222424141418080800003F
:103C60000000006B4949494955553622222200007F
:103C7000000000E7422424181818242442E700001A
:103C8000000000772222141408080808081C00000D
:103C90000000007E2120101008040442423F000072
:103CA00000780808080808080808080808087800C4
:103CB00000000202040408080810102020204040E0
:103CC000001E1010101010101010101010101E00F8
:103CD0000038440000000000000000000000000068
:103CE000000000000000000000000000000000FFD5
:103CF00000060800000000000000000000000000B6
:103D0000000000000000003C4278444242FC0000F9
:103D1000000000030202021A26424242261A000054
:103D20000000000000000038440202024438000095
:103D300000000060404040784442424264D80000A5
:103D4000000000000000003C427E0202423C0000F5
:103D5000000000F08808087E08080808083E0000F7
:103D6000000000000000007C22221C023C42423C79
:103D7000000000030202023A4642424242E70000CB
:103D80000000000C0C00000E08080808083E0000A7
:103D90000000003030000038202020202020221E8B
:103DA0000000000302020272120A161222770000BB
:103DB0000000000E0808080808080808083E00006F
:103DC000000000000000007F9292929292B70000E3
:103DD000000000000000003B4642424242E7000073
:103DE000000000000000003C42424242423C000011
:103DF000000000000000001B26424242221E020773
:103E0000000000000000007844424242447840E054
:103E100000000000000000774C040404041F0000B0
:103E2000000000000000007C42023C40423E0000D6
:103E3000000000000008083E0808080808300000DC
:103E400000000000000000634242424262DC0000C9
:103E500000000000000000E74224241408080000CD
:103E600000000000000000EB4949555522220000E7
:103E7000000000000000007624181818246E0000CE
:103E800000000000000000E742242414180808077E
:103E9000000000000000007E22100808447E0000A0
:103EA00000C0202020202010202020202020C00022
:103EB0001010101010101010101010101010101002
:103EC000000608080808081008080808080806007E
:103ED0000C32C200000000000000000000000000E2
:103EE000003F000800000020BC0300006C01000837
:103EF00090400008BC03002044070000C8010008EF
:103F000045010203042908290410090607080902CB
:103F10000406083BA24A18691C2918912A8004FA51
:103F20000104080D1A1080010CF0FFFF0F30800112
:103F3000040419246A070C09124809100401131A11
:103F4000011914FFFF011A03082904E90C338181C8
:103F50002A0304261CFCFFFF3F1A400B5AC0282AE4
:103F6000C00C49041BFFFF4C22411A0468230E7148
:103F70001B07815A14010760100B010E1898011CD1
:103F800004E001181927F11A08C4231F304A0C0451
:103F90006809100C30FE3F0C30041069041BC00C83
:103FA000281E0D3030060E049C0C3010044B188671
:103FB00004101208060D300C860D3006EE0F30028C
:103FC000FC0D30015B0CF040193C2A0F081A109EC2
:103FD000D1299019CB4908890417E0FFFF0360C07D
:103FE00009130409161C59181A010429441A080453
:103FF0005A100419F8130138041780FF1F2603C054
:10400000FFFF071A8004293D326032181A0C135A38
:10401000030419A41C800108045E1CFCFFFF3F1070
:104020000928041AFC0432E082401BF888012AFFA8
:10403000050215F81B1F08012A7F2004119F80F03C
:104040003B808201000916E2A2928A868280800467
:104050001840807F172424A4FEA3222322CC02141C
:10406000FF15080601FF2B0104010511FF020202E2
:104070005808101010FF109008C3021108080F15FF
:104080000444827F01808040432C10284681A0B1E7
:0400000508000131BD
:00000001FF
