:020000040800F2
:10000000B84C002005270008390500083B0500080A
:100010003F050008430500084705000800000000F0
:100020000000000000000000000000004B05000878
:100030004D050008000000004F05000851050008AC
:100040001F2700081F2700081F2700081F27000878
:100050001F2700081F2700081F2700081F27000868
:100060001F2700081F2700081F2700081F27000858
:100070001F2700081F2700081F2700081F27000848
:100080001F2700081F2700081F2700081F27000838
:100090001F2700081F2700081F2700081F27000828
:1000A0001F2700081F2700081F2700081F27000818
:1000B0001F2700081F2700081F2700081F27000808
:1000C0001F2700081F2700081F2700081F270008F8
:1000D0001F2700082F3400081F2700081F270008CB
:1000E0001F2700081F2700081F2700081F270008D8
:1000F0001F2700081F2700081F2700081F270008C8
:100100001F2700081F2700081F2700081F270008B7
:100110001F2700081F2700081F2700081F270008A7
:100120001F2700081F2700081F2700081F27000897
:1001300000F002F800F03AF80AA090E8000C8244BF
:100140008344AAF10107DA4501D100F02FF8AFF29C
:10015000090EBAE80F0013F0010F18BFFB1A43F0A5
:1001600001031847AC450000CC450000103A24BFFD
:1001700078C878C1FAD8520724BF30C830C144BF0C
:1001800004680C607047000000230024002500264E
:10019000103A28BF78C1FBD8520728BF30C148BFEA
:1001A0000B6070471FB51FBD10B510BD03F085FF74
:1001B0001146FFF7F7FF00F06FF803F0A3FF03B459
:1001C000FFF7F2FF03BC03F07BF800001A4B19683D
:1001D0000868B0E8F00F80F309884FF0000080F362
:1001E00011884EF00D0E70470000000003480068B3
:1001F000006880F3088862B600DF00BF08ED00E009
:10020000EFF309800C4B1A6820E9F00F106008B575
:100210004FF0BF0080F3118803F04DFC4FF0000059
:1002200080F31188BDE8084019680868B0E8F00F4D
:1002300080F30988704700BF4000002001B44FF0F0
:10024000BF0080F3118801BC704701B44FF000007B
:1002500080F3118801BC70470023002202E00344B0
:10026000521CD2B28A42FAD3B3FBF1F080B270478B
:1002700008B50121080201F015F84FF48040ADF8EF
:10028000000010208DF8030003208DF8020069465D
:100290009C4800F04BFD08BDA4B0002502F052FAC6
:1002A00002F00CFD00F055F94FF4A06000F066F983
:1002B0004FF4E13003F013F84FF47A7441F2797699
:1002C0002146304602F071FE4FF4487739468E4899
:1002D00001F014FF2146304602F04EFD3946E0069B
:1002E00001F00CFF2146304602F022FE39468748D5
:1002F00001F00AFF2146304602F08AFD4FF4E16129
:10030000834801F0FBFE02F04BFF6610304602F01E
:10031000EEFC304602F0EBFC02F0BDFA4FF6FF7047
:1003200002F0ADFB304602F0E2FC7A4A4FF478402E
:10033000106003F0BFF84FF48051774800F089FD5A
:1003400040B100264FF0000B4FF47A7002F0CFFC62
:1003500016B121E00126F5E7704B187801281BD172
:100360006F480068102815D100206E4C6E4FDFF8E2
:10037000BCC104EB8001CA7891F8028002EB082826
:10038000021D27F8128049782CF81210401C80B208
:100390000428EED383F800B000241CAF0DF1500800
:1003A000601C8146C0B2642102F067FF47F8240058
:1003B000601DC0B2642102F060FF48F8240009F01B
:1003C000FF04042CECD30024574FDFF860810DF1BB
:1003D0000809EA461CA8642130F8240080B2FFF71F
:1003E0003BFF27F8140014A8642130F8240080B2E1
:1003F000FFF732FF28F8140040F60201884202D9C4
:1004000028F8141004E0322802D2322028F8140010
:1004100038F814003238142190FBF1F080B228F83B
:1004200014000CAB37F8141053F82420914203D079
:10043000012209F8042001E009F804B004AA52F8E6
:1004400024C0604504D04FF0010C0AF804C001E05C
:100450000AF804B043F8241042F82400641CE4B203
:10046000042CB7D3012E1BD10024DFF8C4904FF425
:10047000FA7A18F8141009F8244009EB8400417046
:1004800037F814100A0A8270C170504602F02FFC2F
:10049000641CA4B2042CECD31021254802F0ABFF5D
:1004A0000020401C80B20428FBD35EB90024E0B2D7
:1004B00018F8142037F8141002F0E2FF641CA4B2FC
:1004C000082CF4D30024C82002F011FC641CA4B250
:1004D000642CF8D36D1CADB20020401C0828FCD35E
:1004E000642DFFF431AF00252EE7124CD4F8B4018F
:1004F00030B10020C4F8B4010A2003F06CFAF5E72B
:100500000120F7E700200140002C014000040040DA
:10051000000800402C000020000C014036000020A4
:1005200034000020C8000020B8000020A8000020EF
:100530009800002000002242704700BFFEE700BF85
:10054000FEE700BFFEE700BFFEE770477047704759
:10055000704708B54FF4407000F010F81D208DF87A
:10056000000001208DF8010000208DF8020001201C
:100570008DF80300684600F006F808BD2A490843D4
:100580002A490860704770B50F23C27801260178A8
:10059000002A1ED0254A126802F4E062C2F5E06229
:1005A000120AC2F10404D3404578A54082781A406B
:1005B0002A43120101F1E02181F80024007800F0C3
:1005C0001F018E404009800000F1E020C0F800616A
:1005D00070BD01F01F0086404809800000F1E02056
:1005E000C0F8806170BD124A114001430F48001FDE
:1005F000016070470D4A121D002903D011680143A4
:100600001160704711688143116070474FF0E0211D
:10061000042804D0086920F00400086170470869C4
:1006200040F00400086170470000FA050CED00E09E
:1006300080FFFF1F10B50446FA48844208D101210B
:10064000401500F049FE0021601500F045FE17E05E
:10065000F548844208D10121001500F03DFE00213B
:10066000201500F039FE0BE0F048844208D101214A
:10067000C80300F031FE00214FF4004000F02CFED2
:1006800010BD30B50246002000235068E84C2040E1
:100690000D790C6844EA0524204350609068E54CCD
:1006A0002040D1E902542C434D7944EA45042043CB
:1006B0009060D06A20F470000C7C641EE4B2234386
:1006C00040EA0350D06230BD0021016001714171E8
:1006D0008160C16001210174704721B1826842F0DC
:1006E0000102826003E0826822F0010282607047AA
:1006F00021B1826842F48072826003E0826822F451
:1007000080728260704710B50023CBB21AB1446882
:100710001C43446002E044689C43446010BD81680F
:1007200041F0080181607047014600208A6802F0AC
:1007300008020AB1012000E000207047816841F002
:10074000040181607047014600208A6802F00402BB
:100750000AB1012000E00020704721B1826842F414
:10076000A002826003E0826822F4A00282607047E7
:10077000014600208A6802F480020AB1012000E0EC
:100780000020704710B50A4600210023416821F47B
:100790006041531E41EA4331416010BD21B14268BE
:1007A00042F40062426003E0426822F40062426068
:1007B0007047F0B504460D4600200021092D11DDDB
:1007C000E068A5F10A0606EB4607072606FA07F1D8
:1007D0008843A5F10A0606EB460603FA06F108432C
:1007E000E0600CE0206905EB4507072606FA07F1F3
:1007F000884305EB450603FA06F108432061072A02
:100800000FDA606B561E06EB86071F2606FA07F105
:100810008843561E06EB860605FA06F10843606318
:1008200022E00D2A0FDA206BD61F06EB86071F2663
:1008300006FA07F18843D61F06EB860605FA06F18D
:100840000843206310E0E06AA2F10D0606EB86077C
:100850001F2606FA07F18843A2F10D0606EB86066D
:1008600005FA06F10843E062F0BD21B1826842F466
:100870008012826003E0826822F4801282607047F6
:100880000146C86C80B2704766484C3000687047BB
:1008900021B1426842F48062426003E0426822F47F
:1008A00080624260704721B1426842F480524260E7
:1008B00003E0426822F48052426070470A460021F9
:1008C000816821F4E04111438160704721B1826861
:1008D00042F40042826003E0826822F400428260B7
:1008E000704721B1826842F40212826003E082689C
:1008F00022F4021282607047014600208A6802F4E6
:1009000000120AB1012000E000207047F0B5044653
:100910001546002000220026092911DDE068A1F11A
:100920000A0707EB470C072707FA0CF29043A1F1DF
:100930000A0707EB470703FA07F21043E0600CE0F1
:10094000206901EB410C072707FA0CF2904301EBF9
:10095000410703FA07F210432061A06BC0F3015670
:10096000EF1C06F1010CA7EB0C0707EB870C1F2708
:1009700007FA0CF29043EF1C06F1010CA7EB0C07F1
:1009800007EB870701FA07F21043A063F0BD10B52B
:100990000A4600210023816B21F44011531E41EAD5
:1009A0000351816310BD08B5002300930090009BA4
:1009B0000B440093009B1A6008BD08B50246002056
:1009C0000090009201F12800009B184400900098CC
:1009D000006880B208BD0A4600214168164B1940E4
:1009E0001143416070474162826270470A460021AC
:1009F000416821F01F0111434160704740B109492E
:100A00000831096841F40001064A0832116007E024
:100A100004490831096821F40001024A08321160D2
:100A2000704700000024014000280140003C0140C4
:100A3000FFFEF0FFFDF7F1FFFFFD3FFF0246002044
:100A400013680B400BB1012000E000207047CA433F
:100A50000260704770B502460020002300240B128C
:100A60005568CEB205EA060415681D4015B10CB1F3
:100A7000012000E0002070BD00220A12D343036071
:100A80007047000001684FF6FE72114001600021BE
:100A9000016041608160C1607249724A08399042C8
:100AA00004D1486840F00F00486070476D4A143226
:100AB000904204D1486840F0F00048607047694AAD
:100AC0002832904204D1486840F470604860704712
:100AD000644A3C32904204D1486840F47040486017
:100AE0007047604A5032904204D1486840F4702008
:100AF000486070475B4A6432904204D1486840F4D1
:100B0000700048607047574A7832904204D1486874
:100B100040F0706048607047534A111F904204D102
:100B2000086840F00F00086070474F4A1432904246
:100B300004D1086840F0F000086070474A4A283243
:100B4000904204D1086840F4706008607047464ADB
:100B50003C32904204D1086840F47040086070470D
:100B6000414A50329042FAD1086840F4702008603F
:100B7000704730B5026847F6F0739A430C6A8B6889
:100B80002343D1E904452C4323438C692343CC6997
:100B900023434C6A23438C6A234313430360CA688C
:100BA00042600A6882604968C16030BD002101600E
:100BB00041608160C160016141618161C161016227
:100BC000416281627047002904D0016841F001014F
:100BD0000160704701684FF6FE7211400160704776
:100BE000002A03D002680A430260704702688A4301
:100BF0000260704741607047406880B270470246AB
:100C00000020D10003D518490839096802E01549C8
:100C100008390968114200D001207047C10003D58E
:100C20001149091F086070470E490839486070472C
:100C300002460020D10003D50B490839096802E0BB
:100C4000084908390968114200D001207047C100E5
:100C500003D50549091F08607047024908394860F3
:100C600070470000080002400804024010B5044626
:100C7000CC48844208D10121042000F02DFB002142
:100C8000042000F029FB46E0C748844208D1012136
:100C9000082000F021FB0021082000F01DFB3AE0B5
:100CA000C248844208D10121102000F015FB002128
:100CB000102000F011FB2EE0BD48844208D1012134
:100CC000202000F009FB0021202000F005FB22E09D
:100CD000B848844208D10121402000F0FDFA0021EB
:100CE000402000F0F9FA16E0B348844208D101210F
:100CF000802000F0F1FA0021802000F0EDFA0AE0F7
:100D0000AE48844207D10121801500F0E5FA0021A8
:100D1000A01500F0E1FA10BD10B50121084600F061
:100D2000DBFA0021012000F0D7FA10BD2DE9F041D7
:100D3000024600250026002000230024002791F809
:100D400003C00CF00F0591F803C00CF0100CBCF1BF
:100D5000000F03D091F802C04CEA050591F800C0DD
:100D6000BCF1000F31D0146800202BE04FF0010CD3
:100D70000CFA00F3B1F800C00CEA03069E4220D141
:100D800083004FF00F0C0CFA03F7BC4305FA03FC89
:100D90004CEA040491F803C0BCF1280F06D14FF0CF
:100DA000010C0CFA00FCC2F814C00AE091F803C070
:100DB000BCF1480F05D14FF0010C0CFA00FCC2F851
:100DC00010C0401C0828D1D31460B1F800C0BCF199
:100DD000FF0F34DD546800202EE000F1080C4FF0C6
:100DE000010808FA0CF3B1F800C00CEA03069E42B1
:100DF00021D183004FF00F0C0CFA03F7BC4305FA26
:100E000003FC4CEA040491F803C0BCF1280F05D19F
:100E100000F1080C08FA0CF8C2F8148091F803C02D
:100E2000BCF1480F07D100F1080C4FF0010808FA97
:100E30000CF8C2F81080401C0828CED35460BDE8DE
:100E4000F0814FF6FF710180022181700421C17091
:100E500070470246002093680B400BB1012000E070
:100E6000002070470146886880B270470246002023
:100E7000D3680B400BB1012000E000207047014611
:100E8000C86880B2704701617047416170470AB11C
:100E9000016100E041617047C16070474FF48032EA
:100EA0000A43826181618261826982697047024678
:100EB0000020434B18684FF68073184040EA021038
:100EC00008433F4B186070473E49C8617047F0B512
:100ED0000A46002300240021002500F00046B6F158
:100EE000004F02D1364EF16901E0354E7168C0F312
:100EF000034583B200F44016B6F5401F08D121F037
:100F000070612F4E766826F070662D4F7E6012E07D
:100F100000F48016B6F5801F06D1032606FA05F404
:100F2000A14341F0706106E0460D360103FA06F672
:100F3000B14341F0706122B1460D360103FA06F665
:100F4000314300F00046B6F1004F02D11C4EF16172
:100F500001E01B4E7160F0BD30B500228B071C0F05
:100F60000F2303FA04F2164B08338C1053F8243085
:100F70009343134C08348D1044F8253023468C10CD
:100F800053F824308C07240F00FA04F423430C4C4C
:100F900008348D1044F8253030BD0A49DC31086032
:100FA0007047000000080140000C014000100140A3
:100FB0000014014000180140001C014000200140C5
:100FC0000000014000002042DF48006840F00100BE
:100FD000DD49086008464068DC490840DA49486055
:100FE00008460068DA490840D749086008460068A2
:100FF00020F4802008600846406820F4FE00486025
:101000004FF41F0088607047CF49096821F4803190
:10101000CD4A11601146096821F480211160B0F5B4
:10102000803F03D0B0F5802F0ED106E0C649096895
:1010300041F48031C44A116007E0C349096841F4B2
:10104000A021C14A116000E000BF00BF704710B589
:1010500001460022002300204A11012A02D1BA4C85
:10106000236806E0022A02D1B74C236A01E0B64C9D
:10107000636A01F01F02012494401C400CB101205E
:1010800000E0002010BD38B50020009000240025AD
:1010900000BF3120FFF7DBFF05460098401C0090A1
:1010A0000098B0F5A06F01D0002DF2D03120FFF7ED
:1010B000CEFF08B1012400E00024204638BD0146DF
:1010C0000020A14A106820F0F80040EAC10010603A
:1010D0007047A04908607047024600209A4B586844
:1010E00020F47C1042EA01031843974B5860704784
:1010F00098490866704701460020934A506820F0DE
:1011000003000843506070478F48406800F00C00AF
:101110007047014600208C4A506820F0F0000843D8
:101120005060704701460020874A506820F4E06014
:1011300008435060704701460020834A506820F4FD
:10114000605040EAC1005060704729B17E4A527A2F
:1011500002437D4B5A7204E07B4A527A82437A4BB7
:101160005A7270477B49D8310860704701460020A9
:10117000754A506820F44040084350607047002191
:10118000714A20321170704A82F82010012802D072
:1011900004280AD104E001216B4A2032117005E0D5
:1011A0000521694A2032117000E000BF00BF70477E
:1011B0006949086070476449096A0143624A1162DB
:1011C0007047654944390860704730B500210022F6
:1011D000002400235C4D6D6805F00C0121B1042949
:1011E00005D0082923D105E05C4D056022E05B4D68
:1011F00005601FE0544D6D6805F47012524D6D6826
:1012000005F48034022505EB92421CB9544D554338
:1012100005600BE04C4D6D6805F400351DB1504D77
:101220005543056002E04D4D5543056002E04B4DCE
:10123000056000BF00BF444D6D6805F0F00109096D
:10124000484D6B5C0568DD4045603F4D6D6805F4B9
:10125000E061090A434D6B5C4568DD4085603A4DAD
:101260006D6805F46051C90A3E4D6B5C4568DD4010
:10127000C560354D6D6805F44041890B3A4D6B5C96
:10128000C568B5FBF3F5056130BD29B12E4A526939
:1012900002432D4B5A6104E02B4A526982432A4B88
:1012A0005A61704729B1284A92690243264B9A61D4
:1012B00004E0254A92698243234B9A61704729B121
:1012C000214AD2690243204BDA6104E01E4AD26906
:1012D00082431D4BDA61704729B11B4AD268024331
:1012E000194BDA6004E0184AD2688243164BDA6080
:1012F000704729B1144A12690243134B1A6104E082
:10130000114A12698243104B1A61704712494039E1
:10131000086070470F49C86470470B49C87170472F
:101320000948406A40F080700749486270470146AA
:101330000020054A92680A400AB1012000E000201E
:101340007047014988727047001002400000FFF8A2
:10135000FFFFF6FE000042428004424200127A0083
:1013600000093D00000000201000002010B50446D8
:10137000FE48844208D10121C014FFF7ADFF0021CF
:10138000E014FFF7A9FFC4E0B4F1804F08D10121B8
:101390000846FFF7AEFF00210120FFF7AAFFB8E0E3
:1013A000F348844208D101210220FFF7A2FF002167
:1013B0000220FFF79EFFACE0EE48844208D10121F5
:1013C0000420FFF796FF00210420FFF792FFA0E022
:1013D000E948844208D101210820FFF78AFF002153
:1013E0000820FFF786FF94E0E448844208D10121F9
:1013F0001020FFF77EFF00211020FFF77AFF88E022
:10140000DF48844208D101212020FFF772FF00212C
:101410002020FFF76EFF7CE0DA48844208D10121EA
:101420004014FFF759FF00216014FFF755FF70E0EB
:10143000D548844209D10121C804FFF74DFF00219E
:101440004FF40020FFF748FF63E0D048844209D101
:1014500001210805FFF740FF00214FF48010FFF73E
:101460003BFF56E0CA48844209D101214805FFF7F5
:1014700033FF00214FF40010FFF72EFF49E0C5486D
:10148000844208D101214020FFF733FF0021402092
:10149000FFF72FFF3DE0C048844208D101218020A2
:1014A000FFF727FF00218020FFF723FF31E0BB4833
:1014B000844208D101218015FFF71BFF0021A015F0
:1014C000FFF717FF25E0B648844209D1012108043F
:1014D000FFF702FF00214FF48030FFF7FDFE18E018
:1014E000B048844209D101214804FFF7F5FE0021EC
:1014F0004FF40030FFF7F0FE0BE0AB48844208D118
:1015000001218804FFF7E8FE00214FF48020FFF757
:10151000E3FE10BD00220288944B98420ED0994BF6
:1015200098420BD0B0F1804F08D0914B984205D033
:10153000904B984202D0904B984204D14FF68F7353
:101540001A404B881A438D4B984207D08C4B9842D7
:1015500004D04FF6FF431A40CB881A4302808B8891
:1015600083850B880385814B98420BD0854B98422D
:1015700008D08B4B984205D08A4B984202D08A4BB8
:10158000984201D10B7A038601238382704770B59C
:10159000002400220023058C4FF6FE76354005849A
:1015A000028C8388048B4FF68F752C40B51E2C401F
:1015B0000D882C43751E2A400D892A434D882A43E5
:1015C0006A4DA8420BD06F4DA84208D0744DA84276
:1015D00005D0744DA84202D0734DA84213D14FF6E6
:1015E000F7752A404D892A434FF6FB752A408D88AE
:1015F0002A434FF6FF652B404FF6FF552B408D8950
:101600002B43CD892B4383800483CD888586028438
:1016100070BD70B5002400220023058C4FF6EF76D4
:1016200035400584028C8388048B48F6FF752C4076
:101630004FF6FF452C400D884FF6FF7606EA05254C
:101640002C434FF6DF752A400D8906EA05152A431B
:101650004D8806EA05152A43444DA84202D0494D5B
:10166000A8421DD14FF67F752A404D894FF6FF766F
:1016700006EA05152A434FF6BF752A408D8806EA0B
:1016800005152A434FF6FF352B404FF2FF752B40CF
:101690008D8906EA85052B43CD8906EA85052B430E
:1016A00083800483CD880587028470BD70B50024D3
:1016B00000220023058C4FF6FF6635400584028C1E
:1016C0008388848B4FF68F752C404FF6FC752C4029
:1016D0000D882C434FF6FF552A400D894FF6FF76B3
:1016E00006EA05252A434D8806EA05252A431F4DAB
:1016F000A84202D0234DA8421DD14FF2FF752A40C7
:101700004D894FF6FF7606EA05252A434FF6FF3549
:101710002A408D8806EA05252A434EF6FF752B40A0
:101720004DF6FF752B408D8906EA05152B43CD89B3
:1017300006EA05152B4383808483CD888587028440
:1017400070BD70B5002200230024058C4EF6FF7694
:1017500035400584038C8488828B48F6FF752A40C7
:101760004FF6FF452A400D8820E00000002C014084
:101770000004004000080040000C00400010004041
:101780000014004000340140004C01400050014072
:101790000054014000180040001C004000200040A0
:1017A0000040014000440140004801404FF6FF76F0
:1017B00006EA05252A434DF6FF752B400D8906EAFA
:1017C00005352B434D8806EA05352B43FA4DA842D3
:1017D00002D0FA4DA84208D14BF6FF752C408D89F6
:1017E0004FF6FF7606EA85152C4384808283CD88E8
:1017F000A0F84050038470BD828B4FF2FF331A4033
:101800008283828B4FF6FF7303EA01231A4382839C
:101810007047F0B50C461546002200210026078CC3
:101820004EF6FF7C07EA0C070784828B018C4FF68B
:10183000FF7707EA043640F6FF473A404FF6FF7756
:1018400007EA05273A434FF6FF7707EA03373A439B
:10185000D94FB8420ED0D94FB8420BD0B0F1804F1B
:1018600008D0D74FB84205D0D64FB84202D0D64F95
:10187000B84206D14DF6FF77394046F480573943D8
:1018800005E047F6FF57394044F4805739438283D7
:101890000184F0BD828B4FF6F3731A408283828BF2
:1018A0000A4382837047F0B50C461546002200219A
:1018B0000026078C4FF6FF6C07EA0C070784828B23
:1018C000018C4FF6FF7707EA04264FF60C773A4073
:1018D0004FF6FF7707EA03172F433A43B64FB84254
:1018E0000ED0B64FB8420BD0B0F1804F08D0B44FF5
:1018F000B84205D0B34FB84202D0B34FB84206D178
:101900004FF6FF57394046F48077394305E04FF2F0
:10191000FF57394044F48077394382830184F0BD16
:10192000028B4FF2FF331A400283028B4FF6FF7394
:1019300003EA01231A4302837047F0B50C461546AB
:10194000002200210026078C4FF6EF7C07EA0C07E7
:101950000784028B018C4FF6FF7707EA041640F6E6
:10196000FF473A404FF6FF7707EA03373A434FF60F
:10197000FF7707EA05273A438F4FB8420ED08F4FC3
:10198000B8420BD0B0F1804F08D08D4FB84205D08F
:101990008C4FB84202D08C4FB84206D14FF6DF7759
:1019A000394046F01007394305E04FF65F7739407C
:1019B00044F01007394302830184F0BD028B4FF6D7
:1019C000F3731A400283028B0A4302837047F0B517
:1019D0000C46154600220021068C4FF6FE773E404D
:1019E0000684028B018C4FF60C7632407E1C06EA90
:1019F00003162E433243704EB0420ED06F4EB042AB
:101A00000BD0B0F1804F08D06D4EB04205D06D4E76
:101A1000B04202D06C4EB04206D14FF6FD76314056
:101A200044F00106314305E04FF6F576314044F0CD
:101A30000106314302830184F0BD70B505460C46B2
:101A40005D4885420ED05D4885420BD0B5F1804F90
:101A500008D05B48854205D05A48854202D05A4892
:101A6000854200D100E000BF208850B92389A288B8
:101A700061882846FFF7ABFFE1882846FFF79EFF05
:101A800025E0208804280AD12389A2886188284675
:101A9000FFF753FFE1882846FFF742FF17E0208851
:101AA00008280AD12389A28861882846FFF7FBFE0F
:101AB000E1882846FFF7EEFE09E02389A2886188C5
:101AC0002846FFF7A6FEE1882846FFF795FE70BD81
:101AD0002DE9F04105460C4600260127608808B92B
:101AE000022600E00026A088012801D1022700E09C
:101AF00001272088A0B92389A28861882846FFF79A
:101B000066FFE1882846FFF759FF23893A463146A8
:101B10002846FFF712FFE1882846FFF701FF13E090
:101B20002389A28861882846FFF707FFE1882846B5
:101B3000FFF7F6FE23893A4631462846FFF747FF6E
:101B4000E1882846FFF73AFFBDE8F0810A884B8814
:101B50001A438B881A43CB881A430B891A434B8943
:101B60001A438B891A43A0F8442070474FF6FF713F
:101B7000818000210180C180418001727047002175
:101B8000018041808180C180018141818181C18149
:101B90007047002101804180012181800021C180A6
:101BA000018170470021018041808180C1800181D5
:101BB0004181818170470000002C014000340140C8
:101BC0000004004000080040000C004021B10288E1
:101BD00042F00102028004E002884FF6FE731A40D0
:101BE0000280704731B1B0F8442042F40042A0F8BE
:101BF000442005E0B0F84420C2F30E02A0F84420CF
:101C000070471AB183890B43838102E083898B4338
:101C1000838170478182704741EA0203A0F848300F
:101C200070471AB183890B43838102E083898B4318
:101C30008381704701894FF6F87211400181704726
:101C40000A46002101894FF68F7319401143018123
:101C5000704730B504460D4629462046FFF7F0FF91
:101C6000208940F00700208130BD2DE9F041044675
:101C70000D4616461F46602D06D13B4601223146D1
:101C80002046FFF75AFE05E03B460122314620463A
:101C9000FFF79DFE29462046FFF7D2FF208940F03E
:101CA00007002081BDE8F08130B50C460021018994
:101CB000C9B24FF6FF7505EA0325154325432943AD
:101CC000018130BD2DE9F04105460E461746984684
:101CD000002443463A4631462846FFF7E5FF2C8963
:101CE0004FF6F870044044F007044FF68F7004403C
:101CF00044F070042C81BDE8F081F0B504460D4637
:101D000016461F463B46324629462046FFF7CCFF83
:101D1000208940F480402081F0BD01858282704797
:101D20000A46002101884FF68F7319401143018044
:101D30007047F0B50C4615461E46002100220023D0
:101D40000189028B038C4FF6F877394021434FF617
:101D5000FC473A4040F201173A434FF6DD773B40EB
:101D60004FF6FF7707EA06172F433B4301810283B3
:101D70000384F0BD0A460021018B4FF68F73194092
:101D80001143018370470A460021018B48F6FF7317
:101D900019404FF6FF7303EA02231943018370478A
:101DA0000A460021818B4FF68F73194011438183BE
:101DB00070470A460021818B48F6FF7319404FF6A1
:101DC000FF7303EA022319438183704721B102881C
:101DD00042F08002028004E002884FF67F731A40CE
:101DE0000280704721B1828842F00402828004E0C0
:101DF00082884FF6FB731A408280704721B1828837
:101E000042F00802828004E082884FF6F7731A409D
:101E10008280704721B1828842F00102828004E012
:101E200082884FF6FE731A40828070470A4600216E
:101E3000018B4FF6F77319401143018370470A462F
:101E40000021018B4FF2FF7319404FF6FF7303EA35
:101E500002231943018370470A460021818B4FF604
:101E6000F77319401143818370470A460021818B23
:101E70004FF2FF7319404FF6FF7303EA0223194331
:101E8000818370470A460021018B4FF6FB7319408E
:101E90001143018370470A460021018B4FF6FF333F
:101EA00019404FF6FF7303EA022319430183704779
:101EB0000A460021818B4FF6FB7319401143818341
:101EC00070470A460021818B4FF6FF3319404FF6C9
:101ED000FF7303EA02231943818370470A460021F6
:101EE000018B4FF67F7319401143018370470A46F7
:101EF0000021018BC1F30E014FF6FF7303EA0223A9
:101F00001943018370470A460021818B4FF67F7386
:101F100019401143818370470A460021818BC1F328
:101F20000E014FF6FF7303EA0223194381837047C2
:101F30000A460021018C4FF6FD73194011430184BC
:101F400070470A460021018C4FF6F7731940114380
:101F5000018470470A460021018C4FF6DF73194057
:101F60004FF6FF7303EA02131943018470470A46D0
:101F70000021018C4FF67F7319404FF6FF7303EA7F
:101F800002131943018470470A460021018C4FF661
:101F9000FF5319404FF6FF7303EA022319430184EC
:101FA00070470A460021018C4FF2FF7319404FF62B
:101FB000FF7303EA02231943018470470A46002194
:101FC000018C4DF6FF7319404FF6FF7303EA02339D
:101FD00019430184704730B5002301248C40A3B21B
:101FE000048C9C430484048C02FA01F5ADB22C43AA
:101FF000048430BD30B5002304248C40A3B2048C8B
:102000009C430484048C02FA01F5ADB22C43048491
:1020100030BD70B503460020002418461830012555
:102020008D40ACB21D8CA5431D8409B1082909D18E
:1020300000EB6100056825F0700505600568154333
:1020400005600EE00D1FC5F34E052844056825F414
:10205000E045056005684FF6FF7606EA022635433F
:10206000056070BD21B1028842F00202028004E0E6
:1020700002884FF6FD731A400280704721B1028832
:1020800042F00402028004E002884FF6FB731A401B
:102090000280704721B1828842F08002828004E091
:1020A00082884FF67F731A408280704702884FF60D
:1020B000F7731A40028002880A43028070478288C0
:1020C0004FF68F731A40828082880A43828070475D
:1020D00002894FF6F8731A40028102890A4302818D
:1020E000704702894FF67F731A40028102890A43C2
:1020F000028170478184704781857047818670476F
:102100000187704781877047A0F8401070470288A8
:102110004FF6FF431A40028002880A43028070474C
:102120000146888E70470146088F70470146888FA8
:1021300070470146B1F8400070470146888C7047EF
:102140000146088D704702460020138A0B400BB1F0
:10215000012000E000207047CA430282704730B57A
:102160000246002000230024158A05EA0103958910
:1021700005EA010413B10CB1012000E0002030BDDC
:10218000CA4302827047000010B5E14988420AD173
:1021900001218C032046FFF79FF82046BDE8104040
:1021A0000021FFF799B8DB4988420AD101214C048C
:1021B0002046FFF79EF82046BDE810400021FFF7BB
:1021C00098B8D54988420AD101218C042046FFF7EE
:1021D00090F82046BDE810400021FFF78AB8CF49AB
:1021E00088420AD10121CC042046FFF782F820461C
:1021F000BDE810400021FFF77CB8C94988420AD1E8
:1022000001210C052046FFF774F82046BDE8104078
:102210000021FFF76EB810BD30B585B004460D46FD
:10222000208A4CF6FF710840E98801432182A08989
:102230004EF6F3110840A9882A8911436A8902439E
:102240001143A181A08A4FF6FF410840A9890143AB
:10225000A1826846FEF7B9FFAD48844201D10398D8
:1022600000E00298A189090408D500EBC00101EB48
:10227000001029684900B0FBF1F007E000EBC00155
:1022800001EB001029688900B0FBF1F06422B0FB7B
:10229000F2F109010B096FF018056B4300EB8300A5
:1022A000A3891D044FF0320307D503EBC000B0FB38
:1022B000F2F000F00700084306E003EB0010B0FB6B
:1022C000F2F000F00F000843208105B030BD4FF45C
:1022D0001651016000218180C18001810C22428160
:1022E0008181704710B5038A4FF2FF0213400A88BC
:1022F0004C8822438C88C9880C4322431A430282AB
:1023000010BD0021018041808180C180704700297B
:1023100004D0818941F4005181817047818921F481
:1023200000518181704710B540F66A13C1F3421322
:1023300001F01F040121A140012B07D0022B07D07F
:1023400014303AB102680A43026010BD0C30F8E75D
:102350001030F6E702688A43026010BD002A03D0FD
:10236000828A0A4382827047828A8A4382827047C5
:10237000028A22F00F020282028A0A430282704716
:10238000828922F40062828182890A4382817047B5
:10239000002904D0818941F002018181704781893F
:1023A00021F0020181817047028A22F0200202821C
:1023B000028A0A4302827047002904D0018A41F44C
:1023C000804101827047018A21F480410182704777
:1023D000C1F30801818070478088C0F3080070470E
:1023E000818941F0010181817047028BD2B2028361
:1023F000028B42EA012101837047028B02F47F4283
:102400000283028B0A4302837047002904D0818A29
:1024100041F0200181827047818A21F02001818270
:102420007047002904D0818A41F0100181827047F1
:10243000818A21F0100181827047002904D0818AAD
:1024400041F0080181827047818A21F00801818270
:102450007047002904D0818941F40041818170478F
:102460008189C1F30E0181817047002904D0818ADE
:1024700041F4006181827047818A21F40061818288
:102480007047828A22F004028282828A0A43828210
:102490007047002904D0818A41F00201818270478F
:1024A000818A21F002018182704702460020128851
:1024B0000A4200D0012070478A05C9430180704755
:1024C00070B5002440F66A12C1F3421301F01F05F3
:1024D000012606FA05F2012B0CD0022B0DD0838ABF
:1024E0001340090A8E40008830400BB100B101242E
:1024F000204670BD83891340F3E7038A1340F0E759
:1025000040F66A120A0A01219140C94301807047CE
:10251000003801400044004000480040004C0040AA
:10252000005000400CB50020019000906C480068FD
:1025300040F480306A49086000BF6948006800F4D0
:10254000003000900198401C0190009818B9019843
:10255000B0F5A06FF1D16248006800F4003010B10E
:102560000120009001E0002000900098012843D154
:102570005C48006840F010005A490860084600684E
:1025800020F0030008600846006840F00200086080
:1025900053484068524948600846406848600846C9
:1025A000406840F4806048600846406820F47C1031
:1025B00048600846406840F4E810486008460068F3
:1025C00040F08070086000BF4548006800F000706F
:1025D0000028F9D04248406820F003004049486094
:1025E0000846406840F00200486000BF3C48406830
:1025F00000F00C000828F9D10CBD10B5FFF792FFD0
:1026000010BD10B53648006840F00100344908603C
:102610000846406834490840314948600846006827
:10262000324908402E4908600846006820F480209E
:1026300008600846406820F4FE0048604FF41F0020
:102640008860FFF7DAFF4FF000602949086010BD8D
:1026500010B5002100200022214B5B6803F00C0123
:1026600021B1042906D0082928D107E0214B224CAA
:10267000236027E01F4B204C236023E0184B5B684E
:1026800003F47010164B5B6803F48032022303EBF3
:10269000904022B9194B4343174C23600DE0104B77
:1026A0005B6803F4003323B1144B4343124C2360A3
:1026B00003E0104B4343104C236003E00D4B0E4CE2
:1026C000236000BF00BF064B5B68C3F303130C4CD1
:1026D000E15C094B1B68CB40074C236010BD000038
:1026E00000100240002002400000FFF8FFFFF6FE4D
:1026F00008ED00E000127A001400002000093D00FF
:10270000180000200948804709480047FEE7FEE717
:10271000FEE7FEE7FEE7FEE7FEE7FEE7FEE7FEE791
:1027200004480549054A064B704700000326000887
:1027300031010008B8460020B84C0020B8480020FD
:10274000B848002008B501216020FEF7ABFD4FF42A
:102750008050ADF8000028208DF80300694610482D
:10276000FEF7E4FA2020ADF8000069460D48FEF7B8
:10277000DDFA20210B48FEF786FB01212020FEF721
:1027800091FD40F2FF10ADF8000003208DF802002B
:1027900010208DF8030069460348FEF7C7FA08BD0C
:1027A000000C0140001801400014014070B50546BE
:1027B0000024F74E20213046FEF767FB280604D59B
:1027C00080213046FEF75FFB03E080213046FEF7B4
:1027D0005CFB20213046FEF756FB6806050E641CA4
:1027E000E4B2082CE6D370BD10B504460221E948D6
:1027F000FEF749FB2046BDE81040D7E710B5044678
:102800000221E448FEF73FFBC4F30720FFF7CEFFA9
:10281000E0B2BDE81040C9E710B504460221DD482A
:10282000FEF733FB2046BDE81040BFE710B50C466D
:10283000C0B2FFF7F1FF2046BDE81040DEE72DE90A
:10284000F04107460C4615461E462A20FFF7E4FFD6
:10285000C7F30720FFF7C8FFF8B2FFF7C5FFC5F3BE
:102860000720FFF7C1FFE8B2FFF7BEFF2B20FFF7FD
:10287000D3FFC4F30720FFF7B7FFE0B2FFF7B4FFC1
:10288000C6F30720FFF7B0FFF0B2FFF7ADFFBDE8DA
:10289000F0412C20C0E7F8B501210420FEF702FD2D
:1028A000B020ADF8000010258DF8035003248DF8FA
:1028B0000240B74E69463046FEF738FAB02130463E
:1028C000FEF7E1FA01210820FEF7ECFC40F203518B
:1028D000ADF800108DF803508DF80240AD4C6946FC
:1028E0002046FEF723FA40F203112046FEF7CBFA0A
:1028F00001212046FEF7C9FA142000F010FA012148
:102900002046FEF7C0FA142000F009FA10213046E4
:10291000FEF7B9FA3620FFF77FFF0020FFF764FFCC
:102920003A20FFF779FF0520FFF75EFFB220FFF79F
:1029300073FF0C20FFF758FF0C20FFF755FF002016
:10294000FFF752FF3320FFF74FFF3320FFF74CFF15
:10295000B720FFF761FF3520FFF746FFBB20FFF7E9
:102960005BFF1920FFF740FFC020FFF755FF2C2029
:10297000FFF73AFFC220FFF74FFF0120FFF734FFB8
:10298000C320FFF749FF1220FFF72EFFC420FFF7F7
:1029900043FF2020FFF728FFC620FFF73DFF0F2051
:1029A000FFF722FFD020FFF737FFA420FFF71CFF1F
:1029B000A120FFF719FFE020FFF72EFFD020FFF73F
:1029C00013FF0420FFF710FF0D20FFF70DFF11206C
:1029D000FFF70AFF1320FFF707FF2B20FFF704FF85
:1029E0003F20FFF701FF5420FFF7FEFE4C20FFF7CA
:1029F000FBFE1820FFF7F8FE0D20FFF7F5FE0B2079
:102A0000FFF7F2FE1F20FFF7EFFE2320FFF7ECFE9B
:102A1000E120FFF701FFD020FFF7E6FE0420FFF7DB
:102A2000E3FE0C20FFF7E0FE1120FFF7DDFE132090
:102A3000FFF7DAFE2C20FFF7D7FE3F20FFF7D4FE8A
:102A40004420FFF7D1FE5120FFF7CEFE2F20FFF7E5
:102A5000CBFE1F20FFF7C8FE1F20FFF7C5FE20207A
:102A6000FFF7C2FE2320FFF7BFFE2120FFF7D4FEB1
:102A70001120FFF7D1FE2920FFF7CEFEF8BD70B57B
:102A80000646EF2300211A460846FFF7D8FE002528
:102A900000243046FFF7B2FE641CF02CF9D36D1C05
:102AA000F02DF5D370BD10B50B460246FFF7C7FEFB
:102AB00039484068BDE81040A0E62DE9F0470746D8
:102AC000DDF820900D461646984643463246294684
:102AD0003846FFF7B4FE08E03C4603E04846FFF7FF
:102AE0008DFE641CB442F9D96D1C4545F4D9BDE88E
:102AF000F08708B5284A4B1C491E52680092421CB8
:102B0000401EFFF7DAFF08BD2DE9F05F81468B46D6
:102B10001C4621484768B9F1E00F2AD8BBF1E00F05
:102B200027D8203A02F0FF080BF10F0309F1070242
:102B300059464846FFF783FEDFF860A0DCB1002568
:102B4000164805EB0811465C00240BEB050AF0075C
:102B500004D0514609EB0400FFF7A5FF7608641C7A
:102B6000E4B2082CF3D36D1CEDB2102DE8D30A4863
:102B70004760BDE8F09F0026DFF81C9006EB0810C8
:102B80001AF800500024E8070AD0C9F804700BE0D6
:102B900000080140000C01402800002020410008EE
:102BA000D9F80000C9F80400D9F80400FFF726FEA0
:102BB0006D08641CE4B2082CE5D3761CF6B2102E26
:102BC000DCD3D4E70346012000E05843491EC9B2D4
:102BD000FBD270472DE9F0470746894690461D46CF
:102BE000002600241CE0281B401EC1B20A20FFF76B
:102BF000E9FFB8FBF0F30A20B3FBF0F100FB11335F
:102C000026B9681E844201DA6BB101263033DAB28C
:102C100007EBC40000234946FFF776FF641CE4B2CB
:102C2000AC42E0D363E707EBC4000023202249460F
:102C3000FFF76AFFF2E72DE9F04780468A469146A2
:102C40001F4600240A2515E0381B401EC1B20A2089
:102C5000FFF7B8FFB9FBF0F6B6FBF5F005FB106324
:102C60003033DAB208EBC40000235146FFF74CFFC3
:102C7000641CE4B2BC42E7D339E72DE9F0410446D5
:102C80000E4615464FF4784712E0E02C01D9002497
:102C90001036E02E04D9002426463846FFF7EFFE12
:102CA0002A78002331462046FFF72EFF08346D1C9A
:102CB00028780028E9D1BDE8F081000010B56FF058
:102CC0000400FDF7A3FC284800682849B0FBF1F098
:102CD000274908700846007800EB4001C1EBC0109E
:102CE0004FF6FF7101EAC0002249088010BD0021A3
:102CF00005E0002200E0521C6E2AFCDB491C8142E8
:102D0000F7DB7047002105E0002200E0521C012A99
:102D1000FCDB491C00F10A039942F5DB70470146D0
:102D2000144A12884A434FF0E0235A6100229A6104
:102D30001A46126942F001021A6100BF4FF0E02208
:102D4000106900F001021AB100F48032002AF5D0B7
:102D50004FF0E022126922F001024FF0E0231A61E5
:102D600000229A61704700001400002000127A00CF
:102D7000300000203200002030B589B005460C46F6
:102D800001210846FEF79BFA01210520FEF78AFA89
:102D90000120ADF8040018208DF8070003208DF8FD
:102DA000060001A9F548FDF7C1FFADF81C50ADF8CC
:102DB00018400020ADF81E00ADF81A0006A94FF02B
:102DC0008040FEF7A7FB02A8FEF7D9FE6020ADF811
:102DD00008000120ADF80A006420ADF80E000220C2
:102DE000ADF8100002A94007FEF7D1FB0821C80684
:102DF000FFF71CF801218807FEF7E8FF012188078B
:102E0000FEF7F0FE01218807FEF7E0FE09B030BDB5
:102E100030B589B005460C4601210420FEF74FFA73
:102E200001210820FEF73EFA4020ADF804001820EA
:102E30008DF8070003208DF8060001A9D048FDF7A2
:102E400075FFADF81C50ADF818400020ADF81E001D
:102E5000ADF81A0006A9CB48FEF75CFB02A8FEF706
:102E60008EFE6020ADF808000120ADF80A00642055
:102E7000ADF80E000220ADF8100002A9C148FEF71F
:102E800086FB0821BF48FEF7D1FF0121BD48FEF7B0
:102E90009DFF0121BB48FEF799FE09B030BD704788
:102EA00030B589B005460C46012142F21000FEF70C
:102EB000F9F94020ADF8040018208DF80700032030
:102EC0008DF8060001A9B048FDF730FFADF81C50A1
:102ED000ADF818400020ADF81E00ADF81A0006A9A4
:102EE000AA48FEF717FB02A8FEF749FE6020ADF8DE
:102EF00008000120ADF80A006420ADF80E000220A1
:102F0000ADF8100002A9A148FEF741FB08219F4837
:102F1000FEF78CFF01219D48FEF758FF01219B48D9
:102F2000FEF760FE01219948FEF750FE09B030BD62
:102F300030B589B005460C4601210220FEF7BFF9E5
:102F400001210920FEF7AEF90220ADF8200018207B
:102F50008DF8230003208DF8220008A98848FDF78A
:102F6000E5FEADF81850ADF814400020ADF81A0099
:102F7000ADF8160005A98648FEF7CCFA6020ADF83A
:102F800004000120ADF806000220ADF80C0001A9F4
:102F90007F48FEF7D6FB08217D48FEF766FF01213A
:102FA0007B48FEF713FE09B030BD30B589B0054649
:102FB0000C46012140F60400FEF774F94FF48070CE
:102FC000ADF8040018208DF8070003208DF80600E6
:102FD00001A96A48FDF7AAFEADF81C50ADF81840EB
:102FE0000020ADF81E00ADF81A0006A96948FEF7EA
:102FF00091FA02A8FEF7C3FD6020ADF80800012099
:10300000ADF80A000220ADF8100002A96148FEF7F1
:10301000BEFA08215F48FEF709FF01215D48FEF76F
:10302000D5FE01215B48FEF7DDFD01215948FEF781
:10303000CDFD09B030BD2DE9F04304460D461646DE
:103040000020DFF8548198FBF6F39C46002710E03F
:10305000BCF5803F08D300F101081FFA88F000F1A9
:103060000108B3FBF8FC00E005E007F101081FFAD6
:1030700088F7642FECDB00BF00F10108B3FBF8F325
:1030800099B201FB05F84FF0640998FBF9F81FFAB3
:1030900088F2062C6DD2DFE804F003162235485979
:1030A000A1F10108DFF8EC9009F12C09A9F80080E2
:1030B000A9F10408A8F80000DFF8D88008F1340866
:1030C000A8F8002056E0A1F101084FF08049A9F8C6
:1030D0002C80C846A8F82800A8F834204AE0A1F1BE
:1030E0000108DFF8AC9009F12C09A9F80080A9F1DA
:1030F0000408A8F80000DFF8988008F14008A8F854
:10310000002037E0A1F10108DFF8789009F12C09DF
:10311000A9F80080A9F10408A8F80000DFF864808D
:1031200008F13408A8F8002024E0A1F10108DFF834
:103130006C90A9F80080A9F10408A8F80000DFF855
:103140005C8008F10C08A8F8002013E0A1F1010848
:10315000DFF8389009F12C09A9F80080A9F10408DA
:10316000A8F80000DFF8248008F13808A8F800204B
:1031700000E000BF00BFBDE8F08300000008014090
:10318000000C0140000800400010014000340140E4
:1031900000040040002C014000A24A042C0C004016
:1031A00000B587B001214FF40770FEF77BF84FF4AC
:1031B0000040FDF7DBFFFE20ADF8040000208DF895
:1031C000070001A93A48FDF7B1FD0120ADF8040060
:1031D00000208DF8070001A93648FDF7A7FD3F2024
:1031E000ADF8040000208DF8070001A93248FDF772
:1031F0009DFD3248FDF71EFA002002908DF80C006C
:103200008DF80D004FF460200490002005900120FF
:103210008DF8180002A92948FDF733FA0121274843
:10322000FDF75BFA2548FDF77AFA00BF2348FDF762
:103230007BFA0028FAD12148FDF780FA00BF1F4829
:10324000FDF781FA0028FAD107B000BD10B5044699
:103250000723012221461948FDF7ABFA012117483F
:10326000FDF77BFA00BF02211448FDF7E7FB0028B9
:10327000F9D01248FDF704FB10BD2DE9F0410746D7
:103280000C460025002608E03846FFF7DFFF05441E
:103290000520FFF72CFD701CC6B2A642F4DBB5FB7F
:1032A000F4F080B2BDE8F08110B5FFF779FF10BDF2
:1032B00000080140000C01400010014000240140C2
:1032C000014600BF704700BF674A128802F0400203
:1032D000002AF9D0C2B2644B1B1D1A80704710B58A
:1032E00092B00446012144F20400FDF7DBFF012106
:1032F0000846FDF7CAFF01214804FDF7E0FF5A48E0
:10330000FEF742FF4FF40070ADF8440003208DF843
:10331000460018208DF8470011A95448FDF706FD16
:103320004FF48060ADF8440004208DF8470011A9E7
:103330004E48FDF7FBFC25208DF8300003208DF86A
:1033400031008DF8320001208DF833000CA8FDF714
:103350001AF90D940020ADF83800ADF83A00ADF838
:103360003C00ADF840000C20ADF83E000DA93E48F1
:10337000FEF752FF012240F224413B48FEF7D3FF03
:10338000012240213848FEF7E9FF01213648FEF7C7
:10339000BEFF3748FDF776FB3348001D01903548E6
:1033A000029000200390C820049000200590802007
:1033B000069000200790089009904FF480500A90E2
:1033C00000200B9001A92A48FDF7D3FB01212848D2
:1033D000FDF7F9FB12B010BD10B5044600212046E0
:1033E000FDF7F1FBC8212046FDF704FC0121204632
:1033F000FDF7E9FB10BD70B505460E4600240CE054
:1034000000BF40211848FFF750F80028F9D0295D87
:103410001548FEF7DDFF601CC4B2B442F0DB00BF0C
:1034200040211148FFF741F80028F9D070BD10B5D0
:1034300040F224410C48FFF743F8A0B10A48FEF7D8
:10344000CBFF0B48FDF7D8FBC0F1C8000A49088044
:1034500001200A49087040F224410348FFF750F860
:103460000348FFF7B9FF10BD0038014000080140D4
:1034700058000240C8000020340000203600002020
:103480002DE9F0418C4617465426A025401C00EB40
:103490004000042101EBC0010C4604236246304683
:1034A000FFF798FB3A4621462846BDE8F041042341
:1034B000FFF790BB70B52B494FF6FF7008602A49A3
:1034C0004FF47840086029A205215020FFF7D5FB72
:1034D00000241C2604EB440006EBC000C5B226A263
:1034E00029460A20FFF7C9FB0123621C29461A203E
:1034F000FFF770FB23A229468020FFF7BEFB23A223
:103500002946C420FFF7B9FB641CE4B2082CE1D3C0
:1035100070BD10B51E480078052821D2DFE800F004
:10352000030A0F151B004FF6FF70FFF7A8FABDE85E
:103530001040BFE7BDE810400020FFF7A0BABDE88B
:1035400010404FF47840FFF79ABABDE810404FF4AE
:10355000FC60FFF794BABDE810401F20FFF78FBA58
:1035600010BD0000280000202C00002050574D20E6
:10357000446973706C6179004368203A46726571E2
:103580000000000044757479000000002500000070
:103590003C00002000F1080141604FF0FF318160E4
:1035A00000F10801C1600161002101607047002144
:1035B00001617047426853684B6043688B60536891
:1035C000996051604160086103685B1C036070474B
:1035D00010B502460B685C1C0CB9106907E002F1DB
:1035E000080000E04068446824689C42FAD94468B6
:1035F0004C604C68A160886041600A611468641C7A
:10360000146010BDD0E901329A60D0E901235A60FC
:1036100001694A68824201D182684A6000220261DF
:103620000A68521E0A60704770B50024F74D04EB1B
:10363000840005EB8000FFF7ADFF641C052CF6D37A
:10364000F2486430FFF7A6FFF0487830FFF7A2FF9A
:10365000EE488C30FFF79EFFEC48A030FFF79AFF52
:10366000EA48B430FFF796FFE849E948643141631E
:103670001431816370BD70B504461546102204F103
:10368000340000F0A2FC002084F84300052D00D394
:103690000425E562201DFFF78AFF04F11800FFF7FB
:1036A00086FF2461C5F10500A061646270BD70B53C
:1036B00006460D46442000F0A9FB044644B1B6007E
:1036C00045B12846206348B1A522314600F075FC7B
:1036D000204670BD304600F099FBF3E7204600F02D
:1036E000EBFB0024F4E72DE9FF4F81B08246DDE9D2
:1036F0000E68109917469B463846FFF7D8FF0446D8
:10370000C34DECB3216B781E01EB800020F007095C
:10371000009732462046119B0299FFF7ACFF5A46AC
:103720005146484600F0EEFB2060B8F1000F01D092
:10373000C8F8004000F016FCA868401CA860286883
:1037400010B1A86938B10BE02C60A868012807D136
:10375000FFF76AFF04E02868C06AB04200D82C6016
:10376000E06A2969884200D92861E96A491CE9624E
:103770006969884200D9686100EB8001A34800E0D4
:1037800008E000EB8100211DFFF714FF012400F089
:10379000F2FB01E04FF0FF34012C07D1A86928B1FA
:1037A0002868C06AB04201D200F0D6FB05B02046BE
:1037B000BDE8F08F70B5054600F0D4FB944E30683C
:1037C000854200D10025FDB12C46201DFFF71AFFD0
:1037D000A06A18B104F11800FFF714FF8B48211DEF
:1037E000A030FFF7E7FE7068401C7060F06A401C74
:1037F000F06200F0C0FBB069002807D0002D05D1B1
:10380000BDE8704000F0A8BB3468DEE770BD70B55D
:103810007F4DE869002803D0286A401C286270BDEB
:10382000E868401CE860E8684FF0FF3670B9686BE4
:10383000A96B6963A863A86A401CA862686B0068EA
:10384000A0B1686BC068C06840682863E868296BED
:103850008842E4D3686B006850B1686BC068C46884
:103860006068E968814205D2286370BD2E63EDE788
:103870002E6370BD201DFFF7C5FEA06A18B104F1CC
:103880001800FFF7BFFEE06A6969884200D96861E5
:103890005E4900EB800001EB8000211DFFF78AFEEE
:1038A000D8E72DE9F041002700F05CFB584EF069A5
:1038B000401EF061F069E8BBB068D8B30025DFF8BE
:1038C0004C8108F18C081CE0D8F80C00C46804F1A5
:1038D0001800FFF797FE201DFFF794FEE06A71695C
:1038E000884200D97061494900EB800001EB8000FB
:1038F000211DFFF75FFEE06A3168C96A884200D384
:103900000125D8F800000028DED1306A28B908E087
:10391000FFF77DFF306A401E3062306A0028F7D121
:103920000125012D02D0706A012806D1012700204F
:10393000706200E001E000F00FFB00F01CFB384675
:10394000BDE8F08170B50446314D28684460E868F0
:10395000844206D22968A86B091DBDE87040FFF7B4
:1039600037BE2968686B091DFFF732FE286B844259
:1039700000D22C6370BD2648C169491CC1617047E3
:1039800070B503460C460022FFF7F5FF18680444A3
:103990001F49CD68A84206D9A0420AD9C868844206
:1039A00007D9012205E0A04202D8C868844200D9A4
:1039B00001221C6032B10868001DFFF723FE20467B
:1039C000FFF7C0FFFFF76DFF002803D1BDE870408F
:1039D00000F0C2BA70BD10B502460020002A0DD01A
:1039E000FFF7C9FF0A48C1688C180068001DFFF77F
:1039F00009FE2046FFF7A6FFFFF753FF002803D17B
:103A0000BDE8104000F0A8BA10BD000090010020F1
:103A10004000002010B5044600F0A4FA0CB9F648A6
:103A20000468E46A00F0A7FA2046EDE72DE9F041CA
:103A300006460D460027052D00D3042500F092FA16
:103A4000DFF8B483D8F80000864200D1002646B1E2
:103A50003446E06AA8422AD0854205D936B101270A
:103A600004E0D8F80040F4E706B90127E562C5F1A3
:103A70000501A161E14D00EB8000616905EB80006B
:103A8000814210D1201DFFF7BDFDE06AD8F8141067
:103A9000884201D9C8F8140000EB800005EB8000D3
:103AA000211DFFF787FD012F01D100F055FABDE878
:103AB000F04100F060BAD049C869002802D0012066
:103AC00048627047CD4A02E04869401E4861486933
:103AD00000EB800052F820000028F5D0486900EB88
:103AE000800002EB800042685268426000F10803E7
:103AF0009A4201D1526842604068C06808607047CD
:103B000070B5054600F02EFABB4E3068854200D1F4
:103B10000025C5B12C46201DFFF774FDA06A18B121
:103B200004F11800FFF76EFDB448211DB430FFF713
:103B300041FD00F020FA002D0FD1B06928B1BDE899
:103B4000704000F009BA3468E5E7B068012802D097
:103B5000BDE87040AFE70020306070BD0021A74B8A
:103B60004269B4339A4206D1806AA3F12802904296
:103B700001D000B901210846704770B50446002CF9
:103B800025D09D4D2868844221D000F0EBF92046D5
:103B9000FFF7E4FF012816D1201DFFF733FDE06A8F
:103BA0006969884200D96861944900EB800001EBA3
:103BB0008000211DFFF7FEFCE06A2968C96A88427F
:103BC00001D300F0C9F9BDE8704000F0D4B970BD70
:103BD00070B5044600252046FFF7C0FF012808D134
:103BE000854EF06938B1854804F118018C30FFF733
:103BF000E1FC284670BDE06A3168C96A884201D399
:103C0000012500E00025201DFFF7FCFCE06A71693A
:103C1000884200D97061794900EB800001EB800097
:103C2000211DFFF7C7FCE4E710B50446206B00F048
:103C300043F92046BDE8104000F03EB970B56E4D26
:103C4000686800281FD0FFF796FE6C4EA0363068DB
:103C5000B8B10024FFF725FE002C14D100F082F942
:103C6000F068C468201DFFF7CDFCA868401EA8605E
:103C70006868401E686000F07EF92046BDE870402C
:103C8000D2E70124E6E770BD5C4CFFF7D7FF206860
:103C90000128FAD900F060F9F7E71FB50024009475
:103CA000019402942346802255A157480394FFF7BC
:103CB0001AFD012809D1FCF7C1FA4F4801218161A1
:103CC000C460BDE81F4000F031B91FBD10B5FCF75E
:103CD000B5FA494900208861BDE8104000F03BB9C1
:103CE00010B500F03FF94448C46800F044F920469C
:103CF0008AE610B5FCF7A2FA3F48C468FCF7A5FABB
:103D0000204681E63C488068704770B50D463A4CC5
:103D100021681831FFF75CFC2068001DFFF772FC7A
:103D2000681C04D0E0682844BDE870400AE62168B9
:103D3000BDE870403148091DB430FFF73BBC70B599
:103D4000C068C46804F118000646FFF75BFC2A4D02
:103D5000EA695AB1294831468C30FFF72BFCE06AFA
:103D60002968C96A884212D3012070BD201DFFF75F
:103D700049FCE06A6969884200D968611F4900EB23
:103D8000800001EB8000211DFFF714FCE7E7002015
:103D900070BD19498A6A0260C9684160704770B590
:103DA00004460D4600F0DEF82868411C0AD0124B8C
:103DB00021689A6A914207D06168DA68914203D813
:103DC000012410E000240EE06268D968891A81425B
:103DD00008D2D968891A401A28602046FFF7D9FF0F
:103DE000002400E0012400F0C6F8204670BD02491E
:103DF0000120486270470000400000209001002030
:103E000049444C4500000000893C00082DE9F04180
:103E100004460025FFF7AFFD384E06F10801706833
:103E200001F1080360B936480860002048604FF48B
:103E300088425A6018603248426003600120706016
:103E40003CB11034600704D004F00700C0F1080052
:103E50000444601E44F2FF32904228D2274A0832BE
:103E6000096801E00A4601464868A04202D2086893
:103E70000028F7D199421AD01568103508681060EB
:103E80004868001B20280ED90B1958604C605C68EC
:103E90001A48083000E0104602685768A742FAD373
:103EA00002681A60036048683168081A3060FFF7DA
:103EB000F8FC2846BDE8F08110B5002818D010386D
:103EC0000446FFF758FD60680C49083100E01146D0
:103ED0000A6853688342FAD3086820600C60074878
:103EE0006168026811440160BDE81040FFF7D9BC69
:103EF00010BD024800687047704700007C00002039
:103F000058020020001F4FF080730360001F016003
:103F1000001F0023036014380260203870472348D4
:103F20004FF0E021486107200861704710B5204834
:103F3000006840F47F001E4908600846006840F0B1
:103F40007F400860FFF7EBFF00201A490860FCF78C
:103F50004DF9002010BD70474FF0805014491C39B6
:103F60000860704710B5FCF769F912480068401CFA
:103F70001049086010BD10B50E480068401E0D497C
:103F800008600846006808B9FCF75FF910BD10B575
:103F90004FF0805006491C3908600024FCF74EF9A8
:103FA000FFF735FCFCF751F910BD00007FFC0A005B
:103FB00020ED00E094000020704702F0FF0343EA88
:103FC000032242EA024200F031B810B5044610F074
:103FD000030F08BF11F0030F40F015804FF0013EB2
:103FE000121FC0F20E8051F8043BA3EB0E0C2CEA1A
:103FF000030C1CEACE1C08BF40F8043BF0D0A1F132
:10400000040102F10402521E08DB11F8013B002BEF
:1040100000F8013BF7D1114600F006F8204610BD2C
:1040200070477047704770474FF000020429C0F096
:10403000128010F0030C00F01B80CCF1040CBCF1DA
:10404000020F18BF00F8012BA8BF20F8022BA1EB2C
:104050000C0100F00DB85FEAC17C24BF00F8012B11
:1040600000F8012B48BF00F8012B70474FF0000209
:1040700000B5134694469646203922BFA0E80C505E
:10408000A0E80C50B1F12001BFF4F7AF090728BF39
:10409000A0E80C5048BF0CC05DF804EB890028BFB5
:1040A00040F8042B08BF704748BF20F8022B11F0DE
:1040B000804F18BF00F8012B7047754600F02CF8B0
:1040C000AE4605006946534620F00700854618B005
:1040D00020B5FEF725FBBDE820404FF000064FF06D
:1040E00000074FF000084FF0000B21F00701AC462D
:1040F000ACE8C009ACE8C009ACE8C009ACE8C0094C
:104100008D46704710B50446AFF300802046BDE8E9
:104110001040FCF754B80000004870475846002093
:10412000000000000000000000000000000000008F
:104130000000000808080808080800001818000017
:1041400000486C2412000000000000000000000085
:104150000000002424247F1212127F121212000089
:104160000000081C2A2A0A0C1828282A2A1C0808D9
:1041700000000022251515152A5854545422000019
:104180000000000C1212120A76252911916E00000F
:10419000000606040300000000000000000000000C
:1041A00000402010100808080808081010204000DF
:1041B0000002040808101010101010080804020073
:1041C0000000000008086B1C1C6B080800000000C1
:1041D00000000000080808087F0808080800000020
:1041E00000000000000000000000000006060403BC
:1041F0000000000000000000FE00000000000000C1
:1042000000000000000000000000000006060000A2
:104210000000804040202010100808040402020022
:104220000000001824424242424242422418000048
:10423000000000080E08080808080808083E0000EA
:104240000000003C4242422020100804427E000050
:104250000000003C4242201820404042221C000046
:10426000000000203028242422227E202078000014
:104270000000007E0202021A26404042221C00007A
:10428000000000382402021A26424242241800008C
:104290000000007E2222101008080808080800000C
:1042A0000000003C4242422418244242423C0000AA
:1042B000000000182442424264584040241C000080
:1042C000000000000000181800000000181800008E
:1042D00000000000000000080000000000080804C2
:1042E00000000040201008040204081020400000D4
:1042F0000000000000007F0000007F0000000000C0
:1043000000000002040810204020100804020000F1
:104310000000003C424246402010100018180000E7
:104320000000001C225A555555552D42221C0000F4
:104330000000000808181414243C224242E7000040
:104340000000001F2222221E22424242221F0000A1
:104350000000007C4242010101010142221C0000D8
:104360000000001F2242424242424242221F0000FD
:104370000000003F4212121E12120242423F000091
:104380000000003F4212121E121202020207000039
:104390000000003C2222010101712122221C0000A8
:1043A000000000E7424242427E42424242E70000B1
:1043B0000000003E0808080808080808083E000039
:1043C0000000007C10101010101010101010110FB1
:1043D0000000007722120A0E0A1212222277000031
:1043E000000000070202020202020202427F0000F5
:1043F00000000077363636362A2A2A2A2A6B000031
:10440000000000E346464A4A5252526262470000A8
:104410000000001C2241414141414141221C000059
:104420000000003F424242423E02020202070000F8
:104430000000001C2241414141414D53321C6000AB
:104440000000003F4242423E1212222242C70000B8
:104450000000007C4242020418204042423E00001C
:104460000000007F4908080808080808081C000028
:10447000000000E74242424242424242423C0000C7
:10448000000000E742422224241414180808000007
:104490000000006B49494949555536222222000047
:1044A000000000E7422424181818242442E70000E2
:1044B000000000772222141408080808081C0000D5
:1044C0000000007E2120101008040442423F00003A
:1044D000007808080808080808080808080878008C
:1044E00000000202040408080810102020204040A8
:1044F000001E1010101010101010101010101E00C0
:10450000003844000000000000000000000000002F
:10451000000000000000000000000000000000FF9C
:10452000000608000000000000000000000000007D
:10453000000000000000003C4278444242FC0000C1
:10454000000000030202021A26424242261A00001C
:10455000000000000000003844020202443800005D
:1045600000000060404040784442424264D800006D
:10457000000000000000003C427E0202423C0000BD
:10458000000000F08808087E08080808083E0000BF
:10459000000000000000007C22221C023C42423C41
:1045A000000000030202023A4642424242E7000093
:1045B0000000000C0C00000E08080808083E00006F
:1045C0000000003030000038202020202020221E53
:1045D0000000000302020272120A16122277000083
:1045E0000000000E0808080808080808083E000037
:1045F000000000000000007F9292929292B70000AB
:10460000000000000000003B4642424242E700003A
:10461000000000000000003C42424242423C0000D8
:10462000000000000000001B26424242221E02073A
:10463000000000000000007844424242447840E01C
:1046400000000000000000774C040404041F000078
:10465000000000000000007C42023C40423E00009E
:10466000000000000008083E0808080808300000A4
:1046700000000000000000634242424262DC000091
:1046800000000000000000E7422424140808000095
:1046900000000000000000EB4949555522220000AF
:1046A000000000000000007624181818246E000096
:1046B00000000000000000E7422424141808080746
:1046C000000000000000007E22100808447E000068
:1046D00000C0202020202010202020202020C000EA
:1046E00010101010101010101010101010101010CA
:1046F0000006080808080810080808080808060046
:104700000C32C200000000000000000000000000A9
:104710003047000800000020980000006C010008ED
:10472000C847000898000020204C000088010008BD
:104730000000000001020304010203040607080947
:104740000204060800A24A04000000000000000065
:104750000102030406070809000000000000000031
:104760000000000000000000000000000000000049
:104770000000000000000000000000000000000039
:104780000000000000000000000000000000000029
:104790000000000000000000000000000000000019
:1047A000FFFFFFFF000000000000000000440000C9
:1047B00000000000000000000000000000000000F9
:0847C00000000000AAAAAAAA49
:0400000508000131BD
:00000001FF
