:020000040800F2
:10000000B84C0020A5220008790500087B050008EF
:100010007D0500087F05000881050008000000003C
:100020000000000000000000000000008305000840
:100030008505000800000000870500088905000804
:10004000BF220008BF220008BF220008BF2200080C
:10005000BF220008BF220008BF220008BF220008FC
:10006000BF220008BF220008BF220008BF220008EC
:10007000BF220008BF220008BF220008BF220008DC
:10008000BF220008BF220008BF220008BF220008CC
:10009000BF220008BF220008BF220008BF220008BC
:1000A000BF220008BF220008BF220008BF220008AC
:1000B000BF220008BF220008BF220008BF2200089C
:1000C000BF220008BF220008BF220008BF2200088C
:1000D000BF220008352F0008BF220008BF220008F9
:1000E000BF220008BF220008BF220008BF2200086C
:1000F000BF220008BF220008BF220008BF2200085C
:10010000BF220008BF220008BF220008BF2200084B
:10011000BF220008BF220008BF220008BF2200083B
:10012000BF220008BF220008BF220008BF2200082B
:1001300000F002F800F03AF80AA090E8000C8244BF
:100140008344AAF10107DA4501D100F02FF8AFF29C
:10015000090EBAE80F0013F0010F18BFFB1A43F0A5
:100160000103184798400000B8400000103A24BF2F
:1001700078C878C1FAD8520724BF30C830C144BF0C
:1001800004680C607047000000230024002500264E
:10019000103A28BF78C1FBD8520728BF30C148BFEA
:1001A0000B6070471FB51FBD10B510BD03F0FBFC01
:1001B0001146FFF7F7FF00F06FF803F019FD03B4E5
:1001C000FFF7F2FF03BC02F007FE00001A4B1968AC
:1001D0000868B0E8F00F80F309884FF0000080F362
:1001E00011884EF00D0E70470000000003480068B3
:1001F000006880F3088862B600DF00BF08ED00E009
:10020000EFF309800C4B1A6820E9F00F106008B575
:100210004FF0BF0080F3118803F0CDF94FF00000DC
:1002200080F31188BDE8084019680868B0E8F00F4D
:1002300080F30988704700BF3C00002001B44FF0F4
:10024000BF0080F3118801BC704701B44FF000007B
:1002500080F3118801BC70470023002202E00344B0
:10026000521CD2B28A42FAD3B3FBF1F080B270478B
:1002700008B50121080200F020FF4FF48040ADF8DE
:10028000000010208DF8030003208DF8020069465D
:10029000AB4800F00CFD08BDA6B0002502F022F826
:1002A00002F0FCFA00F071F94FF4A06000F082F95E
:1002B0004FF4E13002F09AFD4FF47A7441F279760E
:1002C0002146304602F04CFC4FF4487739469D48B1
:1002D00001F028FD2146304602F02AFB3946E006AF
:1002E00001F020FD2146304602F0FEFB39469648DB
:1002F00001F01EFD2146304602F065FB4FF4E1613E
:10030000924801F00FFD02F0DFFC6610304602F06B
:10031000DCFA304602F0D9FA02F092F84FF6FF709C
:1003200002F09AF9304602F0D0FA894A4FF4784048
:10033000106002F043FE4FF48051864800F012FD39
:10034000D8B100260121042000F0B7FE4FF4004090
:10035000ADF8940010208DF8970003208DF89600DA
:1003600025A97D4800F0A3FC7C4F4FF0000B4FF413
:100370007A7002F0AAFA16B120E00126E2E7784C82
:10038000207801281AD177480068102814D100205D
:10039000754BDFF8D8C103EB8001CA7891F8028071
:1003A00002EB0828021D27F8128049782CF8121059
:1003B000401C80B20428EED384F800B000240DF174
:1003C00074080DF1540904F1010A0AF0FF006421D8
:1003D00002F0E1FC48F82400601DC0B2642102F084
:1003E000DAFC49F824000AF0FF04042CEBD30024C3
:1003F000DFF878A10DF10C080DF104091DA86421A6
:1004000030F8240080B2FFF727FF27F8140015A862
:10041000642130F8240080B2FFF71EFF2AF8140090
:1004200040F60201884202D92AF8141004E032286A
:1004300002D232202AF814003AF81400323814217B
:1004400090FBF1F080B22AF814000DAB37F81410CD
:1004500053F82420914203D0012208F8042001E03F
:1004600008F804B005AA52F824C0604504D04FF043
:10047000010C09F804C001E009F804B043F82410A5
:1004800042F82400641CE4B2042CB7D3012E19D125
:1004900000241AF81410364800F8244000EB8400B9
:1004A000417037F814100A0A8270C1704FF4FA7064
:1004B00002F00BFA641CA4B2042CEAD310212C48DD
:1004C00002F01BFD002418F80400012803D019F8DD
:1004D0000400012806D137F814203AF81410E0B2CD
:1004E00002F084FB641CA4B2042CECD35EB900249B
:1004F000E0B21AF8142037F8141002F045FD641C1D
:10050000A4B2082CF4D30024C82002F0DEF9641C45
:10051000A4B2642CF8D36D1CADB20020401C082896
:10052000FCD3642DFFF423AF002520E71149D1F857
:10053000B40118B10020C1F8B401F8E70120FAE7CE
:1005400000200140002C0140000400400008004051
:100550002C000020000C014000080140B4000020E5
:100560003400002036000020C4000020A400002039
:1005700094000020000022427047FEE7FEE7FEE7FD
:10058000FEE7704770477047704708B54FF44070FA
:1005900000F010F81D208DF8000001208DF80100FA
:1005A00000218DF802108DF80300684600F007F86E
:1005B00008BD00002A4908432A490860704770B501
:1005C0000F23C27801260178002A1ED0254A12681E
:1005D00002F4E062C2F5E062120AC2F10404D34000
:1005E0004578A54082781A402A43120101F1E021A2
:1005F00081F80024007800F01F018E40400980003F
:1006000000F1E020C0F8006170BD01F01F008640DD
:100610004809800000F1E020C0F8806170BD124AF6
:10062000114001430F48001F016070470D4A121D21
:10063000002903D01168014311607047116881439C
:10064000116070474FF0E021042804D0086920F0C1
:10065000040008617047086940F0040008617047B1
:100660000000FA050CED00E080FFFF1F10B5DB492C
:1006700088420AD144150121204600F034FD20466D
:10068000BDE81040002100F02EBDD54988420AD1B6
:1006900004150121204600F026FD2046BDE810404B
:1006A000002100F020BDCF4988420AD10121CC03AE
:1006B000204600F018FD2046BDE81040002100F063
:1006C00012BD10BD10B54268C74B1A400C790B68BB
:1006D00042EA0422134343608268C44B1A40D1E9C2
:1006E000024323434C7942EA440213438360C26AC3
:1006F00022F47002097C491EC9B242EA0151C1626A
:1007000010BD00210160017141718160C160012152
:1007100001747047002904D0816841F001018160B3
:100720007047816821F0010181607047002904D081
:10073000816841F4807181607047816821F4807123
:1007400081607047C9B2002A03D042680A43426000
:10075000704742688A4342607047816841F00801EF
:1007600081607047014600208968090700D5012093
:100770007047816841F004018160704701460020A4
:100780008968490700D501207047002904D0816895
:1007900041F4A00181607047816821F4A00181606B
:1007A0007047014600208968490200D50120704742
:1007B000426822F46042491E42EA4131416070477A
:1007C000002904D0416841F40061416070474168EC
:1007D00021F400614160704770B5072609290AD9E4
:1007E000C568A1F10A0404EB4404A640B543A34044
:1007F0001D43C56007E0056901EB4104A640B54310
:10080000A3401D4305611F23072A09D2446B521ED2
:1008100002EB820293409C4391400C43446370BDC1
:100820000D2A09D2046BD21F02EB820293409C4333
:1008300091400C43046370BDC46A0D3A02EB82021E
:1008400093409C4391400C43C46270BD002904D086
:10085000816841F4801181607047816821F48011C2
:1008600081607047C06C80B270475C484C30006853
:100870007047002904D0416841F4806141607047AD
:10088000416821F4806141607047002904D04168CB
:1008900041F4805141607047416821F480514160CA
:1008A0007047826822F4E0420A4382607047002960
:1008B00004D0816841F4004181607047816821F46F
:1008C000004181607047002904D0816841F4021121
:1008D00081607047816821F4021181607047014690
:1008E00000208968890200D50120704770B507266D
:1008F00009290AD9C568A1F10A0404EB4404A640F9
:10090000B543A3401D43C56007E0056901EB410401
:10091000A640B543A3401D430561836BC3F3015457
:10092000121B921C02EB82021F249440A3439140AD
:100930000B43836370BD826B22F44012491E42EA6E
:1009400001518163704708B50090009808440090F9
:100950000098026008BD08B500900098084428304F
:1009600000900098006880B208BD4268204B1A4091
:100970000A4342607047416282627047426822F0D7
:100980001F020A434260704714490831002804D00E
:10099000086840F4000008607047086820F4000010
:1009A000086070470246002012680A4200D0012009
:1009B0007047C9430160704710B5024600200B0A1A
:1009C0005468C9B20C401168194202D0002C00D002
:1009D000012010BD090AC94301607047002401408D
:1009E00000280140003C0140FFFEF0FFFDF7F1FF51
:1009F000FFFD3FFF01684FF6FE72114001600021CC
:100A0000016041608160C1607249724A0839904258
:100A100004D1486840F00F00486070476D4A1432B6
:100A2000904204D1486840F0F00048607047694A3D
:100A30002832904204D1486840F4706048607047A2
:100A4000644A3C32904204D1486840F470404860A7
:100A50007047604A5032904204D1486840F4702098
:100A6000486070475B4A6432904204D1486840F461
:100A7000700048607047574A7832904204D1486805
:100A800040F0706048607047534A111F904204D193
:100A9000086840F00F00086070474F4A14329042D7
:100AA00004D1086840F0F000086070474A4A2832D4
:100AB000904204D1086840F4706008607047464A6C
:100AC0003C32904204D1086840F47040086070479E
:100AD000414A50329042FAD1086840F470200860D0
:100AE000704730B5026847F6F0739A430C6A8B681A
:100AF0002343D1E904452C4323438C692343CC6928
:100B000023434C6A23438C6A234313430360CA681C
:100B100042600A6882604968C16030BD002101609E
:100B200041608160C160016141618161C1610162B7
:100B3000416281627047002904D0016841F00101DF
:100B40000160704701684FF6FE7211400160704706
:100B5000002A03D002680A430260704702688A4391
:100B60000260704741607047406880B2704702463B
:100B70000020D10003D518490839096802E0154959
:100B800008390968114200D001207047C10003D51F
:100B90001149091F086070470E49083948607047BD
:100BA00002460020D10003D50B490839096802E04C
:100BB000084908390968114200D001207047C10076
:100BC00003D50549091F0860704702490839486084
:100BD00070470000080002400804024010B59C491C
:100BE000884209D10121042000F07DFA0021BDE8EE
:100BF0001040042000F077BA9649884209D10121BB
:100C0000082000F070FA0021BDE81040082000F034
:100C10006ABA9149884209D10121102000F063FA93
:100C20000021BDE81040102000F05DBA8B498842D9
:100C300009D10121202000F056FA0021BDE8104022
:100C4000202000F050BA8649884209D10121402075
:100C500000F049FA0021BDE81040402000F043BAFE
:100C60008049884209D10121802000F03CFA00210E
:100C7000BDE81040802000F036BA7B4988420AD196
:100C800084150121204600F02EFA2046BDE81040D0
:100C9000002100F028BA10BD10B50121084600F06F
:100CA00022FA0021BDE81040012000F01CBA2DE915
:100CB000F0410022CC7804F00F03E40601D58C78D3
:100CC00023430C784FF00F0714F0FF0F4FF0010C87
:100CD0001CD005680CFA02F40E882640A64211D1F9
:100CE000960007FA06F825EA080503FA06F848EA26
:100CF0000505CE78282E02D0482E02D002E04461AD
:100D000000E00461521C082AE4D305600A88FF2A27
:100D10001ED94568002202F108060CFA06F40E8876
:100D20002640A64210D1960007FA06F825EA0805E3
:100D300003FA06F848EA0505CE78282E00D144616A
:100D4000CE78482E00D10461521C082AE3D34560B6
:100D5000BDE8F0814FF6FF7101800221817004210E
:100D6000C17070470246002092680A4200D00120FC
:100D70007047806880B2704702460020D2680A42FD
:100D800000D001207047C06880B270470161704791
:100D900041617047002A01D001617047416170478D
:100DA000C160704741F480328261816182618169F2
:100DB0008069704710B52D4B1A684FF68074224039
:100DC00042EA00100843186010BD2949C861704705
:100DD000F0B5264C002801DAE36900E06368C0F34F
:100DE0000346420D120185B2C0F301579540032F0F
:100DF00007D0C2020CD50322B240934343F0706285
:100E000009E023F07062636823F07063636002E0BE
:100E1000AB4343F0706201B12A43002801DAE2617A
:100E2000F0BD6260F0BD10B58A07120F0F2393402A
:100E300021F003040D4921448C689C438C608B682D
:100E4000904003438B6010BD0949DC310860704756
:100E500000080140000C0140001001400014014056
:100E600000180140001C014000200140000001402A
:100E700000002042B448016841F00101016041686E
:100E8000B24A114041600168B14A114001600168F5
:100E900021F480210160416821F4FE0141604FF49A
:100EA0001F0181607047A8490A6822F480320A60F5
:100EB0000A6822F480220A60B0F5803F07D0B0F5BE
:100EC000802F03D1086840F4A020086070470868AC
:100ED00040F48030086070470346002059099A4A60
:100EE00001290AD002290AD0516A03F01F02012306
:100EF00093400B4200D0012070471168F5E7116A5A
:100F0000F3E718B5002000904FF4A0643120FFF7FC
:100F1000E3FF0099491C00910099A14201D00028EB
:100F2000F4D03120FFF7D8FF08B1012018BD002010
:100F300018BD854A116821F0F80141EAC00010602F
:100F400070478449086070477F4B5A6822F47C12CE
:100F500008431043586070477E49086670477A4AD4
:100F6000516821F0030101435160704776484068A1
:100F700000F00C007047744A516821F0F001014301
:100F800051607047704A516821F4E061014351603B
:100F900070476D4A516821F4605141EAC0005060C9
:100FA0007047694A002903D0517A01435172704752
:100FB000517A8143517270476649D8310860704751
:100FC000614A516821F440410143516070475E49D4
:100FD000002220310A7001F82029012805D00428B8
:100FE00002D1052081F820007047012081F82000FF
:100FF000704759490860704753490A6A02430A62B8
:101000007047554944390860704710B54E4A5168D9
:1010100001F00C01514B002927D0042927D00829C1
:1010200027D00360516801F0F00109094C4B5C5C6A
:101030000168E1404160546804F4E064240A1C5DE6
:1010400021FA04F48460546804F46054E40A1B5DDB
:10105000D940C160526802F44042920B404B1B1FC2
:101060009A5CB1FBF2F1016110BD0360DAE7036045
:10107000D8E7516801F47011536803F480330224F7
:1010800004EB914133B153689B0307D5354B59436A
:101090000160C7E7334B59430160C3E72F4B594306
:1010A0000160BFE7284A002903D05169014351611B
:1010B00070475169814351617047234A002903D029
:1010C00091690143916170479169814391617047D2
:1010D0001D4A002903D0D1690143D1617047D1690C
:1010E0008143D1617047184A002903D0D168014378
:1010F000D1607047D1688143D1607047124A00299E
:1011000003D0116901431161704711698143116175
:10111000704711494039086070470E49C8647047EC
:101120000949C87170470848416A41F080714162BD
:10113000704701460020044A92680A4200D001200C
:101140007047014988727047001002400000FFF8A4
:10115000FFFFF6FE000042428004424200127A0085
:101160000400002000093D0010B5FE4988420AD164
:10117000C41401212046FFF7B6FF2046BDE8104009
:101180000021FFF7B0BFB0F1804F0CD0F649884284
:1011900013D101210220FFF7B1FF0021BDE810406B
:1011A0000220FFF7ABBF01210846FFF7A7FF002190
:1011B000BDE810400120FFF7A1BFEC49884209D1EA
:1011C00001210420FFF79AFF0021BDE81040042010
:1011D000FFF794BFE649884209D101210820FFF7B3
:1011E0008DFF0021BDE810400820FFF787BFE149CF
:1011F000884209D101211020FFF780FF0021BDE8BE
:1012000010401020FFF77ABFDB49884209D1012145
:101210002020FFF773FF0021BDE810402020FFF7DA
:101220006DBFD64988420AD1441401212046FFF7F8
:101230005AFF2046BDE810400021FFF754BFD049B7
:1012400088420AD10121CC042046FFF74CFF2046FA
:10125000BDE810400021FFF746BFCA4988420AD1C5
:1012600001210C052046FFF73EFF2046BDE8104057
:101270000021FFF738BFC44988420AD101214C053B
:101280002046FFF730FF2046BDE810400021FFF761
:101290002ABFBE49884209D101214020FFF72EFF15
:1012A0000021BDE810404020FFF728BFB849884220
:1012B00009D101218020FFF721FF0021BDE8104066
:1012C0008020FFF71BBFB34988420AD18415012152
:1012D0002046FFF713FF2046BDE810400021FFF72E
:1012E0000DBFAD4988420AD101210C042046FFF709
:1012F000FAFE2046BDE810400021FFF7F4BEA749E2
:1013000088420AD101214C042046FFF7ECFE20461A
:10131000BDE810400021FFF7E6BEA14988420AD18E
:1013200001218C042046FFF7DEFE2046BDE8104078
:101330000021FFF7D8BE10BD30B50288894C8F4D13
:10134000A0420DD0A8420BD0B0F1804F08D0864B00
:10135000984205D0854B984202D0854B984203D1E4
:1013600022F070034A881A43824B984206D0824B7F
:10137000984203D022F44073CA881A4302808A88B4
:1013800082850A880285A0420AD0A84208D0824AF3
:10139000904205D0814A904202D0814A904201D1C8
:1013A000097A01860121818230BD30B5028C22F09C
:1013B00001020284028C8388048B24F0700424F0E0
:1013C00003050C882C4322F002020D8915434A883C
:1013D0002A43644DA8420BD0684DA84208D06E4DF8
:1013E000A84205D06D4DA84202D06D4DA8420FD144
:1013F00022F008054A892A4322F004058A882A43F4
:1014000023F4807323F400738D891D43CB892B4310
:1014100083800483C9888186028430BD70B5028CC4
:1014200022F010020284028C8388048B24F4E044AE
:1014300024F440760D884FF6FF7404EA0525354301
:1014400022F020020E8904EA061616434A8804EAAE
:1014500002123243434EB04202D0484EB04217D13E
:1014600022F080024E8904EA0616164326F0400652
:101470008A8804EA0212324323F4806323F400636F
:101480008E8904EA86061E43CB8904EA830333432C
:1014900083800583C9880187028470BD70B5028C82
:1014A00022F480720284028C8388848B24F070047E
:1014B00024F003040D88254322F400720E894FF6B0
:1014C000FF7404EA062616434A8804EA02223243DD
:1014D000244EB04202D0294EB04217D122F4006609
:1014E0004A8904EA0222324322F480668A8804EAA6
:1014F0000222324323F4805323F400538E8904EAFA
:1015000006161E43CB8904EA031333438380858385
:10151000C9888187028470BD70B5028C22F4805224
:101520000284058C8288838B23F4E04323F4407685
:101530000C884FF6FF7303EA0424344325F4005566
:101540000E8903EA06362E434D8803EA05353543F6
:10155000044EB04202D0094EB04226D122F4804659
:101560008A891FE0002C0140000400400008004070
:10157000000C004000100040001400400034014006
:10158000004C014000500140005401400018004050
:10159000001C004000200040004001400044014089
:1015A0000048014003EA8212324382808483C98862
:1015B000A0F84010058470BD828B22F440628283C3
:1015C000828B4FF6FF7303EA01210A43828370473F
:1015D000F0B5048C24F480540484868B048C4FF67C
:1015E000FF7505EA013726F4734605EA0222324305
:1015F00005EA03331343F74A90420ED0F64A90426D
:101600000BD0B0F1804F08D0F44A904205D0F44A94
:10161000904202D0F34A904205D124F4005139435C
:1016200041F4805104E024F402420A4342F4805120
:1016300083830184F0BD828B22F00C028283828B33
:101640000A4382837047F0B5048C24F480740484C8
:10165000858B048C4FF6FF7707EA012625F0F3050A
:1016600007EA031313432B43DA4A90420ED0DA4AB7
:1016700090420BD0B0F1804F08D0D84A904205D0AC
:10168000D74A904202D0D74A904205D124F4007143
:10169000314341F4807104E024F420620A4342F4AF
:1016A000807183830184F0BD028B22F44062028347
:1016B000028B4FF6FF7303EA01210A43028370474E
:1016C000F0B5048C24F010040484068B048C4FF6CF
:1016D000FF7505EA011726F4734605EA0333334321
:1016E00005EA02221A43BB4B98420ED0BA4B9842ED
:1016F0000BD0B0F1804F08D0B84B984205D0B84B12
:10170000984202D0B74B984205D124F020013943CA
:1017100041F0100104E024F0A0030B4343F010015A
:1017200002830184F0BD028B22F00C020283028B43
:101730000A430283704770B5048C24F001040484CA
:10174000058B048C25F0F3054FF6FF7606EA0313AC
:1017500013432B439F4A90420ED09F4A90420BD096
:10176000B0F1804F08D09D4A904205D09C4A9042EB
:1017700002D09C4A904205D124F002020A4342F072
:10178000010104E024F00A020A4342F0010103834C
:10179000018470BD70B505460C468E48854209D05F
:1017A0008D48854206D0B5F1804F03D08B488542E5
:1017B00000D08B4820886188A288238958B10428EA
:1017C00011D0082817D02846FFF702FFE1882846E5
:1017D000BDE87040F0E62846FFF7ADFFE1882846F7
:1017E000BDE870409FE72846FFF76AFFE18828467A
:1017F000BDE8704058E72846FFF725FFE1882846F6
:10180000BDE8704017E72DE9F04107460C4600257A
:1018100001266188002900D10225A288012A00D171
:1018200002262088238988B13846FFF749FFE188DE
:101830003846FFF739FF2389324629463846FFF7F5
:101840007AFFE1883846BDE8F0416CE73846FFF79B
:1018500072FFE1883846FFF766FF23893246294642
:101860003846FFF72DFFE1883846BDE8F0411BE719
:1018700010B50A884B88CC881A438B8823431A43B7
:101880000B891A434B8989891A430A43A0F84420DB
:1018900010BD4FF6FF71818000210180C180418021
:1018A000017270470021018041808180C1800181E7
:1018B00041818181C18170470021018041800122E5
:1018C0008280C18001817047002101804180818038
:1018D000C1800181418181817047002904D0018844
:1018E00041F0010101807047018821F00101018070
:1018F0007047002905D030F8441F41F400410180B1
:10190000704730F8441FC1F30E0101807047002A70
:1019100003D082890A438281704782898A43828107
:101920007047818270471143A0F848107047002A21
:1019300003D082890A438281704782898A438281E7
:101940007047018921F0070101817047028922F067
:1019500070020A430281704700B503461846FFF73C
:10196000F5FF188940F00700188100BD70B50D46DD
:1019700004461146602D0CD001222046FFF7DBFE05
:1019800029462046FFF7E2FF208940F0070020812A
:1019900070BD01222046FFF793FEF1E730B50489C0
:1019A000E4B24FF6FF7505EA032313430B432343C9
:1019B000038130BD10B504462046FFF7EFFF2089B4
:1019C00020F0070040F0070020F0700040F07000A9
:1019D000208110BD002C0140003401400004004073
:1019E00000080040000C004010B504462046FFF7F8
:1019F000D5FF208940F480402081EAE7018582827A
:101A00007047028822F070020A430280704770B566
:101A10000589048B068C25F007050D434FF6FC4124
:101A20000C4040F201110C4326F022064FF6FF71E4
:101A300001EA03111143314305810483018470BD20
:101A4000028B22F070020A4302837047028B22F459
:101A5000E0424FF6FF7303EA01211143018370470F
:101A6000828B22F070020A4382837047828B22F4B9
:101A7000E0424FF6FF7303EA01211143818370476F
:101A8000002904D0018841F080010180704701885D
:101A900021F0800101807047002904D0818841F045
:101AA000040181807047818821F0040181807047A2
:101AB000002904D0818841F0080181807047818825
:101AC00021F0080181807047002904D0818841F00D
:101AD000010181807047818821F001018180704778
:101AE000028B22F008020A4302837047028B22F421
:101AF00000624FF6FF7303EA01211143018370472F
:101B0000828B22F008020A4382837047828B22F480
:101B100000624FF6FF7303EA01211143818370478E
:101B2000028B22F004020A4302837047028B22F4E4
:101B300080624FF6FF7303EA01211143018370476E
:101B4000828B22F004020A4382837047828B22F444
:101B500080624FF6FF7303EA0121114381837047CE
:101B6000028B22F080020A4302837047028BC2F389
:101B70000E024FF6FF7303EA012111430183704700
:101B8000828B22F080020A4382837047828BC2F3E9
:101B90000E024FF6FF7303EA012111438183704760
:101BA000028C22F002020A4302847047028C22F067
:101BB00008020A4302847047028C22F020024FF68A
:101BC000FF7303EA0111114301847047028C22F074
:101BD00080024FF6FF7303EA01111143018470473D
:101BE000028C22F400724FF6FF7303EA01211143C5
:101BF00001847047028C22F400624FF6FF7303EAFF
:101C00000121114301847047028C22F400524FF6E7
:101C1000FF7303EA013111430184704710B50123BA
:101C20008B40048C9C430484038C8A4013430384BC
:101C3000CFE610B504238B40048C9C430484038CB2
:101C40008A4013430384C4E630B500F1180301242D
:101C50008C40058CA5430584002911D008290FD09C
:101C6000091FC1F34E001844016821F4E0410160EE
:101C700001684FF6FF7303EA02221143016030BD91
:101C800003EB5100016821F070010160016811430C
:101C9000016030BD002904D0018841F002010180BB
:101CA0007047018821F0020101807047002904D0AB
:101CB000018841F0040101807047018821F004018E
:101CC00001807047002904D0818841F08001818023
:101CD0007047818821F0800181807047028822F05E
:101CE0000802028002880A4302807047828822F03C
:101CF0007002828082880A4382807047028922F0C3
:101D00000702028102890A4302817047028922F098
:101D10008002028102890A430281704781847047F0
:101D2000818570478186704701877047818770473A
:101D3000A0F840107047028822F4407202800288A6
:101D40000A4302807047808E7047008F7047808FF3
:101D50007047B0F840007047808C7047008D704726
:101D600002460020128A0A4200D001207047C9436F
:101D70000182704702460020138A0B4092890A4074
:101D8000002B02D0002A00D001207047C9430182F5
:101D90007047000010B5E14988420AD101218C0347
:101DA0002046FFF7A0F92046BDE810400021FFF7CC
:101DB0009AB9DB4988420AD101214C042046FFF739
:101DC0009DF92046BDE810400021FFF797B9D5499D
:101DD00088420AD101218C042046FFF78FF9204662
:101DE000BDE810400021FFF789B9CF4988420AD1E8
:101DF0000121CC042046FFF781F92046BDE81040C0
:101E00000021FFF77BB9C94988420AD101210C059D
:101E10002046FFF773F92046BDE810400021FFF788
:101E20006DB910BD30B585B004460D46208A4CF61C
:101E3000FF710840E98801432182A0894EF6F31121
:101E40000840A9882A8911436A8902431143A18164
:101E5000A08A4FF6FF410840A9890143A182684644
:101E6000FFF7D3F8AD48844201D1039800E002980F
:101E7000A189090408D500EBC00101EB0010296815
:101E80004900B0FBF1F007E000EBC00101EB0010EE
:101E900029688900B0FBF1F06422B0FBF2F109017E
:101EA0000B096FF018056B4300EB8300A3891D0439
:101EB0004FF0320307D503EBC000B0FBF2F000F0A7
:101EC0000700084306E003EB0010B0FBF2F000F05F
:101ED0000F000843208105B030BD4FF4165101605A
:101EE00000218180C18001810C2242818181704763
:101EF00010B5038A4FF2FF0213400A884C88224330
:101F00008C88C9880C4322431A43028210BD0021E9
:101F1000018041808180C1807047002904D081897F
:101F200041F4005181817047818921F40051818100
:101F3000704710B540F66A13C1F3421301F01F0455
:101F40000121A140012B07D0022B07D014303AB158
:101F500002680A43026010BD0C30F8E71030F6E763
:101F600002688A43026010BD002A03D0828A0A43B5
:101F700082827047828A8A4382827047028A22F074
:101F80000F020282028A0A4302827047828922F487
:101F90000062828182890A4382817047002904D0CD
:101FA000818941F0020181817047818921F002011C
:101FB00081817047028A22F020020282028A0A434B
:101FC00002827047002904D0018A41F480410182D5
:101FD0007047018A21F4804101827047C1F30801F2
:101FE000818070478088C0F308007047818941F084
:101FF000010181817047028BD2B20283028B42EAD7
:10200000012101837047028B02F47F420283028B1D
:102010000A4302837047002904D0818A41F02001DD
:1020200081827047818A21F02001818270470029D6
:1020300004D0818A41F0100181827047818A21F0A9
:10204000100181827047002904D0818A41F0080183
:1020500081827047818A21F00801818270470029BE
:1020600004D0818941F40041818170478189C1F3A5
:102070000E0181817047002904D0818A41F40061FA
:1020800081827047818A21F4006181827047828A4F
:1020900022F004028282828A0A43828270470029E7
:1020A00004D0818A41F0020181827047818A21F047
:1020B0000201818270470246002012880A4200D045
:1020C000012070478A05C9430180704770B500241C
:1020D00040F66A12C1F3421301F01F05012606FA09
:1020E00005F2012B0CD0022B0DD0838A1340090A74
:1020F0008E40008830400BB100B10124204670BDF5
:1021000083891340F3E7038A1340F0E740F66A122D
:102110000A0A01219140C9430180704700380140FB
:102120000044004000480040004C00400050004087
:102130000CB50022019200925248016841F48031AE
:1021400001604FF4A063016801F40031009101992E
:10215000491C0191009911B901999942F3D1016883
:10216000890302D50121009100E000920099012924
:1021700030D145490A6842F010020A600A6822F02C
:1021800003020A600A6842F002020A604168416084
:1021900041684160416841F480614160416821F4D7
:1021A0007C114160416841F4E8114160016841F0EF
:1021B0008071016001688901FCD5416821F003014B
:1021C0004160416841F0020141604168C1F3810111
:1021D0000229FAD10CBDABE710B52A48016841F0DD
:1021E000010101604168294A114041600168284AA3
:1021F00011400160016821F480210160416821F4EF
:10220000FE0141604FF41F018160FFF7E4FF2149A7
:102210004FF00060086010BD10B51A4A506800F019
:102220000C011D4B1D4800290ED004290ED0082991
:102230000ED003605168194AC1F30311121D515C9D
:102240000268CA40026010BD0360F3E70360F1E773
:10225000516801F47011536803F48033022404EBD5
:10226000914133B153689B0307D50D4B594301602E
:10227000E0E70B4B59430160DCE7074B5943016032
:10228000D8E7000000100240002002400000FFF8E4
:10229000FFFFF6FE08ED00E000127A0014000020B7
:1022A00000093D000948804709480047FEE7FEE76E
:1022B000FEE7FEE7FEE7FEE7FEE7FEE7FEE7FEE7F6
:1022C00004480549054A064B70470000D92100081B
:1022D00031010008B8460020B84C0020B848002062
:1022E000B848002038B501216020FEF7E6FE4FF423
:1022F0008050ADF8000028208DF803006946114891
:10230000FEF7D5FC2020ADF800000F4C69462046B2
:10231000FEF7CDFC20212046FEF738FD01212020CC
:10232000FEF7CBFE40F2FF10ADF8000003208DF861
:10233000020010208DF8030069460448FEF7B7FC40
:1023400038BD0000000C014000180140001401409D
:1023500070B505460024FE4E08213046FEF718FDF4
:10236000280604D520213046FEF710FD03E0202189
:102370003046FEF70DFD08213046FEF707FD6806E2
:10238000050E641CE4B2082CE6D370BD10B50446FB
:102390004FF48051EF48FEF7F9FC2046BDE81040AD
:1023A000D6E710B504464FF48051EA48FEF7EEFC3C
:1023B000C4F30720FFF7CCFFE0B2BDE81040C7E749
:1023C00010B504464FF48051E248FEF7E1FC204688
:1023D000BDE81040BCE710B50C46C0B2FFF7F0FFF7
:1023E0002046BDE81040DCE72DE9F04107460C46E9
:1023F00015461E462A20FFF7E3FFC7F30720FFF725
:10240000C5FFF8B2FFF7C2FFC5F30720FFF7BEFF15
:10241000E8B2FFF7BBFF2B20FFF7D2FFC4F3072082
:10242000FFF7B4FFE0B2FFF7B1FFC6F30720FFF7F5
:10243000ADFFF0B2FFF7AAFFBDE8F0412C20BFE7E7
:102440002DE9F84301210420FEF737FE0121052084
:10245000FEF733FEC04F01213846FEF7B9FC0121DB
:102460003846FEF7B5FC4FF41844ADF8004010268E
:102470008DF8036003258DF80250DFF8D882694695
:102480004046FEF714FC21464046FEF77FFC012142
:102490000820FEF712FE01213846FEF799FC0121C3
:1024A0003846FEF795FC2820ADF800008DF8036053
:1024B0008DF80250A64C69462046FEF7F8FB28210D
:1024C0002046FEF763FCE41421464046FEF760FC1C
:1024D000142000F00FFA21464046FEF757FC142066
:1024E00000F008FA21014046FEF750FC3620FFF7C5
:1024F00067FF0020FFF74AFF3A20FFF761FF052042
:10250000FFF744FFB220FFF75BFF0C20FFF73EFF11
:102510000C20FFF73BFF0020FFF738FF3320FFF7C9
:1025200035FF3320FFF732FFB720FFF749FF352093
:10253000FFF72CFFBB20FFF743FF1920FFF726FF13
:10254000C020FFF73DFF2C20FFF720FFC220FFF740
:1025500037FF0120FFF71AFFC320FFF731FF1220DA
:10256000FFF714FFC420FFF72BFF2020FFF70EFF1B
:10257000C620FFF725FF0F20FFF708FFD020FFF749
:102580001FFFA420FFF702FFA120FFF7FFFEE020BE
:10259000FFF716FFD020FFF7F9FE0420FFF7F6FE45
:1025A0000D20FFF7F3FE1120FFF7F0FE1320FFF7D9
:1025B000EDFE2B20FFF7EAFE3F20FFF7E7FE542059
:1025C000FFF7E4FE4C20FFF7E1FE1820FFF7DEFEE8
:1025D0000D20FFF7DBFE0B20FFF7D8FE1F20FFF7D3
:1025E000D5FE2320FFF7D2FEE120FFF7E9FED02041
:1025F000FFF7CCFE0420FFF7C9FE0C20FFF7C6FE54
:102600001120FFF7C3FE1320FFF7C0FE2C20FFF7B9
:10261000BDFE3F20FFF7BAFE4420FFF7B7FE512072
:10262000FFF7B4FE2F20FFF7B1FE1F20FFF7AEFE2D
:102630001F20FFF7ABFE2020FFF7A8FE2320FFF7A7
:10264000A5FE2120FFF7BCFE1120FFF7B9FE2920CF
:10265000FFF7B6FEBDE8F88370B50646EF2300210C
:102660001A460846FFF7C0FE002500243046FFF753
:1026700098FE641CF02CF9D36D1CF02DF5D370BDC1
:1026800010B50B460246FFF7AFFE34484068BDE880
:10269000104086E62DE9F0470746DDF820900D460C
:1026A000164698464346324629463846FFF79CFE72
:1026B00008E03C4603E04846FFF773FE641CB44262
:1026C000F9D96D1C4545F4D9BDE8F08708B5234A12
:1026D0004B1C491E52680092421C401EFFF7DAFF55
:1026E00008BD2DE9F05F81468B461C461B484768B4
:1026F000B9F1E00F2AD8BBF1E00F27D8203A02F059
:10270000FF080BF10F0309F1070259464846FFF78E
:102710006BFEDFF84CA02CB30025114805EB081127
:10272000465C00240BEB050AF00704D0514609EB88
:102730000400FFF7A5FF7608641CE4B2082CF3D36D
:102740006D1CEDB2102DE8D304484760BDE8F09F42
:10275000000C014000080140000230002800002069
:102760000C3C00080026DFF8309106EB08101AF840
:1027700000500024E80702D0C9F8047003E0D9F83B
:102780000000C9F80400D9F80400FFF70AFE6D083C
:10279000641CE4B2082CEDD3761CF6B2102EE4D300
:1027A000D2E70346012000E05843491EC9B2FBD2DC
:1027B00070472DE9F0470746894690461D4600269A
:1027C00000241CE0281B401EC1B20A20FFF7E9FFCD
:1027D000B8FBF0F30A20B3FBF0F100FB113326B98C
:1027E000681E844201DA6BB101263033DAB207EB9E
:1027F000C40000234946FFF774FF641CE4B2AC42F6
:10280000E0D361E707EBC400002320224946FFF72D
:1028100068FFF2E72DE9F04780468A4691461F4659
:1028200000240A2515E0381B401EC1B20A20FFF71C
:10283000B8FFB9FBF0F6B6FBF5F005FB10633033DB
:10284000DAB208EBC40000235146FFF74AFF641CCC
:10285000E4B2BC42E7D337E72DE9F04104460E4627
:1028600015464FF4784712E0E02C01D900241036C9
:10287000E02E04D9002426463846FFF7EDFE2A78DC
:10288000002331462046FFF72CFF08346D1C2878C2
:102890000028E9D1BDE8F0812800002010B56FF0D4
:1028A0000400FDF7CFFE1F481F490068B0FBF1F0A0
:1028B0001E49C0B2087000EB4002C2EBC0104FF6D8
:1028C000FF7202EAC000488010BD002204E000212F
:1028D000491C6E29FCDB521C8242F8DB7047002247
:1028E0000A3004E00021491C0129FCDB521C824211
:1028F000F8DB70470D49498848434FF0E0214861B3
:1029000000238B61086940F0010008610869C20773
:1029100001D0C003FAD5086920F0010008618B617D
:10292000704700001400002000127A0030000020E0
:1029300070B588B004460E4601210846FEF7C8FB74
:1029400001210520FEF7B9FB0125ADF80050182242
:102950008DF8032003228DF802206946D148FEF746
:10296000A6F9ADF81840ADF814600020ADF81A00D3
:10297000ADF81600AC0705A92046FEF7DDFC01A85E
:10298000FEF790FF6021ADF80410ADF80650642109
:10299000ADF80A100221ADF80C1001A92046FEF78F
:1029A00004FD08212046FFF79BF801212046FFF790
:1029B00067F801212046FEF79CFF01212046FEF723
:1029C0008CFF08B070BD30B589B004460D460121BA
:1029D0000420FEF77DFB01210820FEF76EFB40225C
:1029E000ADF8042018228DF8072003228DF8062068
:1029F00001A9AD48FEF75BF9ADF81C40ADF81850E1
:102A00000020ADF81E00ADF81A00A84C06A920461B
:102A1000FEF792FC02A8FEF745FF6021ADF8081012
:102A20000121ADF80A106421ADF80E100221ADF8B5
:102A3000101002A92046FEF7B8FC08212046FFF737
:102A40004FF801212046FFF71BF801212046FEF731
:102A500044FF09B030BD704730B589B004460D461B
:102A6000012142F21000FEF728FB4022ADF80420BD
:102A700018228DF8072003228DF8062001A98C4822
:102A8000FEF715F9ADF81C40ADF818500020ADF870
:102A90001E00ADF81A00874C06A92046FEF74CFC34
:102AA00002A8FEF7FFFE6021ADF808100121ADF885
:102AB0000A106421ADF80E100221ADF8101002A921
:102AC0002046FEF772FC08212046FFF709F8012195
:102AD0002046FEF7D5FF01212046FEF70AFF01211F
:102AE0002046FEF7FAFEB4E770B588B004460D46FE
:102AF00001210220FEF7ECFA01210920FEF7DDFAA0
:102B00000226ADF81C6018228DF81F2003228DF8D4
:102B10001E2007A96448FEF7CAF8ADF81440ADF8C6
:102B200010500020ADF81600ADF81200624C04A958
:102B30002046FEF701FC6021ADF800100121ADF840
:102B40000210ADF8086069462046FEF7E5FC082152
:102B50002046FEF7DBFF01212046FEF7BEFE30E7F0
:102B600030B589B004460D46012140F60400FEF759
:102B7000A4FA4FF48072ADF8042018228DF80720D3
:102B800003228DF8062001A94648FEF790F8ADF81B
:102B90001C40ADF818500020ADF81E00ADF81A002A
:102BA000464C06A92046FEF7C7FB02A8FEF77AFEB0
:102BB0006021ADF808100121ADF80A100221ADF82E
:102BC000101002A92046FEF7F0FB08212046FEF770
:102BD00087FF01212046FEF753FF01212046FEF723
:102BE00088FE01212046FEF778FE32E770B500230B
:102BF000334CB4FBF2F52C4600224FF48036B4423D
:102C000008D35B1C9BB25C1CB5FBF4F4521C92B263
:102C1000642AF4D35A1CB5FBF2F292B251436424F5
:102C200091FBF4F189B206280DD2DFE800F0030D24
:102C3000141E28312148521E2C300280001F0380B0
:102C40001E483430018070BD4FF08040521E828596
:102C50000385818670BD1848521E2C300280001FEB
:102C6000038015484030018070BD1048521E2C3042
:102C70000280001F03800D483430018070BD114870
:102C8000521E0280001F03800E480C30018070BD70
:102C90000848521E2C300280001F0380054838303F
:102CA000018070BD00080140000C01400008004098
:102CB000001001400034014000040040002C01409D
:102CC00000A24A042C0C004070B586B001214FF4DC
:102CD0000770FEF7F2F94FF40040FEF771F9FE209D
:102CE000ADF8000000248DF8034069463648FDF732
:102CF000DEFF0125ADF800508DF8034069463348EA
:102D0000FDF7D5FF3F20ADF800008DF80340694680
:102D10002F48FDF7CCFF2F4E3046FDF7A7FC01945E
:102D20008DF808408DF809404FF46020039004941A
:102D30008DF8145001A93046FDF7C4FC012130463E
:102D4000FDF7E8FC3046FDF708FD3046FDF70AFDCB
:102D50000028FAD13046FDF70CFD3046FDF70EFD98
:102D60000028FAD106B070BD10B51A4C01460723F1
:102D700001222046FDF730FD01212046FDF705FD2B
:102D800002212046FDF70EFE0028F9D02046BDE8BE
:102D90001040FDF767BD2DE9F04107460E460025BE
:102DA000002408E03846FFF7DFFF05440520FFF761
:102DB0008CFD641CE4B2B442F4D3B5FBF6F080B2EF
:102DC000BDE8F08180E7000000080140000C0140F0
:102DD0000010014000240140704766490A885206ED
:102DE000FCD5644AC1B2121D11807047F0B591B094
:102DF0000546012144F20400FEF75FF9012108466F
:102E0000FEF750F901214804FEF762F9594E3046A9
:102E1000FEF7C0FF7015ADF8400003248DF8424066
:102E200018208DF84300544F10A93846FDF73FFF96
:102E30003015ADF8400004208DF8430010A9384645
:102E4000FDF735FF25208DF82C008DF82D408DF8ED
:102E50002E4001208DF82F000BA8FDF7B0FB0C953C
:102E60000024ADF83440ADF83640ADF83840ADF848
:102E70003C400C20ADF83A000CA93046FEF7D2FFDA
:102E8000012240F224413046FFF753F8012240214D
:102E90003046FFF769F801213046FFF73EF8374D1D
:102EA0002846FDF7A7FD301D00903548019002949B
:102EB000C8200390049480200590069407940894F9
:102EC000400109900A9469462846FDF70AFE01214F
:102ED0002846FDF730FE11B0F0BD10B504460021C4
:102EE0002046FDF728FEC8212046FDF73BFE204680
:102EF000BDE810400121FDF71EBE2DE9F041054659
:102F00000F4600241B4E0BE040213046FFF7D3F85C
:102F10000028F9D0295D3046FFF760F8641CE4B260
:102F2000BC42F1D340213046FFF7C5F80028F9D064
:102F3000BDE8F08170B50F4C40F22445294620468B
:102F4000FFF7C4F8002814D02046FFF74BF80B4ECB
:102F50003046FDF709FEC0F1C8020A48428001214F
:102F6000017029462046FFF7D1F83046BDE8704091
:102F7000B3E770BD0038014000080140580002402E
:102F8000C4000020340000202DE9F0418C46174693
:102F90005426A025401C00EB4000042101EBC00199
:102FA0000C46042362463046FFF703FC3A462146AE
:102FB0002846BDE8F0410423FFF7FBBB70B52B4961
:102FC0004FF6FF7008602A494FF47840086029A244
:102FD00005215020FFF740FC00241C2604EB440090
:102FE00006EBC000C5B226A229460A20FFF734FC32
:102FF0000123621C29461A20FFF7DBFB23A2294686
:103000008020FFF729FC23A22946C420FFF724FCD7
:10301000641CE4B2082CE1D370BD10B51E480078E2
:10302000052821D2DFE800F0030A0F151B004FF638
:10303000FF70FFF711FBBDE81040BFE7BDE810408F
:103040000020FFF709BBBDE810404FF47840FFF7C0
:1030500003BBBDE810404FF4FC60FFF7FDBABDE8CC
:1030600010401F20FFF7F8BA10BD00002800002014
:103070002C00002050574D20446973706C6179001A
:103080004368203A46726571000000004475747907
:1030900000000000250000003800002000F10801B9
:1030A00041604FF0FF328260C16001610021016028
:1030B0007047002101617047426853684B60436864
:1030C0008B60536899605160416008610168491CD8
:1030D0000160704710B50B685A1C02D000F108025D
:1030E00002E0026904E05268546824689C42FAD9FC
:1030F00053684B6099608A60516008610168491C9F
:10310000016010BDD0E901219160D0E90112516048
:1031100001694A68824201D182684A6000220261E4
:103120000868401E0860704770B50024F74D04EB36
:10313000840005EB8000FFF7B1FF641C052CF6D37B
:10314000F2486430FFF7AAFFF0487830FFF7A6FF97
:10315000EE488C30FFF7A2FFEC48A030FFF79EFF4F
:10316000EA48B430FFF79AFFE849E948643141631F
:103170001431816370BD70B504461546102204F108
:10318000340000F098FC002084F84300052D00D3A3
:103190000425E562201DFFF78CFF04F11800FFF7FE
:1031A00088FF2461C5F10500A061646270BD70B53F
:1031B00006460D46442000F0A9FB044644B1B60083
:1031C00045B12846206348B1A522314600F06BFC8A
:1031D000204670BD304600F099FBF3E7204600F032
:1031E000EBFB0024F4E72DE9FF4F81B08246DDE9D7
:1031F0000E68109917469B463846FFF7D8FF0446DD
:10320000C34DECB3216B781E01EB800020F0070961
:10321000009732462046119B0299FFF7ACFF5A46B1
:103220005146484600F0EEFB2060B8F1000F01D097
:10323000C8F8004000F011FCA868401CA86028688D
:1032400010B1A86938B10BE02C60A868012807D13B
:10325000FFF76AFF04E02868C06AB04200D82C601B
:10326000E06A2969884200D92861E96A491CE96253
:103270006969884200D9686100EB8001A34800E0D9
:1032800008E000EB8100211DFFF716FF012400F08C
:10329000ECFB01E04FF0FF34012C07D1A86928B105
:1032A0002868C06AB04201D200F0D1FB05B02046C8
:1032B000BDE8F08F70B5054600F0CFFB944E306846
:1032C000854200D10025FDB12C46201DFFF71AFFD5
:1032D000A06A18B104F11800FFF714FF8B48211DF4
:1032E000A030FFF7E9FE7068401C7060F06A401C77
:1032F000F06200F0BAFBB069002807D0002D05D1BC
:10330000BDE8704000F0A3BB3468DEE770BD70B567
:103310007F4DE869002803D0286A401C286270BDF0
:10332000E868401CE860E8684FF0FF3670B9686BE9
:10333000A96B6963A863A86A401CA862686B0068EF
:10334000A0B1686BC068C06840682863E868296BF2
:103350008842E4D3686B006850B1686BC068C46889
:103360006068E968814205D2286370BD2E63EDE78D
:103370002E6370BD201DFFF7C5FEA06A18B104F1D1
:103380001800FFF7BFFEE06A6969884200D96861EA
:103390005E4900EB800001EB8000211DFFF78CFEF1
:1033A000D8E72DE9F041002700F057FB584EF069AF
:1033B000401EF061F069E8BBB068D8B30025DFF8C3
:1033C0004C8108F18C081CE0D8F80C00C46804F1AA
:1033D0001800FFF797FE201DFFF794FEE06A716961
:1033E000884200D97061494900EB800001EB800000
:1033F000211DFFF761FEE06A3168C96A884200D387
:103400000125D8F800000028DED1306A28B908E08C
:10341000FFF77DFF306A401E3062306A0028F7D126
:103420000125012D02D0706A012806D10127002054
:10343000706200E001E000F00AFB00F016FB384685
:10344000BDE8F08170B50446314D28684460E868F5
:10345000844206D22968A86B091DBDE87040FFF7B9
:1034600039BE2968686B091DFFF734FE286B84425A
:1034700000D22C6370BD2648C169491CC1617047E8
:1034800070B503460C460022FFF7F5FF18680444A8
:103490001F49CD68A84206D9A0420AD9C86884420B
:1034A00007D9012205E0A04202D8C868844200D9A9
:1034B00001221C6032B10868001DFFF723FE204680
:1034C000FFF7C0FFFFF76DFF002803D1BDE8704094
:1034D00000F0BDBA70BD10B502460020002A0DD024
:1034E000FFF7C9FF0A48C1688C180068001DFFF784
:1034F00009FE2046FFF7A6FFFFF753FF002803D180
:10350000BDE8104000F0A3BA10BD00008C010020FF
:103510003C00002010B5044600F09FFA0CB9F648B4
:103520000468E46A00F0A1FA2046EDE72DE9F041D5
:1035300006460D460027052D00D3042500F08DFA20
:10354000DFF8B483D8F80000864200D1002646B1E7
:103550003446E06AA8422AD0854205D936B101270F
:1035600004E0D8F80040F4E706B90127E562C5F1A8
:103570000501A161E14D00EB8000616905EB800070
:10358000814210D1201DFFF7BDFDE06AD8F814106C
:10359000884201D9C8F8140000EB800005EB8000D8
:1035A000211DFFF789FD012F01D100F050FABDE880
:1035B000F04100F05ABAD049C869002802D0012071
:1035C00048627047CD4A02E04869401E4861486938
:1035D00000EB800052F820000028F5D0486900EB8D
:1035E000800002EB800042685268426000F10803EC
:1035F0009A4201D1526842604068C06808607047D2
:1036000070B5054600F029FABB4E3068854200D1FE
:103610000025C5B12C46201DFFF774FDA06A18B126
:1036200004F11800FFF76EFDB448211DB430FFF718
:1036300043FD00F01AFA002D0FD1B06928B1BDE8A2
:10364000704000F004BA3468E5E7B068012802D0A1
:10365000BDE87040AFE70020306070BD0021A74B8F
:103660004269B4339A4206D1806AA3F1280290429B
:1036700001D000B901210846704770B50446002CFE
:1036800025D09D4D2868844221D000F0E6F92046DF
:10369000FFF7E4FF012816D1201DFFF733FDE06A94
:1036A0006969884200D96861944900EB800001EBA8
:1036B0008000211DFFF700FDE06A2968C96A884281
:1036C00001D300F0C4F9BDE8704000F0CEB970BD80
:1036D00070B5044600252046FFF7C0FF012808D139
:1036E000854EF06938B1854804F118018C30FFF738
:1036F000E3FC284670BDE06A3168C96A884201D39C
:10370000012500E00025201DFFF7FCFCE06A71693F
:10371000884200D97061794900EB800001EB80009C
:10372000211DFFF7C9FCE4E710B50446206B00F04B
:1037300043F92046BDE8104000F03EB970B56E4D2B
:10374000686800281FD0FFF796FE6C4EA0363068E0
:10375000B8B10024FFF725FE002C14D100F07DF94C
:10376000F068C468201DFFF7CDFCA868401EA86063
:103770006868401E686000F078F92046BDE8704037
:10378000D2E70124E6E770BD5C4CFFF7D7FF206865
:103790000128FAD900F05BF9F7E71FB5002400947F
:1037A000019402942346802255A157480394FFF7C1
:1037B0001AFD012809D1FCF741FD4F480121816123
:1037C000C460BDE81F4000F02EB91FBD10B5FCF766
:1037D00035FD494900208861BDE8104000F036B948
:1037E00010B500F03AF94448C46800F03EF92046AC
:1037F0008AE610B5FCF722FD3F48C468FCF725FDBA
:10380000204681E63C488068704770B50D463A4CCA
:1038100021681831FFF75EFC2068001DFFF772FC7D
:10382000681C04D0E0682844BDE870400AE62168BE
:10383000BDE870403148091DB430FFF73DBC70B59C
:10384000C068C46804F118000646FFF75BFC2A4D07
:10385000EA695AB1294831468C30FFF72DFCE06AFD
:103860002968C96A884212D3012070BD201DFFF764
:1038700049FCE06A6969884200D968611F4900EB28
:10388000800001EB8000211DFFF716FCE7E7002018
:1038900070BD19498A6A0260C9684160704770B595
:1038A00004460D4600F0D9F82868411C0AD0124B96
:1038B00021689A6A914207D06168DA68914203D818
:1038C000012410E000240EE06268D968891A814260
:1038D00008D2D968891A401A28602046FFF7D9FF14
:1038E000002400E0012400F0C0F8204670BD024929
:1038F00001204862704700003C0000208C0100203D
:1039000049444C4500000000893700082DE9F0418A
:1039100004460025FFF7AFFD384E06F10801706838
:1039200001F1080360B936480860002048604FF490
:1039300088425A601860324842600360012070601B
:103940003CB11034600704D004F00700C0F1080057
:103950000444601E44F2FF32904228D2274A0832C3
:10396000096801E00A4601464868A04202D2086898
:103970000028F7D199421AD01568103508681060F0
:103980004868001B20280ED90B1958604C605C68F1
:103990001A48083000E0104602685768A742FAD378
:1039A00002681A60036048683168081A3060FFF7DF
:1039B000F8FC2846BDE8F08110B5002818D0103872
:1039C0000446FFF758FD60680C49083100E01146D5
:1039D0000A6853688342FAD3086820600C6007487D
:1039E0006168026811440160BDE81040FFF7D9BC6E
:1039F00010BD024800687047704700007800002042
:103A00005802002020384FF08073C361816100218B
:103A1000416140F8202970474FF0E0201E49416184
:103A200007210161704710B51C48016841F47F010E
:103A30000160016841F07F410160FFF7EDFF184927
:103A400000200860FCF7D2FB002010BD704713492E
:103A50004FF080501C390860704710B5FCF7EEFB42
:103A60000F480168491C016010BD0D490868401EDF
:103A70000860002801D1FCF7E8BB704710B5074982
:103A80004FF080501C390860FCF7D8FBFFF73FFC73
:103A9000BDE81040FCF7D9BB7FFC0A0020ED00E038
:103AA00090000020704702F0FF0343EA032242EA3D
:103AB000024200F031B810B5044610F0030F08BF01
:103AC00011F0030F40F015804FF0013E121FC0F2BD
:103AD0000E8051F8043BA3EB0E0C2CEA030C1CEAFD
:103AE000CE1C08BF40F8043BF0D0A1F1040102F164
:103AF0000402521E08DB11F8013B002B00F8013BC9
:103B0000F7D1114600F006F8204610BD7047704707
:103B1000704770474FF000020429C0F0128010F087
:103B2000030C00F01B80CCF1040CBCF1020F18BF99
:103B300000F8012BA8BF20F8022BA1EB0C0100F02C
:103B40000DB85FEAC17C24BF00F8012B00F8012BFF
:103B500048BF00F8012B70474FF0000200B5134634
:103B600094469646203922BFA0E80C50A0E80C509D
:103B7000B1F12001BFF4F7AF090728BFA0E80C504E
:103B800048BF0CC05DF804EB890028BF40F8042B47
:103B900008BF704748BF20F8022B11F0804F18BFB4
:103BA00000F8012B7047754600F02CF8AE46050072
:103BB0006946534620F00700854618B020B5FEF749
:103BC0007FFBBDE820404FF000064FF000074FF0AC
:103BD00000084FF0000B21F00701AC46ACE8C0092B
:103BE000ACE8C009ACE8C009ACE8C0098D46704734
:103BF00010B50446AFF300802046BDE81040FCF746
:103C0000DEBA00000048704758460020000000005F
:103C1000000000000000000000000000000000089C
:103C200008080808080800001818000000486C245C
:103C3000120000000000000000000000000000244E
:103C400024247F1212127F12121200000000081C9E
:103C50002A2A0A0C1828282A2A1C080800000022F0
:103C6000251515152A585454542200000000000C44
:103C70001212120A76252911916E00000006060420
:103C800003000000000000000000000000402010C1
:103C90001008080808080810102040000002040856
:103CA0000810101010101008080402000000000096
:103CB00008086B1C1C6B08080000000000000000D6
:103CC000080808087F080808080000000000000035
:103CD00000000000000000000606040300000000D1
:103CE00000000000FE0000000000000000000000D6
:103CF00000000000000000000606000000008040F8
:103D000040202010100808040402020000000018DF
:103D1000244242424242424224180000000000086D
:103D20000E08080808080808083E00000000003CCB
:103D30004242422020100804427E00000000003C65
:103D40004242201820404042221C00000000002077
:103D50003028242422227E20207800000000007ECB
:103D60000202021A26404042221C000000000038D5
:103D70002402021A26424242241800000000007E5B
:103D80002222101008080808080800000000003C63
:103D90004242422418244242423C000000000018E3
:103DA0002442424264584040241C000000000000AD
:103DB00000001818000000001818000000000000A3
:103DC0000000000800000000000808040000004097
:103DD0002010080402040810204000000000000029
:103DE00000007F0000007F000000000000000002D3
:103DF0000408102040201008040200000000003CCD
:103E00004242464020101000181800000000001C1C
:103E1000225A555555552D42221C0000000000081D
:103E200008181414243C224242E700000000001F3E
:103E30002222221E22424242221F00000000007C59
:103E40004242010101010142221C00000000001F4A
:103E50002242424242424242221F00000000003FF2
:103E60004212121E12120242423F00000000003FA6
:103E70004212121E12120202020700000000003C51
:103E80002222010101712122221C0000000000E712
:103E9000424242427E42424242E700000000003E6F
:103EA0000808080808080808083E00000000007C10
:103EB00010101010101010101010110F00000077CB
:103EC00022120A0E0A1212222277000000000007B6
:103ED0000202020202020202427F0000000000779A
:103EE000363636362A2A2A2A2A6B0000000000E3DA
:103EF00046464A4A52525262624700000000001C85
:103F00002241414141414141221C00000000003F4B
:103F1000424242423E020202020700000000001C30
:103F20002241414141414D53321C60000000003F9D
:103F30004242423E1212222242C700000000007C90
:103F40004242020418204042423E00000000007F2E
:103F50004908080808080808081C0000000000E7D5
:103F60004242424242424242423C0000000000E7DC
:103F70004242222424141418080800000000006B98
:103F8000494949495555362222220000000000E7E0
:103F9000422424181818242442E700000000007767
:103FA0002222141408080808081C00000000007EE3
:103FB0002120101008040442423F00000078080845
:103FC0000808080808080808080878000000020225
:103FD000040408080810102020204040001E101083
:103FE000101010101010101010101E000038440097
:103FF00000000000000000000000000000000000C1
:104000000000000000000000000000FF00060800A3
:1040100000000000000000000000000000000000A0
:104020000000003C4278444242FC000000000003D3
:104030000202021A26424242261A00000000000034
:104040000000003844020202443800000000006012
:10405000404040784442424264D8000000000000E2
:104060000000003C427E0202423C0000000000F0E2
:104070008808087E08080808083E000000000000C4
:104080000000007C22221C023C42423C0000000353
:104090000202023A4642424242E700000000000C9F
:1040A0000C00000E08080808083E00000000003060
:1040B00030000038202020202020221E0000000395
:1040C00002020272120A1612227700000000000E8D
:1040D0000808080808080808083E0000000000005A
:1040E0000000007F9292929292B7000000000000C0
:1040F0000000003B4642424242E700000000000050
:104100000000003C42424242423C000000000000ED
:104110000000001B26424242221E0207000000004F
:104120000000007844424242447840E00000000031
:10413000000000774C040404041F0000000000008D
:104140000000007C42023C40423E000000000000B3
:104150000008083E080808080830000000000000B9
:10416000000000634242424262DC000000000000A6
:10417000000000E7422424140808000000000000AA
:10418000000000EB494955552222000000000000C4
:104190000000007624181818246E000000000000AB
:1041A000000000E74224241418080807000000005B
:1041B0000000007E22100808447E000000C020207D
:1041C00020202010202020202020C00010101010BF
:1041D0001010101010101010101010100006080809
:1041E0000808081008080808080806000C32C20071
:1041F0000000000000000000000000001C42000859
:1042000000000020940000006C010008B04200088B
:1042100094000020244C00008801000802040608D5
:10422000000000000102030401020304060708095C
:1042300000A24A0400000000000000000102030484
:104240000607080900000000000000000000000050
:10425000000000000000000000000000000000005E
:10426000000000000000000000000000000000004E
:10427000000000000000000000000000000000003E
:104280000000000000000000FFFFFFFF0000000032
:1042900000000000004400000000000000000000DA
:1042A000000000000000000000000000AAAAAAAA66
:0400000508000131BD
:00000001FF
