:020000040800F2
:10000000D04C0020C131000831060008330600083A
:10001000370600083B0600083F0600080000000005
:10002000000000000000000000000000430600087F
:1000300045060008000000004706000849060008C1
:10004000DB310008DB310008DB310008DB31000860
:10005000DB310008DB310008DB310008DB31000850
:10006000DB310008DB310008DB310008DB31000840
:10007000DB310008DB310008DB310008DB31000830
:10008000DB310008DB310008DB310008DB31000820
:10009000DB310008DB310008DB310008DB31000810
:1000A000DB310008DB310008DB310008DB31000800
:1000B000DB310008DB310008DB310008DB310008F0
:1000C000DB310008DB310008DB310008DB310008E0
:1000D000DB3100088B430008DB310008DB3100080E
:1000E000DB310008DB310008DB310008DB310008C0
:1000F000DB310008DB310008DB310008DB310008B0
:10010000DB310008DB310008DB310008DB3100089F
:10011000DB310008DB310008DB310008DB3100088F
:10012000DB310008DB310008DB310008DB3100087F
:1001300000F002F800F03AF80AA090E8000C8244BF
:100140008344AAF10107DA4501D100F02FF8AFF29C
:10015000090EBAE80F0013F0010F18BFFB1A43F0A5
:10016000010318479C6D0000BC6D0000103A24BFCD
:1001700078C878C1FAD8520724BF30C830C144BF0C
:1001800004680C607047000000230024002500264E
:10019000103A28BF78C1FBD8520728BF30C148BFEA
:1001A0000B6070471FB51FBD10B510BD05F0E3F91A
:1001B0001146FFF7F7FF00F0D7F805F001FA03B496
:1001C000FFF7F2FF03BC04F029F800001A4B19688E
:1001D0000868B0E8F00F80F309884FF0000080F362
:1001E00011884EF00D0E70470000000003480068B3
:1001F000006880F3088862B600DF00BF08ED00E009
:10020000EFF309800C4B1A6820E9F00F106008B575
:100210004FF0BF0080F3118804F03CFE4FF0000067
:1002200080F31188BDE8084019680868B0E8F00F4D
:1002300080F30988704700BF5000002001B44FF0E0
:10024000BF0080F3118801BC704701B44FF000007B
:1002500080F3118801BC70471CB54FF6FF7003F0A6
:1002600088F81F20D6490880D6A01021CDE90010BB
:10027000D5490988183988B21023C822002103F013
:1002800096FC4FF47840CE4908801CBD1CB54FF653
:10029000FF70CE4908804FF47840C9490880CCA04F
:1002A0000C210B46C822CDE900100021042003F0E8
:1002B0007EFC00240EE0CAA00C21CDE90010601CD9
:1002C00000EB400081000C23C822082003F06FFCE3
:1002D000601CC4B2092CEEDB1CBD10B5C748007809
:1002E00005281DD2DFE800F0030A0E1318004FF6B0
:1002F000FF7003F03EF8FFF7C9FF11E0002003F0A4
:1003000038F80DE04FF4784003F033F808E04FF48C
:10031000FC6003F02EF803E01F2003F02AF800BF72
:1003200000BF10BD10B502460023002402E01344B4
:10033000601CC4B28C42FADBB3FBF1F080B210BD9A
:1003400008B50121080201F04FFB4FF48040ADF8E1
:10035000000010208DF8030003208DF8020069468C
:10036000A74801F085F808BDA4B04FF0000900BF10
:1003700000BFFFF7E5FF02F043FF00F066F94FF41E
:10038000A06000F077F94FF4E13003F056FF04F07D
:1003900094F94FF47A7141F2797003F0B5FD4FF49E
:1003A0004871984802F0D2FB4FF47A7141F27970AB
:1003B00003F090FC4FF44871480602F0C7FB4FF47D
:1003C0007A7141F2797003F062FD4FF448718E4802
:1003D00002F0C2FB4FF47A7141F2797003F0C7FC6E
:1003E0004FF4E161894802F0B1FB03F087FE4FF45E
:1003F000FA7003F051FC04F002F802F0D0FF4FF461
:1004000078406F490880FFF741FF4FF480518048E2
:1004100001F0C1F80746C3E04FF4FA7003F03CFC6A
:100420005FB97C480078012807D17B4801787B4878
:1004300003F08FFF002077490870002411E0611C51
:10044000C8B2642103F0C7FE1CA941F82400611D55
:10045000C8B2642103F0BFFE14A941F82400601C57
:10046000C4B2042CEBDB00243FE01CA931F82410BB
:1004700088B26421FFF756FF694921F8140014A9D6
:1004800031F8241088B26421FFF74CFF654921F848
:100490001400634830F814000CA951F82410884265
:1004A00003D0012002A9085502E0002002A9085546
:1004B0005C4830F8140004A951F82410884203D095
:1004C00001200DF8040002E000200DF8040054485B
:1004D00030F814000CA941F82400524830F81400F8
:1004E00004A941F82400601CC4B2042CBDDB012F18
:1004F0002DD1002525E04B4830F8150064214843F4
:1005000040F6FF7190FBF1F6002101EB8501464AB0
:100510005554012101EB85015654414830F815002E
:100520000012022101EB850150543D4810F81500DE
:10053000032101EB850150544FF4FA7003F0ACFB3A
:100540006D1C042DD7DB1021374803F002FF00BFDC
:10055000002511E002A8405D012803D01DF8050028
:10056000012808D12E4B33F815202E4B33F81510E7
:10057000E8B203F00FFD6D1C042DEBDB4FF000081B
:1005800004E0C82003F088FB08F10108B8F1640F0B
:10059000F7DB09F10109B9F1080F01DB4FF00009A0
:1005A0003AE700BF0AE02148006808B9012000E0EE
:1005B00000201E490860642004F0FAFBF3E7000005
:1005C0002C00002052535400B80000202E000020C0
:1005D00043482046524551204455545900000000DC
:1005E00043483120467265713A203130323420441C
:1005F0007574793A20313030250000000000002069
:1006000000200140002C0140000400400008004090
:10061000000C01403200002030000020DA000020F1
:10062000CE000020C2000020A8000020B401224219
:10063000704700BFFEE700BFFEE700BFFEE700BF58
:10064000FEE7704770477047704708B54FF4407039
:1006500000F010F81D208DF8000001208DF8010039
:1006600000208DF8020001208DF80300684600F09C
:1006700006F808BD31490143314A1160704770B531
:10068000002100230F22C47804B32D4C246804F405
:10069000E064C4F5E064210AC1F10403CA4044786F
:1006A00004FA03F18478144021430901254C0678AB
:1006B000A155047804F01F050124AC4005786D11A4
:1006C000AD0005F1E025C5F8004109E0047804F02B
:1006D0001F050124AC401C4D0678761145F82640D4
:1006E00070BD1A4A0A400243154B1B1F1A6070471F
:1006F00039B1134A121D12680243114B1B1D1A60B7
:1007000006E00F4A121D126882430D4B1B1D1A6032
:100710007047042808D14FF0E021096941F0040135
:100720004FF0E022116107E04FF0E021096921F06C
:1007300004014FF0E0221161704700000000FA054B
:100740000CED00E000E400E080E100E080FFFF1F2E
:1007500010B50446FA48844208D10121401501F041
:100760005DF90021601501F059F917E0F548844260
:1007700008D10121001501F051F90021201501F0E7
:100780004DF90BE0F048844208D10121C80301F083
:1007900045F900214FF4004001F040F910BD30B59B
:1007A0000246002000235068E84C20400D790C6878
:1007B00044EA0524204350609068E54C2040D1E98C
:1007C00002542C434D7944EA450420439060D06A9A
:1007D00020F470000C7C641EE4B2234340EA035012
:1007E000D06230BD00210160017141718160C16042
:1007F00001210174704721B1826842F001028260D8
:1008000003E0826822F001028260704721B18268B1
:1008100042F48072826003E0826822F48072826017
:10082000704710B50023CBB21AB144681C43446032
:1008300002E044689C43446010BD816841F00801B7
:1008400081607047014600208A6802F008020AB100
:10085000012000E000207047816841F004018160C0
:100860007047014600208A6802F004020AB10120A4
:1008700000E00020704721B1826842F4A00282604B
:1008800003E0826822F4A0028260704701460020E3
:100890008A6802F480020AB1012000E0002070475B
:1008A00010B50A4600210023416821F46041531E1F
:1008B00041EA4331416010BD21B1426842F4006217
:1008C000426003E0426822F4006242607047F0B583
:1008D00004460D4600200021092D11DDE068A5F138
:1008E0000A0606EB4607072606FA07F18843A5F134
:1008F0000A0606EB460603FA06F10843E0600CE040
:10090000206905EB4507072606FA07F1884305EB42
:10091000450603FA06F108432061072A0FDA606BE7
:10092000561E06EB86071F2606FA07F18843561E59
:1009300006EB860605FA06F10843606322E00D2AFD
:100940000FDA206BD61F06EB86071F2606FA07F183
:100950008843D61F06EB860605FA06F10843206396
:1009600010E0E06AA2F10D0606EB86071F2606FAE4
:1009700007F18843A2F10D0606EB860605FA06F19B
:100980000843E062F0BD21B1826842F480128260C7
:1009900003E0826822F48012826070470146C86CCE
:1009A00080B2704766484C300068704721B1426899
:1009B00042F48062426003E0426822F48062426056
:1009C000704721B1426842F48052426003E04268BD
:1009D00022F48052426070470A460021816821F467
:1009E000E04111438160704721B1826842F40042C6
:1009F000826003E0826822F400428260704721B185
:100A0000826842F40212826003E0826822F40212D9
:100A100082607047014600208A6802F400120AB121
:100A2000012000E000207047F0B504461546002084
:100A300000220026092911DDE068A1F10A0707EB71
:100A4000470C072707FA0CF29043A1F10A0707EBBE
:100A5000470703FA07F21043E0600CE0206901EB5E
:100A6000410C072707FA0CF2904301EB410703FA08
:100A700007F210432061A06BC0F30156EF1C06F192
:100A8000010CA7EB0C0707EB870C1F2707FA0CF2EA
:100A90009043EF1C06F1010CA7EB0C0707EB87074F
:100AA00001FA07F21043A063F0BD10B50A46002119
:100AB0000023816B21F44011531E41EA03518163ED
:100AC00010BD08B5002300930090009B0B440093D9
:100AD000009B1A6008BD08B50246002000900092F5
:100AE00001F12800009B184400900098006880B233
:100AF00008BD0A4600214168164B19401143416068
:100B000070474162826270470A460021416821F0C5
:100B10001F0111434160704740B10949083109681C
:100B200041F40001064A0832116007E00449083127
:100B3000096821F40001024A083211607047000080
:100B40000024014000280140003C0140FFFEF0FF6E
:100B5000FDF7F1FFFFFD3FFF0246002013680B4049
:100B60000BB1012000E000207047CA4302607047CB
:100B700070B502460020002300240B125568CEB247
:100B800005EA060415681D4015B10CB1012000E00E
:100B9000002070BD00220A12D3430360704700009A
:100BA00001684FF6FE721140016000210160416052
:100BB0008160C1608D49884208D18C4908394968F3
:100BC00041F00F01894A083A51608AE0874914319F
:100BD000884208D185490839496841F0F001834AC3
:100BE000083A51607DE081492831884208D17F4927
:100BF0000839496841F470617C4A083A516070E0F4
:100C00007A493C31884208D178490839496841F429
:100C10007041764A083A516063E074495031884225
:100C200008D172490839496841F470216F4A083A7D
:100C3000516056E06D496431884208D16B490839EA
:100C4000496841F47001694A083A516049E06749CE
:100C50007831884208D165490839496841F07061A6
:100C6000624A083A51603CE06149884206D1011F5E
:100C7000096841F00F01021F116032E05C49143134
:100C8000884208D15A49091F096841F0F001584AC1
:100C9000121F116025E056492831884208D1544975
:100CA000091F096841F47061514A121F116018E070
:100CB0004F493C31884208D14D49091F096841F428
:100CC00070414B4A121F11600BE049495031884274
:100CD00007D14749091F096841F47021444A121F8E
:100CE0001160704710B50022026847F6F0739A430E
:100CF0000C6A8B6823430C6923434C6923438C693A
:100D00002343CC6923434C6A23438C6A23431A430D
:100D10000260CB6843600B6883604B68C36010BDA2
:100D20000021016041608160C160016141618161B8
:100D3000C161016241628162704721B1026842F083
:100D40000102026004E002684FF6FE731A4002607E
:100D500070471AB103680B43036002E003688B43DA
:100D600003607047416070470146486880B2704731
:100D700001460020002201F080531BB11C4B083BB0
:100D80001A6802E0194B083B1A6802EA01030BB12A
:100D9000012000E00020704700F0805119B1144993
:100DA000091F086002E01149083948607047014690
:100DB0000020002201F080531BB10D4B083B1A6844
:100DC00002E00A4B083B1A6802EA01030BB101205A
:100DD00000E00020704700F0805119B10449091F5C
:100DE000086002E001490839486070470800024085
:100DF0000804024001460020FE4A106800F0380056
:100E0000084310607047FB49096821F00801F94A5E
:100E1000116011460968014311607047F54909687E
:100E200021F01001F34A1160114609680143116075
:100E30007047F148EF494860F04848607047EE4815
:100E4000EC494860ED4848607047EA48006940F066
:100E50008000E84908617047E648006940F080007A
:100E6000E449086170470420E249C96801F00101C2
:100E700009B101200EE0DF49C96801F0040109B1A0
:100E8000022007E0DB49C96801F0100109B1032025
:100E900000E00420704700B502460423FFF7E3FF9B
:100EA000034603E0FFF7DFFF0346521E012B01D18B
:100EB000002AF7D102B90523184600BD30B5044613
:100EC00004254FF43020FFF7E6FF0546042D17D127
:100ED000C848006940F00200C649086108464461FC
:100EE000006940F0400008614FF43020FFF7D3FF65
:100EF0000546C048006941F6FD710840BD490861DA
:100F0000284630BD10B504244FF43020FFF7C3FF4E
:100F10000446042C16D1B748006940F00400B549D6
:100F200008610846006940F0400008614FF4302035
:100F3000FFF7B1FF0446AF48006941F6FB71084076
:100F4000AC490861204610BD00B502460423FFF7F6
:100F50008AFF034603E0FFF786FF0346521E012B7C
:100F600001D1002AF7D102B90523184600BD10B5FA
:100F700004244FF43020FFF7E7FF0446042C16D179
:100F80009C48006940F004009A49086108460069DD
:100F900040F0400008614FF43020FFF7D5FF0446D1
:100FA0009448006941F6FB71084092490861204667
:100FB00010BD00208F49C96901F0020109B101206B
:100FC00000E00020704730B5A5250424FFF7F1FFAD
:100FD00000B100254FF43020FFF75DFF0446042CDC
:100FE0003AD185488349886084488860084600690A
:100FF00040F0200008610846006940F040000861A8
:101000004FF43020FFF747FF0446042C1BD17948EA
:10101000006941F6DF7108407649086108460069B9
:1010200040F01000086176480580E002FFF733FFCA
:101030000446052C10D06F48006941F6EF71084056
:101040006C49086108E0052C06D06A48006941F641
:10105000EF71084067490861204630BD78B5064603
:101060000C46042500200090E802FFF714FF054617
:10107000042D24D15F48006940F001005D490861FA
:101080003480E802FFF707FF0546042D10D1B01C9D
:101090000090200C00990880E802FFF7FCFE05464E
:1010A0005448006941F6FE7108405249086106E063
:1010B0005048006941F6FE7108404E4908612846D3
:1010C00078BD70B504460D460426F002FFF7E3FE36
:1010D0000646042E11D14748006940F001004549F9
:1010E00008612580F002FFF7D6FE064641480069F8
:1010F00041F6FE7108403F490861304670BD70B549
:1011000005460E460424E002FFF7C5FE0446042C03
:1011100017D13948374988603848886008460069DF
:1011200040F0100008612E80E002FFF7B4FE044694
:10113000052C06D02F48006941F6EF7108402D4973
:101140000861204670BD2DE9F04304464FF6FF7656
:101150003746B046B1460425E443E6B2C4F3072758
:10116000C4F307484FEA1469E802FFF794FE054606
:10117000042D49D120481F498860204888600846CE
:10118000006940F010000861FF2E06D01C480830AE
:101190000680E802FFF77FFE0546042D08D1FF2FE9
:1011A00006D017480A300780E802FFF774FE0546AC
:1011B000042D0AD1B8F1FF0F07D011480C30A0F868
:1011C0000080E802FFF767FE0546042D0AD1B9F159
:1011D000FF0F07D00A480E30A0F80090E802FFF792
:1011E0005AFE0546052D0FD00248006941F6EF7101
:1011F000084007E00020024023016745AB89EFCD9E
:1012000000F8FF1F664908612846BDE8F08330B545
:10121000054604244FF43020FFF73DFE0446042C1D
:1012200041D160485E4988605F488860084600692F
:1012300040F0200008610846006940F04000086165
:101240004FF43020FFF727FE0446042C22D15448E7
:10125000006941F6DF71084051490861084600699C
:1012600040F0100008611DB100205049088002E0E4
:10127000A5204E4908804FF43020FFF70CFE0446AD
:10128000052C10D04648006941F6EF7108404449EA
:10129000086108E0052C06D04148006941F6DF717D
:1012A00008403F490861204630BDF0B505460E466E
:1012B000174604243B483A4988603B488860E0026E
:1012C000FFF7E9FD0446042C19D13548006940F0C8
:1012D00010003349086147F0F80030432843334990
:1012E000891C0880E002FFF7D6FD0446052C06D0D5
:1012F0002B48006941F6EF710840294908612046F2
:10130000F0BD2748C069800870472548006A7047CB
:1013100000202349096801F0200109B1012000E003
:101320000020704729B11E4A126902431C4B1A6102
:1013300004E01B4A12698243194B1A617047014647
:101340000020012908D1164AD26902F001020AB12F
:10135000012008E0002006E0114AD2680A400AB1E4
:10136000012000E0002070470D49C860704704204C
:101370000B49C96801F0010109B101200EE00849DB
:10138000C96801F0040109B1022007E00449C968F5
:1013900001F0100109B1032000E0042070470000B3
:1013A0000020024023016745AB89EFCD00F8FF1F05
:1013B00010B50446CC48844208D10121042000F035
:1013C0002DFB0021042000F029FB46E0C7488442A1
:1013D00008D10121082000F021FB0021082000F0A5
:1013E0001DFB3AE0C248844208D10121102000F0E0
:1013F00015FB0021102000F011FB2EE0BD488442B7
:1014000008D10121202000F009FB0021202000F05C
:1014100005FB22E0B848844208D10121402000F0B9
:10142000FDFA0021402000F0F9FA16E0B3488442AA
:1014300008D10121802000F0F1FA0021802000F085
:10144000EDFA0AE0AE48844207D10121801500F090
:10145000E5FA0021A01500F0E1FA10BD10B5012158
:10146000084600F0DBFA0021012000F0D7FA10BD99
:101470002DE9F0410246002500260020002300242B
:10148000002791F803C00CF00F0591F803C00CF091
:10149000100CBCF1000F03D091F802C04CEA050516
:1014A00091F800C0BCF1000F31D0146800202BE08F
:1014B0004FF0010C0CFA00F3B1F800C00CEA03067F
:1014C0009E4220D183004FF00F0C0CFA03F7BC436F
:1014D00005FA03FC4CEA040491F803C0BCF1280FA0
:1014E00006D14FF0010C0CFA00FCC2F814C00AE05F
:1014F00091F803C0BCF1480F05D14FF0010C0CFA74
:1015000000FCC2F810C0401C0828D1D31460B1F808
:1015100000C0BCF1FF0F34DD546800202EE000F164
:10152000080C4FF0010808FA0CF3B1F800C00CEAFF
:1015300003069E4221D183004FF00F0C0CFA03F7F3
:10154000BC4305FA03FC4CEA040491F803C0BCF167
:10155000280F05D100F1080C08FA0CF8C2F8148025
:1015600091F803C0BCF1480F07D100F1080C4FF00F
:10157000010808FA0CF8C2F81080401C0828CED3E5
:101580005460BDE8F0814FF6FF7101800221817047
:101590000421C17070470246002093680B400BB1D4
:1015A000012000E0002070470146886880B2704743
:1015B00002460020D3680B400BB1012000E0002060
:1015C00070470146C86880B2704701617047416149
:1015D00070470AB1016100E041617047C160704726
:1015E0004FF480320A43826181618261826982693B
:1015F000704702460020434B18684FF6807318402E
:1016000040EA021008433F4B186070473E49C861EA
:101610007047F0B50A46002300240021002500F0A1
:101620000046B6F1004F02D1364EF16901E0354E69
:101630007168C0F3034583B200F44016B6F5401F4D
:1016400008D121F070612F4E766826F070662D4F1C
:101650007E6012E000F48016B6F5801F06D10326E6
:1016600006FA05F4A14341F0706106E0460D36012B
:1016700003FA06F6B14341F0706122B1460D36011E
:1016800003FA06F6314300F00046B6F1004F02D1EE
:101690001C4EF16101E01B4E7160F0BD30B50022BF
:1016A0008B071C0F0F2303FA04F2164B08338C1020
:1016B00053F824309343134C08348D1044F82530EC
:1016C00023468C1053F824308C07240F00FA04F4BE
:1016D00023430C4C08348D1044F8253030BD0A49A2
:1016E000DC3108607047000000080140000C014038
:1016F000001001400014014000180140001C01408E
:10170000002001400000014000002042DF48006846
:1017100040F00100DD49086008464068DC490840A7
:10172000DA49486008460068DA490840D749086045
:101730000846006820F4802008600846406820F4CD
:10174000FE0048604FF41F0088607047CF49096869
:1017500021F48031CD4A11601146096821F48021BD
:101760001160B0F5803F03D0B0F5802F0ED106E0B8
:10177000C649096841F48031C44A116007E0C34991
:10178000096841F4A021C14A116000E000BF00BF18
:10179000704710B501460022002300204A11012A9B
:1017A00002D1BA4C236806E0022A02D1B74C236A60
:1017B00001E0B64C636A01F01F02012494401C4012
:1017C0000CB1012000E0002010BD38B500200090D1
:1017D0000024002500BF3120FFF7DBFF05460098FD
:1017E000401C00900098B0F5A06F01D0002DF2D001
:1017F0003120FFF7CEFF08B1012400E0002420468D
:1018000038BD01460020A14A106820F0F80040EAE7
:10181000C10010607047A049086070470246002070
:101820009A4B586820F47C1042EA01031843974B06
:101830005860704798490866704701460020934AEF
:10184000506820F003000843506070478F4840689C
:1018500000F00C007047014600208C4A506820F0D0
:10186000F00008435060704701460020874A5068E6
:1018700020F4E06008435060704701460020834A2E
:10188000506820F4605040EAC1005060704729B1B0
:101890007E4A527A02437D4B5A7204E07B4A527A66
:1018A00082437A4B5A7270477B49D831086070473F
:1018B00001460020754A506820F4404008435060BB
:1018C00070470021714A20321170704A82F820104E
:1018D000012802D004280AD104E001216B4A2032F9
:1018E000117005E00521694A2032117000E000BF47
:1018F00000BF70476949086070476449096A01433D
:10190000624A11627047654944390860704730B5D2
:1019100000210022002400235C4D6D6805F00C01BD
:1019200021B1042905D0082923D105E05C4D0560CB
:1019300022E05B4D05601FE0544D6D6805F47012A8
:10194000524D6D6805F48034022505EB92421CB9B6
:10195000544D554305600BE04C4D6D6805F4003562
:101960001DB1504D5543056002E04D4D5543056096
:1019700002E04B4D056000BF00BF444D6D6805F0AF
:10198000F0010909484D6B5C0568DD4045603F4D3D
:101990006D6805F4E061090A434D6B5C4568DD4004
:1019A00085603A4D6D6805F46051C90A3E4D6B5C27
:1019B0004568DD40C560354D6D6805F44041890BD3
:1019C0003A4D6B5CC568B5FBF3F5056130BD29B1D7
:1019D0002E4A526902432D4B5A6104E02B4A526948
:1019E00082432A4B5A61704729B1284A92690243BF
:1019F000264B9A6104E0254A92698243234B9A61FF
:101A0000704729B1214AD2690243204BDA6104E0D0
:101A10001E4AD26982431D4BDA61704729B11B4AC5
:101A2000D2680243194BDA6004E0184AD268824354
:101A3000164BDA60704729B1144A12690243134BFE
:101A40001A6104E0114A12698243104B1A6170470F
:101A500012494039086070470F49C86470470B4904
:101A6000C87170470948406A40F080700749486271
:101A7000704701460020054A92680A400AB10120D9
:101A800000E0002070470149887270470010024052
:101A90000000FFF8FFFFF6FE0000424280044242D1
:101AA00000127A0000093D00010000201100002012
:101AB00010B50446BE48844208D101218014FFF7C6
:101AC000ADFF0021A014FFF7A9FF16E0B94884423A
:101AD00008D101210014FFF7AEFF00212014FFF709
:101AE000AAFF0AE0B448844207D10121C013FFF7DE
:101AF000A2FF0021E013FFF79EFF10BD10B50022EA
:101B0000028802F441520B884C8823438C8823437B
:101B1000CC8823430C8923434C8923438C8923435A
:101B2000CC8923431A430280838B4FF2FF742340F6
:101B300083830B8A038210BD2DE9F04F85B00546E3
:101B40000C464FF0000902274FF000084FF0010B40
:101B50000026B246A88B4FF240010840A88302201D
:101B60002884B5F81C90A068022801D100BF38E095
:101B7000A08810B94FF0010B01E04FF0020B8D4827
:101B8000854200D100E000BF6846FFF7C0FEDDF8E7
:101B900000A0E088B0F5007F0AD14FEA1A2000EBE0
:101BA00080004000A168B0FBF1F0401D86B20BE060
:101BB0004FEA4B10BAFBF0F000EB80004000A16848
:101BC000B0FBF1F0401D86B20A20B6FBF0F606F03D
:101BD0000108A6EB0800C0F34F074FF6FF7000EABC
:101BE0000828022F01DBFF2F02DD02274FF000083B
:101BF000E08840EA080038432884A088A189084387
:101C0000618808432188084340F4006040EA0909DC
:101C1000A5F81C9005B0BDE8F08F0021018041803F
:101C20008180C180018141818181C181072101823F
:101C300070470021018041808180C1800221816044
:101C400000218181704721B1028842F04002028068
:101C500004E002884FF6BF731A400280704721B13A
:101C6000828B42F48062828304E0828B4FF6FF33E2
:101C70001A408283704730B5002400230C110125DF
:101C8000A540ABB21AB185881D43858002E08588E6
:101C90009D43858030BD1AB183880B43838002E069
:101CA00083888B4383807047818170470146888990
:101CB00070474FF6FF62914204D0028842F480726E
:101CC000028004E002884FF6FF631A4002807047EA
:101CD00021B1828842F00402828004E082884FF6BB
:101CE000FB731A408280704702884FF2FF731A40DC
:101CF000028002880A4302807047018841F48051C3
:101D00000180704721B1028842F40052028004E051
:101D100002884DF6FF731A40028070470246002089
:101D2000012901D0108B00E0908A70470146088A93
:101D30007047B1F5804F04D1028842F4804202809E
:101D400004E002884BF6FF731A4002807047024697
:101D5000002013890B400BB1012000E000207047E8
:101D6000CA4302817047F0B50246002000240023D8
:101D7000002501F00F070126BE40B4B20B11012669
:101D80009E40B3B2968806EA03051689264016B12E
:101D90000DB1012000E00020F0BD10B5002201F0DF
:101DA0000F040123A3409AB2D343038110BD000066
:101DB0000030014000380040003C004010B50446AF
:101DC000FE48844208D10121C014FFF727FE0021FC
:101DD000E014FFF723FEC4E0B4F1804F08D10121E5
:101DE0000846FFF728FE00210120FFF724FEB8E097
:101DF000F348844208D101210220FFF71CFE002194
:101E00000220FFF718FEACE0EE48844208D1012121
:101E10000420FFF710FE00210420FFF70CFEA0E0D5
:101E2000E948844208D101210820FFF704FE00217F
:101E30000820FFF700FE94E0E448844208D1012125
:101E40001020FFF7F8FD00211020FFF7F4FD88E0D7
:101E5000DF48844208D101212020FFF7ECFD00215A
:101E60002020FFF7E8FD7CE0DA48844208D1012118
:101E70004014FFF7D3FD00216014FFF7CFFD70E0A1
:101E8000D548844209D10121C804FFF7C7FD0021CC
:101E90004FF40020FFF7C2FD63E0D048844209D12F
:101EA00001210805FFF7BAFD00214FF48010FFF76C
:101EB000B5FD56E0CA48844209D101214805FFF723
:101EC000ADFD00214FF40010FFF7A8FD49E0C54823
:101ED000844208D101214020FFF7ADFD00214020C0
:101EE000FFF7A9FD3DE0C048844208D101218020D0
:101EF000FFF7A1FD00218020FFF79DFD31E0BB48E9
:101F0000844208D101218015FFF795FD0021A0151D
:101F1000FFF791FD25E0B648844209D1012108046C
:101F2000FFF77CFD00214FF48030FFF777FD18E0CC
:101F3000B048844209D101214804FFF76FFD002118
:101F40004FF40030FFF76AFD0BE0AB48844208D144
:101F500001218804FFF762FD00214FF48020FFF784
:101F60005DFD10BD00220288944B98420ED0994B23
:101F700098420BD0B0F1804F08D0914B984205D0D9
:101F8000904B984202D0904B984204D14FF68F73F9
:101F90001A404B881A438D4B984207D08C4B98427D
:101FA00004D04FF6FF431A40CB881A4302808B8837
:101FB00083850B880385814B98420BD0854B9842D3
:101FC00008D08B4B984205D08A4B984202D08A4B5E
:101FD000984201D10B7A038601238382704770B542
:101FE000002400220023058C4FF6FE763540058440
:101FF000028C8388048B4FF68F752C40B51E2C40C5
:102000000D882C43751E2A400D892A434D882A438A
:102010006A4DA8420BD06F4DA84208D0744DA8421B
:1020200005D0744DA84202D0734DA84213D14FF68B
:10203000F7752A404D892A434FF6FB752A408D8853
:102040002A434FF6FF652B404FF6FF552B408D89F5
:102050002B43CD892B4383800483CD8885860284DE
:1020600070BD70B5002400220023058C4FF6EF767A
:1020700035400584028C8388048B48F6FF752C401C
:102080004FF6FF452C400D884FF6FF7606EA0525F2
:102090002C434FF6DF752A400D8906EA05152A43C1
:1020A0004D8806EA05152A43444DA84202D0494D01
:1020B000A8421DD14FF67F752A404D894FF6FF7615
:1020C00006EA05152A434FF6BF752A408D8806EAB1
:1020D00005152A434FF6FF352B404FF2FF752B4075
:1020E0008D8906EA85052B43CD8906EA85052B43B4
:1020F00083800483CD880587028470BD70B5002479
:1021000000220023058C4FF6FF6635400584028CC3
:102110008388848B4FF68F752C404FF6FC752C40CE
:102120000D882C434FF6FF552A400D894FF6FF7658
:1021300006EA05252A434D8806EA05252A431F4D50
:10214000A84202D0234DA8421DD14FF2FF752A406C
:102150004D894FF6FF7606EA05252A434FF6FF35EF
:102160002A408D8806EA05252A434EF6FF752B4046
:102170004DF6FF752B408D8906EA05152B43CD8959
:1021800006EA05152B4383808483CD8885870284E6
:1021900070BD70B5002200230024058C4EF6FF763A
:1021A00035400584038C8488828B48F6FF752A406D
:1021B0004FF6FF452A400D8820E00000002C01402A
:1021C0000004004000080040000C004000100040E7
:1021D0000014004000340140004C01400050014018
:1021E0000054014000180040001C00400020004046
:1021F0000040014000440140004801404FF6FF7696
:1022000006EA05252A434DF6FF752B400D8906EA9F
:1022100005352B434D8806EA05352B43FA4DA84278
:1022200002D0FA4DA84208D14BF6FF752C408D899B
:102230004FF6FF7606EA85152C4384808283CD888D
:10224000A0F84050038470BD828B4FF2FF331A40D8
:102250008283828B4FF6FF7303EA01231A43828342
:102260007047F0B50C461546002200210026078C69
:102270004EF6FF7C07EA0C070784828B018C4FF631
:10228000FF7707EA043640F6FF473A404FF6FF77FC
:1022900007EA05273A434FF6FF7707EA03373A4341
:1022A000D94FB8420ED0D94FB8420BD0B0F1804FC1
:1022B00008D0D74FB84205D0D64FB84202D0D64F3B
:1022C000B84206D14DF6FF77394046F4805739437E
:1022D00005E047F6FF57394044F48057394382837D
:1022E0000184F0BD828B4FF6F3731A408283828B98
:1022F0000A4382837047F0B50C4615460022002140
:102300000026078C4FF6FF6C07EA0C070784828BC8
:10231000018C4FF6FF7707EA04264FF60C773A4018
:102320004FF6FF7707EA03172F433A43B64FB842F9
:102330000ED0B64FB8420BD0B0F1804F08D0B44F9A
:10234000B84205D0B34FB84202D0B34FB84206D11D
:102350004FF6FF57394046F48077394305E04FF296
:10236000FF57394044F48077394382830184F0BDBC
:10237000028B4FF2FF331A400283028B4FF6FF733A
:1023800003EA01231A4302837047F0B50C46154651
:10239000002200210026078C4FF6EF7C07EA0C078D
:1023A0000784028B018C4FF6FF7707EA041640F68C
:1023B000FF473A404FF6FF7707EA03373A434FF6B5
:1023C000FF7707EA05273A438F4FB8420ED08F4F69
:1023D000B8420BD0B0F1804F08D08D4FB84205D035
:1023E0008C4FB84202D08C4FB84206D14FF6DF77FF
:1023F000394046F01007394305E04FF65F77394022
:1024000044F01007394302830184F0BD028B4FF67C
:10241000F3731A400283028B0A4302837047F0B5BC
:102420000C46154600220021068C4FF6FE773E40F2
:102430000684028B018C4FF60C7632407E1C06EA35
:1024400003162E433243704EB0420ED06F4EB04250
:102450000BD0B0F1804F08D06D4EB04205D06D4E1C
:10246000B04202D06C4EB04206D14FF6FD763140FC
:1024700044F00106314305E04FF6F576314044F073
:102480000106314302830184F0BD70B505460C4658
:102490005D4885420ED05D4885420BD0B5F1804F36
:1024A00008D05B48854205D05A48854202D05A4838
:1024B000854200D100E000BF208850B92389A2885E
:1024C00061882846FFF7ABFFE1882846FFF79EFFAB
:1024D00025E0208804280AD12389A288618828461B
:1024E000FFF753FFE1882846FFF742FF17E02088F7
:1024F00008280AD12389A28861882846FFF7FBFEB5
:10250000E1882846FFF7EEFE09E02389A28861886A
:102510002846FFF7A6FEE1882846FFF795FE70BD26
:102520002DE9F04105460C4600260127608808B9D0
:10253000022600E00026A088012801D1022700E041
:1025400001272088A0B92389A28861882846FFF73F
:1025500066FFE1882846FFF759FF23893A4631464E
:102560002846FFF712FFE1882846FFF701FF13E036
:102570002389A28861882846FFF707FFE18828465B
:10258000FFF7F6FE23893A4631462846FFF747FF14
:10259000E1882846FFF73AFFBDE8F0810A884B88BA
:1025A0001A438B881A43CB881A430B891A434B89E9
:1025B0001A438B891A43A0F8442070474FF6FF71E5
:1025C000818000210180C18041800172704700211B
:1025D000018041808180C180018141818181C181EF
:1025E0007047002101804180012181800021C1804C
:1025F000018170470021018041808180C18001817B
:102600004181818170470000002C0140003401406D
:102610000004004000080040000C004021B1028886
:1026200042F00102028004E002884FF6FE731A4075
:102630000280704731B1B0F8442042F40042A0F863
:10264000442005E0B0F84420C2F30E02A0F8442074
:1026500070471AB183890B43838102E083898B43DE
:10266000838170478182704741EA0203A0F84830B5
:1026700070471AB183890B43838102E083898B43BE
:102680008381704701894FF6F872114001817047CC
:102690000A46002101894FF68F73194011430181C9
:1026A000704730B504460D4629462046FFF7F0FF37
:1026B000208940F00700208130BD2DE9F04104461B
:1026C0000D4616461F46602D06D13B460122314677
:1026D0002046FFF75AFE05E03B46012231462046E0
:1026E000FFF79DFE29462046FFF7D2FF208940F0E4
:1026F00007002081BDE8F08130B50C46002101893A
:10270000C9B24FF6FF7505EA032515432543294352
:10271000018130BD2DE9F04105460E461746984629
:10272000002443463A4631462846FFF7E5FF2C8908
:102730004FF6F870044044F007044FF68F700440E1
:1027400044F070042C81BDE8F081F0B504460D46DC
:1027500016461F463B46324629462046FFF7CCFF29
:10276000208940F480402081F0BD0185828270473D
:102770000A46002101884FF68F73194011430180EA
:102780007047F0B50C4615461E4600210022002376
:102790000189028B038C4FF6F877394021434FF6BD
:1027A000FC473A4040F201173A434FF6DD773B4091
:1027B0004FF6FF7707EA06172F433B430181028359
:1027C0000384F0BD0A460021018B4FF68F73194038
:1027D0001143018370470A460021018B48F6FF73BD
:1027E00019404FF6FF7303EA022319430183704730
:1027F0000A460021818B4FF68F7319401143818364
:1028000070470A460021818B48F6FF7319404FF646
:10281000FF7303EA022319438183704721B10288C1
:1028200042F08002028004E002884FF67F731A4073
:102830000280704721B1828842F00402828004E065
:1028400082884FF6FB731A408280704721B18288DC
:1028500042F00802828004E082884FF6F7731A4043
:102860008280704721B1828842F00102828004E0B8
:1028700082884FF6FE731A40828070470A46002114
:10288000018B4FF6F77319401143018370470A46D5
:102890000021018B4FF2FF7319404FF6FF7303EADB
:1028A00002231943018370470A460021818B4FF6AA
:1028B000F77319401143818370470A460021818BC9
:1028C0004FF2FF7319404FF6FF7303EA02231943D7
:1028D000818370470A460021018B4FF6FB73194034
:1028E0001143018370470A460021018B4FF6FF33E5
:1028F00019404FF6FF7303EA02231943018370471F
:102900000A460021818B4FF6FB73194011438183E6
:1029100070470A460021818B4FF6FF3319404FF66E
:10292000FF7303EA02231943818370470A4600219B
:10293000018B4FF67F7319401143018370470A469C
:102940000021018BC1F30E014FF6FF7303EA02234E
:102950001943018370470A460021818B4FF67F732C
:1029600019401143818370470A460021818BC1F3CE
:102970000E014FF6FF7303EA022319438183704768
:102980000A460021018C4FF6FD7319401143018462
:1029900070470A460021018C4FF6F7731940114326
:1029A000018470470A460021018C4FF6DF731940FD
:1029B0004FF6FF7303EA02131943018470470A4676
:1029C0000021018C4FF67F7319404FF6FF7303EA25
:1029D00002131943018470470A460021018C4FF607
:1029E000FF5319404FF6FF7303EA02231943018492
:1029F00070470A460021018C4FF2FF7319404FF6D1
:102A0000FF7303EA02231943018470470A46002139
:102A1000018C4DF6FF7319404FF6FF7303EA023342
:102A200019430184704730B5002301248C40A3B2C0
:102A3000048C9C430484048C02FA01F5ADB22C434F
:102A4000048430BD30B5002304248C40A3B2048C30
:102A50009C430484048C02FA01F5ADB22C43048437
:102A600030BD70B5034600200024184618300125FB
:102A70008D40ACB21D8CA5431D8409B1082909D134
:102A800000EB6100056825F07005056005681543D9
:102A900005600EE00D1FC5F34E052844056825F4BA
:102AA000E045056005684FF6FF7606EA02263543E5
:102AB000056070BD21B1028842F00202028004E08C
:102AC00002884FF6FD731A400280704721B10288D8
:102AD00042F00402028004E002884FF6FB731A40C1
:102AE0000280704721B1828842F08002828004E037
:102AF00082884FF67F731A408280704702884FF6B3
:102B0000F7731A40028002880A4302807047828865
:102B10004FF68F731A40828082880A438280704702
:102B200002894FF6F8731A40028102890A43028132
:102B3000704702894FF67F731A40028102890A4367
:102B40000281704781847047818570478186704714
:102B50000187704781877047A0F84010704702884E
:102B60004FF6FF431A40028002880A4302807047F2
:102B70000146888E70470146088F70470146888F4E
:102B800070470146B1F8400070470146888C704795
:102B90000146088D704702460020138A0B400BB196
:102BA000012000E000207047CA430282704730B520
:102BB0000246002000230024158A05EA01039589B6
:102BC00005EA010413B10CB1012000E0002030BD82
:102BD000CA4302827047000010B50446FB48844295
:102BE00009D101218803FEF719FF00214FF480402D
:102BF000FEF714FF32E0F648844209D1012148046F
:102C0000FEF719FF00214FF40030FEF714FF25E016
:102C1000F048844209D101218804FEF70CFF00210D
:102C20004FF48020FEF707FF18E0EB48844209D1FB
:102C30000121C804FEF7FFFE00214FF40020FEF73B
:102C4000FAFE0BE0E548844208D101210805FEF7B1
:102C5000F2FE00214FF48010FEF7EDFE10BD2DE9CD
:102C6000F04786B005460E460024A24600BFA146A6
:102C70000027B08900B100BF2F462C8A4CF6FF70A8
:102C80000440F08804432C82AC894EF6F3100440D3
:102C9000B08831890843718908430443AC81AC8A08
:102CA0004FF6FF400440B0890443AC8201A8FEF710
:102CB0002EFEC648874202D1DDF810A001E0DDF803
:102CC0000CA0A88900F4004040B10AEBCA0000EB58
:102CD0000A1031684900B0FBF1F807E00AEBCA00BE
:102CE00000EB0A1031688900B0FBF1F86420B8FBF2
:102CF000F0F004012009642101FB1089A88900F487
:102D0000004040B1322000EBC900B0FBF1F000F010
:102D10000700044308E0322000EB09106421B0FBF7
:102D2000F1F000F00F0004432C8106B0BDE8F087FD
:102D30004FF41651016000218180C18001810C2176
:102D4000418100218181704710B502460020108A20
:102D50004FF2FF0318400B884C8823438C88234391
:102D6000CC8823431843108210BD0021018041808C
:102D70008180C180704721B1828942F400528281F2
:102D800004E082894DF6FF731A4082817047F0B5E6
:102D90000346002400260025002040F66A17B942A9
:102DA00000D100BF1846C1F3421401F01F060127ED
:102DB00007FA06F5012C01D10C3004E0022C01D1F8
:102DC000103000E014301AB107682F43076002E0AA
:102DD0000768AF430760F0BD1AB1838A0B43838253
:102DE00002E0838A8B4383827047028A4FF6F07336
:102DF0001A400282028A0A430282704782894FF295
:102E0000FF731A40828182890A438281704721B10F
:102E1000828942F00202828104E082894FF6FD73CA
:102E20001A4082817047028A4FF6DF731A4002828D
:102E3000028A0A430282704721B1028A42F4804228
:102E4000028204E0028A4BF6FF731A400282704746
:102E5000C1F308028280704701468888C0F30800E9
:102E60007047818941F0010181817047028BD2B2A4
:102E70000283028B42EA012202837047028B02F432
:102E80007F420283028B0A430283704721B1828A08
:102E900042F02002828204E0828A4FF6DF731A40F9
:102EA0008282704721B1828A42F01002828204E05D
:102EB000828A4FF6EF731A408282704721B1828A6C
:102EC00042F00802828204E0828A4FF6F7731A40C9
:102ED0008282704721B1828942F40042828103E0FC
:102EE0008289C2F30E028281704721B1828A42F444
:102EF0000062828204E0828A4FF2FF731A4082826B
:102F00007047828A4FF6FB731A408282828A0A4394
:102F10008282704721B1828A42F00202828204E0FA
:102F2000828A4FF6FD731A40828270470246002063
:102F3000B1F5007F00D100BF13880B400BB1012019
:102F400000E00020704701F40072B2F5007F00D16C
:102F500000BFCA430280704770B5024600240023B8
:102F60000025002040F66A16B14200D100BFC1F32F
:102F7000421501F01F03012606FA03F3012D02D1C9
:102F80009689334006E0022D02D1168A334001E0D3
:102F9000968A33400C12012606FA04F4168834404F
:102FA00013B10CB1012000E0002070BD10B500226B
:102FB000002340F66A14A14200D100BF0A12012486
:102FC0009440A3B2DC43048010BD000000380140EF
:102FD0000044004000480040004C004000500040C9
:102FE0000CB50020019000906C48006840F48030DF
:102FF0006A49086000BF6948006800F4003000902A
:103000000198401C0190009818B90198B0F5A06F84
:10301000F1D16248006800F4003010B10120009046
:1030200001E0002000900098012843D15C4800682E
:1030300040F010005A4908600846006820F003007C
:1030400008600846006840F0020008605348406885
:10305000524948600846406848600846406840F465
:10306000806048600846406820F47C10486008464C
:10307000406840F4E81048600846006840F08070FE
:10308000086000BF4548006800F000700028F9D0D3
:103090004248406820F003004049486008464068C4
:1030A00040F00200486000BF3C48406800F00C005F
:1030B0000828F9D10CBD10B5FFF792FF10BD10B56F
:1030C0003648006840F0010034490860084640680E
:1030D0003449084031494860084600683249084090
:1030E0002E4908600846006820F4802008600846E1
:1030F000406820F4FE0048604FF41F008860FFF72E
:10310000DAFF4FF000602949086010BD10B50021BA
:1031100000200022214B5B6803F00C0121B104293F
:1031200006D0082928D107E0214B224C236027E054
:103130001F4B204C236023E0184B5B6803F4701096
:10314000164B5B6803F48032022303EB904022B9F4
:10315000194B4343174C23600DE0104B5B6803F49D
:10316000003323B1144B4343124C236003E0104B54
:103170004343104C236003E00D4B0E4C236000BF13
:1031800000BF064B5B68C3F303130C4CE15C094BB7
:103190001B68CB40074C236010BD000000100240AC
:1031A000002002400000FFF8FFFFF6FE08ED00E0FF
:1031B00000127A001800002000093D001C000020C9
:1031C0000948804709480047FEE7FEE7FEE7FEE7BB
:1031D000FEE7FEE7FEE7FEE7FEE7FEE704480549F7
:1031E000054A064B70470000BF3000083101000857
:1031F000D0460020D04C0020D0480020D0480020ED
:1032000008B501216020FEF7EFFB4FF48050ADF8C8
:10321000000028208DF8030069461048FEF728F9C1
:103220002020ADF8000069460D48FEF721F9202165
:103230000B48FEF7CAF901212020FEF7D5FB40F22A
:10324000FF10ADF8000003208DF8020010208DF86B
:10325000030069460348FEF70BF908BD000C014066
:10326000001801400014014010B504464FF400411D
:10327000FD48FEF7ACF94FF48051FB48FEF7A7F983
:10328000E1B2FA4801F0AAF84FF40041F648FEF71F
:103290009CF910BD10B504464FF40041F248FEF70A
:1032A00096F94FF48051F048FEF78FF92112EF485C
:1032B00001F094F8E1B2ED4801F090F84FF40041CC
:1032C000E948FEF782F910BD10B504464FF40041FD
:1032D000E548FEF77CF94FF48051E348FEF775F9B5
:1032E0002146E24801F07AF84FF40041DE48FEF74B
:1032F0006CF910BD70B505460C462846FFF7B4FFC3
:103300002046FFF7C7FF70BD10B5D9498879FFF790
:10331000ABFF10BD00BF011EA0F10102D0B2FAD177
:1033200070477047704770B504460D46D049C8795C
:10333000FFF79AFF2012FFF7C7FFE0B2FFF7C4FFC5
:10334000CB49087AFFF790FF2812FFF7BDFFE8B2DC
:10335000FFF7BAFF70BD70B504460D4629462046FA
:10336000FFF7E1FFFFF7D0FFC2480088FFF792FFA9
:1033700070BD70B506460024BD48058840884543A9
:1033800000210846FFF7CFFFFFF7BEFF00BF03E0B5
:103390003046FFF77FFF641CAC42F9D370BD10B517
:1033A0000020B5490860322000F08EFC0120B349AE
:1033B000C1F88401322000F087FC4FF40061AA4874
:1033C000FEF705F9142000F07FFC4FF40061A648D9
:1033D000FEF7FBF8142000F077FC8020A449088059
:1033E000A02048802C2088712A20C8712B200872C8
:1033F0001120FFF739FF782000F066FCB120FFF7BD
:1034000033FF0520FFF760FF3C20FFF75DFF3C2006
:10341000FFF75AFFB220FFF727FF0520FFF754FF01
:103420003C20FFF751FF3C20FFF74EFFB320FFF792
:103430001BFF0520FFF748FF3C20FFF745FF3C201E
:10344000FFF742FF0520FFF73FFF3C20FFF73CFF5F
:103450003C20FFF739FFB420FFF706FF0320FFF7FA
:1034600033FFC020FFF700FF2820FFF72DFF0820C3
:10347000FFF72AFF0420FFF727FFC120FFF7F4FE24
:10348000C020FFF721FFC220FFF7EEFE0D20FFF75F
:103490001BFF0020FFF718FFC320FFF7E5FE8D207C
:1034A000FFF712FF2A20FFF70FFFC420FFF7DCFE13
:1034B0008D20FFF709FFEE20FFF706FFC520FFF77D
:1034C000D3FE1A20FFF700FF3620FFF7CDFEC02005
:1034D000FFF7FAFEE020FFF7C7FE0420FFF7F4FE37
:1034E0002220FFF7F1FE0720FFF7EEFE0A20FFF78C
:1034F000EBFE2E20FFF7E8FE3020FFF7E5FE25204B
:10350000FFF7E2FE2A20FFF7DFFE2820FFF7DCFEB0
:103510002620FFF7D9FE2E20FFF7D6FE3A20FFF730
:10352000D3FE0020FFF7D0FE0120FFF7CDFE0320E1
:10353000FFF7CAFE1320FFF7C7FEE120FFF794FE56
:103540000420FFF7C1FE1620FFF7BEFE0620FFF79E
:10355000BBFE0D20FFF7B8FE2D20FFF7B5FE26209D
:10356000FFF7B2FE2320FFF7AFFE2720FFF7ACFEE8
:103570002720FFF7A9FE2520FFF7A6FE2D20FFF745
:10358000A3FE3B20FFF7A0FE0020FFF79DFE0120D9
:10359000FFF79AFE0420FFF797FE1320FFF794FE33
:1035A0003A20FFF761FE0520FFF78EFE2920FFF786
:1035B0005BFE4FF6FF70FFF7DCFE10BD2DE9F05FFC
:1035C00005460E4617469846DDF828A04FF0000B3A
:1035D000781B401C1FFA80FB344613E02146284626
:1035E000FFF7A1FEFFF790FE4FF0000906E05046FE
:1035F000FFF750FE09F101001FFA80F9D945F6DB0B
:10360000601C84B24445E9DDBDE8F09F2DE9F84F28
:1036100007460D4690469946DDF828B0A8EB07000E
:10362000401C80B20090A9EB0500401C1FFA80FAF4
:10363000002415E0281981B23846FFF774FEFFF721
:1036400063FE002607E004FB0A603BF810000C490B
:103650000880701C86B200988642F4DB601C84B23D
:103660005445E7DBBDE8F88F000801400030014019
:10367000B80000202C0000208481214200802142DB
:10368000000008602DE9FF4F85B081468A46002082
:10369000049003900798A0EB09050898A0EB0A0690
:1036A000CDF80890CDF804A0002D01DD012705E03C
:1036B0000DB9002702E04FF0FF376D42002E02DD0A
:1036C0004FF0010806E016B94FF0000802E04FF095
:1036D000FF387642B54201DD2C4600E034464FF01B
:1036E000000B21E0019A91B2029A90B2FFF733FEEB
:1036F0000498284404900398304403900498A0420E
:1037000005DD0498001B0490029838440290039849
:10371000A04205DD0398001B0390019840440190EE
:103720000BF101001FFA80FB601C8345DADD09B054
:10373000BDE8F08F2DE9F04104460D4616461F46C0
:103740002B46324629462046FFF79CFF3B46224641
:1037500029462046FFF796FF3B463246394620462B
:10376000FFF790FF3B46324629463046FFF78AFF77
:10377000BDE8F0812DE9F04706460F46904600244B
:1037800045460320A0EB48093CE07A1B91B2321970
:1037900090B2FFF7E0FD3A1B91B2721990B2FFF7B9
:1037A000DAFD3A1991B2721990B2FFF7D4FD7A1985
:1037B00091B2321990B2FFF7CEFD7A1991B2321B55
:1037C00090B2FFF7C8FD3A1991B2721B90B2FFF7A1
:1037D000C2FD7A1B91B2321B90B2FFF7BCFD3A1BBF
:1037E00091B2721B90B2FFF7B6FD641CB9F1000FE5
:1037F00003DAA000801D814404E0601B80000A30D1
:1038000081446D1EAC42C0DDBDE8F0872DE9F04774
:10381000804689461446FE4F07EB4417002629E0F0
:1038200009EB060291B21FFA88F0FFF77CFDFFF763
:103830006BFD4FF0000A18E000250FE038780121F9
:10384000A940084020B1F3480088FFF723FD03E0BA
:10385000F1480088FFF71EFD681CC5B2082DEDDB9E
:103860007F1C0AF1010000F0FF0ABAF1020FE3DB4E
:10387000701CC6B2102ED3DBBDE8F0872DE9F047EF
:10388000804689461446E54F07EBC417002629E019
:1038900009EB060291B21FFA88F0FFF744FDFFF72B
:1038A00033FD4FF0000A18E000250FE038780121C1
:1038B000A940084020B1D7480088FFF7EBFC03E09F
:1038C000D5480088FFF7E6FC681CC5B2082DEDDB83
:1038D0007F1C0AF1010000F0FF0ABAF1040FE3DBDC
:1038E000701CC6B2202ED3DBBDE8F0872DE9F84F5F
:1038F00081460D4617461E460095C648B0F8008022
:10390000A7F12000C7B20A98002850D100244BE04C
:103910000C2E07D107EB4700C14901EB800010F8DE
:1039200004A004E0BF4800EB071010F804A04FF01B
:10393000000B33E00AF0800018B1B648A0F8008010
:1039400003E0B5480088B349088029464846FFF798
:1039500002FD4FEA4A604FEA106A681C85B2B2481D
:103960004088A84204DCAB48A0F80080BDE8F88F8E
:103970000098281AB0420DD1009D09F101001FFAEC
:1039800080F9A9480088484503DCA248A0F80080D7
:10399000ECE706E00BF1010000F0FF0BBBF1080FB4
:1039A000C8DB00BF601CC4B2B442B1DB46E00024F7
:1039B00042E00C2E07D107EB4700994901EB80004C
:1039C00010F804A004E0974800EB071010F804A0DA
:1039D0004FF0000B2AE00AF0800018B12946484653
:1039E000FFF7B9FC4FEA4A604FEA106A681C85B2DB
:1039F0008D484088A84203DC8648A0F80080B5E7DF
:103A00000098281AB0420DD1009D09F101001FFA5B
:103A100080F985480088484503DC7E48A0F800808E
:103A2000A4E706E00BF1010000F0FF0BBBF1080F6B
:103A3000D1DB00BF601CC4B2B442BADB7548A0F849
:103A4000008000BF92E710B50246012000E050431D
:103A50000B1EA1F10104E1B2F9D110BD2DE9FF4F18
:103A600081B0074691461E460E9D4FF0000A002485
:103A700039E0301B401EC1B20A20FFF7E4FFB9FB5A
:103A8000F0F00A21B0FBF1F201FB1208BAF1000FCD
:103A900016D1701EA04213DDB8F1000F0ED1002028
:103AA000AB4605EBDB71491001FB0471009088B255
:103AB0002B4620220299FFF719FF12E04FF0010A6E
:103AC0000020AB4605EBDB71491001FB047100904F
:103AD00088B208F13001CAB22B460299FFF706FFFF
:103AE00000BF601CC4B2B442C3DB05B0BDE8F08FB8
:103AF0002DE9FF4F83B0064692461F46DDE9104888
:103B00000020029000254DE0781B401EC1B20A2023
:103B1000FFF799FFBAFBF0F00A21B0FBF1F201FBCD
:103B20001209029850BB781EA84227DDB9F1000F98
:103B300022D108F0800078B108F00100A34604EB20
:103B4000DB71491001FB0561009088B223463022E9
:103B50000499FFF7CBFE0EE008F00100A34604EB4A
:103B6000DB71491001FB0561009088B223462022D9
:103B70000499FFF7BBFE13E00120029008F001005A
:103B8000A34604EBDB71491001FB0561009088B28C
:103B900009F13001CAB223460499FFF7A7FE00BF1E
:103BA000681CC5B2BD42AFDB07B0BDE8F08F2DE9A0
:103BB000F84F04460D4690469946DDE90A6704F041
:103BC000FF0A08EB04001FFA80F809EB05001FFA52
:103BD00080F916E0444502DB5446A81985B24D45EC
:103BE00000DB14E0012000903A7833462946204655
:103BF000FFF77CFE304606EBD07104EB61018CB21E
:103C00007F1C38787E2802DC38782028E2DA0DE044
:103C10005C5700082C0000202E000020DC55000816
:103C20009C64000810690008B800002000BFBDE8CF
:103C3000F88F2DE9F04781460F460024002524E047
:103C4000781981B24846FFF76EFBFFF75DFB4FF036
:103C5000000815E0012000EB44000E490E5C4FF611
:103C6000FF7000EA0626084610F8140006433046A6
:103C7000FFF710FB601C84B208F101001FFA80F806
:103C8000B8F1280FE6DB681C85B2282DD8DBBDE82B
:103C9000F08700001C580008002105E0002200E029
:103CA000521C6E2AFCDB491C8142F7DB7047002165
:103CB00005E0002200E0521C012AFCDB491C00F157
:103CC0000A039942F5DB704710B504462046FFF71A
:103CD000E3FF10BD30B589B005460C46012108460A
:103CE000FDF78FFE01210520FDF77EFE0120ADF8D6
:103CF000040018208DF8070003208DF8060001A9A4
:103D0000F548FDF7B5FBADF81C50ADF818400020A4
:103D1000ADF81E00ADF81A0006A94FF08040FEF77E
:103D200021F902A8FEF753FC6020ADF8080001203D
:103D3000ADF80A006420ADF80E000020ADF81000C8
:103D400002A94FF08040FEF74AF90821C806FEF7A5
:103D500095FD01218807FEF761FD01218807FEF727
:103D600069FC01218807FEF759FC09B030BD30B568
:103D700089B005460C4601210420FDF742FE0121D1
:103D80000820FDF731FE4020ADF8040018208DF822
:103D9000070003208DF8060001A9D048FDF768FB55
:103DA000ADF81C50ADF818400020ADF81E00ADF87D
:103DB0001A0006A9CA48FEF7D5F802A8FEF707FCC4
:103DC0006020ADF808000120ADF80A006420ADF8CD
:103DD0000E000020ADF8100002A9C148FEF7FFF860
:103DE0000821BF48FEF74AFD0121BD48FEF716FD38
:103DF0000121BB48FEF712FC09B030BD704730B559
:103E000089B005460C46012142F21000FDF7ECFD99
:103E10004020ADF8040018208DF8070003208DF82D
:103E2000060001A9AF48FDF723FBADF81C50ADF823
:103E300018400020ADF81E00ADF81A0006A9AA48E7
:103E4000FEF790F802A8FEF7C2FB6020ADF808006C
:103E50000120ADF80A006420ADF80E000020ADF896
:103E6000100002A9A048FEF7BAF808219E48FEF704
:103E700005FD01219C48FEF7D1FC01219A48FEF77F
:103E8000D9FB01219848FEF7C9FB09B030BD30B518
:103E900089B005460C4601210220FDF7B2FD012143
:103EA0000920FDF7A1FD0220ADF8200018208DF8B3
:103EB000230003208DF8220008A98848FDF7D8FACE
:103EC000ADF81850ADF814400020ADF81A00ADF868
:103ED000160005A98548FEF745F86020ADF80400F6
:103EE0000120ADF806000020ADF80C0001A97F48C4
:103EF000FEF74FF908217D48FEF7DFFC01217B48E2
:103F0000FEF78CFB09B030BD30B589B005460C46D4
:103F1000012140F60400FDF767FD4FF48070ADF815
:103F2000040018208DF8070003208DF8060001A971
:103F30006948FDF79DFAADF81C50ADF81840002017
:103F4000ADF81E00ADF81A0006A96948FEF70AF898
:103F500002A8FEF73CFB6020ADF808000120ADF898
:103F60000A000020ADF8100002A96148FEF737F8FA
:103F700008215F48FEF782FC01215D48FEF74EFCF8
:103F800001215B48FEF756FB01215948FEF746FB2D
:103F900009B030BD2DE9F04103460D46164600211B
:103FA000DFF850C19CFBF6F4002710E0B4F5803F29
:103FB00008D301F1010C1FFA8CF101F1010CB4FBE3
:103FC000FCF400E005E007F1010C1FFA8CF7642F08
:103FD000ECDB00BFA0B24FF0640C95FBFCFC0CFBCB
:103FE00000FC4FF064089CFBF8FC1FFA8CF2062BD7
:103FF0006DD2DFE803F0031622354859A0F1010C19
:10400000DFF8EC8008F12C08A8F800C0A8F1040C37
:10401000ACF80010DFF8D8C00CF1340CACF800207C
:1040200056E0A0F1010C4FF08048A8F82CC0C4461F
:10403000ACF82810ACF834204AE0A0F1010CDFF80D
:10404000AC8008F12C08A8F800C0A8F1040CACF86A
:104050000010DFF898C00CF1400CACF8002037E0FD
:10406000A0F1010CDFF8788008F12C08A8F800C056
:10407000A8F1040CACF80010DFF864C00CF1340CAB
:10408000ACF8002024E0A0F1010CDFF86C80A8F867
:1040900000C0A8F1040CACF80010DFF85CC00CF113
:1040A0000C0CACF8002013E0A0F1010CDFF8388014
:1040B00008F12C08A8F800C0A8F1040CACF8001016
:1040C000DFF824C00CF1380CACF8002000E000BF91
:1040D00000BFBDE8F081000000080140000C014075
:1040E000000800400010014000340140000400407E
:1040F000002C014000A24A042C0C004000B587B0FF
:1041000001214FF40770FDF76FFC4FF40040FDF7FD
:10411000CFFBFC20ADF8040000208DF8070001A9BA
:104120003A48FDF7A5F90120ADF8040000208DF80C
:10413000070001A93648FDF79BF93F20ADF80400C0
:1041400000208DF8070001A93248FDF791F93248A7
:10415000FCF7FEFA002002908DF80C008DF80D009F
:104160004FF4602004900020059001208DF8180085
:1041700002A92948FCF713FB01212748FCF73BFB68
:104180002548FCF75AFB00BF2348FCF75BFB0028DF
:10419000FAD12148FCF760FB00BF1F48FCF761FB28
:1041A0000028FAD107B000BD10B50446072301224C
:1041B00021461948FCF78BFB01211748FCF75BFBF4
:1041C00000BF02211448FCF7C7FC0028F9D01248B0
:1041D000FCF7E4FB10BD2DE9F04107460C46002535
:1041E000002608E03846FFF7DFFF05440520FFF70B
:1041F00053FD701CC6B2A642F4DBB5FBF4F080B2EE
:10420000BDE8F08110B5FFF779FF10BD000801404F
:10421000000C01400010014000240140014600BF95
:10422000704700BF674A128802F04002002AF9D0A6
:10423000C2B2644B1B1D1A80704710B592B0044681
:10424000012144F20400FDF7CFFB01210846FDF7F0
:10425000BEFB01214804FDF7D4FB5A48FEF7BCFC25
:104260004FF40070ADF8440003208DF8460018208C
:104270008DF8470011A95448FDF7FAF84FF4806013
:10428000ADF8440004208DF8470011A94E48FDF711
:10429000EFF825208DF8300003208DF831008DF8DF
:1042A000320001208DF833000CA8FCF7E8F90D94DA
:1042B0000020ADF83800ADF83A00ADF83C00ADF89C
:1042C00040000C20ADF83E000DA93E48FEF7C7FCAB
:1042D000012240F224413B48FEF759FD01224021D2
:1042E0003848FEF779FD01213648FEF744FD37488E
:1042F000FCF756FC3348001D019035480290002021
:104300000390C82004900020059080200690002093
:104310000790089009904FF480500A9000200B906D
:1043200001A92A48FCF7DEFC01212848FCF705FD1D
:1043300012B010BD10B5044600212046FCF7FDFC6C
:10434000C8212046FCF70EFD01212046FCF7F5FCB4
:1043500010BD70B505460E4600240CE000BF40219C
:104360001848FEF7E3FD0028F9D0295D1548FEF74F
:104370006FFD601CC4B2B442F0DB00BF40211148A5
:10438000FEF7D4FD0028F9D070BD10B540F22441ED
:104390000C48FEF7E1FDA0B10A48FEF75DFD0B48B1
:1043A000FCF7E2FCC0F1C8000A49088001200A4974
:1043B000087040F224410348FEF7F8FD0348FFF778
:1043C000B9FF10BD0038014000080140580002400C
:1043D000DA0000203000002032000020024600BF3A
:1043E000108900F002000028FAD0918100BF1089E6
:1043F00000F001000028FAD09089C0B2704700B5E3
:1044000087B001210420FDF7EFFA01210820FDF714
:10441000EBFA01210846FDF7E7FA01210803FDF751
:10442000E3FA00217E48FDF70EFC01210846FDF766
:10443000F0F801217B48FDF7ECF83820ADF81800C2
:1044400003208DF81A0018208DF81B0006A9764865
:10445000FDF70EF84FF40040ADF8180003208DF87A
:104460001A0010208DF81B0006A97048FDF700F80F
:104470004FF400416D48FDF7AAF84FF48050ADF8B5
:10448000180003208DF81A0010208DF81B0006A9D3
:104490006648FCF7EDFF4FF480516448FDF797F84C
:1044A0004FF40060ADF8180003208DF81A001020BA
:1044B0008DF81B0006A95D48FCF7DAFF4FF4006198
:1044C0005A48FDF784F828215748FDF77EF8002068
:1044D000ADF804004FF48270ADF806000020ADF88E
:1044E00008000220ADF80A000120ADF80C004002DF
:1044F000ADF80E000020ADF81000ADF81200072056
:10450000ADF8140001A94648FDF7F8FA0121444826
:10451000FDF799FBFF214248FFF760FF07B000BDA0
:1045200070B50546002405E0601CC4B2C82C01DD4E
:10453000002070BD02213E48FDF709FC0028F3D0A1
:1045400029463B48FDF7B0FB002405E0601CC4B2DF
:10455000C82C01DD0020ECE701213548FDF7F7FB11
:104560000028F3D03248FDF7A1FBC0B2E1E700B567
:1045700087B001210820FDF737FA01218803FDF7F4
:1045800040FA4FF46040ADF8180018208DF81B0079
:1045900003208DF81A0006A92348FCF769FF4FF4A1
:1045A00060412148FDF711F80020ADF804004FF4F8
:1045B0008270ADF806000020ADF808000220ADF8CA
:1045C0000A000120ADF80C004002ADF80E001820E2
:1045D000ADF810000020ADF812000720ADF814006F
:1045E00001A91348FDF78AFA01211148FDF72BFBB9
:1045F000FF20FFF795FF07B000BD10B504460C483B
:1046000000884FF6C77108400949088008460088AD
:104610002043088001210648FDF715FB10BD00006E
:104620000030014000023000000C01400008014051
:104630000038004010B50420FCF76BF810BD10B531
:10464000FDF764F84FF48030FDF780F8FDF7BDF812
:104650000446012C24D10020FDF7FDF80020FDF7D1
:104660000CF9A002FDF700F90220FCF7C3FB1020B3
:10467000FCF7D4FB4FF4E0112004FDF7CFF8012044
:10468000FDF7D8F800BF3920FDF783F80028FAD0ED
:104690000220FDF7D2F800BFFDF7D8F80828FBD1BB
:1046A00001218920FDF7A0F901210846FDF78FF9C6
:1046B00001210420FDF798F910BD10B5FFF7BFFFE9
:1046C000FFF7B8FF10BD08B5012140F27110FDF7EA
:1046D0008BF94FF40050ADF8000010208DF8030066
:1046E00003208DF8020069465348FCF7C1FE4FF4E1
:1046F0008040ADF8000010208DF8030003208DF8F5
:10470000020069464D48FCF7B3FE4FF40050ADF887
:10471000000010208DF8030003208DF80200694688
:104720004748FCF7A5FE0120ADF8000048208DF8B1
:10473000030002208DF8020069464248FCF798FE0B
:104740000F20ADF8000000208DF8030069463E48B8
:10475000FCF78EFE08BD00B585B001214802FDF7CB
:1047600043F94FF40040FDF7A3F8002000908DF8C6
:1047700004008DF805004FF46020029000200390A3
:1047800001208DF8100069463048FCF708F8002138
:104790002E48FCF73BF801212C48FCF72CF82B485D
:1047A000FCF74BF800BF2948FCF74CF80028FAD179
:1047B0002648FCF751F800BF2448FCF752F80028BF
:1047C000FAD105B000BD00B58BB001210846FDF758
:1047D000FEF81F48FCF7E4F91C484C3000901D48D7
:1047E0000190002002900620039000200490802079
:1047F000059040000690800007902020089000025D
:10480000099000200A9069461148FCF76BFA0121D3
:104810000F48FCF792FA0BB000BD10B50B48FCF73F
:10482000BDF80D4908600B4800880C49086009482C
:104830004088486010BD0000001001400020014089
:10484000001401400018014000080140002401400C
:104850000800024044000020380000203C000020F6
:1048600000F1080141604FF0FF31816000F1080163
:10487000C160016100210160704700210161704742
:10488000426853684B6043688B605368996051601D
:104890004160086103685B1C0360704710B5024605
:1048A0000B685C1C0CB9106907E002F1080000E01D
:1048B0004068446824689C42FAD944684C604C685B
:1048C000A160886041600A611468641C146010BDB6
:1048D000D0E901329A60D0E901235A6001694A683F
:1048E000824201D182684A60002202610A68521E37
:1048F0000A60704710B5002407E004EB8401F94A10
:1049000002EB8100FFF7ACFF641C052CF5D3F648E1
:10491000FFF7A6FFF548FFF7A3FFF548FFF7A0FF55
:10492000F448FFF79DFFF448FFF79AFFEE48F3497C
:104930000860EE48F249086010BD2DE9F0410446D8
:104940000E4615469846069F1022314604F1340063
:1049500000F099FD002143200155052D00D30425C9
:10496000E562201DFFF789FF04F11800FFF785FFBE
:104970002461C5F10500A0616462BDE8F08170B5F5
:1049800005460E46442000F08FFC044694B11EB943
:10499000A80000F089FC00E030462063206B20B9BD
:1049A000204600F0E2FC002404E0A900A522206BD0
:1049B00000F061FD204670BD2DE9FF4F81B08046BB
:1049C00015469946DDE90E7A28461099FFF7D7FF7C
:1049D0000446002C56D0681E216B01EB800B2BF097
:1049E000070B00953A462046119B0299FFF7A5FF59
:1049F0004A464146584600F0E3FC2060BAF1000FF9
:104A000001D0CAF8004000F00BFDBE480068401C11
:104A1000BC490860BC48006840B9BB48046008460F
:104A2000006801280CD1FFF765FF09E0B74800686E
:104A300030B9B5480068C06AB84201D8B2480460CD
:104A4000B349E06A0968884202D9B149E06A08605E
:104A5000B0480068401CAF490860AF49E06A096887
:104A6000884202D9AC49E06A0860E16A01EB810141
:104A70009C4A02EB8100211DFFF702FF012600F096
:104A8000D8FC01E04FF0FF36012E09D19F480068A5
:104A900030B19D480068C06AB84201D200F0BAFC4B
:104AA000304605B0BDE8F08F70B5044600F0B8FCA4
:104AB00095480068844200D1002414B992480068E7
:104AC00000E020460546281DFFF702FFA86A18B13E
:104AD00005F11800FFF7FCFE291D8648FFF7D0FE00
:104AE0008E480068401C8D4908608A480068401C58
:104AF0008849086000F09DFC8448006810B10CB93A
:104B000000F088FC70BD70B585480068002866D14B
:104B100084480068401C834908600846006808BB58
:104B20007649086876490968744A116074490860D2
:104B30007D490968491C7C4A116070490968096807
:104B400009B9012100E0002121B14FF0FF31774A7E
:104B5000116006E069490968C968CC68734A6168F0
:104B6000116000BF6F48006870490968884235D3FA
:104B700000BF62480068006808B9012000E000201A
:104B800020B14FF0FF306949086026E05B480068BB
:104B9000C068C468656863480068A84202D2634878
:104BA00005601AE0201DFFF793FEA06A18B104F11A
:104BB0001800FFF78DFE5849E06A0968884202D95B
:104BC0005549E06A0860E16A01EB8101454A02EB60
:104BD0008100211DFFF754FECBE700BF04E05448DD
:104BE0000068401C5249086070BD70B5002500F097
:104BF00017FC4B480068401E494908600846006899
:104C000000284CD13F480068002848D0002621E009
:104C10003748C068C46804F11800FFF759FE201D2A
:104C2000FFF756FE3C49E06A0968884202D93A49D2
:104C3000E06A0860E16A01EB81012A4A02EB810027
:104C4000211DFFF71DFE3049E06A0968C96A8842E4
:104C500000D301262648006808B9012000E00020A2
:104C60000028D5D03248006860B106E0FFF74BFF5E
:104C70002F480068401E2E4908602D480068002813
:104C8000F4D10126012E03D02A480068012805D15D
:104C9000012500202749086000F0BCFB00BF00F0A0
:104CA000C8FB284670BD10B504461748006844602C
:104CB0001C480068844207D213480168091D104847
:104CC0000068FFF7EBFD0CE00F480168091D0B4879
:104CD0000068FFF7E3FD15480068844201D21348DD
:104CE000046010BDA4010020080200201C02002066
:104CF000300200204402002058020020540000200E
:104D000058000020600000205000002070000020AB
:104D100068000020840000206C0000205C0000205F
:104D20007400002064000020800000208800002023
:104D3000780000207C000020F8480068401CF749FB
:104D4000086070472DE9F04104460F464FF0000817
:104D5000FFF7F2FF2068C519F14920680968884209
:104D600009D92068A8420FD9ED48006885420BD9BF
:104D70004FF0010808E02068A84203D8E84800681E
:104D8000854201D94FF001082560B8F1000F07D026
:104D9000E4480068001DFFF79BFD2846FFF783FFEE
:104DA000FFF723FF06460EB900F034FBBDE8F081A3
:104DB00070B5044600267CB1FFF7BEFFD8480068F6
:104DC0000519D8480068001DFFF782FD2846FFF747
:104DD0006AFFFFF70AFF06460EB900F01BFB70BD25
:104DE00070B5044600F01CFB14B9CE48006800E022
:104DF00020460646F56A00F01CFB284670BD2DE9EA
:104E0000F04106460D464FF00008052D00D304255D
:104E100000F006FBC3480068864200D1002616B9A0
:104E2000C048006800E030460446E76AAF422DD033
:104E3000BD4203D92EB14FF0010802E00EB94FF088
:104E40000108E562C5F10500A06107EB8701B64ADC
:104E500002EB81016069884213D1201DFFF738FD04
:104E6000B249E06A0968884202D9B049E06A08603C
:104E7000E16A01EB8101AC4A02EB8100211DFFF7E1
:104E8000FFFCB8F1010F01D100F0C4FA00F0D1FA33
:104E9000BDE8F081A148006818B10120A44908606C
:104EA00025E004E0A1480068401EA04908609F4832
:104EB000006800EB80009C4951F820000028F1D0E8
:104EC0009A49096801EB8101974A02EB8100416828
:104ED0004968416000F1080142688A4202D1416894
:104EE000496841604168C9688E4A116000BF7047D7
:104EF00070B5044600F094FA8A480068844200D1F4
:104F0000002414B98748006800E020460546281DA3
:104F1000FFF7DEFCA86A18B105F11800FFF7D8FC0E
:104F2000291D8448FFF7ACFC00F083FA7CB9824865
:104F3000006810B100F06EFA09E0804800680128AE
:104F400003D100207749086001E0FFF7A3FF70BD9F
:104F500010B5014600200A46764C5369A34201D1A0
:104F6000012300E0002383B1754C936AA34201D171
:104F7000012300E00023012B07D0936A0BB9012322
:104F800000E00023012B00D1012010BD70B50546C3
:104F90002C4644B363480068844224D000F040FAB1
:104FA0002046FFF7D5FF01281BD1201DFFF790FCFD
:104FB0005E49E06A0968884202D95C49E06A086093
:104FC000E16A01EB8101584A02EB8100211DFFF7E4
:104FD00057FC5449E06A0968C96A884201D300F065
:104FE00019FA00F026FA70BD70B5054600262C4669
:104FF0002046FFF7ADFF012826D148480068F0B9E8
:105000004849E06A0968C96A884201D3012000E082
:1050100000200646201DFFF75BFC4449E06A096852
:10502000884202D94149E06A0860E16A01EB8101E6
:105030003D4A02EB8100211DFFF722FC04E004F150
:1050400018013F48FFF71CFC304670BD10B5044600
:10505000206B00F08AF9204600F087F910BD70B58A
:105060003848006818B3FFF767FE3748006808B98A
:10507000012000E000200546FFF7B7FDBDB900F0B4
:10508000CFF93148C068C468201DFFF721FC2B48C8
:105090000068401E294908602A480068401E2949C6
:1050A000086000F0C6F92046FFF7D0FF00BF70BDD2
:1050B00000BFFFF7D4FF1C4800680128F9D900F0B1
:1050C000A9F9F6E71FB50020009001900290034671
:1050D00080221EA103901F48FFF76EFC0446012C9E
:1050E00009D1FBF7ABF801201349086000200C49F7
:1050F000086000F079F91FBD10B5FBF79FF800209C
:105100000D49086000F085F910BD10B500F088F970
:105110000348046800F08DF9204610BD740000209B
:105120006400002050000020A40100206C0000203A
:105130007C00002058020020700000206000002049
:10514000300200205C0000204402002049444C450D
:1051500000000000B150000870B50025FBF76EF8A4
:1051600047480468FBF771F8204670BD4548006861
:10517000704770B506460C46434801681831304602
:10518000FFF78CFB40480068001DFFF7A1FB601C87
:1051900030B93D480168091D3C48FFF771FB05E047
:1051A0003748006805192846FFF77DFD70BD70B5CA
:1051B0000646F068C46804F11800FFF789FB34481C
:1051C0000068A0B9201DFFF783FB3249E06A096837
:1051D000884202D92F49E06A0860E16A01EB810147
:1051E0002D4A02EB8100211DFFF74AFB04E004F188
:1051F00018012A48FFF744FB2349E06A0968C96A95
:10520000884201D3012500E00025284670BD2449CD
:10521000096801601A4909684160704770B5044621
:105220000D4600F0FDF82868401C08B900261FE074
:105230001B4920680968884206D0114960680968DE
:10524000884201D8012613E00D4960680968081AF0
:10525000296888420BD22868094A61681268511A85
:10526000401A28602046FFF7D2FF002600E0012602
:1052700000F0DFF8304670BD01200A490860704731
:105280006400002060000020500000205802002030
:10529000740000206C000020A401002030020020D7
:1052A000800000207C0000202DE9F04104464FF0F2
:1052B0000008FFF741FD3D48006898B93C493D4A68
:1052C0001160002151604FF488413B4A5160002138
:1052D000116037484FF48841416011460160012058
:1052E0003249086044B1103404F0070020B104F0E2
:1052F0000700C0F108000444002C31D0B4F5884FF9
:105300002ED22C4F3846056801E02F462D6868687C
:10531000A04202D228680028F7D1274885421FD032
:10532000386800F11008286838606868001B202879
:1053300010D92E196868001B70606C6071681D4878
:1053400000E00068026852688A42FAD3026832605C
:10535000066000BF194968680968081A174908609B
:10536000FFF743FC4046BDE8F08170B50646354680
:10537000B6B1103D2C46FFF7DFFC61680D4800E038
:105380000068026852688A42FAD3026822600460A8
:105390000A4960680968084408490860FFF725FC65
:1053A00070BD06480068704770470000A0000020EC
:1053B000700200208C000020940000209C0000203F
:1053C000001F4FF080730360001F0160001F002367
:1053D0000360143802602038704723484FF0E02102
:1053E000486107200861704710B52048006840F404
:1053F0007F001E4908600846006840F07F40086052
:10540000FFF7EBFF00201A490860FAF7EFFE0020D3
:1054100010BD70474FF0805014491C390860704728
:1054200010B5FAF70BFF12480068401C10490860DD
:1054300010BD10B50E480068401E0D4908600846B2
:10544000006808B9FAF701FF10BD10B54FF08050A1
:1054500006491C3908600024FAF7F0FEFFF753FBF9
:10546000FAF7F3FE10BD00007FFC0A0020ED00E01B
:10547000A4000020704702F0FF0343EA032242EA3F
:10548000024200F031B810B5044610F0030F08BF17
:1054900011F0030F40F015804FF0013E121FC0F2D3
:1054A0000E8051F8043BA3EB0E0C2CEA030C1CEA13
:1054B000CE1C08BF40F8043BF0D0A1F1040102F17A
:1054C0000402521E08DB11F8013B002B00F8013BDF
:1054D000F7D1114600F006F8204610BD704770471E
:1054E000704770474FF000020429C0F0128010F09E
:1054F000030C00F01B80CCF1040CBCF1020F18BFB0
:1055000000F8012BA8BF20F8022BA1EB0C0100F042
:105510000DB85FEAC17C24BF00F8012B00F8012B15
:1055200048BF00F8012B70474FF0000200B513464A
:1055300094469646203922BFA0E80C50A0E80C50B3
:10554000B1F12001BFF4F7AF090728BFA0E80C5064
:1055500048BF0CC05DF804EB890028BF40F8042B5D
:1055600008BF704748BF20F8022B11F0804F18BFCA
:1055700000F8012B7047754600F02CF8AE46050088
:105580006946534620F00700854618B020B5FDF760
:1055900025FEBDE820404FF000064FF000074FF019
:1055A00000084FF0000B21F00701AC46ACE8C00941
:1055B000ACE8C009ACE8C009ACE8C0098D4670474A
:1055C00010B50446AFF300802046BDE81040FAF75E
:1055D000F6BD000000487047704600200000000043
:1055E000000000000040000030C00100E0E00100C9
:1055F000C0E10000C061001880F1FF3F007000189A
:10560000003E001804DA01181CEE0118386F60180B
:1056100078F7FF1870318618B01906188009061837
:1056200080058619C0FEFF1BC000061AC030661830
:10563000E070E6197C30E6187030E6186030E61845
:1056400070F8FF1C7030E01C7000001C7000F01F30
:105650007000800F00000007000000000000000044
:105660000000000000008000000EC00100FEFF03EB
:10567000000EC001000EC001000EC00100FEFF01BF
:10568000000EC001000EC001000EC00100FEFF01AF
:10569000000EC001000640000000000030700C1831
:1056A000F0FFFC3F70700C1870700C1870700C18C4
:1056B00070700C18F07FFC1F70700C1870700C1854
:1056C00070700C1870700C1870700C18F07FFC1F44
:1056D00070700C18100004000000000000000000B2
:1056E000000000000000300000007000001C70008E
:1056F000FC1F7000008C7100208C7700E08C73041C
:10570000F08E731E708EF31F708EFB0C708E7F0CEC
:1057100070FE730C3086730C3086730C3096730CED
:10572000F8BF730C38F8730C00B8730C00B8F30FA3
:1057300000BE7306E09B73307E9873301C98133064
:10574000089C0330009C0330008C0378E00FFF7F3F
:1057500080070000000300000000000080008000BF
:105760008000FC1F40004000FF7F20001000F00F71
:10577000000800046002800100020004000104022D
:105780000800E83F0102020202020802C83F0402C8
:105790000702040204020402F47F00000000F80F74
:1057A00008080808F80F08080808F80F2002222245
:1057B00024222812280A2002FF7F00000000FC1F7C
:1057C0000000000000000000FF7F800080008808CB
:1057D0008810842082408140A0004000400080006A
:1057E0008000FF7F200020002000E00F200820081C
:1057F0002008100810080808040502028000FE3F77
:1058000002202000FF7F10047802C0033C1C8000AF
:10581000FF7FA00290048C1883608000FFFFFFFFD1
:10582000FFFFFFFFFFFFFFFFFFFFFFFFFFFFFFFF88
:10583000FFFFFFFFFFFFFFFFBEF77DEFBAD6B6B554
:10584000F39CB294B39CB29434A5F7BDFBDE7DEF1C
:10585000FFFFFFFFFFFFFFFFFFFFFFFFFFFFFFFF58
:10586000FFFFFFFFFFFFFFFFFFFFFFFFFFFFFFFF48
:10587000FFFFFFFFFFFFFFFFFFFFFFFFFFFFFFFF38
:10588000FFFFFFFFBEF7FBDEF39CCB5AC7390421B5
:10589000821042104210410883184529C7390C6311
:1058A00075AD3CE7BEF7FFFFFFFFFFFFFFFFFFFF08
:1058B000FFFFFFFFFFFFFFFFFFFFFFFFFFFFFFFFF8
:1058C000FFFFFFFFFFFFFFFFFFFFFFFFFFFFFFFFE8
:1058D000FFFF3CE7B2940842C31882100421452917
:1058E000863186318631863145290421821041086E
:1058F000C3180842F39C3CE7FFFFFFFFFFFFFFFFD9
:10590000FFFFFFFFFFFFFFFFFFFFFFFFFFFFFFFFA7
:10591000FFFFFFFFFFFFFFFFFFFFFFFFFFFFFFFF97
:10592000FBDE0C63C318C3184529C7390842084277
:105930000842084208420842C739C73986318631D1
:10594000042141088210CB5ABAD6FFFFFFFFFFFFA8
:10595000FFFFFFFFFFFFFFFFFFFFFFFFFFFFFFFF57
:10596000FFFFFFFFFFFFFFFFFFFFFFFFFFFFFBDE6C
:10597000CB5A82104529C73908420842094A494A88
:10598000494A494A494A494A0842C739C739C73981
:105990008631452983180000C84138C6FFFFFFFF44
:1059A000FFFFFFFFFFFFFFFFFFFFFFFFFFFFFFFF07
:1059B000FFFFFFFFFFFFFFFFFFFFFFFF7DEF8E7386
:1059C00082104529C7390842094A8A523084CF7B60
:1059D0008A52494A4A52494ACB5ACF7B0C63084201
:1059E000C73986314529C3180000494ABAD6FFFF96
:1059F000FFFFFFFFFFFFFFFFFFFFFFFFFFFFFFFFB7
:105A0000FFFFFFFFFFFFFFFFFFFFFFFFF39CC31838
:105A10000421C7390842494A494A72947DEF7DEF13
:105A2000B2944A52494A8A5275ADBEF7BAD64D6B06
:105A3000C739C73986314529C3184108CF7B7CE770
:105A4000FFFFFFFFFFFFFFFFFFFFFFFFFFFFFFFF66
:105A5000FFFFFFFFFFFFFFFFFFFFBAD608428210E4
:105A6000C7390842494A494A8E73FBDEFFFFBEF739
:105A7000BAD68E73084230843CE77DEFFFFFB6B59F
:105A8000494AC73986314529042141084529B6B517
:105A9000FFFFFFFFFFFFFFFFFFFFFFFFFFFFFFFF16
:105AA000FFFFFFFFFFFFFFFFBEF7718C4108452995
:105AB0000842494A494A4A52B294BEF7BEF7B294E4
:105AC000CF7BCF7B494AB6B5F39C0C6338C6BAD6B8
:105AD0000C638739C73986314529C318410830849A
