:020000040800F2
:1000000088070020012B00082D0500082F05000897
:1000100033050008370500083B0500080000000014
:100020000000000000000000000000003F05000884
:1000300041050008000000004305000845050008D0
:100040001B2B00081B2B00081B2B00081B2B000878
:100050001B2B00081B2B00081B2B00081B2B000868
:100060001B2B00081B2B00081B2B00081B2B000858
:100070001B2B00081B2B00081B2B00081B2B000848
:100080001B2B00081B2B00081B2B00081B2B000838
:100090001B2B00081B2B00081B2B00081B2B000828
:1000A0001B2B00081B2B00081B2B00081B2B000818
:1000B0001B2B00081B2B00081B2B00081B2B000808
:1000C0001B2B00081B2B00081B2B00081B2B0008F8
:1000D0001B2B0008C33C00081B2B00081B2B00082F
:1000E0001B2B00081B2B00081B2B00081B2B0008D8
:1000F0001B2B00081B2B00081B2B00081B2B0008C8
:100100001B2B00081B2B00081B2B00081B2B0008B7
:100110001B2B00081B2B00081B2B00081B2B0008A7
:100120001B2B00081B2B00081B2B00081B2B000897
:1001300000F002F800F03AF80AA090E8000C8244BF
:100140008344AAF10107DA4501D100F02FF8AFF29C
:10015000090EBAE80F0013F0010F18BFFB1A43F0A5
:10016000010318479C570000BC570000103A24BFF9
:1001700078C878C1FAD8520724BF30C830C144BF0C
:1001800004680C607047000000230024002500264E
:10019000103A28BF78C1FBD8520728BF30C148BFEA
:1001A0000B6070471FB51FBD10B510BD03F0E3FE17
:1001B0001146FFF7F7FF00F091F803F001FF03B4D9
:1001C000FFF7F2FF03BC03F0C5FC00001CB54FF6BF
:1001D000FF7002F06AFD1F20BB490880BBA0102100
:1001E000CDE90010BA490988183988B21023C8220D
:1001F000002103F078F94FF47840B34908801CBD22
:100200001CB54FF6FF70B34908804FF47840AE49F3
:100210000880B1A00C210B46C822CDE900100021B6
:10022000042003F060F900240EE0AFA00C21CDE91A
:100230000010601C00EB400081000C23C822082045
:1002400003F051F9601CC4B2092CEEDB1CBD10B5E3
:10025000AC48007805281DD2DFE800F0030A0E1331
:1002600018004FF6FF7002F020FDFFF7C9FF11E004
:10027000002002F01AFD0DE04FF4784002F015FD69
:1002800008E04FF4FC6002F010FD03E01F2002F0D4
:100290000CFD00BF00BF10BD10B5024600230024B6
:1002A00002E01344601CC4B28C42FADBB3FBF1F0F1
:1002B00080B210BD08B50121080201F035F84FF4F5
:1002C0008040ADF8000010208DF8030003208DF869
:1002D000020069468C4800F06BFD08BDA4B0002701
:1002E00000BF00BFFFF7E6FF02F02AFC00F02BF989
:1002F0004FF4A06000F03CF94FF4E13003F039FC1A
:100300004FF47A7141F2797003F09AFA4FF4487120
:100310007E4802F0BBF84FF47A7141F2797003F035
:1003200075F94FF44871480602F0B0F84FF47A714D
:1003300041F2797003F047FA4FF44871744802F0C3
:10034000ABF84FF47A7141F2797003F0ACF94FF4E5
:10035000E161704802F09AF803F06CFB4FF4FA7018
:1003600003F036F903F0E7FC02F0B5FC4FF47840F7
:1003700055490880FFF744FFA5E04FF4FA7003F0F9
:1003800027F965480078012807D164480178644856
:1003900003F07BFC0020604908706421012003F019
:1003A000B6FB1C906421022003F0B1FB1D90642178
:1003B000032003F0ACFB1E906421042003F0A7FB94
:1003C0001F906421052003F0A2FB149064210620F5
:1003D00003F09DFB15906421072003F098FB169015
:1003E0006421082003F093FB179000243FE01CA930
:1003F00031F8241088B26421FFF74EFF494921F8F3
:10040000140014A931F8241088B26421FFF744FFC6
:10041000454921F81400434830F814000CA951F85C
:100420002410884203D0012002A9085502E00020D0
:1004300002A908553C4830F8140004A951F82410CA
:10044000884203D001200DF8040002E000200DF8DE
:100450000400344830F814000CA941F82400324854
:1004600030F8140004A941F82400601CC4B2042C24
:10047000BDDB00BF00251BE002A8405D012803D0C2
:100480001DF80500012812D1274830F81500642115
:10049000484340F6FF7190FBF1F0224B33F81520F2
:1004A000214B33F81510E8B203F010FA00BF6D1CB1
:1004B000042DE1DB002600E0761C0A2EFCDB7F1C0D
:1004C000082F00DB002758E730000020525354006B
:1004D0003C00002032000020434820465245512075
:1004E000445554590000000043483120467265715C
:1004F0003A203130323420447574793A203130302A
:10050000250000000400002000200140002C0140D4
:1005100000040040000800403600002034000020A5
:100520005E0000205200002046000020704700BFFF
:10053000FEE700BFFEE700BFFEE700BFFEE7704733
:1005400070477047704708B54FF4A06000F010F88E
:100550001D208DF8000001208DF8010000208DF88D
:10056000020001208DF80300684600F006F808BD7F
:1005700031490143314A1160704770B500210023B1
:100580000F22C47804B32D4C246804F4E064C4F54D
:10059000E064210AC1F10403CA40447804FA03F17B
:1005A0008478144021430901254C0678A15504782C
:1005B00004F01F050124AC4005786D11AD0005F174
:1005C000E025C5F8004109E0047804F01F05012486
:1005D000AC401C4D0678761145F8264070BD1A4A8D
:1005E0000A400243154B1B1F1A60704739B1134A6A
:1005F000121D12680243114B1B1D1A6006E00F4AC0
:10060000121D126882430D4B1B1D1A60704704288F
:1006100008D14FF0E021096941F004014FF0E022D8
:10062000116107E04FF0E021096921F004014FF06A
:10063000E0221161704700000000FA050CED00E0B7
:1006400000E400E080E100E080FFFF1F10B50446F9
:10065000FA48844208D10121401500F07FFE0021B4
:10066000601500F07BFE17E0F548844208D10121B7
:10067000001500F073FE0021201500F06FFE0BE066
:10068000F048844208D10121C80300F067FE002130
:100690004FF4004000F062FE10BD30B5024600206D
:1006A00000235068E84C20400D790C6844EA05248A
:1006B000204350609068E54C2040D1E902542C431F
:1006C0004D7944EA450420439060D06A20F47000DC
:1006D0000C7C641EE4B2234340EA0350D06230BD78
:1006E00000210160017141718160C16001210174CB
:1006F000704721B1826842F00102826003E08268A3
:1007000022F001028260704721B1826842F4807257
:10071000826003E0826822F480728260704710B5C4
:100720000023CBB21AB144681C43446002E0446821
:100730009C43446010BD816841F0080181607047AE
:10074000014600208A6802F008020AB1012000E098
:1007500000207047816841F00401816070470146C4
:1007600000208A6802F004020AB1012000E00020A3
:10077000704721B1826842F4A002826003E082687F
:1007800022F4A00282607047014600208A6802F4C9
:1007900080020AB1012000E00020704710B50A462F
:1007A00000210023416821F46041531E41EA433196
:1007B000416010BD21B1426842F40062426003E032
:1007C000426822F4006242607047F0B504460D466C
:1007D00000200021092D11DDE068A5F10A0606EBD5
:1007E0004607072606FA07F18843A5F10A0606EB35
:1007F000460603FA06F10843E0600CE0206905EBC9
:100800004507072606FA07F1884305EB450603FA74
:1008100006F108432061072A0FDA606B561E06EBCB
:1008200086071F2606FA07F18843561E06EB860642
:1008300005FA06F10843606322E00D2A0FDA206B07
:10084000D61F06EB86071F2606FA07F18843D61F38
:1008500006EB860605FA06F10843206310E0E06A1D
:10086000A2F10D0606EB86071F2606FA07F188435C
:10087000A2F10D0606EB860605FA06F10843E062D2
:10088000F0BD21B1826842F48012826003E0826888
:1008900022F48012826070470146C86C80B27047B3
:1008A00066484C300068704721B1426842F480626B
:1008B000426003E0426822F480624260704721B1E6
:1008C000426842F48052426003E0426822F480525F
:1008D000426070470A460021816821F4E0411143DB
:1008E0008160704721B1826842F40042826003E077
:1008F000826822F400428260704721B1826842F42B
:100900000212826003E0826822F402128260704761
:10091000014600208A6802F400120AB1012000E0BA
:1009200000207047F0B5044615460020002200263E
:10093000092911DDE068A1F10A0707EB470C072739
:1009400007FA0CF29043A1F10A0707EB470703FAF5
:1009500007F21043E0600CE0206901EB410C07272F
:1009600007FA0CF2904301EB410703FA07F2104338
:100970002061A06BC0F30156EF1C06F1010CA7EB40
:100980000C0707EB870C1F2707FA0CF29043EF1CAC
:1009900006F1010CA7EB0C0707EB870701FA07F23A
:1009A0001043A063F0BD10B50A4600210023816BFF
:1009B00021F44011531E41EA0351816310BD08B573
:1009C000002300930090009B0B440093009B1A604F
:1009D00008BD08B5024600200090009201F12800F1
:1009E000009B184400900098006880B208BD0A4639
:1009F00000214168164B1940114341607047416224
:100A0000826270470A460021416821F01F011143AC
:100A10004160704740B109490831096841F400015B
:100A2000064A0832116007E004490831096821F4D8
:100A30000001024A083211607047000000240140A2
:100A400000280140003C0140FFFEF0FFFDF7F1FFF0
:100A5000FFFD3FFF0246002013680B400BB1012051
:100A600000E000207047CA430260704770B502463C
:100A70000020002300240B125568CEB205EA0604BC
:100A800015681D4015B10CB1012000E0002070BDBB
:100A900000220A12D34303607047000001684FF63A
:100AA000FE72114001600021016041608160C160FF
:100AB0008D49884208D18C490839496841F00F01B5
:100AC000894A083A51608AE087491431884208D13E
:100AD00085490839496841F0F001834A083A516074
:100AE0007DE081492831884208D17F490839496829
:100AF00041F470617C4A083A516070E07A493C31B7
:100B0000884208D178490839496841F47041764AE9
:100B1000083A516063E074495031884208D1724903
:100B20000839496841F470216F4A083A516056E02B
:100B30006D496431884208D16B490839496841F4EC
:100B40007001694A083A516049E067497831884242
:100B500008D165490839496841F07061624A083A2C
:100B600051603CE06149884206D1011F096841F0AB
:100B70000F01021F116032E05C491431884208D134
:100B80005A49091F096841F0F001584A121F1160C3
:100B900025E056492831884208D15449091F09687F
:100BA00041F47061514A121F116018E04F493C3105
:100BB000884208D14D49091F096841F470414B4AE8
:100BC000121F11600BE049495031884207D1474953
:100BD000091F096841F47021444A121F11607047CF
:100BE00010B50022026847F6F0739A430C6A8B68CE
:100BF00023430C6923434C6923438C692343CC6909
:100C000023434C6A23438C6A23431A430260CB6814
:100C100043600B6883604B68C36010BD00210160B6
:100C200041608160C160016141618161C1610162B6
:100C300041628162704721B1026842F001020260A4
:100C400004E002684FF6FE731A40026070471AB162
:100C500003680B43036002E003688B430360704743
:100C6000416070470146486880B2704701460020E5
:100C7000002201F080531BB11C4B083B1A6802E0B4
:100C8000194B083B1A6802EA01030BB1012000E08E
:100C90000020704700F0805119B11449091F086005
:100CA00002E01149083948607047014600200022DF
:100CB00001F080531BB10D4B083B1A6802E00A4B50
:100CC000083B1A6802EA01030BB1012000E0002092
:100CD000704700F0805119B10449091F086002E013
:100CE0000149083948607047080002400804024082
:100CF00010B50446CC48844208D10121042000F0FC
:100D00002DFB0021042000F029FB46E0C748844267
:100D100008D10121082000F021FB0021082000F06B
:100D20001DFB3AE0C248844208D10121102000F0A6
:100D300015FB0021102000F011FB2EE0BD4884427D
:100D400008D10121202000F009FB0021202000F023
:100D500005FB22E0B848844208D10121402000F080
:100D6000FDFA0021402000F0F9FA16E0B348844271
:100D700008D10121802000F0F1FA0021802000F04C
:100D8000EDFA0AE0AE48844207D10121801500F057
:100D9000E5FA0021A01500F0E1FA10BD10B501211F
:100DA000084600F0DBFA0021012000F0D7FA10BD60
:100DB0002DE9F041024600250026002000230024F2
:100DC000002791F803C00CF00F0591F803C00CF058
:100DD000100CBCF1000F03D091F802C04CEA0505DD
:100DE00091F800C0BCF1000F31D0146800202BE056
:100DF0004FF0010C0CFA00F3B1F800C00CEA030646
:100E00009E4220D183004FF00F0C0CFA03F7BC4335
:100E100005FA03FC4CEA040491F803C0BCF1280F66
:100E200006D14FF0010C0CFA00FCC2F814C00AE025
:100E300091F803C0BCF1480F05D14FF0010C0CFA3A
:100E400000FCC2F810C0401C0828D1D31460B1F8CF
:100E500000C0BCF1FF0F34DD546800202EE000F12B
:100E6000080C4FF0010808FA0CF3B1F800C00CEAC6
:100E700003069E4221D183004FF00F0C0CFA03F7BA
:100E8000BC4305FA03FC4CEA040491F803C0BCF12E
:100E9000280F05D100F1080C08FA0CF8C2F81480EC
:100EA00091F803C0BCF1480F07D100F1080C4FF0D6
:100EB000010808FA0CF8C2F81080401C0828CED3AC
:100EC0005460BDE8F0814FF6FF710180022181700E
:100ED0000421C17070470246002093680B400BB19B
:100EE000012000E0002070470146886880B270470A
:100EF00002460020D3680B400BB1012000E0002027
:100F000070470146C86880B270470161704741610F
:100F100070470AB1016100E041617047C1607047EC
:100F20004FF480320A438261816182618269826901
:100F3000704702460020434B18684FF680731840F4
:100F400040EA021008433F4B186070473E49C861B1
:100F50007047F0B50A46002300240021002500F068
:100F60000046B6F1004F02D1364EF16901E0354E30
:100F70007168C0F3034583B200F44016B6F5401F14
:100F800008D121F070612F4E766826F070662D4FE3
:100F90007E6012E000F48016B6F5801F06D10326AD
:100FA00006FA05F4A14341F0706106E0460D3601F2
:100FB00003FA06F6B14341F0706122B1460D3601E5
:100FC00003FA06F6314300F00046B6F1004F02D1B5
:100FD0001C4EF16101E01B4E7160F0BD30B5002286
:100FE0008B071C0F0F2303FA04F2164B08338C10E7
:100FF00053F824309343134C08348D1044F82530B3
:1010000023468C1053F824308C07240F00FA04F484
:1010100023430C4C08348D1044F8253030BD0A4968
:10102000DC3108607047000000080140000C0140FE
:10103000001001400014014000180140001C014054
:10104000002001400000014000002042DF4800680D
:1010500040F00100DD49086008464068DC4908406E
:10106000DA49486008460068DA490840D74908600C
:101070000846006820F4802008600846406820F494
:10108000FE0048604FF41F0088607047CF49096830
:1010900021F48031CD4A11601146096821F4802184
:1010A0001160B0F5803F03D0B0F5802F0ED106E07F
:1010B000C649096841F48031C44A116007E0C34958
:1010C000096841F4A021C14A116000E000BF00BFDF
:1010D000704710B501460022002300204A11012A62
:1010E00002D1BA4C236806E0022A02D1B74C236A27
:1010F00001E0B64C636A01F01F02012494401C40D9
:101100000CB1012000E0002010BD38B50020009097
:101110000024002500BF3120FFF7DBFF05460098C3
:10112000401C00900098B0F5A06F01D0002DF2D0C7
:101130003120FFF7CEFF08B1012400E00024204653
:1011400038BD01460020A14A106820F0F80040EAAE
:10115000C10010607047A049086070470246002037
:101160009A4B586820F47C1042EA01031843974BCD
:101170005860704798490866704701460020934AB6
:10118000506820F003000843506070478F48406863
:1011900000F00C007047014600208C4A506820F097
:1011A000F00008435060704701460020874A5068AD
:1011B00020F4E06008435060704701460020834AF5
:1011C000506820F4605040EAC1005060704729B177
:1011D0007E4A527A02437D4B5A7204E07B4A527A2D
:1011E00082437A4B5A7270477B49D8310860704706
:1011F00001460020754A506820F440400843506082
:1012000070470021714A20321170704A82F8201014
:10121000012802D004280AD104E001216B4A2032BF
:10122000117005E00521694A2032117000E000BF0D
:1012300000BF70476949086070476449096A014303
:10124000624A11627047654944390860704730B599
:1012500000210022002400235C4D6D6805F00C0184
:1012600021B1042905D0082923D105E05C4D056092
:1012700022E05B4D05601FE0544D6D6805F470126F
:10128000524D6D6805F48034022505EB92421CB97D
:10129000544D554305600BE04C4D6D6805F4003529
:1012A0001DB1504D5543056002E04D4D554305605D
:1012B00002E04B4D056000BF00BF444D6D6805F076
:1012C000F0010909484D6B5C0568DD4045603F4D04
:1012D0006D6805F4E061090A434D6B5C4568DD40CB
:1012E00085603A4D6D6805F46051C90A3E4D6B5CEE
:1012F0004568DD40C560354D6D6805F44041890B9A
:101300003A4D6B5CC568B5FBF3F5056130BD29B19D
:101310002E4A526902432D4B5A6104E02B4A52690E
:1013200082432A4B5A61704729B1284A9269024385
:10133000264B9A6104E0254A92698243234B9A61C5
:10134000704729B1214AD2690243204BDA6104E097
:101350001E4AD26982431D4BDA61704729B11B4A8C
:10136000D2680243194BDA6004E0184AD26882431B
:10137000164BDA60704729B1144A12690243134BC5
:101380001A6104E0114A12698243104B1A617047D6
:1013900012494039086070470F49C86470470B49CB
:1013A000C87170470948406A40F080700749486238
:1013B000704701460020054A92680A400AB10120A0
:1013C00000E0002070470149887270470010024019
:1013D0000000FFF8FFFFF6FE000042428004424298
:1013E00000127A0000093D000500002015000020D1
:1013F00010B50446BE48844208D101218014FFF78D
:10140000ADFF0021A014FFF7A9FF16E0B948844200
:1014100008D101210014FFF7AEFF00212014FFF7CF
:10142000AAFF0AE0B448844207D10121C013FFF7A4
:10143000A2FF0021E013FFF79EFF10BD10B50022B0
:10144000028802F441520B884C8823438C88234342
:10145000CC8823430C8923434C8923438C89234321
:10146000CC8923431A430280838B4FF2FF742340BD
:1014700083830B8A038210BD2DE9F04F85B00546AA
:101480000C464FF0000902274FF000084FF0010B07
:101490000026B246A88B4FF240010840A8830220E4
:1014A0002884B5F81C90A068022801D100BF38E05C
:1014B000A08810B94FF0010B01E04FF0020B8D48EE
:1014C000854200D100E000BF6846FFF7C0FEDDF8AE
:1014D00000A0E088B0F5007F0AD14FEA1A2000EBA7
:1014E00080004000A168B0FBF1F0401D86B20BE027
:1014F0004FEA4B10BAFBF0F000EB80004000A1680F
:10150000B0FBF1F0401D86B20A20B6FBF0F606F003
:101510000108A6EB0800C0F34F074FF6FF7000EA82
:101520000828022F01DBFF2F02DD02274FF0000801
:10153000E08840EA080038432884A088A18908434D
:10154000618808432188084340F4006040EA0909A3
:10155000A5F81C9005B0BDE8F08F00210180418006
:101560008180C180018141818181C1810721018206
:1015700070470021018041808180C180022181600B
:1015800000218181704721B1028842F0400202802F
:1015900004E002884FF6BF731A400280704721B101
:1015A000828B42F48062828304E0828B4FF6FF33A9
:1015B0001A408283704730B5002400230C110125A6
:1015C000A540ABB21AB185881D43858002E08588AD
:1015D0009D43858030BD1AB183880B43838002E030
:1015E00083888B4383807047818170470146888957
:1015F00070474FF6FF62914204D0028842F4807235
:10160000028004E002884FF6FF631A4002807047B0
:1016100021B1828842F00402828004E082884FF681
:10162000FB731A408280704702884FF2FF731A40A2
:10163000028002880A4302807047018841F4805189
:101640000180704721B1028842F40052028004E018
:1016500002884DF6FF731A40028070470246002050
:10166000012901D0108B00E0908A70470146088A5A
:101670007047B1F5804F04D1028842F48042028065
:1016800004E002884BF6FF731A400280704702465E
:10169000002013890B400BB1012000E000207047AF
:1016A000CA4302817047F0B502460020002400239F
:1016B000002501F00F070126BE40B4B20B11012630
:1016C0009E40B3B2968806EA03051689264016B1F5
:1016D0000DB1012000E00020F0BD10B5002201F0A6
:1016E0000F040123A3409AB2D343038110BD00002D
:1016F0000030014000380040003C004010B5044676
:10170000FE48844208D10121C014FFF727FE0021C2
:10171000E014FFF723FEC4E0B4F1804F08D10121AB
:101720000846FFF728FE00210120FFF724FEB8E05D
:10173000F348844208D101210220FFF71CFE00215A
:101740000220FFF718FEACE0EE48844208D10121E8
:101750000420FFF710FE00210420FFF70CFEA0E09C
:10176000E948844208D101210820FFF704FE002146
:101770000820FFF700FE94E0E448844208D10121EC
:101780001020FFF7F8FD00211020FFF7F4FD88E09E
:10179000DF48844208D101212020FFF7ECFD002121
:1017A0002020FFF7E8FD7CE0DA48844208D10121DF
:1017B0004014FFF7D3FD00216014FFF7CFFD70E068
:1017C000D548844209D10121C804FFF7C7FD002193
:1017D0004FF40020FFF7C2FD63E0D048844209D1F6
:1017E00001210805FFF7BAFD00214FF48010FFF733
:1017F000B5FD56E0CA48844209D101214805FFF7EA
:10180000ADFD00214FF40010FFF7A8FD49E0C548E9
:10181000844208D101214020FFF7ADFD0021402086
:10182000FFF7A9FD3DE0C048844208D10121802096
:10183000FFF7A1FD00218020FFF79DFD31E0BB48AF
:10184000844208D101218015FFF795FD0021A015E4
:10185000FFF791FD25E0B648844209D10121080433
:10186000FFF77CFD00214FF48030FFF777FD18E093
:10187000B048844209D101214804FFF76FFD0021DF
:101880004FF40030FFF76AFD0BE0AB48844208D10B
:1018900001218804FFF762FD00214FF48020FFF74B
:1018A0005DFD10BD00220288944B98420ED0994BEA
:1018B00098420BD0B0F1804F08D0914B984205D0A0
:1018C000904B984202D0904B984204D14FF68F73C0
:1018D0001A404B881A438D4B984207D08C4B984244
:1018E00004D04FF6FF431A40CB881A4302808B88FE
:1018F00083850B880385814B98420BD0854B98429A
:1019000008D08B4B984205D08A4B984202D08A4B24
:10191000984201D10B7A038601238382704770B508
:10192000002400220023058C4FF6FE763540058406
:10193000028C8388048B4FF68F752C40B51E2C408B
:101940000D882C43751E2A400D892A434D882A4351
:101950006A4DA8420BD06F4DA84208D0744DA842E2
:1019600005D0744DA84202D0734DA84213D14FF652
:10197000F7752A404D892A434FF6FB752A408D881A
:101980002A434FF6FF652B404FF6FF552B408D89BC
:101990002B43CD892B4383800483CD8885860284A5
:1019A00070BD70B5002400220023058C4FF6EF7641
:1019B00035400584028C8388048B48F6FF752C40E3
:1019C0004FF6FF452C400D884FF6FF7606EA0525B9
:1019D0002C434FF6DF752A400D8906EA05152A4388
:1019E0004D8806EA05152A43444DA84202D0494DC8
:1019F000A8421DD14FF67F752A404D894FF6FF76DC
:101A000006EA05152A434FF6BF752A408D8806EA77
:101A100005152A434FF6FF352B404FF2FF752B403B
:101A20008D8906EA85052B43CD8906EA85052B437A
:101A300083800483CD880587028470BD70B500243F
:101A400000220023058C4FF6FF6635400584028C8A
:101A50008388848B4FF68F752C404FF6FC752C4095
:101A60000D882C434FF6FF552A400D894FF6FF761F
:101A700006EA05252A434D8806EA05252A431F4D17
:101A8000A84202D0234DA8421DD14FF2FF752A4033
:101A90004D894FF6FF7606EA05252A434FF6FF35B6
:101AA0002A408D8806EA05252A434EF6FF752B400D
:101AB0004DF6FF752B408D8906EA05152B43CD8920
:101AC00006EA05152B4383808483CD8885870284AD
:101AD00070BD70B5002200230024058C4EF6FF7601
:101AE00035400584038C8488828B48F6FF752A4034
:101AF0004FF6FF452A400D8820E00000002C0140F1
:101B00000004004000080040000C004000100040AD
:101B10000014004000340140004C014000500140DE
:101B20000054014000180040001C0040002000400C
:101B30000040014000440140004801404FF6FF765C
:101B400006EA05252A434DF6FF752B400D8906EA66
:101B500005352B434D8806EA05352B43FA4DA8423F
:101B600002D0FA4DA84208D14BF6FF752C408D8962
:101B70004FF6FF7606EA85152C4384808283CD8854
:101B8000A0F84050038470BD828B4FF2FF331A409F
:101B90008283828B4FF6FF7303EA01231A43828309
:101BA0007047F0B50C461546002200210026078C30
:101BB0004EF6FF7C07EA0C070784828B018C4FF6F8
:101BC000FF7707EA043640F6FF473A404FF6FF77C3
:101BD00007EA05273A434FF6FF7707EA03373A4308
:101BE000D94FB8420ED0D94FB8420BD0B0F1804F88
:101BF00008D0D74FB84205D0D64FB84202D0D64F02
:101C0000B84206D14DF6FF77394046F48057394344
:101C100005E047F6FF57394044F480573943828343
:101C20000184F0BD828B4FF6F3731A408283828B5E
:101C30000A4382837047F0B50C4615460022002106
:101C40000026078C4FF6FF6C07EA0C070784828B8F
:101C5000018C4FF6FF7707EA04264FF60C773A40DF
:101C60004FF6FF7707EA03172F433A43B64FB842C0
:101C70000ED0B64FB8420BD0B0F1804F08D0B44F61
:101C8000B84205D0B34FB84202D0B34FB84206D1E4
:101C90004FF6FF57394046F48077394305E04FF25D
:101CA000FF57394044F48077394382830184F0BD83
:101CB000028B4FF2FF331A400283028B4FF6FF7301
:101CC00003EA01231A4302837047F0B50C46154618
:101CD000002200210026078C4FF6EF7C07EA0C0754
:101CE0000784028B018C4FF6FF7707EA041640F653
:101CF000FF473A404FF6FF7707EA03373A434FF67C
:101D0000FF7707EA05273A438F4FB8420ED08F4F2F
:101D1000B8420BD0B0F1804F08D08D4FB84205D0FB
:101D20008C4FB84202D08C4FB84206D14FF6DF77C5
:101D3000394046F01007394305E04FF65F773940E8
:101D400044F01007394302830184F0BD028B4FF643
:101D5000F3731A400283028B0A4302837047F0B583
:101D60000C46154600220021068C4FF6FE773E40B9
:101D70000684028B018C4FF60C7632407E1C06EAFC
:101D800003162E433243704EB0420ED06F4EB04217
:101D90000BD0B0F1804F08D06D4EB04205D06D4EE3
:101DA000B04202D06C4EB04206D14FF6FD763140C3
:101DB00044F00106314305E04FF6F576314044F03A
:101DC0000106314302830184F0BD70B505460C461F
:101DD0005D4885420ED05D4885420BD0B5F1804FFD
:101DE00008D05B48854205D05A48854202D05A48FF
:101DF000854200D100E000BF208850B92389A28825
:101E000061882846FFF7ABFFE1882846FFF79EFF71
:101E100025E0208804280AD12389A28861882846E1
:101E2000FFF753FFE1882846FFF742FF17E02088BD
:101E300008280AD12389A28861882846FFF7FBFE7B
:101E4000E1882846FFF7EEFE09E02389A288618831
:101E50002846FFF7A6FEE1882846FFF795FE70BDED
:101E60002DE9F04105460C4600260127608808B997
:101E7000022600E00026A088012801D1022700E008
:101E800001272088A0B92389A28861882846FFF706
:101E900066FFE1882846FFF759FF23893A46314615
:101EA0002846FFF712FFE1882846FFF701FF13E0FD
:101EB0002389A28861882846FFF707FFE188284622
:101EC000FFF7F6FE23893A4631462846FFF747FFDB
:101ED000E1882846FFF73AFFBDE8F0810A884B8881
:101EE0001A438B881A43CB881A430B891A434B89B0
:101EF0001A438B891A43A0F8442070474FF6FF71AC
:101F0000818000210180C1804180017270470021E1
:101F1000018041808180C180018141818181C181B5
:101F20007047002101804180012181800021C18012
:101F3000018170470021018041808180C180018141
:101F40004181818170470000002C01400034014034
:101F50000004004000080040000C004021B102884D
:101F600042F00102028004E002884FF6FE731A403C
:101F70000280704731B1B0F8442042F40042A0F82A
:101F8000442005E0B0F84420C2F30E02A0F844203B
:101F900070471AB183890B43838102E083898B43A5
:101FA000838170478182704741EA0203A0F848307C
:101FB00070471AB183890B43838102E083898B4385
:101FC0008381704701894FF6F87211400181704793
:101FD0000A46002101894FF68F7319401143018190
:101FE000704730B504460D4629462046FFF7F0FFFE
:101FF000208940F00700208130BD2DE9F0410446E2
:102000000D4616461F46602D06D13B46012231463D
:102010002046FFF75AFE05E03B46012231462046A6
:10202000FFF79DFE29462046FFF7D2FF208940F0AA
:1020300007002081BDE8F08130B50C460021018900
:10204000C9B24FF6FF7505EA032515432543294319
:10205000018130BD2DE9F04105460E4617469846F0
:10206000002443463A4631462846FFF7E5FF2C89CF
:102070004FF6F870044044F007044FF68F700440A8
:1020800044F070042C81BDE8F081F0B504460D46A3
:1020900016461F463B46324629462046FFF7CCFFF0
:1020A000208940F480402081F0BD01858282704704
:1020B0000A46002101884FF68F73194011430180B1
:1020C0007047F0B50C4615461E460021002200233D
:1020D0000189028B038C4FF6F877394021434FF684
:1020E000FC473A4040F201173A434FF6DD773B4058
:1020F0004FF6FF7707EA06172F433B430181028320
:102100000384F0BD0A460021018B4FF68F731940FE
:102110001143018370470A460021018B48F6FF7383
:1021200019404FF6FF7303EA0223194301837047F6
:102130000A460021818B4FF68F731940114381832A
:1021400070470A460021818B48F6FF7319404FF60D
:10215000FF7303EA022319438183704721B1028888
:1021600042F08002028004E002884FF67F731A403A
:102170000280704721B1828842F00402828004E02C
:1021800082884FF6FB731A408280704721B18288A3
:1021900042F00802828004E082884FF6F7731A400A
:1021A0008280704721B1828842F00102828004E07F
:1021B00082884FF6FE731A40828070470A460021DB
:1021C000018B4FF6F77319401143018370470A469C
:1021D0000021018B4FF2FF7319404FF6FF7303EAA2
:1021E00002231943018370470A460021818B4FF671
:1021F000F77319401143818370470A460021818B90
:102200004FF2FF7319404FF6FF7303EA022319439D
:10221000818370470A460021018B4FF6FB731940FA
:102220001143018370470A460021018B4FF6FF33AB
:1022300019404FF6FF7303EA0223194301837047E5
:102240000A460021818B4FF6FB73194011438183AD
:1022500070470A460021818B4FF6FF3319404FF635
:10226000FF7303EA02231943818370470A46002162
:10227000018B4FF67F7319401143018370470A4663
:102280000021018BC1F30E014FF6FF7303EA022315
:102290001943018370470A460021818B4FF67F73F3
:1022A00019401143818370470A460021818BC1F395
:1022B0000E014FF6FF7303EA02231943818370472F
:1022C0000A460021018C4FF6FD7319401143018429
:1022D00070470A460021018C4FF6F77319401143ED
:1022E000018470470A460021018C4FF6DF731940C4
:1022F0004FF6FF7303EA02131943018470470A463D
:102300000021018C4FF67F7319404FF6FF7303EAEB
:1023100002131943018470470A460021018C4FF6CD
:10232000FF5319404FF6FF7303EA02231943018458
:1023300070470A460021018C4FF2FF7319404FF697
:10234000FF7303EA02231943018470470A46002100
:10235000018C4DF6FF7319404FF6FF7303EA023309
:1023600019430184704730B5002301248C40A3B287
:10237000048C9C430484048C02FA01F5ADB22C4316
:10238000048430BD30B5002304248C40A3B2048CF7
:102390009C430484048C02FA01F5ADB22C430484FE
:1023A00030BD70B5034600200024184618300125C2
:1023B0008D40ACB21D8CA5431D8409B1082909D1FB
:1023C00000EB6100056825F07005056005681543A0
:1023D00005600EE00D1FC5F34E052844056825F481
:1023E000E045056005684FF6FF7606EA02263543AC
:1023F000056070BD21B1028842F00202028004E053
:1024000002884FF6FD731A400280704721B102889E
:1024100042F00402028004E002884FF6FB731A4087
:102420000280704721B1828842F08002828004E0FD
:1024300082884FF67F731A408280704702884FF679
:10244000F7731A40028002880A430280704782882C
:102450004FF68F731A40828082880A4382807047C9
:1024600002894FF6F8731A40028102890A430281F9
:10247000704702894FF67F731A40028102890A432E
:1024800002817047818470478185704781867047DB
:102490000187704781877047A0F840107047028815
:1024A0004FF6FF431A40028002880A4302807047B9
:1024B0000146888E70470146088F70470146888F15
:1024C00070470146B1F8400070470146888C70475C
:1024D0000146088D704702460020138A0B400BB15D
:1024E000012000E000207047CA430282704730B5E7
:1024F0000246002000230024158A05EA010395897D
:1025000005EA010413B10CB1012000E0002030BD48
:10251000CA4302827047000010B50446FB4884425B
:1025200009D101218803FEF719FF00214FF48040F3
:10253000FEF714FF32E0F648844209D10121480435
:10254000FEF719FF00214FF40030FEF714FF25E0DD
:10255000F048844209D101218804FEF70CFF0021D4
:102560004FF48020FEF707FF18E0EB48844209D1C2
:102570000121C804FEF7FFFE00214FF40020FEF702
:10258000FAFE0BE0E548844208D101210805FEF778
:10259000F2FE00214FF48010FEF7EDFE10BD2DE994
:1025A000F04786B005460E460024A24600BFA1466D
:1025B0000027B08900B100BF2F462C8A4CF6FF706F
:1025C0000440F08804432C82AC894EF6F31004409A
:1025D000B08831890843718908430443AC81AC8ACF
:1025E0004FF6FF400440B0890443AC8201A8FEF7D7
:1025F0002EFEC648874202D1DDF810A001E0DDF8CA
:102600000CA0A88900F4004040B10AEBCA0000EB1E
:102610000A1031684900B0FBF1F807E00AEBCA0084
:1026200000EB0A1031688900B0FBF1F86420B8FBB8
:10263000F0F004012009642101FB1089A88900F44D
:10264000004040B1322000EBC900B0FBF1F000F0D7
:102650000700044308E0322000EB09106421B0FBBE
:10266000F1F000F00F0004432C8106B0BDE8F087C4
:102670004FF41651016000218180C18001810C213D
:10268000418100218181704710B502460020108AE7
:102690004FF2FF0318400B884C8823438C88234358
:1026A000CC8823431843108210BD00210180418053
:1026B0008180C180704721B1828942F400528281B9
:1026C00004E082894DF6FF731A4082817047F0B5AD
:1026D0000346002400260025002040F66A17B94270
:1026E00000D100BF1846C1F3421401F01F060127B4
:1026F00007FA06F5012C01D10C3004E0022C01D1BF
:10270000103000E014301AB107682F43076002E070
:102710000768AF430760F0BD1AB1838A0B43838219
:1027200002E0838A8B4383827047028A4FF6F073FC
:102730001A400282028A0A430282704782894FF25B
:10274000FF731A40828182890A438281704721B1D6
:10275000828942F00202828104E082894FF6FD7391
:102760001A4082817047028A4FF6DF731A40028254
:10277000028A0A430282704721B1028A42F48042EF
:10278000028204E0028A4BF6FF731A40028270470D
:10279000C1F308028280704701468888C0F30800B0
:1027A0007047818941F0010181817047028BD2B26B
:1027B0000283028B42EA012202837047028B02F4F9
:1027C0007F420283028B0A430283704721B1828ACF
:1027D00042F02002828204E0828A4FF6DF731A40C0
:1027E0008282704721B1828A42F01002828204E024
:1027F000828A4FF6EF731A408282704721B1828A33
:1028000042F00802828204E0828A4FF6F7731A408F
:102810008282704721B1828942F40042828103E0C2
:102820008289C2F30E028281704721B1828A42F40A
:102830000062828204E0828A4FF2FF731A40828231
:102840007047828A4FF6FB731A408282828A0A435B
:102850008282704721B1828A42F00202828204E0C1
:10286000828A4FF6FD731A4082827047024600202A
:10287000B1F5007F00D100BF13880B400BB10120E0
:1028800000E00020704701F40072B2F5007F00D133
:1028900000BFCA430280704770B50246002400237F
:1028A0000025002040F66A16B14200D100BFC1F3F6
:1028B000421501F01F03012606FA03F3012D02D190
:1028C0009689334006E0022D02D1168A334001E09A
:1028D000968A33400C12012606FA04F41688344016
:1028E00013B10CB1012000E0002070BD10B5002232
:1028F000002340F66A14A14200D100BF0A1201244D
:102900009440A3B2DC43048010BD000000380140B5
:102910000044004000480040004C0040005000408F
:102920000CB50020019000906C48006840F48030A5
:102930006A49086000BF6948006800F400300090F0
:102940000198401C0190009818B90198B0F5A06F4B
:10295000F1D16248006800F4003010B1012000900D
:1029600001E0002000900098012843D15C480068F5
:1029700040F010005A4908600846006820F0030043
:1029800008600846006840F002000860534840684C
:10299000524948600846406848600846406840F42C
:1029A000806048600846406820F47C104860084613
:1029B000406840F4E81048600846006840F08070C5
:1029C000086000BF4548006800F000700028F9D09A
:1029D0004248406820F0030040494860084640688B
:1029E00040F00200486000BF3C48406800F00C0026
:1029F0000828F9D10CBD10B5FFF792FF10BD10B536
:102A00003648006840F001003449086008464068D4
:102A10003449084031494860084600683249084056
:102A20002E4908600846006820F4802008600846A7
:102A3000406820F4FE0048604FF41F008860FFF7F4
:102A4000DAFF4FF000602949086010BD10B5002181
:102A500000200022214B5B6803F00C0121B1042906
:102A600006D0082928D107E0214B224C236027E01B
:102A70001F4B204C236023E0184B5B6803F470105D
:102A8000164B5B6803F48032022303EB904022B9BB
:102A9000194B4343174C23600DE0104B5B6803F464
:102AA000003323B1144B4343124C236003E0104B1B
:102AB0004343104C236003E00D4B0E4C236000BFDA
:102AC00000BF064B5B68C3F303130C4CE15C094B7E
:102AD0001B68CB40074C236010BD00000010024073
:102AE000002002400000FFF8FFFFF6FE08ED00E0C6
:102AF00000127A001C00002000093D002000002088
:102B00000948804709480047FEE7FEE7FEE7FEE781
:102B1000FEE7FEE7FEE7FEE7FEE7FEE704480549BD
:102B2000054A064B70470000FF29000831010008E4
:102B300088010020880700208803002088030020E7
:102B400008B501216020FEF7EFFB2020ADF8000062
:102B500010208DF8030003208DF802002020ADF82E
:102B6000000069460C48FEF723F920210A48FEF7C9
:102B7000CCF901212020FEF7D7FB40F2FF10ADF881
:102B8000000003208DF8020010208DF80300694634
:102B90000248FEF70DF908BD00180140001401407D
:102BA00010B504464FF40041FD48FEF7B0F94FF46C
:102BB0008051FB48FEF7ABF9E1B2FA4801F0AAF800
:102BC0004FF40041F648FEF7A0F910BD10B50446D9
:102BD0004FF40041F248FEF79AF94FF48051F04863
:102BE000FEF793F92112EF4801F094F8E1B2ED48B5
:102BF00001F090F84FF40041E948FEF786F910BD66
:102C000010B504464FF40041E548FEF780F94FF453
:102C10008051E348FEF779F92146E24801F07AF85D
:102C20004FF40041DE48FEF770F910BD70B505465F
:102C30000C462846FFF7B4FF2046FFF7C7FF70BDDC
:102C400010B5D9498879FFF7ABFF10BD00BF011E51
:102C5000A0F10102D0B2FAD170477047704770B549
:102C600004460D46D049C879FFF79AFF2012FFF7B6
:102C7000C7FFE0B2FFF7C4FFCB49087AFFF790FF28
:102C80002812FFF7BDFFE8B2FFF7BAFF70BD70B5BD
:102C900004460D4629462046FFF7E1FFFFF7D0FF27
:102CA000C2480088FFF792FF70BD70B50646002449
:102CB000BD4805884088454300210846FFF7CFFFFF
:102CC000FFF7BEFF00BF03E03046FFF77FFF641C45
:102CD000AC42F9D370BD10B50020B5490860322070
:102CE00000F08EFC0120B349C1F88401322000F0CD
:102CF00087FC4FF40061AA48FEF709F9142000F0A0
:102D00007FFC4FF40061A648FEF7FFF8142000F0A6
:102D100077FC8020A4490880A02048802C2088715E
:102D20002A20C8712B2008721120FFF739FF782064
:102D300000F066FCB120FFF733FF0520FFF760FFCE
:102D40003C20FFF75DFF3C20FFF75AFFB220FFF762
:102D500027FF0520FFF754FF3C20FFF751FF3C20E1
:102D6000FFF74EFFB320FFF71BFF0520FFF748FFDB
:102D70003C20FFF745FF3C20FFF742FF0520FFF70F
:102D80003FFF3C20FFF73CFF3C20FFF739FFB4201A
:102D9000FFF706FF0320FFF733FFC020FFF700FF18
:102DA0002820FFF72DFF0820FFF72AFF0420FFF758
:102DB00027FFC120FFF7F4FEC020FFF721FFC2204C
:102DC000FFF7EEFE0D20FFF71BFF0020FFF718FFB7
:102DD000C320FFF7E5FE8D20FFF712FF2A20FFF743
:102DE0000FFFC420FFF7DCFE8D20FFF709FFEE2068
:102DF000FFF706FFC520FFF7D3FE1A20FFF700FFFD
:102E00003620FFF7CDFEC020FFF7FAFEE020FFF7E7
:102E1000C7FE0420FFF7F4FE2220FFF7F1FE072093
:102E2000FFF7EEFE0A20FFF7EBFE2E20FFF7E8FE8D
:102E30003020FFF7E5FE2520FFF7E2FE2A20FFF70E
:102E4000DFFE2820FFF7DCFE2620FFF7D9FE2E202C
:102E5000FFF7D6FE3A20FFF7D3FE0020FFF7D0FEA3
:102E60000120FFF7CDFE0320FFF7CAFE1320FFF776
:102E7000C7FEE120FFF794FE0420FFF7C1FE1620F5
:102E8000FFF7BEFE0620FFF7BBFE0D20FFF7B8FEE2
:102E90002D20FFF7B5FE2620FFF7B2FE2320FFF717
:102EA000AFFE2720FFF7ACFE2720FFF7A9FE252065
:102EB000FFF7A6FE2D20FFF7A3FE3B20FFF7A0FEA5
:102EC0000020FFF79DFE0120FFF79AFE0420FFF788
:102ED00097FE1320FFF794FE3A20FFF761FE0520CE
:102EE000FFF78EFE2920FFF75BFE4FF6FF70FFF71E
:102EF000DCFE10BD2DE9F05F05460E4617469846EC
:102F0000DDF828A04FF0000B781B401C1FFA80FB57
:102F1000344613E021462846FFF7A1FEFFF790FE56
:102F20004FF0000906E05046FFF750FE09F101009E
:102F30001FFA80F9D945F6DB601C84B24445E9DD0F
:102F4000BDE8F09F2DE9F84F07460D46904699469B
:102F5000DDF828B0A8EB0700401C80B20090A9EB78
:102F60000500401C1FFA80FA002415E0281981B2E0
:102F70003846FFF774FEFFF763FE002607E004FB08
:102F80000A603BF810000C490880701C86B200985B
:102F90008642F4DB601C84B25445E7DBBDE8F88F61
:102FA00000080140003001403C00002030000020BB
:102FB0008481214200802142000008602DE9FF4FFA
:102FC00085B081468A460020049003900798A0EBC4
:102FD00009050898A0EB0A06CDF80890CDF804A0E2
:102FE000002D01DD012705E00DB9002702E04FF0BB
:102FF000FF376D42002E02DD4FF0010806E016B9E2
:103000004FF0000802E04FF0FF387642B54201DD94
:103010002C4600E034464FF0000B21E0019A91B2BB
:10302000029A90B2FFF733FE049828440490039864
:10303000304403900498A04205DD0498001B0490DE
:103040000298384402900398A04205DD0398001BC3
:1030500003900198404401900BF101001FFA80FB9E
:10306000601C8345DADD09B0BDE8F08F2DE9F04141
:1030700004460D4616461F462B4632462946204634
:10308000FFF79CFF3B46224629462046FFF796FF66
:103090003B46324639462046FFF790FF3B463246D4
:1030A00029463046FFF78AFFBDE8F0812DE9F04759
:1030B00006460F469046002445460320A0EB4809EB
:1030C0003CE07A1B91B2321990B2FFF7E0FD3A1B57
:1030D00091B2721990B2FFF7DAFD3A1991B27219F2
:1030E00090B2FFF7D4FD7A1991B2321990B2FFF77E
:1030F000CEFD7A1991B2321B90B2FFF7C8FD3A1992
:1031000091B2721B90B2FFF7C2FD7A1B91B2321BD3
:1031100090B2FFF7BCFD3A1B91B2721B90B2FFF761
:10312000B6FD641CB9F1000F03DAA000801D8144D4
:1031300004E0601B80000A3081446D1EAC42C0DD9B
:10314000BDE8F0872DE9F047804689461446FE4FDA
:1031500007EB4417002629E009EB060291B21FFA9B
:1031600088F0FFF77CFDFFF76BFD4FF0000A18E0D9
:1031700000250FE038780121A940084020B1F3482C
:103180000088FFF723FD03E0F1480088FFF71EFDEC
:10319000681CC5B2082DEDDB7F1C0AF1010000F0B0
:1031A000FF0ABAF1020FE3DB701CC6B2102ED3DBAC
:1031B000BDE8F0872DE9F047804689461446E54F83
:1031C00007EBC417002629E009EB060291B21FFAAB
:1031D00088F0FFF744FDFFF733FD4FF0000A18E0D9
:1031E00000250FE038780121A940084020B1D748D8
:1031F0000088FFF7EBFC03E0D5480088FFF7E6FC0A
:10320000681CC5B2082DEDDB7F1C0AF1010000F03F
:10321000FF0ABAF1040FE3DB701CC6B2202ED3DB29
:10322000BDE8F0872DE9F84F81460D4617461E464A
:103230000095C648B0F80080A7F12000C7B20A98F0
:10324000002850D100244BE00C2E07D107EB47009B
:10325000C14901EB800010F804A004E0BF4800EB76
:10326000071010F804A04FF0000B33E00AF08000C4
:1032700018B1B648A0F8008003E0B5480088B3490B
:10328000088029464846FFF702FD4FEA4A604FEAA8
:10329000106A681C85B2B2484088A84204DCAB487A
:1032A000A0F80080BDE8F88F0098281AB0420DD130
:1032B000009D09F101001FFA80F9A94800884845DE
:1032C00003DCA248A0F80080ECE706E00BF1010067
:1032D00000F0FF0BBBF1080FC8DB00BF601CC4B2DD
:1032E000B442B1DB46E0002442E00C2E07D107EBEC
:1032F0004700994901EB800010F804A004E09748CA
:1033000000EB071010F804A04FF0000B2AE00AF0C1
:10331000800018B129464846FFF7B9FC4FEA4A60D9
:103320004FEA106A681C85B28D484088A84203DCC9
:103330008648A0F80080B5E70098281AB0420DD161
:10334000009D09F101001FFA80F985480088484571
:1033500003DC7E48A0F80080A4E706E00BF1010042
:1033600000F0FF0BBBF1080FD1DB00BF601CC4B243
:10337000B442BADB7548A0F8008000BF92E710B5F0
:103380000246012000E050430B1EA1F10104E1B20E
:10339000F9D110BD2DE9FF4F81B0074691461E4679
:1033A0000E9D4FF0000A002439E0301B401EC1B2D0
:1033B0000A20FFF7E4FFB9FBF0F00A21B0FBF1F2BD
:1033C00001FB1208BAF1000F16D1701EA04213DDE6
:1033D000B8F1000F0ED10020AB4605EBDB714910B0
:1033E00001FB0471009088B22B4620220299FFF75E
:1033F00019FF12E04FF0010A0020AB4605EBDB712C
:10340000491001FB0471009088B208F13001CAB282
:103410002B460299FFF706FF00BF601CC4B2B442FE
:10342000C3DB05B0BDE8F08F2DE9FF4F83B0064642
:1034300092461F46DDE910480020029000254DE02D
:10344000781B401EC1B20A20FFF799FFBAFBF0F0CB
:103450000A21B0FBF1F201FB1209029850BB781E61
:10346000A84227DDB9F1000F22D108F0800078B121
:1034700008F00100A34604EBDB71491001FB056174
:10348000009088B2234630220499FFF7CBFE0EE06D
:1034900008F00100A34604EBDB71491001FB056154
:1034A000009088B2234620220499FFF7BBFE13E068
:1034B0000120029008F00100A34604EBDB714910E3
:1034C00001FB0561009088B209F13001CAB22346C0
:1034D0000499FFF7A7FE00BF681CC5B2BD42AFDB71
:1034E00007B0BDE8F08F2DE9F84F04460D46904631
:1034F0009946DDE90A6704F0FF0A08EB04001FFAA9
:1035000080F809EB05001FFA80F916E0444502DB5C
:103510005446A81985B24D4500DB14E00120009007
:103520003A78334629462046FFF77CFE304606EBC4
:10353000D07104EB61018CB27F1C38787E2802DCEC
:1035400038782028E2DA0DE05C41000830000020E5
:1035500032000020DC3F00089C4E00081053000899
:103560003C00002000BFBDE8F88F2DE9F047814600
:103570000F460024002524E0781981B24846FFF761
:103580006EFBFFF75DFB4FF0000815E0012000EB3C
:1035900044000E490E5C4FF6FF7000EA062608460E
:1035A00010F8140006433046FFF710FB601C84B28D
:1035B00008F101001FFA80F8B8F1280FE6DB681C5B
:1035C00085B2282DD8DBBDE8F08700001C4200083A
:1035D000002105E0002200E0521C6E2AFCDB491CA1
:1035E0008142F7DB7047002105E0002200E0521C19
:1035F000012AFCDB491C00F10A039942F5DB704704
:1036000010B504462046FFF7E3FF10BD30B589B082
:1036100005460C4601210846FDF793FE01210520D1
:10362000FDF782FE0120ADF8040018208DF8070098
:1036300003208DF8060001A9F548FDF7B9FBADF8A8
:103640001C50ADF818400020ADF81E00ADF81A006F
:1036500006A94FF08040FEF725F902A8FEF757FCB7
:103660006020ADF808000120ADF80A006420ADF834
:103670000E000020ADF8100002A94FF08040FEF7C8
:103680004EF90821C806FEF799FD01218807FEF7CB
:1036900065FD01218807FEF76DFC01218807FEF713
:1036A0005DFC09B030BD30B589B005460C4601213E
:1036B0000420FDF746FE01210820FDF735FE4020DD
:1036C000ADF8040018208DF8070003208DF80600DF
:1036D00001A9D048FDF76CFBADF81C50ADF81840BF
:1036E0000020ADF81E00ADF81A0006A9CA48FEF782
:1036F000D9F802A8FEF70BFC6020ADF80800012005
:10370000ADF80A006420ADF80E000020ADF81000FE
:1037100002A9C148FEF703F90821BF48FEF74EFD94
:103720000121BD48FEF71AFD0121BB48FEF716FC3A
:1037300009B030BD704730B589B005460C4601214F
:1037400042F21000FDF7F0FD4020ADF80400182013
:103750008DF8070003208DF8060001A9AF48FDF79A
:1037600027FBADF81C50ADF818400020ADF81E0046
:10377000ADF81A0006A9AA48FEF794F802A8FEF7C9
:10378000C6FB6020ADF808000120ADF80A006420F7
:10379000ADF80E000020ADF8100002A9A048FEF719
:1037A000BEF808219E48FEF709FD01219C48FEF75E
:1037B000D5FC01219A48FEF7DDFB01219848FEF770
:1037C000CDFB09B030BD30B589B005460C460121AE
:1037D0000220FDF7B6FD01210920FDF7A5FD02201D
:1037E000ADF8200018208DF8230003208DF822006A
:1037F00008A98848FDF7DCFAADF81850ADF8144078
:103800000020ADF81A00ADF8160005A98548FEF7AE
:1038100049F86020ADF804000120ADF80600002052
:10382000ADF80C0001A97F48FEF753F908217D4847
:10383000FEF7E3FC01217B48FEF790FB09B030BDA9
:1038400030B589B005460C46012140F60400FDF76D
:103850006BFD4FF48070ADF8040018208DF8070060
:1038600003208DF8060001A96948FDF7A1FAADF81B
:103870001C50ADF818400020ADF81E00ADF81A003D
:1038800006A96948FEF70EF802A8FEF740FB602083
:10389000ADF808000120ADF80A000020ADF81000D6
:1038A00002A96148FEF73BF808215F48FEF786FC55
:1038B00001215D48FEF752FC01215B48FEF75AFBEF
:1038C00001215948FEF74AFB09B030BD2DE9F0410E
:1038D00003460D4616460021DFF850C19CFBF6F466
:1038E000002710E0B4F5803F08D301F1010C1FFA66
:1038F0008CF101F1010CB4FBFCF400E005E007F1F0
:10390000010C1FFA8CF7642FECDB00BFA0B24FF064
:10391000640C95FBFCFC0CFB00FC4FF064089CFB6A
:10392000F8FC1FFA8CF2062B6DD2DFE803F00316C9
:1039300022354859A0F1010CDFF8EC8008F12C0881
:10394000A8F800C0A8F1040CACF80010DFF8D8C04B
:103950000CF1340CACF8002056E0A0F1010C4FF053
:103960008048A8F82CC0C446ACF82810ACF8342025
:103970004AE0A0F1010CDFF8AC8008F12C08A8F8AF
:1039800000C0A8F1040CACF80010DFF898C00CF1EE
:10399000400CACF8002037E0A0F1010CDFF8788093
:1039A00008F12C08A8F800C0A8F1040CACF800102D
:1039B000DFF864C00CF1340CACF8002024E0A0F176
:1039C000010CDFF86C80A8F800C0A8F1040CACF87A
:1039D0000010DFF85CC00CF10C0CACF8002013E018
:1039E000A0F1010CDFF8388008F12C08A8F800C01D
:1039F000A8F1040CACF80010DFF824C00CF1380C6E
:103A0000ACF8002000E000BF00BFBDE8F08100007E
:103A100000080140000C0140000800400010014077
:103A20000034014000040040002C014000A24A0480
:103A30002C0C004000B587B001214FF40770FDF752
:103A400073FC4FF40040FDF7D3FBFC20ADF80400FD
:103A500000208DF8070001A93A48FDF7A9F90120D7
:103A6000ADF8040000208DF8070001A93648FDF7E5
:103A70009FF93F20ADF8040000208DF8070001A950
:103A80003248FDF795F93248FCF7E0FD002002903E
:103A90008DF80C008DF80D004FF46020049000208C
:103AA000059001208DF8180002A92948FCF7F5FDC2
:103AB00001212748FCF71DFE2548FCF73CFE00BF0E
:103AC0002348FCF73DFE0028FAD12148FCF742FECE
:103AD00000BF1F48FCF743FE0028FAD107B000BD25
:103AE00010B504460723012221461948FCF76DFE54
:103AF00001211748FCF73DFE00BF02211448FCF7E6
:103B0000A9FF0028F9D01248FCF7C6FE10BD2DE928
:103B1000F04107460C460025002608E03846FFF72E
:103B2000DFFF05440520FFF753FD701CC6B2A64217
:103B3000F4DBB5FBF4F080B2BDE8F08110B5FFF71F
:103B400079FF10BD00080140000C01400010014049
:103B500000240140014600BF704700BF674A128839
:103B600002F04002002AF9D0C2B2644B1B1D1A8039
:103B7000704710B592B00446012144F20400FDF7ED
:103B8000D3FB01210846FDF7C2FB01214804FDF7E4
:103B9000D8FB5A48FEF7C0FC4FF40070ADF8440063
:103BA00003208DF8460018208DF8470011A95448CD
:103BB000FDF7FEF84FF48060ADF8440004208DF866
:103BC000470011A94E48FDF7F3F825208DF8300085
:103BD00003208DF831008DF8320001208DF833007C
:103BE0000CA8FCF7CAFC0D940020ADF83800ADF825
:103BF0003A00ADF83C00ADF840000C20ADF83E00B6
:103C00000DA93E48FEF7CBFC012240F224413B487F
:103C1000FEF75DFD012240213848FEF77DFD0121C0
:103C20003648FEF748FD3748FCF738FF3348001D9B
:103C300001903548029000200390C8200490002095
:103C400005908020069000200790089009904FF47E
:103C500080500A9000200B9001A92A48FCF7C0FF71
:103C600001212848FCF7E7FF12B010BD10B504464B
:103C700000212046FCF7DFFFC8212046FCF7F0FFBB
:103C800001212046FCF7D7FF10BD70B505460E4652
:103C900000240CE000BF40211848FEF7E7FD002893
:103CA000F9D0295D1548FEF773FD601CC4B2B4421B
:103CB000F0DB00BF40211148FEF7D8FD0028F9D005
:103CC00070BD10B540F224410C48FEF7E5FDA0B1EF
:103CD0000A48FEF761FD0B48FCF7C4FFC0F1C800BD
:103CE0000A49088001200A49087040F2244103482B
:103CF000FEF7FCFD0348FFF7B9FF10BD0038014097
:103D000000080140580002405E00002034000020FE
:103D100036000020024600BF108900F00200002893
:103D2000FAD0918100BF108900F001000028FAD07C
:103D30009089C0B2704700B587B001210420FDF71B
:103D4000F3FA01210820FDF7EFFA01210846FDF7FB
:103D5000EBFA01210803FDF7E7FA00217E48FDF7A1
:103D600012FC01210846FDF7F4F801217B48FDF71C
:103D7000F0F83820ADF8180003208DF81A0018204C
:103D80008DF81B0006A97648FDF712F84FF40040A5
:103D9000ADF8180003208DF81A0010208DF81B00D4
:103DA00006A97048FDF704F84FF400416D48FDF78F
:103DB000AEF84FF48050ADF8180003208DF81A00CB
:103DC00010208DF81B0006A96648FCF7F1FF4FF4A0
:103DD00080516448FDF79BF84FF40060ADF818007F
:103DE00003208DF81A0010208DF81B0006A95D48ED
:103DF000FCF7DEFF4FF400615A48FDF788F82821F0
:103E00005748FDF782F80020ADF804004FF48270A7
:103E1000ADF806000020ADF808000220ADF80A0059
:103E20000120ADF80C004002ADF80E000020ADF806
:103E30001000ADF812000720ADF8140001A94648A3
:103E4000FDF7FCFA01214448FDF79DFBFF214248A4
:103E5000FFF760FF07B000BD70B50546002405E020
:103E6000601CC4B2C82C01DD002070BD02213E4898
:103E7000FDF70DFC0028F3D029463B48FDF7B4FBC5
:103E8000002405E0601CC4B2C82C01DD0020ECE772
:103E900001213548FDF7FBFB0028F3D03248FDF740
:103EA000A5FBC0B2E1E700B587B001210820FDF70E
:103EB0003BFA01218803FDF744FA4FF46040ADF866
:103EC000180018208DF81B0003208DF81A0006A991
:103ED0002348FCF76DFF4FF460412148FDF715F8CA
:103EE0000020ADF804004FF48270ADF80600002009
:103EF000ADF808000220ADF80A000120ADF80C0072
:103F00004002ADF80E001820ADF810000020ADF80A
:103F100012000720ADF8140001A91348FDF78EFA2E
:103F200001211148FDF72FFBFF20FFF795FF07B098
:103F300000BD10B504460C4800884FF6C771084014
:103F40000949088008460088204308800121064866
:103F5000FDF719FB10BD00000030014000023000E9
:103F6000000C0140000801400038004070477047D5
:103F7000704770477047754600F02CF8AE46050054
:103F80006946534620F00700854618B020B5FEF775
:103F9000C5FDBDE820404FF000064FF000074FF090
:103FA00000084FF0000B21F00701AC46ACE8C00957
:103FB000ACE8C009ACE8C009ACE8C0098D46704760
:103FC00010B50446AFF300802046BDE81040FCF772
:103FD000F6B80000004870472801002000000000EB
:103FE000000000000040000030C00100E0E00100DF
:103FF000C0E10000C061001880F1FF3F00700018B0
:10400000003E001804DA01181CEE0118386F601821
:1040100078F7FF1870318618B0190618800906184D
:1040200080058619C0FEFF1BC000061AC030661846
:10403000E070E6197C30E6187030E6186030E6185B
:1040400070F8FF1C7030E01C7000001C7000F01F46
:104050007000800F0000000700000000000000005A
:104060000000000000008000000EC00100FEFF0301
:10407000000EC001000EC001000EC00100FEFF01D5
:10408000000EC001000EC001000EC00100FEFF01C5
:10409000000EC001000640000000000030700C1847
:1040A000F0FFFC3F70700C1870700C1870700C18DA
:1040B00070700C18F07FFC1F70700C1870700C186A
:1040C00070700C1870700C1870700C18F07FFC1F5A
:1040D00070700C18100004000000000000000000C8
:1040E000000000000000300000007000001C7000A4
:1040F000FC1F7000008C7100208C7700E08C730432
:10410000F08E731E708EF31F708EFB0C708E7F0C02
:1041100070FE730C3086730C3086730C3096730C03
:10412000F8BF730C38F8730C00B8730C00B8F30FB9
:1041300000BE7306E09B73307E9873301C9813307A
:10414000089C0330009C0330008C0378E00FFF7F55
:1041500080070000000300000000000080008000D5
:104160008000FC1F40004000FF7F20001000F00F87
:104170000008000460028001000200040001040243
:104180000800E83F0102020202020802C83F0402DE
:104190000702040204020402F47F00000000F80F8A
:1041A00008080808F80F08080808F80F200222225B
:1041B00024222812280A2002FF7F00000000FC1F92
:1041C0000000000000000000FF7F800080008808E1
:1041D0008810842082408140A00040004000800080
:1041E0008000FF7F200020002000E00F2008200832
:1041F0002008100810080808040502028000FE3F8D
:1042000002202000FF7F10047802C0033C1C8000C5
:10421000FF7FA00290048C1883608000FFFFFFFFE7
:10422000FFFFFFFFFFFFFFFFFFFFFFFFFFFFFFFF9E
:10423000FFFFFFFFFFFFFFFFBEF77DEFBAD6B6B56A
:10424000F39CB294B39CB29434A5F7BDFBDE7DEF32
:10425000FFFFFFFFFFFFFFFFFFFFFFFFFFFFFFFF6E
:10426000FFFFFFFFFFFFFFFFFFFFFFFFFFFFFFFF5E
:10427000FFFFFFFFFFFFFFFFFFFFFFFFFFFFFFFF4E
:10428000FFFFFFFFBEF7FBDEF39CCB5AC7390421CB
:10429000821042104210410883184529C7390C6327
:1042A00075AD3CE7BEF7FFFFFFFFFFFFFFFFFFFF1E
:1042B000FFFFFFFFFFFFFFFFFFFFFFFFFFFFFFFF0E
:1042C000FFFFFFFFFFFFFFFFFFFFFFFFFFFFFFFFFE
:1042D000FFFF3CE7B2940842C3188210042145292D
:1042E0008631863186318631452904218210410884
:1042F000C3180842F39C3CE7FFFFFFFFFFFFFFFFEF
:10430000FFFFFFFFFFFFFFFFFFFFFFFFFFFFFFFFBD
:10431000FFFFFFFFFFFFFFFFFFFFFFFFFFFFFFFFAD
:10432000FBDE0C63C318C3184529C739084208428D
:104330000842084208420842C739C73986318631E7
:10434000042141088210CB5ABAD6FFFFFFFFFFFFBE
:10435000FFFFFFFFFFFFFFFFFFFFFFFFFFFFFFFF6D
:10436000FFFFFFFFFFFFFFFFFFFFFFFFFFFFFBDE82
:10437000CB5A82104529C73908420842094A494A9E
:10438000494A494A494A494A0842C739C739C73997
:104390008631452983180000C84138C6FFFFFFFF5A
:1043A000FFFFFFFFFFFFFFFFFFFFFFFFFFFFFFFF1D
:1043B000FFFFFFFFFFFFFFFFFFFFFFFF7DEF8E739C
:1043C00082104529C7390842094A8A523084CF7B76
:1043D0008A52494A4A52494ACB5ACF7B0C63084217
:1043E000C73986314529C3180000494ABAD6FFFFAC
:1043F000FFFFFFFFFFFFFFFFFFFFFFFFFFFFFFFFCD
:10440000FFFFFFFFFFFFFFFFFFFFFFFFF39CC3184E
:104410000421C7390842494A494A72947DEF7DEF29
:10442000B2944A52494A8A5275ADBEF7BAD64D6B1C
:10443000C739C73986314529C3184108CF7B7CE786
:10444000FFFFFFFFFFFFFFFFFFFFFFFFFFFFFFFF7C
:10445000FFFFFFFFFFFFFFFFFFFFBAD608428210FA
:10446000C7390842494A494A8E73FBDEFFFFBEF74F
:10447000BAD68E73084230843CE77DEFFFFFB6B5B5
:10448000494AC73986314529042141084529B6B52D
:10449000FFFFFFFFFFFFFFFFFFFFFFFFFFFFFFFF2C
:1044A000FFFFFFFFFFFFFFFFBEF7718C41084529AB
:1044B0000842494A494A4A52B294BEF7BEF7B294FA
:1044C000CF7BCF7B494AB6B5F39C0C6338C6BAD6CE
:1044D0000C638739C73986314529C31841083084B0
:1044E0007DEFFFFFFFFFFFFFFFFFFFFFFFFFFFFF6E
:1044F000FFFFFFFFFFFFFFFF3CE7CB5A4108C73933
:104500000842494A4A528A52F39CFFFF7DEFC7395D
:10451000C3180C63CB5AB6B5B294CB5A75ADFAD664
:104520004D6B8739C73986314529042141088A52A4
:1045300079CEFFFFFFFFFFFFFFFFFFFFFFFFFFFF42
:10454000FFFFFFFFFFFFFFFF38C686310421C84190
:10455000494A494A4A52494AB18CBEF7BEF7B29419
:10456000CF7BCF7B494A74A57DEF7CE7BEF779CE40
:104570000C63C739C7398631452904218210452982
:1045800075ADBEF7FFFFFFFFFFFFFFFFFFFFFFFF60
:10459000FFFFFFFFFFFFFFFF34A5821086310842B7
:1045A000494A494A8A52494A4D6BBAD6FFFFFFFF32
:1045B00079CE0D63C739CF7B7DEFFFFFFFFF75AD70
:1045C00008428631C739863145294529C318C318A1
:1045D000B2947DEFFFFFFFFFFFFFFFFFFFFFFFFF35
:1045E000FFFFFFFFFFFFBEF7B28C4108C73908424B
:1045F000494A494A8A528A524A4AD07B7AC67BBE85
:10460000906BC9398831C939B384BBC6F8B5CC5A67
:104610008631C739C739863145294529C420410823
:1046200030843CE7FFFFFFFFFFFFFFFFFFFFFFFFBF
:10463000FFFFFFFFFFFF3CE78A4AC310C73908426C
:10464000494A494A4A4A4A42093A084A096B497B57
:10465000C67A05834683C57AC672097B485A873174
:104660008821882986318631452945290421410838
:104670004A4ABAD6FFFFFFFFFFFFFFFFFFFFFFFF22
:10468000FFFFFFFFFFFFF7C582500541C729084222
:10469000494A4A42494A097B889BC6B321D4A0DCD7
:1046A000E1E461ED61ED21EDA0E420DC80CB43ABE2
:1046B000C482065A47214629452904290419821033
:1046C0008218F39C7DEFFFFFFFFFFFFFFFFFFFFF5F
:1046D000FFFFFFFF7DEF4D9300A082B8C731093285
:1046E000494A867A43C36BEDF4F6EBFD20FD20FDCD
:1046F00060FDA0FDA0FD60FD60FD20FDE0FCA0FCD4
:1047000060F4C1DB839AC54945290419C420823865
:104710000050CB6ABAD6FFFFFFFFFFFFFFFFFFFF8E
:10472000FFFFFFFFFBEE04A100C000F0C3A0C841E3
:104730004942059B20FCA4FC69FDE8FD63FD20FDCA
:1047400060FD60FD60FD20FD20FDE0FCE0FCA0FCC4
:1047500060FC20FC41D3C5494519C43882684188B2
:104760000070495A79CEFFFFFFFFFFFFFFFFFFFFF9
:10477000FFFFFFFFFBF682C000D086C146F141C8B3
:10478000457989528862866AC67AC4BBE1FC60FDBD
:1047900060FDA0FDA0FD60FD60FDE0FC60E4039312
:1047A0008472446AC5414529C35841A8409800B065
:1047B00000600C6B79CEFFFFFFFFFFFFFFFFFFFFE5
:1047C000FFFF7DEFCE83828800F8C4D80CF38AFA0D
:1047D00082E882B04569C7510842083A865A839BED
:1047E000A2BC22CD21CDA1C422B4C47A063A862926
:1047F00045290531C450419000C000A800A000A880
:1048000000304A4ABAD6FFFFFFFFFFFFFFFFFFFF5E
:104810007DEF8E73C318053982A800F8C3F84DFBED
:104820004DFBC7F9C3F082D8C3B00481456146513E
:10483000864986494641454145414541054904610E
:10484000829041B000D000C800A800A800B841582C
:1048500082108210B294BEF7FFFFFFFFFFFFBEF78A
:10486000CF7B8210042186298641049940E841F8D3
:1048700086F9CBFA49FA82F800F800F000E841D84E
:1048800041D041C041C041C041C041C800D000E05A
:1048900000E000D800D000B800A84188824882100B
:1048A00082100000452979CEFFFFFFFFBEF7F39C81
:1048B0008210C31845298631C731307CF3DC86E18C
:1048C00000F000F841F841F800F800F800F800F8AE
:1048D00000F800F800F800F800F800F800E800E040
:1048E00000E000D800C841A08A9A0C63041182102D
:1048F0008210410800004D6B7DEFFFFFFBDE084298
:104900004210452986318631494A38BEFFFF38D6E4
:1049100086A900C800E000F000F800F800F800F8F0
:1049200000F800F800F800F800F000F000E800E0FF
:1049300000D0C3988A8AB2A4BAC6F7B50842410823
:104940008210410800004529F7BDFFFF718C410826
:1049500004214529863186310C633CE7FFFF79D677
:1049600046B900E042C882A882B041D882E882F00D
:1049700041E841E841E841F041E841D804C10892EA
:104980004D8B34A5FBC6FBD6BACE3CE73084C318AA
:104990004108410800004108CF7B7DEF494A0000F3
:1049A00004214529463186313084FFFFFFF7F7DDCA
:1049B00009DA83F801F042C08298499AF3B4F3CC43
:1049C00071BC8EBB8EBB30BC71BCF3BCB6BDFBCE24
:1049D000BEE77DE73BDFBAD679CEFBDE75AD86312B
:1049E0004108410800000000494AFBDE042141085B
:1049F0000421452945298739B294FFFFBEF734DDEC
:104A00000CEB09FA00F001D800D88BD27DE7FFFF4C
:104A1000FFFFFFFFFFFFFFFFFFFFFFFFFFFFBEFFE7
:104A20007DEFFBDEFBDEBAD679CEBAD678C6C739C3
:104A30000000410800000000C73979CE0000821054
:104A4000C318042105298631B39CFFFFFFF775DDEC
:104A5000C7E9C7F901F801F000E849E2FBEEFFFF02
:104A6000FFFFFFFFFFFFFFFFFFFFFFFFFFFFBEF79F
:104A70007DEFFBDEFBDEBAD679CEBAD6B9CE0842E0
:104A80000000000000000000C73938C60000821096
:104A900082100421042145293084FFFFFFFF38DE06
:104AA000C4D000F001F800F800F008D2FBE6FFFFE8
:104AB000FFFFFFFFFFFFFFFFFFFFFFFFFFFFBEF74F
:104AC0007DEFFBDEBAD679CE79CEBAD679CEC739AC
:104AD0004108000000000000863138C600000000D8
:104AE000C318CB5A8631C318CB5A7DEFFFFF7DEF39
:104AF000CFBBC3B041D041D082B84DB37DE7FFFFFB
:104B0000FFFFFFFFFFFFFFFFFFFFFFFFBEF7BEF747
:104B10003DEFFBDEBAD679CE79CEFAD6F7BD0421C9
:104B20008631042100000000863138C68631C31862
:104B3000CB5A75ADCF7B41088631F7BDFFFFFFFF34
:104B4000BEEF74B5309C309C72A4BBD6FFFFFFFF54
:104B5000FFFFFFFFFFFFFFFFFFFFFFFFBEF77DEF40
:104B60003CE7FBDEBAD679CE79CE3CE7718C810882
:104B70000C63CF7B821000008A5238C675AD718CF1
:104B8000B6B53CE7FBDEC7390000CF73FFFFFFFF80
:104B9000FFFFFFFFFFFFFFFFFFFFFFFFFFFFFFFF25
:104BA000FFFFFFFFFFFFFFFFFFFFBEF77DEF7DEF82
:104BB0003BDFFAD679CE79CEFBDEB9CEC739C42039
:104BC000718CBAD6718CCB5AB294BAD6FFFF7DEFF6
:104BD0007DEFFFFFFFFFB6B54629051975A5FFFF5D
:104BE000FFFFFFFFFFFFFFFFFFFFFFFFFFFFFFFFD5
:104BF000FFFFFFFFFFFFFFFFFFFFBEF77DEF3CE77B
:104C0000FBDEBAD679CEBAD6FCDE4E6342080C6320
:104C1000F7BDBEF7FFFFFBDEFBDEBEF7FFFFFFFFCA
:104C2000FFFFFFFFFFFFFFFFF49C04210521B6A556
:104C3000FFFFFFFFFFFFFFFFFFFFFFFFFFFFFFFF84
:104C4000FFFFFFFFFFFFBEF7BEF77DEF3CE7FBDE98
:104C5000BAD679CEFBDEBBD6D17383188639349DA4
:104C6000BDEFFFFFFFFFFFFFFFFFFFFFFFFFFFFFA6
:104C7000FFFFFFFFBEFF35D6EBCC43B34051051914
:104C8000F58CBEEFFFFFFFFFFFFFFFFFFFFFFFFF02
:104C9000FFFFBEF7BEF77DEF7DEF3CE7FBDEBADE40
:104CA000BAD63CDF3ABE4F63824940A323B4CC83DB
:104CB0003ABEFFFFFFFFFFFFFFFFFFFFFFFFFFFF0A
:104CC000FFFFBFF7B5BD829220F4A0FC60E44082F4
:104CD00084418F6B77AD3DE7FFFFFFFFFEFFBEF71F
:104CE000BEF7BEF77DEF7DEF3CE7FBDEFBDE3DE789
:104CF000BBCE369D0B6B416A60C420FE60F5008B15
:104D0000C76A38C6BEF7FFFFFFFFFFFFFFFFFFFFC9
:104D1000FFFF7DEF4B7B80B2A0FCA0FCE0FCE0FC41
:104D2000C0CBC18A45624D6BB394F7BD3DDFFFF741
:104D3000FFFFBEF77DEF7DEF7DE73DDFBAC675A5CE
:104D40008D7B847A40B3E0ECE0FDE0FD60F520E58A
:104D5000A0D40A6BFBDEFFFFFFFFFFFFFFFFFFFF9B
:104D6000FFFF7DEFCC9340EB60FCA0FCE0FC20FD5E
:104D700060FD20F5A0D4C0BB429B458B6B9CAE9CD4
:104D8000718CB394339D34A5F2A4F0B4CA9B049BF8
:104D900040BB20E420FDA0FDA0FDE0FDE0FDE0FD26
:104DA00020C4885A38BEFFFFFFFFFFFFFFFFFFFF51
:104DB000FFFFFFFF78D646AB40DB20F460FCA0FC91
:104DC000E0FC60FDA0FD60FD20F5A0DCC0B3C0519B
:104DD00086290D638F7B0D5BC741018200C3C0E351
:104DE00060FCA0FCE0FCE0FC60F560F520E5809B49
:104DF0008662308479CEFFFFFFFFFFFFFFFFFFFFDA
:104E0000FFFFFFFFFFFF38C62D9C059343A382B32E
:104E1000C2BBC2BB22B482A34293C37A85620B6336
:104E20007184B6B579CE79C6B5AD70944A8B0683D8
:104E30000493049B439B439B4393048308738D73A8
:104E4000B39479CE7DEFFFFFFFFFFFFFFFFFFFFF72
:104E5000FFFFFFFFFFFFFFFF3CDF38BE75B533A547
:104E600033A5F39CF39CF39CF394F39C35A5F8BD18
:104E7000FBDEBEF7FFFFFFFFFFFF7EEFBBD6F8BDF7
:104E8000B6AD75AD34A5339D349D35A5B7AD79C6A6
:104E90003CE7BEF7FFFFFFFFFFFFFFFF0000000042
:104EA0000000000000000000000000003F40000083
:104EB0000000000000003000400030004000000012
:104EC00009000BC03D000BC03D00090018C0244084
:104ED0007FE0224031800000180024C01B000D80BC
:104EE0003240018003801C4027401C800740004066
:104EF0001000600000000000000000000000000042
:104F000000001F80204040200000402020401F80E3
:104F100000000000090006001F80060009000000D4
:104F2000040004003F800400040000000010006042
:104F30000000000000000000040004000400040061
:104F4000040000000000004000000000000000001D
:104F5000002001C006003800400000001F802040F3
:104F6000204020401F800000000010403FC0004053
:104F70000000000018C021402240244018400000DA
:104F800010802040244024401B80000002000D00BF
:104F900011003FC0014000003C80244024402440D8
:104FA000238000001F802440244034400380000000
:104FB0003000200027C03800200000001B80244063
:104FC000244024401B8000001C0022C022402240BC
:104FD0001F800000000000000840000000000000EA
:104FE0000000000004600000000000000000040059
:104FF0000A00110020804040090009000900090052
:105000000900000000004040208011000A00040058
:105010001800200023402400180000001F802040BA
:10502000274029401F400000004007C039000F0002
:1050300001C0004020403FC0244024401B800000AD
:105040001F802040204020403080000020403FC092
:10505000204020401F80000020403FC024402E40C0
:1050600030C0000020403FC024402E00300000002F
:105070000F001080204022403380020020403FC0BB
:10508000040004003FC02040204020403FC020409A
:10509000204000000060202020203FC02000200091
:1050A00020403FC024400B0030C0204020403FC083
:1050B00020400040004000C03FC03C0003C03C0016
:1050C0003FC0000020403FC00C4023003FC02000F4
:1050D0001F802040204020401F80000020403FC013
:1050E00024402400180000001F802140214020E0BF
:1050F0001FA0000020403FC02440260019C00040EF
:1051000018C024402440224031800000300020405C
:105110003FC020403000000020003F8000400040A1
:105120003F80200020003E0001C007003800200022
:10513000380007C03C0007C038000000204039C0DC
:10514000060039C0204000002000384007C0384029
:1051500020000000304021C02640384020C0000020
:10516000000000007FE040204020000000007000B0
:105170000C000380004000000000402040207FE041
:10518000000000000000200040002000000000009F
:1051900000100010001000100010001000000000AF
:1051A00040000000000000000000028005400540B3
:1051B00003C0004020003FC00440044003800000C2
:1051C000000003800440044006400000000003800B
:1051D000044024403FC000400000038005400540DB
:1051E00003400000000004401FC024402440200071
:1051F000000002E0055005500650042020403FC04A
:105200000440040003C000400000044027C00040E8
:105210000000000000100010041027E00000000053
:1052200020403FC00140070004C00440204020400F
:105230003FC000400040000007C0040007C0040059
:1052400003C00000044007C00440040003C0004045
:10525000000003800440044003800000041007F0B5
:105260000450044003800000000003800440045008
:1052700007F00010044007C00240040004000000D2
:10528000000006400540054004C000000000040086
:105290001F800440004000000400078000400440DC
:1052A00007C000400400070004C00180060004009D
:1052B000060001C0070001C006000000044006C04F
:1052C000010006C0044000000410071004E0018043
:1052D000060004000000044005C006400440000031
:1052E0000000000004007BE04020000000000000FF
:1052F0000000FFF000000000000040207BE0040000
:10530000000000004000800040002000200040001D
:10531000000000000000000000000000000000008D
:105320000000000000001FCC000C00000000000086
:10533000000008003000600008003000600000003D
:10534000022003FC1E20022003FC1E20022000007D
:1053500000000E1811043FFF10840C7800000000BC
:105360000F0010840F3800C0077818840078000000
:1053700000780F8410C411240E9800E40084000803
:10538000080068007000000000000000000000003D
:1053900000000000000007E0181820044002000090
:1053A000000040022004181807E000000000000080
:1053B0000240024001800FF00180024002400000E4
:1053C0000080008000800FF80080008000800000D6
:1053D0000001000D000E00000000000000000000B1
:1053E000000000800080008000800080008000803D
:1053F0000000000C000C0000000000000000000095
:10540000000000060018006001800600180020005F
:10541000000007F0080810041004080807F0000056
:105420000000080408041FFC000400040000000041
:1054300000000E0C10141024104411840E0C0000F7
:1054400000000C1810041104110412880C700000E4
:10545000000000E00320042408241FFC00240000B6
:1054600000001F98108411041104108810700000AF
:10547000000007F00888110411041888007000006B
:1054800000001C00100010FC13001C0010000000A5
:1054900000000E3811441084108411440E380000AE
:1054A00000000700088C10441044088807F0000032
:1054B000000000000000030C030C000000000000CE
:1054C00000000000000101060000000000000000D4
:1054D00000000080014002200410080810040000B1
:1054E00002200220022002200220022002200000CE
:1054F0000000100408080410022001400080000091
:1055000000000E001200100C106C10800F00000044
:1055100003E00C1813E4142417C4082807D0000073
:105520000004003C03C41C40074000E4001C0004CD
:1055300010041FFC1104110411040E8800700000F7
:1055400003E00C1810041004100410081C100000D4
:1055500010041FFC100410041004080807F00000D9
:1055600010041FFC1104110417C4100408180000D3
:1055700010041FFC1104110017C0100008000000E7
:1055800003E00C181004100410441C7800400000C4
:1055900010041FFC10840080008010841FFC100485
:1055A0000000100410041FFC100410040000000090
:1055B00000030001100110011FFE10001000000088
:1055C00010041FFC110403801464181C1004000054
:1055D00010041FFC1004000400040004000C000070
:1055E00010041FFC1F0000FC1F001FFC1004000023
:1055F00010041FFC0C04030000E010181FFC100036
:1056000007F00808100410041004080807F0000050
:1056100010041FFC10841080108010800F00000008
:1056200007F0081810241024101C080A07F20000C4
:1056300010041FFC1104110011C011300E0C0004E5
:1056400000000E1C11041084108410441C3800004B
:105650001800100010041FFC1004100018000000B7
:1056600010001FF810040004000410041FF81000BC
:1056700010001E0011E0001C007013801C001000C0
:105680001FC0103C00E01F0000E0103C1FC00000E5
:105690001004180C163401C001C01634180C100484
:1056A00010001C00130400FC13041C001000000078
:1056B0000804101C1064108413041C04101800004B
:1056C0000000000000007FFE400240024002000097
:1056D000000030000C0003800060001C000300008C
:1056E00000004002400240027FFE00000000000077
:1056F00000000000200040004000400020000000AA
:105700000001000100010001000100010001000191
:1057100000004000400020000000000000000000E9
:1057200000000098012401440144014400FC0004ED
:1057300010001FFC008801040104008800700000B4
:1057400000000070008801040104010400880000CA
:105750000000007000880104010411081FFC00040F
:10576000000000F8014401440144014400C8000065
:105770000000010401040FFC1104110411001800C1
:10578000000000D601290129012901C901060000F4
:1057900010041FFC008401000100010400FC00044F
:1057A00000000104190419FC0004000400000000BA
:1057B0000000000300010101190119FE00000000B2
:1057C00010041FFC0024004001B4010C010400007F
:1057D0000000100410041FFC00040004000000007E
:1057E000010401FC0104010001FC0104010000FCB2
:1057F000010401FC008401000100010400FC00041C
:10580000000000F8010401040104010400F8000094
:10581000010101FF008501040104008800700000FF
:1058200000000070008801040104010501FF00016F
:105830000104010401FC0084010401000180000056
:10584000000000CC0124012401240124019800005F
:1058500000000100010007F801040104000000003D
:10586000010001F8000400040004010801FC000428
:10587000010001800170000C001001600180010036
:1058800001F0010C003001C00030010C01F00100FA
:1058900000000104018C00740170018C01040000FF
:1058A000010101810171000E0018016001800100F9
:1058B00000000184010C013401440184010C00004A
:1058C000000000000000000001003EFC4002400219
:1058D0000000000000000000FFFF000000000000CA
:1058E0000000400240023EFC0100000000000000F9
:1058F0000000600080008000400040002000200088
:1059000020590008000000203C0000006C01000845
:105910005C5900083C0000204C070000880100088A
:10592000010203040000000000010203040102035D
:1059300004060708090204060800000000A24A0441
:10594000000000000000000001020304060708092F
:0C5950000000FFFF00000000000000004D
:0400000508000131BD
:00000001FF
